S02A000050726F6772616D6D65207072696E636970616C20726F626F7420746F6E64657573652E73726563A1
S1130000FAC0000018C1000016C1000014C10000AD
S113001012C1000010C100000EC100000CC100009C
S11300200AC1000008C10000BCC2000004C10000F5
S113003002C1000000C10000FEC00000FCC00000BE
S1130040FAC00000F8C00000F6C00000F4C00000D0
S1130050F2C0000066C20000EEC00000ECC0000068
S1130060EAC000000C941C090C94E708E4C00000EA
S1130070E2C00000DEC20000DEC00000DCC0000000
S1130080DAC00000D8C00000D6C00000D4C0000010
S11300900C94210A0C94EC09CEC00000CCC00000E2
S11300A0CAC00000C8C00000C6C00000C4C0000030
S11300B0C2C00000C0C00000BEC00000BCC0000040
S11300C0BAC00000B8C00000B6C000000C940D0B0C
S11300D00C94DE0AB0C00000AEC00000ACC000004A
S11300E0AAC00000750C880C9B0CC10CFC0C0D0DF7
S11300F0200D490D6E616E00696E660000407A1035
S1130100F35A00A0724E18090010A5D4E80000E8C4
S11301107648170000E40B54020000CA9A3B000022
S113012000E1F505000080969800000040420F00B1
S11301300000A08601000000102700000000E80372
S1130140000000006400000000000A00000000003D
S11301500100000000002C76D888DC674F0823DFFC
S1130160C1DFAE59E1B1B796E5E3E453C63AE651CF
S1130170997696E8E6C28426EB898C9B62ED407CF6
S11301806FFCEFBC9C9F40F2BAA56FA5F490055A92
S11301902AF75C936B6CF9676DC11BFCE0E40D47B7
S11301A0FEF520E6B500D0ED902E030094357705DA
S11301B00080841E080000204E0A000000C80C3392
S11301C03333330F986E12831141EF8D2114893B21
S11301D0E65516CFFEE6DB18D1844B381BF77C1DA1
S11301E0901DA4BBE424203284725E228100C9F1F4
S11301F024ECA1E53D2711241FBECFEFD1E2DEBFE1
S1130200CDBF00E00CBF12E0A0E0B2E0E4E9FDE203
S113021000E00BBF02C007900D92AE3BB107D9F7C7
S11302202BE0AEEBB2E001C01D92A434B207E1F7BB
S113023084D30C94C816E4CE662321F098B194605C
S113024098B903C098B19B7F98B998B1906898B950
S113025080FF04C098B1986098B903C098B1977FA3
S113026098B981FF04C098B1906198B903C098B15E
S11302709F7E98B982FF04C098B1906298B903C078
S113028098B19F7D98B983FF04C088B1806488B910
S113029003C088B18F7B88B985E08A95F1F70000A7
S11302A088B18F7788B985E08A95F1F700000895C1
S11302B0CF93DF93C82FD62F82958F70BDDF6D2F1C
S11302C08C2FBADF85ED8A95F1F70000DF91CF918D
S11302D0089587B1846087B987B1806887B987B189
S11302E0886087B987B1806187B987B1806287B92F
S11302F087B1806487B92FEF89EF90E02150804067
S11303009040E1F700C0000060E083E095DF8FE1FA
S11303109EE40197F1F700C0000060E083E08CDF09
S11303208FE99FE00197F1F700C0000060E083E0EF
S113033083DF8FE99FE00197F1F700C0000060E0E0
S113034082E07ADF8FE99FE00197F1F700C00000B7
S113035060E088E2ADDF60E088E0AADF60E081E091
S1130360A7DF8FE39FE10197F1F700C0000060E091
S113037086E09EDF60E08FE09BCF089561E098CF38
S113038008950F931F93CF938C01C0E002C0F6DF52
S1130390CF5FF801EC0FF11D8081882311F0CF3F6E
S11303A0B1F7CF911F910F910895611102C090E8A8
S11303B001C090EC8F7060E0892B7ACF089560E0E3
S11303C081E076DF8FE39FE10197F1F700C0000041
S11303D008959091C8029130B1F030F0923021F13B
S11303E0933009F445C095C0893509F092C0109244
S11303F0C5021092C60291E09093C7028093310324
S11304009093C80286C0893509F083C0E091C70281
S113041091E09E0F9093C702F0E0EF5CFC4F808365
S113042082E08093C80275C09091C602993058F456
S1130430E091C70291E09E0F9093C702F0E0EF5C59
S1130440FC4F808303C083E08093C8028091C6027E
S11304508F5F8093C6025DC0E82FF0E0EF5CFC4F35
S113046090812091C502920F9093C5028F5F01C0C5
S113047080E0883088F3909139038091C502981305
S11304803DC081E08093C40220E00BC0822F90E045
S1130490FC01EF5CFC4F3081FC01E85DFC4F3083D4
S11304A02F5F293098F3E8E2F3E02281838190E022
S11304B0982F8827820F911D9093C3028093C202C4
S11304C02481858190E0982F8827820F911D909335
S11304D0C1028093C0022681878190E0982F8827EB
S11304E0820F911D969587959695879596958795F4
S11304F09A959093BF028093BE0202C01092C402E8
S113050089E0E1E3F3E0DF011D928A95E9F71092B7
S1130510C8028091C40208958091C2029091C302DE
S113052008951F920F920FB60F9211242F938F9359
S11305309F938091CD028F5F8093CD028091CB02F7
S11305409091CC0201969093CC028093CB0280913F
S1130550CD02843650F08091CD0284568093CD0232
S113056081E0809300028093CA028091CB02909133
S1130570CC02843F914068F08091CB029091CC02F0
S1130580845F91409093CC028093CB0281E080936E
S1130590C9029F918F912F910F900FBE0F901F90C2
S11305A018951F920F920FB60F9211240BB60F924B
S11305B08F939F93EF93FF938091030183FD10C06A
S11305C08091E90283FF0CC08091E4029091E502DE
S11305D001969093E5028093E40281E08093050202
S11305E0E3E0F1E0808188708093E902808184FDFA
S11305F010C08091E80284FF0CC08091E6029091C3
S1130600E70201969093E7028093E60281E08093EB
S113061005028091030180718093E802FF91EF91BC
S11306209F918F910F900BBE0F900FBE0F901F9054
S113063018951F920F920FB60F9211240BB60F92BA
S11306402F933F938F939F93EF93FF932091780081
S1130650309179003093DF022093DE0280917B0099
S1130660882319F081E090E002C080E090E0880FD8
S1130670991F82959295907F9827807F98279091D3
S11306807C009F71892B8093DD02813051F028F02A
S1130690823081F08032E1F023C081E480937C00D9
S11306A01FC032503093E3022093E20282E480932D
S11306B07C0016C032503093E1022093E00280E4C3
S11306C080937C00EBE7F0E080818860808308C041
S11306D080E480937C00EBE7F0E08081877F808377
S11306E0EAE7F0E0808180648083FF91EF919F913D
S11306F08F913F912F910F900BBE0F900FBE0F90D3
S11307001F901895ECE7F0E0808180648083EAE72D
S1130710F0E080818C688083EEE7F0E08081866081
S11307208083EDE7F0E08081816080837894089590
S1130730E1E0F1E08081806380833BEA3093A000B4
S113074029E12093A10080E094E09093A900809394
S1130750A80046E450E05093AB004093AA001092E6
S1130760AD001092AC00EAE0F1E0408140634083C8
S11307703093200120932101909329018093280133
S11307806AE570E070932B0160932A0110922D01A9
S113079010922C0144B1406444B9309380002093FA
S11307A08100909389008093880070938B006093FC
S11307B08A0010928D0010928C000895019B08C04D
S11307C0009B08C0039B08C0029B08C080E00895FA
S11307D081E3089582E3089583E3089584E308950B
S11307E080910002882309F4A7C01092000280912E
S11307F0E0029091E10299230CF053C09195819508
S113080091099093E1028093E0022091E2023091F9
S1130810E3021216130664F4AC01421B530B50930B
S1130820DC024093DB029093DA028093D9020AC07F
S1130830280F391F3093DA022093D9029093DC02F7
S11308408093DB028091D9029091DA02992324F4F7
S11308501092DA021092D9028091DB029091DC02AC
S1130860992324F41092DC021092DB021092AB0064
S11308701092AA008091DB029091DC029E5F90931B
S11308802B0180932A018091D9029091DA029E5F14
S11308909093AD008093AC0010922D0110922C0126
S11308A008952091E2023091E3021216130664F4D3
S11308B0AC01421B530B5093DC024093DB02909338
S11308C0DA028093D9020AC0280F391F3093DA0262
S11308D02093D9029093DC028093DB028091D902A9
S11308E09091DA02992324F41092DA021092D90238
S11308F08091DB029091DC02992324F41092DC02B3
S11309001092DB028091D9029091DA029E5F90935B
S1130910AB008093AA0010922B0110922A0110922E
S1130920AD001092AC008091DB029091DC029E5FDE
S113093090932D0180932C010895CBDC82B18F60BC
S113094082B92FEF81EE94E0215080409040E1F78E
S113095000C0000085E192E014DD61E080E025DD67
S1130960D1DEE6DEEAE7F0E080818064808385B54D
S1130970836085BD84B5826084BDEEE6F0E080814D
S11309808260808389EF87BDE5E0F1E08081886142
S11309908083E8E6F0E0808182608083ECE6F0E02A
S11309A080818063808320E034E244EF50E060E0A3
S11309B072EC81E090E0AED320E034E244EF50E00A
S11309C060E875E280E090E08ED420E034E244EF09
S11309D050E060E072EC81E090E080D560E875E280
S11309E080E090E00E94FA0D81E00E943C0E41E01C
S11309F061E087E00E94730E6EE086E092E0D0D45E
S1130A008091CA02882309F446C01092CA02D6DE35
S1130A108093D802882309F43AC08091D7028111C7
S1130A2036C061E08091D602C0DCE091D60281E05C
S1130A308E0F8093D602F0E08091D802ED50FA4FE9
S1130A4080839CDC8091D602843009F51DC08C2FF4
S1130A5090E0FC01ED50FA4F2081FC01EF5FFD4F67
S1130A608081281304C081E08093D5020BC0A7DCE9
S1130A7085E292E086DC61E080E097DC1092D602A9
S1130A801092D502CF5F01C0C0E0C43000F3809162
S1130A90D8028093D7028091D502882309F4B0CF7D
S1130AA01092D5028CDC60E080E07FDC86E392E08B
S1130AB068DC8091CA02882309F48EC01092CA02AD
S1130AC07DDE8093D802882309F482C08091D70206
S1130AD081117EC074DC60E080E067DC8091D80224
S1130AE0823349F118F4813331F043C0833379F10F
S1130AF08433C1F13EC08091D3028093D40281112A
S1130B0003C01092CE0213C0813019F48093CE0238
S1130B100EC0823019F48093CE0209C0833019F4D8
S1130B208093CE0204C0843011F48093CE0281E01D
S1130B308093D2021EC08091D302882321F0815079
S1130B408093D30216C084E08093D30212C08091B4
S1130B50D302843020F48F5F8093D3020AC01092B2
S1130B60D30207C08091D4028093D30281E08093A2
S1130B70D2028091D302811104C086E492E001DCA8
S1130B8017C0813021F483E592E0FBDB11C0823091
S1130B9021F480E692E0F5DB0BC0833021F48DE68E
S1130BA092E0EFDB05C0843019F48AE792E0E9DBD8
S1130BB08091D202882361F01092D2021092D10265
S1130BC01092D50260E08DE0F0DB83E492E0D9DBA3
S1130BD08091D8028093D7028091CE02823009F4AA
S1130BE07EC030F4882359F0813009F441C061CFCC
S1130BF0833009F4CFC0843009F431C25ACFF0DD18
S1130C0050D6813351F480E094E090938B0080932C
S1130C108A0084B1806484B909C08AE590E0909325
S1130C208B0080938A0084B18F7B84B98091C90240
S1130C30882341F01092C90261E080E0B6DB8BE0CA
S1130C4096E09FDB85D4882309F433CF84D4809342
S1130C50ED020ED5882309F42CCF19D69093E30224
S1130C608093E20219D69093E1028093E00221CFAF
S1130C706FD4882369F16FD48093ED0270D58823F3
S1130C8039F1C091EC0281E08C0F8093EC02D0E04A
S1130C9014D6CC0FDD1FCC0FDD1FC65CDC4F688380
S1130CA079838A839B83C091EB0281E08C0F8093CC
S1130CB0EB02D0E0F9D5CC0FDD1FCC0FDD1FC558FA
S1130CC0DB4F688379838A839B8387E892E05DD4D2
S1130CD061E080E06ADB8BE096E053DBEACE809152
S1130CE0C902882341F01092C90261E080E05DDB13
S1130CF08BE096E046DB48D28823C9F048D2809343
S1130D00EA0267DB882399F007DC9F938F9383EAD9
S1130D1092E09F938F9387EF95E09F938F930E9428
S1130D203C160F900F900F900F900F900F9015D3CB
S1130D30882309F4BECE14D380931F06C7D5882315
S1130D4009F4B7CE25D79F938F937F936F93CEE803
S1130D50D2E0DF93CF938BEC95E09F938F930E9427
S1130D603C1623D79F938F937F936F93DF93CF93F7
S1130D7083EE95E09F938F930E943C168BE096E060
S1130D80E6D7ADB7BEB750960FB6F894BEBF0FBE48
S1130D90ADBF8FCE61E080E008DB8091CF021F926F
S1130DA08F938091D0021F928F9387EA92E09F9352
S1130DB08F9380E296E09F938F930E943C168DB7A9
S1130DC09EB708960FB6F8949EBF0FBE8DBF809154
S1130DD0CA02882309F43DC11092CA02EFDC809351
S1130DE0D802823311F118F4813341F032C18333D4
S1130DF009F497C0843309F410C12BC183E08093B4
S1130E00D30285E08093CE0281E08093D102D7DAC9
S1130E1060E080E0CADA81E992E0B3DA61E080E080
S1130E20C4DA8BE096E0ADDA14C18091D002873148
S1130E3020F48F5F8093D00202C01092D002809180
S1130E40CF028A30D8F49091D0029A30B8F41F922D
S1130E508F931F929F938EE992E09F938F9380E2EA
S1130E6096E09F938F930E943C16ADB7BEB7189639
S1130E700FB6F894BEBF0FBEADBF4CC08A30C8F4E5
S1130E801F928F938091D0021F928F938FE992E0EB
S1130E909F938F9380E296E09F938F930E943C16DA
S1130EA08DB79EB708960FB6F8949EBF0FBE8DBF40
S1130EB031C09091D0029A30B8F41F928F931F9250
S1130EC09F9386EA92E09F938F9380E296E09F93AC
S1130ED08F930E943C16ADB7BEB718960FB6F89420
S1130EE0BEBF0FBEADBF16C01F928F931F929F93BC
S1130EF087EA92E09F938F9380E296E09F938F938B
S1130F000E943C168DB79EB708960FB6F8949EBF04
S1130F100FBE8DBF61E080E048DA80E296E031DA0E
S1130F2098C08091CF028B3320F48F5F8093CF02DF
S1130F3002C01092CF028091CF028A30D8F49091EF
S1130F40D0029A30B8F41F928F931F929F938EE928
S1130F5092E09F938F9380E296E09F938F930E94F9
S1130F603C16ADB7BEB718960FB6F894BEBF0FBE09
S1130F70ADBF4CC08A30C8F41F928F938091D002C9
S1130F801F928F938FE992E09F938F9380E296E074
S1130F909F938F930E943C168DB79EB708960FB609
S1130FA0F8949EBF0FBE8DBF31C09091D0029A308D
S1130FB0B8F41F928F931F929F9386EA92E09F93B7
S1130FC08F9380E296E09F938F930E943C16ADB777
S1130FD0BEB718960FB6F894BEBF0FBEADBF16C00D
S1130FE01F928F931F929F9387EA92E09F938F9310
S1130FF080E296E09F938F930E943C168DB79EB734
S113100008960FB6F8949EBF0FBE8DBF61E080E0D6
S1131010CCD980E296E0B5D91CC083E08093D3029A
S1131020C5E0C093CE0281E08093D102C8D9E0E24A
S1131030F6E0DF011D92CA95E9F760E080E0B5D9DA
S11310408DE692E09ED961E080E0AFD98BE096E036
S113105098D98091D102882309F4B9CE2ACD809100
S1131060CA02882309F450C01092CA02A7DB8093F5
S1131070D8028823A9F08091D702811111C061E0C0
S11310808091D60292D9E091D60281E08E0F8093AE
S1131090D602F0E08091D802ED50FA4F80836ED9E9
S11310A08091D8028093D7028091D602843041F592
S11310B00CC0822F90E0FC01ED50FA4F3081FC010E
S11310C0EF5FFD4F30832F5F01C020E0243088F3B1
S11310D084E08093D30285E08093CE0281E0809304
S11310E0D5021092D6026BD960E080E05ED98DEA19
S11310F092E047D961E080E058D98BE096E041D98D
S11311008091D8028093D7028091D502882309F474
S1131110A6CFCFCC8F929F92AF92BF92CF92DF9205
S1131120EF92FF92CF93DF9349015A01C1ECD0E0D3
S113113028E1288326E02093C2006BD720E030E02A
S113114040E851E4F4D76B017C01C501B40161D7D7
S1131150A7019601CAD620E030E040E05FE360D604
S11311602CD77093C5006093C400888180688883FD
S11311707894DF91CF91FF90EF90DF90CF90BF9064
S1131180AF909F908F9008958091F0020895809180
S1131190F0028823C9F0E091F10281E08E0F809380
S11311A0F102F0E0EB59F94F80818093EE02F8945C
S11311B08091F00281508093F00278948091F10242
S11311C0803410F01092F1028091EE0208951F9283
S11311D00F920FB60F9211240BB60F928F93EF93C9
S11311E0FF938091EF02811106C0E1ECF0E0808171
S11311F08F7D808317C0E091F20281E08E0F80938F
S1131200F202F0E0EB5DF94F80818093C60080919B
S1131210EF0281508093EF028091F202803410F04B
S11312201092F202FF91EF918F910F900BBE0F90ED
S11312300FBE0F901F9018951F920F920FB60F922A
S113124011240BB60F928F939F93EF93FF9380918A
S1131250C6008093A5068091F0028034A8F4E09142
S1131260F30291E09E0F9093F302F0E09091A506B3
S1131270EB59F94F90838F5F8093F0028091F302D2
S1131280803410F01092F302FF91EF919F918F91AF
S11312900F900BBE0F900FBE0F901F90189590915A
S11312A0F5029923F4F0E091FA0291E09E0F9093F5
S11312B0FA02F0E0EA55F94F8083F8948091F50240
S11312C08F5F8093F50278948091FA02882314F456
S11312D01092FA02E9ECF0E080818062808380E081
S11312E0089581E008958F929F92AF92BF92CF921A
S11312F0DF92EF92FF92CF93DF9349015A01C9EC39
S1131300D0E028E1288326E02093CA0082D620E09A
S113131030E040E851E40BD76B017C01C501B40116
S113132078D6A7019601E1D520E030E040E05FE304
S113133077D543D67093CD006093CC0088818068C4
S113134088837894DF91CF91FF90EF90DF90CF90D6
S1131350BF90AF909F908F9008958091F60208956A
S11313608091F6028823C9F0E091F70281E08E0FA4
S11313708093F702F0E0E95DF84F80818093F402F6
S1131380F8948091F60281508093F60278948091CB
S1131390F702882314F41092F7028091F40208955E
S11313A0EF92FF921F93CF93DF937C01162FC0E03F
S11313B0D0E009C0F701EC0FF11D808170DF8111CD
S11313C001C0DF5FCF5FC117A8F38D2FDF91CF91ED
S11313D01F91FF90EF9008951F920F920FB60F92F6
S11313E011240BB60F928F93EF93FF938091F50224
S11313F0811106C0E9ECF0E080818F7D808317C005
S1131400E091F80281E08E0F8093F802F0E0EA5553
S1131410F94F80818093CE008091F50281508093B2
S1131420F5028091F802882314F41092F802FF91D7
S1131430EF918F910F900BBE0F900FBE0F901F90E6
S113144018951F920F920FB60F9211240BB60F929C
S11314508F939F93EF93FF938091CE008093260701
S11314608091F6028823ACF0E091F90291E09E0F9E
S11314709093F902F0E090912607E95DF84F90838C
S11314808F5F8093F6028091F902882314F41092FE
S1131490F902FF91EF919F918F910F900BBE0F90E6
S11314A00FBE0F901F901895E0911C0391E09E0FC2
S11314B090931C03F0E0E55CF74F8083F8948091EF
S11314C017038F5F80931703789480911C03E1EDD9
S11314D0F0E080818062808380E008958F929F9203
S11314E0AF92BF92CF92DF92EF92FF92CF93DF93AE
S11314F049015A01C1EDD0E028E1288326E0209378
S1131500D20087D520E030E040E851E410D66B01EA
S11315107C01C501B4017DD5A7019601E6D420E084
S113152030E040E05FE37CD448D57093D50060930D
S1131530D4008881806888837894DF91CF91FF906C
S1131540EF90DF90CF90BF90AF909F908F900895D1
S113155080911803089580911803882399F0E091ED
S1131560190381E08E0F80931903F0E0E55CF64FD8
S1131570808180931603F89480911803815080939E
S1131580180378948091160308950F931F93CF93B3
S1131590DF938C01C0E0D0E005C086DF811101C07B
S11315A0DF5FCF5FF801EC0FF11D80818111F5CF72
S11315B08D2FDF91CF911F910F9108951F920F925C
S11315C00FB60F9211240BB60F928F93EF93FF93E4
S11315D080911703811106C0E1EDF0E080818F7DD9
S11315E0808311C0E0911A0381E08E0F80931A0367
S11315F0F0E0E55CF74F80818093D600809117037B
S1131600815080931703FF91EF918F910F900BBE40
S11316100F900FBE0F901F9018951F920F920FB648
S11316200F9211240BB60F928F93EF93FF93809137
S1131630D6008093A707E0911B0381E08E0F80936F
S11316401B03F0E08091A707E55CF64F808380914F
S113165018038F5F8093180380911B03FF91EF9110
S11316608F910F900BBE0F900FBE0F901F90189587
S113167090911503913071F018F09230F1F06BC035
S11316808C3309F06AC01092130381E08093150330
S113169080E008958E3329F482E08093150380E07E
S11316A00895E091130391E09E0F90931303F0E0EB
S11316B0E851F84F808380E008951092040310925B
S11316C0030385E0EDE0F3E0DF01982F1D929A9586
S11316D0E9F7E8E0F3E0DF011D928A95E9F790E08D
S11316E032C0292F30E0F901E851F84F8081F90127
S11316F0E855F84F808340910403411104C0F90177
S1131700E35FFC4F8083413051F4E091030321E017
S11317102E0F20930303F0E0E85FFC4F80838B33AC
S113172019F44F5F4093040320910403223011F411
S113173080930703233011F480930603243011F4BB
S1131740809305039F5F80911303981750F21092C2
S1131750150381E0089580E0089580E00895CF9214
S1131760DF92EF92FF92CF93DF9390911403913025
S113177071F018F0923051F180C08C3309F07FC0C1
S11317801092120381E08093140380E079C08E33B9
S113179029F482E08093140380E072C0E091120384
S11317A091E09E0F90931203F0E0E851F84F80838C
S11317B080E066C0822F90E0FC01E851F84F308150
S11317C0FC01E855F84F30832F5F01C020E0809181
S11317D01203281778F3C8EAD7E08A81E8E2F8E030
S11317E080838B8181838C8182838D8183838E81AD
S11317F084838F8185838885868389858783108602
S1131800CF010E94CF146B017C016093FF0270939F
S1131810000380930103909302038B85E1E3F8E0D6
S113182080838C8581838D8582838E8583838F8558
S1131830848388898583898986838A8987838B8938
S113184080871186CF010E94CF146093FB027093AE
S1131850FC028093FD029093FE02672B682B692B98
S113186031F0CD28CE28CF2821F480E003C080E0D9
S113187001C081E01092140303C080E001C080E045
S1131880DF91CF91FF90EF90DF90CF9008958DE09E
S113189093E00C94B214089588E093E00C94B2148D
S11318A008958091070308956091FB027091FC02F2
S11318B08091FD029091FE0208956091FF02709163
S11318C0000380910103909102030895282F8091D1
S11318D0270390E08830910508F057C1FC01882760
S11318E0EE58FF4F8F4F0C949614253B09F04DC1D1
S11318F01092200310921F031092210310921E03D2
S113190081E08093220320937B0A809327033DC1C7
S1131910223671F4E091220381E08E0F809322033A
S1131920F0E0E558F54F208382E0809327032DC132
S1131930109227032AC1213071F4E091220381E03F
S11319408E0F80932203F0E0E558F54F208383E067
S1131950809327031AC1253089F4E091220381E0A2
S11319608E0F80932203F0E0E558F54F208382E048
S11319708093140283E08093270307C11092270306
S113198004C1273081F4E091220381E08E0F80931B
S11319902203F0E0E558F54F20831092140284E00E
S11319A080932703F2C0223089F4E091220381E07E
S11319B08E0F80932203F0E0E558F54F208381E0F9
S11319C08093140284E080932703DFC0213071F4F4
S11319D0E091220381E08E0F80932203F0E0E5582A
S11319E0F54F208384E080932703CFC083E0809366
S11319F0140210922703C9C0E091220381E08E0FE4
S1131A0080932203F0E0E558F54F20832A5F20936A
S1131A101D0385E080932703B8C021110EC0E09117
S1131A20220381E08E0F80932203F0E0E558F54F06
S1131A30208386E080932703A8C010922703A5C0C3
S1131A4080912103843658F4E091220381E08E0FC3
S1131A5080932203F0E0E558F54F208303C087E02C
S1131A6080932703809121038F5F809321038DC08E
S1131A70E92FF0E0E558F54F208180912003820F93
S1131A808093200320911F03820F80931F039F5F85
S1131A9001C092E080911D03981750F390E0FC017F
S1131AA0E558F54F308120912003321363C0FC01C7
S1131AB0E458F54F908180911F0398135BC081E037
S1131AC080931E03809114028130B9F018F08230A3
S1131AD039F152C087E08093430B20E00BC0822F82
S1131AE090E0FC01E558F54F3081FC01E152F54FDF
S1131AF030832F5F243698F33FC082E08093430BFA
S1131B0020E00BC0822F90E0FC01E558F54F3081B6
S1131B10FC01E95AF54F30832F5F243298F32CC02F
S1131B208091810A863041F49091820A911104C017
S1131B3081E08093260320C0863041F49091820A8C
S1131B40983021F481E08093250316C0863041F457
S1131B509091820A913021F481E0809324030CC097
S1131B60863051F48091820A8E3131F481E0809381
S1131B70230302C010921E0384E6EBE7FAE0DF01C0
S1131B801D928A95E9F71092270380911E03089508
S1131B90EFEDFAE062A173A184A195A13CD225E9FD
S1131BA03FEB46ED53E3C3C20895EFEDFAE0668DD3
S1131BB0778D80A191A12FD225E93FEB46ED53E328
S1131BC0B6C208958091F90A0895DC016A5F92E033
S1131BD030E020E007C0FD01E90FF11D4081240F32
S1131BE0320F9F5F9617B8F3832F90E0982F8827C2
S1131BF0822B0895CF93DF93CDB7DEB76C970FB6E2
S1131C00F894DEBF0FBECDBF95EB998392E69A831D
S1131C1096E09B831C8294E19D831E8291E09F83C6
S1131C20188619861A8620ED2B8728E02C871D86B6
S1131C301E866F87788B898B1A8A9B8B1C8A9D8B57
S1131C401E8A1F8A188E198E1A8E1B8E1C8E64E1B2
S1131C50CE010196BADF8B8F9C8F6CE1CE01019689
S1131C609FDB109226036C960FB6F894DEBF0FBE6E
S1131C70CDBFDF91CF910895CF93DF93CDB7DEB77A
S1131C802E970FB6F894DEBF0FBECDBF682F70E05D
S1131C9088EE93E038D685EB898382E68A8386E0F2
S1131CA08B8398E09C838D831E826F83788781E089
S1131CB089871A868B871C861D861E8666E0CE0160
S1131CC0019683DF8D879E876EE0CE01019668DBE7
S1131CD0109225032E960FB6F894DEBF0FBECDBF2B
S1131CE0DF91CF910895CF93DF93CDB7DEB760979F
S1131CF00FB6F894DEBF0FBECDBF95EB998392E685
S1131D009A8396E09B8391E09C8328E02D831E8236
S1131D109F83888719866A871B864C871D861E8643
S1131D201F86188A68E0CE0101964FDF8F87988B53
S1131D3060E1CE01019634DB1092240360960FB665
S1131D40F894DEBF0FBECDBFDF91CF9108950F93FE
S1131D501F93CF93DF93182F092FEFEDFAE0C68579
S1131D60D78530DF8111C450DA30B0F4CA30A0F422
S1131D701F92DF931F92CF938EE992E09F938F93EC
S1131D800F931F9379D78DB79EB708960FB6F89423
S1131D909EBF0FBE8DBF3FC0DA30A0F41F92DF9309
S1131DA01F92CF938FE992E09F938F930F931F938A
S1131DB063D78DB79EB708960FB6F8949EBF0FBE33
S1131DC08DBF29C0CA30A0F41F92DF931F92CF9316
S1131DD086EA92E09F938F930F931F934DD78DB70D
S1131DE09EB708960FB6F8949EBF0FBE8DBF13C062
S1131DF01F92DF931F92CF9387EA92E09F938F9372
S1131E000F931F9339D78DB79EB708960FB6F894E2
S1131E109EBF0FBE8DBFDF91CF911F910F9108958B
S1131E205058BB27AA270ED048C139D130F03ED133
S1131E3020F031F49F3F11F41EF42EC10EF4E0950E
S1131E40E7FB24C1E92F4AD180F3BA17620773076D
S1131E508407950718F071F49EF562C10EF4E095BD
S1131E600B2EBA2FA02D0B01B90190010C01CA0150
S1131E70A0011124FF27591B99F0593F50F4503EFB
S1131E8068F11A16F040A22F232F342F4427585FED
S1131E90F3CF469537952795A795F0405395C9F705
S1131EA07EF41F16BA0B620B730B840BBAF09150BD
S1131EB0A1F0FF0FBB1F661F771F881FC2F70EC05C
S1131EC0BA0F621F731F841F48F48795779567952F
S1131ED0B795F7959E3F08F0B3CF9395880F08F018
S1131EE09927EE0F9795879508950CD0E6C0DED01C
S1131EF040F0D5D030F021F45F3F19F0C7C0511144
S1131F0010C1CAC0EBD098F39923C9F35523B1F398
S1131F10951B550BBB27AA2762177307840738F054
S1131F209F5F5F4F220F331F441FAA1FA9F333D0B3
S1131F300E2E3AF0E0E830D091505040E695001C67
S1131F40CAF729D0FE2F27D0660F771F881FBB1F23
S1131F50261737074807AB07B0E809F0BB0B802DFD
S1131F60BF01FF2793585F4F2AF09E3F510568F049
S1131F708DC0D7C05F3FECF3983EDCF38695779530
S1131F806795B795F7959F5FC9F7880F911D96954B
S1131F90879597F90895E1E0660F771F881FBB1FA7
S1131FA0621773078407BA0720F0621B730B840B54
S1131FB0BA0BEE1F88F7E095089598D088F09F57E4
S1131FC090F0B92F9927B751A0F0D1F0660F771F81
S1131FD0881F991F1AF0BA95C9F712C0B13081F061
S1131FE09FD0B1E008959CC0672F782F8827B85FF1
S1131FF039F0B93FCCF3869577956795B395D9F7C2
S11320003EF490958095709561957F4F8F4F9F4FCB
S11320100895E89409C097FB3EF4909580957095D7
S113202061957F4F8F4F9F4F9923A9F0F92F96E920
S1132030BB279395F695879577956795B795F11195
S1132040F8CFFAF4BB0F11F460FF1BC06F5F7F4F32
S11320508F4F9F4F16C0882311F096E911C0772344
S113206021F09EE8872F762F05C0662371F096E84D
S1132070862F70E060E02AF09A95660F771F881F1C
S1132080DAF7880F9695879597F9089597F99F67DA
S113209080E870E060E008959FEF80EC08950024EC
S11320A00A941616170618060906089500240A94B9
S11320B012161306140605060895092E0394000C3F
S11320C011F4882352F0BB0F40F4BF2B11F460FFCE
S11320D004C06F5F7F4F8F4F9F4F089557FD9058F7
S11320E0440F551F59F05F3F71F04795880F97FBD8
S11320F0991F61F09F3F79F0879508951216130692
S11321001406551FF2CF4695F1DF08C016161706C0
S11321101806991FF1CF86957105610508940895F5
S1132120E894BB2766277727CB0197F908950BD04E
S1132130C4CFB5DF28F0BADF18F0952309F0A6CF95
S1132140ABCF1124EECFCADFA0F3959FD1F3950F47
S113215050E0551F629FF001729FBB27F00DB11D27
S1132160639FAA27F00DB11DAA1F649F6627B00DB7
S1132170A11D661F829F2227B00DA11D621F739FA0
S1132180B00DA11D621F839FA00D611D221F749FAE
S11321903327A00D611D231F849F600D211D822FF5
S11321A0762F6A2F11249F5750408AF0E1F088233C
S11321B04AF0EE0FFF1FBB1F661F771F881F915049
S11321C05040A9F79E3F510570F060CFAACF5F3F02
S11321D0ECF3983EDCF3869577956795B795F7957C
S11321E0E7959F5FC1F7FE2B880F911D9695879504
S11321F097F908952F923F924F925F926F927F9238
S11322008F929F92AF92BF92CF92DF92EF92FF9202
S11322100F931F93CF93DF93CDB7DEB760970FB6BD
S1132220F894DEBF0FBECDBF7C011B016A01FC0127
S113223017821682838181FF2AC39E012F5F3F4F3D
S11322403901F7019381F10193FD859193FF819108
S11322501F01882309F417C3853239F493FD85914E
S113226093FF81911F01853231F4B70190E0C8D406
S113227056016501E6CF10E0512C912CFFE1F915D0
S1132280D8F08B3279F038F4803279F08332A1F4CB
S1132290F92DF0612EC08D3261F0803369F4292D5F
S11322A021602DC0392D3260932E892D8460982EA3
S11322B02AC0E92DE86015C097FC2DC020ED280F39
S11322C02A3088F496FE06C03AE0139F200D1124AC
S11322D0122F19C08AE0589E200D1124522EE92D88
S11322E0E0629E2E10C08E3231F496FCCCC2F92DE1
S11322F0F0649F2E08C08C3621F4292D2068922E7C
S113230002C0883641F4F10193FD859193FF8191D8
S11323101F018111B3CF9BEB980F933020F4992DBB
S11323209061805E07C09BE9980F933008F059C113
S1132330992D9F7E96FF16E09F73992E853619F48A
S11323409064992E08C0863621F4392F3068932E74
S113235002C01111115097FE07C01C3350F44424DD
S11323604394410E27E00BC0183038F027E017E003
S113237005C027E09CE3492E02C0212F412C5601C1
S113238084E0A80EB11CF601608171818281938181
S1132390042DA3012AD36C01F981FC87F0FF02C04C
S11323A0F3FF06C091FC06C092FE06C000E205C021
S11323B00DE203C00BE201C000E08C858C7019F0C3
S11323C0011143C280C297FE10C04C0CFC85F4FF7F
S11323D004C08A81813309F44A94141474F528E002
S11323E0241578F588E0482E2CC096FC2AC0812F4D
S11323F090E08C159D059CF03CEFC3163FEFD3068F
S113240074F0892D8068982E0AC0E2E0F0E0EC0FA9
S1132410FD1FE10FF11D8081803319F4115011115A
S1132420F4CF97FE0EC044244394410E812F90E0D4
S1132430C816D9062CF41C1904C04424439401C0C2
S113244010E097FE06C01C141D0434F4C601019666
S113245005C085E090E002C081E090E001110196A2
S1132460112331F0212F30E02F5F3F4F820F931F54
S1132470252D30E08217930714F4581A01C0512C0B
S1132480892D897041F4552031F0B70180E290E044
S1132490B7D35A94F8CF002321F0B701802F90E0EE
S11324A0AFD393FC08C0552031F0B70180E390E02E
S11324B0A7D35A94F8CF97FE4AC04601D7FE02C06C
S11324C0812C912CC60188199909F301E80FF91F91
S11324D0FE87ED87960124193109388B2F87012F48
S11324E010E01195019511093FEF8316930621F42D
S11324F0B7018EE290E084D3C814D9044CF08F85E0
S113250098898815990524F4ED85FE85818101C09B
S113251080E3F1E08F1A91082D853E852F5F3F4FB0
S11325203E872D878016910624F0B70190E068D38A
S1132530DBCFC814D90441F49A81963320F495333F
S113254019F43C8534FF81E3B70190E048C08A81E7
S1132550813319F09C859F7E9C87B70190E050D30E
S1132560111105C094FC16C085E690E015C0B701B2
S11325708EE290E045D31E5F82E001E0080FF30194
S1132580E80FF11D8081B70190E03AD3802F011349
S1132590F4CFE8CF85E490E0B70132D3D7FC06C08E
S11325A0C114D10441F4EC85E4FF05C0D194C19475
S11325B0D1088DE201C08BE2B70190E021D380E322
S11325C02AE0C216D1042CF08F5FFAE0CF1AD108AA
S11325D0F7CFB70190E014D3B701C601C09610D36A
S11325E049C1833631F0833779F0833509F052C01D
S11325F01FC0560132E0A30EB11CF601808189830D
S113260001E010E0630111C05601F2E0AF0EB11C0D
S1132610F601C080D18096FE03C0612F70E002C035
S11326206FEF7FEFC601C4D28C01F92DFF7713C081
S1132630560122E0A20EB11CF601C080D18096FEA4
S113264003C0612F70E002C06FEF7FEFC601A5D217
S11326508C01F92DF0689F2EF3FD18C0852D90E0B4
S11326600817190798F4B70180E290E0C9D25A9488
S1132670F5CFF60197FC859197FE81916F01B70123
S113268090E0BED251105A94015011090115110560
S113269081F7F0C0843611F0893659F5560197FE5A
S11326A009C024E0A20EB11CF6016081718182810F
S11326B093810AC0F2E0AF0EB11CF6016081718112
S11326C0072E000C880B990BF92DFF769F2E97FF90
S11326D009C090958095709561957F4F8F4F9F4F5E
S11326E0F0689F2E2AE030E0A301F4D2C82EC61869
S11326F03EC0092D853721F40F7E2AE030E01DC04D
S1132700097F8F3691F018F4883559F0BCC08037B2
S113271019F0883711F0B7C0006104FF09C00460E4
S113272007C094FE08C0066006C028E030E005C07B
S113273020E130E002C020E132E0560107FF09C089
S113274084E0A80EB11CF6016081718182819381BD
S113275008C0F2E0AF0EB11CF6016081718180E027
S113276090E0A301B7D2C82EC6180F77902E96FE1C
S11327700BC0092D0E7FC11650F494FE0AC092FCC2
S113278008C0092D0E7E05C0DC2C092D03C0DC2CED
S113279001C0D12E04FF0DC0FE01EC0DF11D80819E
S11327A0803311F4097E09C002FF06C0D394D39488
S11327B004C0802F867809F0D39403FD10C000FF75
S11327C006C01C2DD51478F4150D1D190CC0D51494
S11327D050F4B70180E290E013D2D394F8CFD5142B
S11327E010F45D1801C0512C04FF0FC0B70180E341
S11327F090E006D202FF16C001FD03C088E790E016
S113280002C088E590E0B7010CC0802F867851F0B3
S113281001FF02C08BE201C080E207FD8DE2B70137
S113282090E0EED1C11630F4B70180E390E0E8D136
S11328301150F8CFCA94F301EC0DF11D8081B7015A
S113284090E0DED1C110F6CF15C0F4E0F51550F5D7
S113285084E0581A93FE1EC0011125C02C8523FF65
S113286027C004EF10E0392D3071932EF8018491C4
S1132870811121C0552009F4FCCCB70180E290E01D
S1132880BFD15A94F7CFF7018681978123C08FEF88
S11328909FEF20C0B70180E290E0B2D15A9451106A
S11328A0F9CFDACF512CB701802F90E0A9D1D6CF40
S11328B008EF10E0D8CF91108052B70190E0A0D17A
S11328C00F5F1F4FD3CF23E0251510F483E0C1CF52
S11328D0512CC4CF60960FB6F894DEBF0FBECDBFA7
S11328E0DF91CF911F910F91FF90EF90DF90CF90E8
S11328F0BF90AF909F908F907F906F905F904F901C
S11329003F902F90089597FB072E16F4009406D05D
S113291077FD08D013D007FC05D03EF4909581953F
S11329209F4F0895709561957F4F0895EE0FFF1F97
S1132930881F8BBF0790F691E02D1994AA1BBB1B2F
S113294051E107C0AA1FBB1FA617B70710F0A61BAB
S1132950B70B881F991F5A95A9F780959095BC01CC
S1132960CD010895FC0188279927E894219120320C
S1132970E9F3293010F02E30C8F32B3239F02D3220
S113298031F4689403C034D1820F911D21912053F6
S11329902A30C8F31EF4909581959F4F08951F9394
S11329A0FC0199278827BC01E89411911032E9F3BE
S11329B0193010F01E30C8F31B3249F01D3241F4B7
S11329C0689405C000D1610F711D811D911D119185
S11329D010531A30B8F33EF4909580957095619534
S11329E07F4F8F4F9F4F1F910895283008F027E0A5
S11329F03327DA01990F311D87FD91600096610537
S1132A00710539F432602E5F3D9330E32A95E1F786
S1132A1008959F3F30F080387105610509F03C5FEF
S1132A203C5F3D93913008F08068911DDF93CF9314
S1132A301F930F93FF92EF92192F987F9695E92F8A
S1132A4096959695E90FFF27EA5AFE4F9927332763
S1132A50EE24FF24A701E70105900894079428F4C5
S1132A60360FE71EF81E491F511D660F771F881F7A
S1132A70991F0694A1F70590079428F4E70EF81E11
S1132A80491F561FC11D770F881F991F661F069483
S1132A90A1F70590079428F4F80E491F561FC71F85
S1132AA0D11D880F991F661F771F0694A1F7059003
S1132AB0079420F4490F561FC71FD81F990F661F8C
S1132AC0771F881F0694A9F784911095177041F019
S1132AD0D695C79557954795F794E7941A95C1F7F6
S1132AE0ECEFF0E06894159015913591659195910E
S1132AF005907FE27395E118F10A430B560BC90B5D
S1132B00D009C0F7E10CF11E431F561FC91FD01D89
S1132B107EF4703311F48A95E6CFE894015030F0D6
S1132B20080F0AF40027021708F4202F2395022F18
S1132B307A3328F079E37D932A95E9F710C07D93E1
S1132B402A9589F60694979567953795179517945E
S1132B50E118F10A430B560BC90BD00998F02395E1
S1132B607E9173957A3308F070E37C932013B8F761
S1132B707E9170617D9330F0839571E37D9370E372
S1132B802A95E1F71124EF90FF900F911F91CF91B7
S1132B90DF91992787FD90950895FC010590615078
S1132BA070400110D8F7809590958E0F9F1F08955F
S1132BB0FC016150704001900110D8F78095909508
S1132BC08E0F9F1F0895592F482F372F262F660FDA
S1132BD0771F881F991F660F771F881F991F620F21
S1132BE0731F841F951F660F771F881F991F0895F1
S1132BF07AE0979F902D879F802D910D1124089541
S1132C000F931F93CF93DF93FB01238121FD03C017
S1132C108FEF9FEF2CC022FF16C04681578124817D
S1132C2035814217530744F4A081B1819D012F5F80
S1132C303F4F318320838C93268137812F5F3F4F11
S1132C403783268314C08B01EC01FB010084F185DA
S1132C50E02D1995892BE1F6D80116968D919C915A
S1132C601797019617969C938E931697CE01DF9132
S1132C70CF911F910F9108950F931F93CF93DF93DB
S1132C80CDB7DEB72E970FB6F894DEBF0FBECDBF1B
S1132C900E891F8986E08C831A8309838FEF9FE74F
S1132CA09E838D83AE01465E5F4F688D798DCE0124
S1132CB00196A0DAEF81F885E00FF11F10822E96BD
S1132CC00FB6F894DEBF0FBECDBFDF91CF911F9139
S1132CD00F910895FA01AA27283051F1203181F18A
S1132CE0E8946F936E7F6E5F7F4F8F4F9F4FAF4F10
S1132CF0B1E03ED0B4E03CD0670F781F891F9A1F23
S1132D00A11D680F791F8A1F911DA11D6A0F711DD6
S1132D10811D911DA11D20D009F468943F912AE0E2
S1132D20269F11243019305D3193DEF6CF010895CA
S1132D30462F4770405D4193B3E00FD0C9F7F6CFFB
S1132D40462F4F70405D4A3318F0495D31FD4052C3
S1132D50419302D0A9F7EACFB4E0A6959795879559
S1132D6077956795BA95C9F7009761057105089538
S1132D709B01AC010A2E06945795479537952795E4
S1132D80BA95C9F7620F731F841F951FA01D08957C
S1072D90F894FFCFE1
S1132D94013132333401B56206080600E803010048
S1132DA40000003703456E746572205061737377B5
S1132DB46F72643A00496E76616C69642070617361
S1132DC473776F7264004D6F6465204D616E756531
S1132DD46C20203C2D004D6F6465204D616E75653B
S1132DE46C20004D6F64652050726F6720202000B2
S1132DF44D6F6465204175746F2020200053657401
S1132E042074696D6520202020005365742070614E
S1132E147373776F726400533B61636B3B00256685
S1132E24005365742074696D6520204F4B00302570
S1132E34643A302564003025643A2564005365748B
S1112E442070617373776F7264204F4B00002F
S9030000FC
