S02A000050726F6772616D6D65207072696E636970616C20726F626F7420746F6E64657573652E73726563A1
S11300004BC1000069C1000067C1000065C1000068
S113001063C1000061C100005FC100005DC1000058
S11300205BC1000059C1000091C6000055C1000029
S113003053C1000051C100004FC100004DC1000078
S11300404BC1000049C1000047C1000045C1000088
S113005043C100003BC600003FC100003DC1000099
S11300603BC100000C94520D0C941D0D35C10000D1
S113007033C10000B3C600002FC100002DC1000031
S11300802BC1000029C1000027C1000025C10000C8
S11300900C94570E0C94220E1FC10000B4C3000030
S11300A01BC1000019C1000017C1000015C10000E8
S11300B013C1000011C100000FC100000DC10000F8
S11300C00BC1000009C1000007C100000C94430FDC
S11300D00C94140F01C10000FFC00000FDC000001B
S11300E0FBC000002804D604D604D604D604D604E3
S11300F0D604D6043004D604D604D604D604D604D2
S1130100D604D6043D04D604D604D604D604D604B4
S1130110D604D604C404D604D604D604D604D6041D
S1130120D604D6044504D604D604D604D604D6048C
S1130130D604D604CD04D604D604D604D604D604F4
S1130140D604D604C404D604D604D604D604D604ED
S1130150D604D6046F04D604D604D604D604D60432
S1130160D604D604D604D604D604D604D604D604BB
S1130170D604D604AA04D604D604D604D604D604D7
S1130180D604D6047B04AB10BE10D110F710321184
S1130190431156117F116E616E00696E6600004056
S11301A07A10F35A00A0724E18090010A5D4E80082
S11301B000E87648170000E40B54020000CA9A3B9A
S11301C0000000E1F5050000809698000000404220
S11301D00F000000A08601000000102700000000AE
S11301E0E803000000006400000000000A000000B2
S11301F000000100000000002C76D888DC674F085E
S113020023DFC1DFAE59E1B1B796E5E3E453C63A63
S1130210E651997696E8E6C28426EB898C9B62EDDA
S1130220407C6FFCEFBC9C9F40F2BAA56FA5F49094
S1130230055A2AF75C936B6CF9676DC11BFCE0E40B
S11302400D47FEF520E6B500D0ED902E0300943561
S113025077050080841E080000204E0A000000C8B4
S11302600C333333330F986E12831141EF8D211405
S1130270893BE65516CFFEE6DB18D1844B381BF7D5
S11302807C1D901DA4BBE424203284725E22810074
S1130290C9F124ECA1E53D2711241FBECFEFD1E223
S11302A0DEBFCDBF00E00CBF12E0A0E0B2E0EEE69E
S11302B0F6E300E00BBF02C007900D92A63CB10725
S11302C0D9F72CE0A6ECB2E001C01D92A231B2072E
S11302D0E1F75CD70C94351B93CE9091CC0291112D
S11302E0FCCF9091BC0094FDF8CF1092CD02809386
S11302F0C702109200024093590381E08093C60222
S11303001092CB028093CC026093C802ECEBF0E035
S11303108081856A80830895862B482B422B69E06F
S11303208AE1DBCF089588E48093B800ECEBF0E039
S1130330808184608083789408952F923F924F92B5
S11303405F926F927F928F929F92AF92BF92CF9261
S1130350DF92EF92FF920F931F93CF93DF93CDB76A
S1130360DEB728970FB6F894DEBF0FBECDBFE2EA22
S1130370F3E000811181428153811801240E351E5E
S113038033201CF42FEF221A320A35942794E2EA20
S1130390F3E0A481B58126813781CD01820F931FBB
S11303A099230CF401963C017594679482EA93E0D6
S11303B0FC01E084F18482859385B701680F791F7D
S11303C0772314F46F5F7F4F4B0195948794401B00
S11303D0510B5A011AF4FFEFAF1ABF0AB594A79450
S11303E02A1B3B0B29011AF44FEF441A540A559463
S11303F047948E199F098C0112F40F5F1F4F1595B6
S11304000795C2018A0D9B1D800F911F63E070E068
S11304100E94B218072E000C880B990B0E943A1404
S11304206B017C01B501BB0C880B990B0E943A143B
S11304309B01AC01C701B6010E949F1369837A83B3
S11304408B839C83B201550C880B990B0E943A1440
S11304509B01AC01C701B6010E949F136D837E838B
S11304608F839887B801110F880B990B0E943A1457
S11304709B01AC01C701B6010E949F136B017C0173
S11304800EEC12E0F8016081718162197309072E84
S1130490000C880B990B0E943A1429813A814B81F4
S11304A05C810E94C6140E940714E9E9F3E0718399
S11304B06083F8016281738166197709072E000C45
S11304C0880B990B0E943A142D813E814F815885E7
S11304D00E94C6140E94071470939C0360939B03AC
S11304E0F8016481758168197909072E000C880B5D
S11304F0990B0E943A14A70196010E94C6140E9407
S1130500071470939E0360939D0328960FB6F89486
S1130510DEBF0FBECDBFDF91CF911F910F91FF9032
S1130520EF90DF90CF90BF90AF909F908F907F908F
S11305306F905F904F903F902F90089591E090932B
S1130540EA028B3008F08AE08093010281E0613096
S113055009F080E08093E90208954F925F926F92D0
S11305607F928F929F92AF92BF92DF92EF92FF920F
S11305700F931F93CF93DF93D0900102ED2CF12CB6
S11305808701015011098091E7029091E802081750
S1130590190724F41092E8021092E702C0E0D0E0B8
S11305A015C1FE01EE0FFF1FEE0FFF1FE552FD4FB9
S11305B04081518162817381411551056105710545
S11305C021F18091E7029091E802FC01EE0FFF1FF8
S11305D0E80FF91FEC0FFD1FEE0FFF1FE255FC4F54
S11305E080819181092E000CAA0BBB0B481B590B6F
S11305F06A0B7B0BFE01EE0FFF1FEE0FFF1FE55290
S1130600FD4F40835183628373838091E70290910D
S1130610E8022091D402222341F0FE01EE0FFF1FD5
S1130620E756FC4F2081318107C0FE01EE0FFF1F0A
S1130630E253FD4F20813181FC01EE0FFF1FE80FD3
S1130640F91FEC0FFD1FEE0FFF1FE255FC4F318326
S11306502083FE01EE0FFF1FEE0FFF1FE552FD4F3B
S113066080819181A281B3814901330FAA08BB081B
S1130670880E991EAA1EBB1E80829182A282B3821A
S11306808091E902811124C08FC0F901EE0FFF1F90
S1130690E20FF31FEC0FFD1FEE0FFF1FE255FC4F9F
S11306A040815181862F90E0FC01EE0FFF1FE80F7F
S11306B0F91FEC0FFD1FEE0FFF1FE255FC4F808169
S11306C09181841795070CF4622F2F5F3F4F03C06D
S11306D020E030E060E020173107BCF220E030E099
S11306E070E022C0F901EE0FFF1FE20FF31FEC0FC1
S11306F0FD1FEE0FFF1FE255FC4F40815181872FF4
S113070090E0FC01EE0FFF1FE80FF91FEC0FFD1F37
S1130710EE0FFF1FE255FC4F808191814817590766
S11307200CF4722F2F5F3F4F20173107DCF2862F16
S113073090E0FC01EE0FFF1FE80FF91FEC0FFD1F07
S1130740EE0FFF1FE255FC4F20813181872F90E08F
S1130750FC01EE0FFF1FE80FF91FEC0FFD1FEE0F5A
S1130760FF1FE255FC4F80819181820F931F092E58
S1130770000CAA0BBB0BA5019401281B390B4A0BD7
S11307805B0BCA01B901970122503109032E000CF9
S1130790440B550B0E94C518FE01EE0FFF1FEB52D0
S11307A0FD4F3183208311C04D2C512C612C712CB1
S11307B0C501B401A30192010E94C518FE01EE0F08
S11307C0FF1FEB52FD4F318320832196C330D105A7
S11307D00CF4E7CE8091E7029091E80201969093A1
S11307E0E8028093E702DF91CF911F910F91FF9070
S11307F0EF90DF90BF90AF909F908F907F906F901D
S11308005F904F9008951F920F920FB60F9211248C
S11308100BB60F922F933F934F935F936F937F93F6
S11308208F939F93AF93BF93EF93FF938091B900FE
S1130830E82FE87F8E2F90E0FC013897E135F10531
S113084008F0B4C08827EE58FF4F8F4F0C94E1187E
S11308508091C7028093BB0085E88093BC00AEC042
S113086080910002882329F08091C70281608093DF
S1130870BB0085E88093BC00A1C08091C80280932E
S1130880BB0085E88093BC0099C08091C90288238D
S113089051F01092C9021092CC02ECEBF0E080818E
S11308A0856980838BC09091CB028091C602981792
S11308B030F084E98093BC001092CC027FC0E091B8
S11308C0CB0281E08E0F8093CB02F0E0E75AFC4F1D
S11308D080818093BB0085E88093BC006FC08091C9
S11308E0C602823020F085EC8093BC0067C085E8A6
S11308F08093BC0063C0E9E5F3E02081818190E04E
S1130900982F8827822BAEECB2E011969C938E939D
S11309102281838190E0982F8827822B13969C93C1
S11309208E9312972481858190E0982F8827822BBB
S113093015969C938E9314978091D4028111FDDCBB
S11309408091EA02811109DE84E98093BC0010924F
S1130950CC0234C0E091CA0281E08E0F8093CA02B7
S1130960F0E08091BB00E75AFC4F80839091CA026B
S11309708091C602981720F085E88093BC001EC0C1
S113098085EC8093BC001AC081E08093CD0284E999
S11309908093BC001092CC0211C082E08093CD02FF
S11309A084E98093BC001092CC0208C083E0809359
S11309B0CD0280E98093BC001092CC02FF91EF91AC
S11309C0BF91AF919F918F917F916F915F914F9163
S11309D03F912F910F900BBE0F900FBE0F901F9061
S11309E01895662321F098B1946098B903C098B122
S11309F09B7F98B998B1906898B980FF04C098B16A
S1130A00986098B903C098B1977F98B981FF04C0E2
S1130A1098B1906198B903C098B19F7E98B982FF4C
S1130A2004C098B1906298B903C098B19F7D98B9F9
S1130A3083FF04C088B1806488B903C088B18F7B08
S1130A4088B985E08A95F1F7000088B18F7788B975
S1130A5085E08A95F1F700000895CF93DF93C82FBE
S1130A60D62F82958F70BDDF6D2F8C2FBADF85ED69
S1130A708A95F1F70000DF91CF91089587B18460E2
S1130A8087B987B1806887B987B1886087B987B12A
S1130A90806187B987B1806287B987B1806487B97B
S1130AA02FEF89EF90E0215080409040E1F700C0A3
S1130AB0000060E083E095DF8FE19EE40197F1F7A9
S1130AC000C0000060E083E08CDF8FE99FE00197C5
S1130AD0F1F700C0000060E083E083DF8FE99FE06E
S1130AE00197F1F700C0000060E082E07ADF8FE94F
S1130AF09FE00197F1F700C0000060E088E2ADDFFD
S1130B0060E088E0AADF60E081E0A7DF8FE39FE197
S1130B100197F1F700C0000060E086E09EDF60E02E
S1130B208FE09BCF089561E098CF08950F931F93B2
S1130B30CF938C01C0E002C0F6DFCF5FF801EC0F69
S1130B40F11D8081882311F0CF3FB1F7CF911F9120
S1130B500F910895611102C090E801C090EC8F706C
S1130B6060E0892B7ACF089560E081E076DF8FE33F
S1130B709FE10197F1F700C0000008959091F502FC
S1130B809130B1F030F0923021F1933009F445C046
S1130B9095C0893509F092C01092F2021092F302C6
S1130BA091E09093F4028093F3039093F50286C04E
S1130BB0893509F083C0E091F40291E09E0F90938F
S1130BC0F402F0E0ED50FC4F808382E08093F50264
S1130BD075C09091F302993058F4E091F40291E0D9
S1130BE09E0F9093F402F0E0ED50FC4F808303C01D
S1130BF083E08093F5028091F3028F5F8093F30288
S1130C005DC0E82FF0E0ED50FC4F90812091F2029E
S1130C10920F9093F2028F5F01C080E0883088F3D6
S1130C209091FB038091F20298133DC081E0809380
S1130C30F10220E00BC0822F90E0FC01ED50FC4F4C
S1130C403081FC01E651FC4F30832F5F293098F34B
S1130C50EAEEF3E02281838190E0982F8827820FC7
S1130C60911D9093F0028093EF022481858190E09E
S1130C70982F8827820F911D9093EE028093ED02A6
S1130C802681878190E0982F8827820F911D969561
S1130C90879596958795969587959A959093EC0266
S1130CA08093EB0202C01092F10289E0E3EFF3E0DB
S1130CB0DF011D928A95E9F71092F5028091F10205
S1130CC008958091EF029091F00208951F920F927F
S1130CD00FB60F9211242F938F939F938091FA0252
S1130CE08F5F8093FA028091F8029091F902019645
S1130CF09093F9028093F8028091FA02843650F0BE
S1130D008091FA0284568093FA0281E08093020271
S1130D108093F7028091F8029091F902843F914008
S1130D2068F08091F8029091F902845F9140909369
S1130D30F9028093F80281E08093F6029F918F91EB
S1130D402F910F900FBE0F901F9018951F920F9226
S1130D500FB60F9211240BB60F928F939F93EF93BC
S1130D60FF938091030183FD10C080911A0383FFD8
S1130D700CC080911503909116030196909316036D
S1130D808093150381E080930702E3E0F1E0808122
S1130D90887080931A03808184FD10C080911903A8
S1130DA084FF0CC0809117039091180301969093CF
S1130DB018038093170381E0809307028091030155
S1130DC0807180931903FF91EF919F918F910F9000
S1130DD00BBE0F900FBE0F901F9018951F920F928D
S1130DE00FB60F9211240BB60F922F933F934F938C
S1130DF05F936F937F938F939F93AF93BF93EF937F
S1130E00FF93609178007091790070931003609360
S1130E100F0380917B00882319F081E090E002C0E9
S1130E2080E090E0880F991F82959295907F982793
S1130E30807F982790917C009F71892B80930E036B
S1130E40813099F028F08230C9F0803229F160C0F5
S1130E506130724030F461E088E07CDE87E192E04A
S1130E6065DE81E480937C0053C072507093140358
S1130E706093130382E480937C004AC072507093A1
S1130E8012036093110380E480937C00EBE7F0E0AD
S1130E908081886080833CC080E090E00E943814A8
S1130EA020E030EC4FE754E40E949F1320E030E050
S1130EB048EC52E40E94C6146093FB027093FC0257
S1130EC08093FD029093FE026091FB027091FC02FC
S1130ED08091FD029091FE0220E030E046E952E468
S1130EE00E943A1320E030E040E850E40E94C61427
S1130EF06093FB027093FC028093FD029093FE02C8
S1130F0080E480937C00EBE7F0E08081877F80833E
S1130F10EAE7F0E0808180648083FF91EF91BF91E4
S1130F20AF919F918F917F916F915F914F913F917D
S1130F302F910F900BBE0F900FBE0F901F9018951E
S1130F40ECE7F0E0808180648083EAE7F0E0808170
S1130F508C688083EEE7F0E0808186608083EDE733
S1130F60F0E080818160808378940895E1E0F1E08D
S1130F708081806380833BEA3093A00029E1209341
S1130F80A10080E094E09093A9008093A80046E437
S1130F9050E05093AB004093AA001092AD00109221
S1130FA0AC00EAE0F1E040814063408330932001EB
S1130FB02093210190932901809328016AE570E030
S1130FC070932B0160932A0110922D0110922C0131
S1130FD044B1406444B930938000209381009093DD
S1130FE089008093880070938B0060938A0010922C
S1130FF08D0010928C000895019B08C0009B08C0CE
S1131000039B08C0029B08C080E0089581E3089513
S113101082E3089583E3089584E3089580910202AE
S1131020882309F4A7C010920202809111039091C1
S1131030120399230CF053C09195819591099093D3
S11310401203809311032091130330911403121699
S1131050130664F4AC01421B530B50930D034093ED
S11310600C0390930B0380930A030AC0280F391FC3
S113107030930B0320930A0390930D0380930C0386
S113108080910A0390910B03992324F410920B038B
S113109010920A0380910C0390910D03992324F478
S11310A010920D0310920C031092AB001092AA0040
S11310B080910C0390910D039E5F90932B0180937C
S11310C02A0180910A0390910B039E5F9093AD00D7
S11310D08093AC0010922D0110922C010895209160
S11310E01303309114031216130664F4AC01421B6B
S11310F0530B50930D0340930C0390930B03809375
S11311000A030AC0280F391F30930B0320930A03E4
S113111090930D0380930C0380910A0390910B0329
S1131120992324F410920B0310920A0380910C0368
S113113090910D03992324F410920D0310920C0343
S113114080910A0390910B039E5F9093AB00809370
S1131150AA0010922B0110922A011092AD00109255
S1131160AC0080910C0390910D039E5F90932D0130
S113117080932C010895D7D841E06BE08AE1ADD883
S113118020E040E16CE081E0C7C8089577DCF3DF3C
S113119061E08AE0D3D982B18F6082B92FEF81EE0A
S11311A094E0215080409040E1F700C000008DE1C0
S11311B092E0BCDC61E080E0CDDCC2DED7DEEAE7B1
S11311C0F0E080818064808385B5836085BD84B5CB
S11311D0826084BDEEE6F0E080818260808389EFE6
S11311E087BDE5E0F1E0808188618083E8E6F0E096
S11311F0808182608083ECE6F0E08081806380837C
S113120020E034E244EF50E060E072EC81E090E0F2
S1131210B7D320E034E244EF50E060E875E280E0C8
S113122090E097D420E034E244EF50E060E072ECC8
S113123081E090E089D560E875E280E090E00E946A
S1131240241281E00E94661241E061E087E00E947E
S11312509D126EE088E092E0D9D48091F702882351
S113126009F446C01092F702C7DE8093090388236D
S113127009F43AC080910803811136C061E080917D
S1131280070368DCE091070381E08E0F8093070376
S1131290F0E080910903EF53F94F808344DC80919F
S11312A00703843009F51DC08C2F90E0FC01EF5337
S11312B0F94F2081FC01ED5FFD4F8081281304C0AC
S11312C081E0809306030BC04FDC8DE292E02EDCBC
S11312D061E080E03FDC1092070310920603CF5FC9
S11312E001C0C0E0C43000F3809109038093080377
S11312F080910603882309F4B0CF1092060334DCEE
S113130060E080E027DC8EE392E010DC8091F7025D
S1131310882309F48EC01092F7026EDE80930903CD
S1131320882309F482C08091080381117EC01CDCEB
S113133060E080E00FDC80910903823349F118F406
S1131340813331F043C0833379F18433C1F13EC03A
S11313508091040380930503811103C01092FF025E
S113136013C0813019F48093FF020EC0823019F447
S11313708093FF0209C0833019F48093FF0204C0F4
S1131380843011F48093FF0281E0809303031EC034
S113139080910403882321F081508093040316C0B4
S11313A084E08093040312C080910403843020F409
S11313B08F5F809304030AC01092040307C08091D6
S11313C005038093040381E0809303038091040365
S11313D0811104C08EE492E0A9DB17C0813021F4AE
S11313E08BE592E0A3DB11C0823021F488E692E021
S11313F09DDB0BC0833021F485E792E097DB05C0C9
S1131400843019F482E892E091DB8091030388230D
S113141061F010920303109202031092060360E03D
S11314208DE098DB8BE492E081DB8091090380936B
S113143008038091FF02823009F47EC030F48823CF
S113144059F0813009F441C061CF833009F4DCC024
S1131450843009F43EC25ACFE1DD59D6813351F4C8
S113146080E094E090938B0080938A0084B1806440
S113147084B909C08AE590E090938B0080938A0038
S113148084B18F7B84B98091F602882341F0109255
S1131490F60261E080E05EDB89ED96E047DB8ED406
S11314A0882309F433CF8DD480931E0317D5882362
S11314B009F42CCF22D6909314038093130322D6DD
S11314C0909312038093110321CF78D4882369F178
S11314D078D480931E0379D5882339F1C0911D03F4
S11314E081E08C0F80931D03D0E01DD6CC0FDD1F4F
S11314F0CC0FDD1FC450DC4F688379838A839B83C0
S1131500C0911C0381E08C0F80931C03D0E002D6B1
S1131510CC0FDD1FCC0FDD1FC35CDA4F68837983EA
S11315208A839B838FE892E066D461E080E012DBDB
S113153089ED96E0FBDAEACE8091F602882341F049
S11315401092F60261E080E005DB89ED96E0EEDAC8
S113155051D28823C9F051D280931B030FDB882317
S113156099F0AFDB9F938F938CEA92E09F938F93D4
S113157085EC96E09F938F930E94A91A0F900F9089
S11315800F900F900F900F901ED3882309F4BECEB6
S11315901DD38093ED06D0D5882309F4B7CEE4DAC1
S11315A060E080E0D7DA2AD79F938F937F936F937D
S11315B0C6E9D2E0DF93CF9385E896E09F938F93BB
S11315C00E94A91A85E896E0B1DA61E080E0C2DA07
S11315D01CD79F938F937F936F93DF93CF938DE962
S11315E096E09F938F930E94A91A8DE996E09EDA64
S11315F089ED96E0D6D7ADB7BEB750960FB6F8943E
S1131600BEBF0FBEADBF82CE61E080E0A3DA8091A1
S113161000031F928F93809101031F928F9380EB9D
S113162092E09F938F938EEE96E09F938F930E9408
S1131630A91A8DB79EB708960FB6F8949EBF0FBE31
S11316408DBF8091F702882309F43DC11092F702FF
S1131650D3DC80930903823311F118F4813341F010
S113166032C1833309F497C0843309F410C12BC108
S113167083E08093040385E08093FF0281E08093FC
S1131680020372DA60E080E065DA8AE992E04EDA19
S113169061E080E05FDA89ED96E048DA14C1809178
S11316A00103873120F48F5F8093010302C01092FD
S11316B00103809100038A30D8F4909101039A3099
S11316C0B8F41F928F931F929F9387EA92E09F939F
S11316D08F938EEE96E09F938F930E94A91AADB7D5
S11316E0BEB718960FB6F894BEBF0FBEADBF4CC0C0
S11316F08A30C8F41F928F93809101031F928F93B5
S113170088EA92E09F938F938EEE96E09F938F9357
S11317100E94A91A8DB79EB708960FB6F8949EBF7B
S11317200FBE8DBF31C0909101039A30B8F41F925F
S11317308F931F929F938FEA92E09F938F938EEEE5
S113174096E09F938F930E94A91AADB7BEB71896DF
S11317500FB6F894BEBF0FBEADBF16C01F928F93D5
S11317601F929F9380EB92E09F938F938EEE96E06F
S11317709F938F930E94A91A8DB79EB708960FB6B0
S1131780F8949EBF0FBE8DBF61E080E0E3D98EEE7A
S113179096E0CCD998C0809100038B3320F48F5FFE
S11317A08093000302C010920003809100038A30EA
S11317B0D8F4909101039A30B8F41F928F931F923A
S11317C09F9387EA92E09F938F938EEE96E09F9388
S11317D08F930E94A91AADB7BEB718960FB6F894A6
S11317E0BEBF0FBEADBF4CC08A30C8F41F928F93EA
S11317F0809101031F928F9388EA92E09F938F93C5
S11318008EEE96E09F938F930E94A91A8DB79EB790
S113181008960FB6F8949EBF0FBE8DBF31C090914D
S113182001039A30B8F41F928F931F929F938FEA0B
S113183092E09F938F938EEE96E09F938F930E94F6
S1131840A91AADB7BEB718960FB6F894BEBF0FBEAF
S1131850ADBF16C01F928F931F929F9380EB92E0AF
S11318609F938F938EEE96E09F938F930E94A91A75
S11318708DB79EB708960FB6F8949EBF0FBE8DBF66
S113188061E080E067D98EEE96E050D91CC083E019
S113189080930403C5E0C093FF0281E080930203B8
S11318A063D9EEEEF6E0DF011D92CA95E9F760E038
S11318B080E050D985E792E039D961E080E04AD9E7
S11318C089ED96E033D980910203882309F4B9CED7
S11318D01DCD8091F702882309F44CC01092F702C1
S11318E08BDB809309038823A9F08091080381117D
S11318F011C061E0809107032DD9E091070381E0D5
S11319008E0F80930703F0E080910903EF53F94FA2
S1131910808309D980910703843041F50CC0822F5C
S113192090E0FC01EF53F94F3081FC01ED5FFD4F76
S113193030832F5F01C020E0243088F384E080935B
S1131940040385E08093FF0281E0809306031092F4
S113195007030AD960E080E0FDD886EB92E0E6D880
S113196061E080E0F7D889ED96E0E0D88091090342
S11319708093080380910603882309F4AACFC6CC78
S11319808F929F92AF92BF92CF92DF92EF92FF928B
S1131990CF93DF9349015A01C1ECD0E028E12883B9
S11319A026E02093C20064D720E030E040E851E410
S11319B0EDD76B017C01C501B4015AD7A70196018B
S11319C0BED620E030E040E05FE354D625D77093E4
S11319D0C5006093C4008881806888837894DF910F
S11319E0CF91FF90EF90DF90CF90BF90AF909F90FA
S11319F08F90089580912103089580912103882375
S1131A00C9F0E091220381E08E0F80932203F0E07D
S1131A10ED5CF84F808180931F03F894809121033B
S1131A20815080932103789480912203803410F0B4
S1131A301092220380911F0308951F920F920FB6F4
S1131A400F9211240BB60F928F93EF93FF93809113
S1131A502003811106C0E1ECF0E080818F7D80835A
S1131A6017C0E091230381E08E0F80932303F0E0FD
S1131A70ED50F94F80818093C600809120038150FE
S1131A808093200380912303803410F01092230369
S1131A90FF91EF918F910F900BBE0F900FBE0F909F
S1131AA01F9018951F920F920FB60F9211240BB628
S1131AB00F928F939F93EF93FF938091C60080932F
S1131AC07307809121038034A8F4E091240391E00A
S1131AD09E0F90932403F0E090917307ED5CF84F10
S1131AE090838F5F8093210380912403803410F0CE
S1131AF010922403FF91EF919F918F910F900BBE51
S1131B000F900FBE0F901F90189590912603992364
S1131B10F4F0E0912B0391E09E0F90932B03F0E0FF
S1131B20EC58F84F8083F894809126038F5F80935C
S1131B302603789480912B03882314F410922B03AA
S1131B40E9ECF0E080818062808380E0089581E0A8
S1131B5008958F929F92AF92BF92CF92DF92EF92AD
S1131B60FF92CF93DF9349015A01C9ECD0E028E1F9
S1131B70288326E02093CA007BD620E030E040E8AA
S1131B8051E404D76B017C01C501B40171D6A701EE
S1131B909601D5D520E030E040E05FE36BD53CD63C
S1131BA07093CD006093CC0088818068888378949A
S1131BB0DF91CF91FF90EF90DF90CF90BF90AF90E7
S1131BC09F908F9008958091270308958091270313
S1131BD08823C9F0E091280381E08E0F80932803C5
S1131BE0F0E0EB50F84F808180932503F8948091C6
S1131BF027038150809327037894809128038823B6
S1131C0014F410922803809125030895EF92FF9213
S1131C101F93CF93DF937C01162FC0E0D0E009C05F
S1131C20F701EC0FF11D808170DF811101C0DF5FCE
S1131C30CF5FC117A8F38D2FDF91CF911F91FF9034
S1131C40EF9008951F920F920FB60F9211240BB6C6
S1131C500F928F93EF93FF9380912603811106C017
S1131C60E9ECF0E080818F7D808317C0E091290347
S1131C7081E08E0F80932903F0E0EC58F84F8081C7
S1131C808093CE0080912603815080932603809117
S1131C902903882314F410922903FF91EF918F9163
S1131CA00F900BBE0F900FBE0F901F9018951F92B0
S1131CB00F920FB60F9211240BB60F928F939F932E
S1131CC0EF93FF938091CE008093F40780912703D4
S1131CD08823ACF0E0912A0391E09E0F90932A03AD
S1131CE0F0E09091F407EB50F84F90838F5F80936E
S1131CF0270380912A03882314F410922A03FF9166
S1131D00EF919F918F910F900BBE0F900FBE0F908C
S1131D101F901895E0914D0391E09E0F90934D0311
S1131D20F0E0E75FF64F8083F894809148038F5F7B
S1131D3080934803789480914D03E1EDF0E0808135
S1131D408062808380E008958F929F92AF92BF92C9
S1131D50CF92DF92EF92FF92CF93DF9349015A0122
S1131D60C1EDD0E028E1288326E02093D20080D57D
S1131D7020E030E040E851E409D66B017C01C50164
S1131D80B40176D5A7019601DAD420E030E040E032
S1131D905FE370D441D57093D5006093D4008881FB
S1131DA0806888837894DF91CF91FF90EF90DF90E3
S1131DB0CF90BF90AF909F908F90089580914903EA
S1131DC0089580914903882399F0E0914A0381E0C2
S1131DD08E0F80934A03F0E0E75FF54F8081809394
S1131DE04703F89480914903815080934903789480
S1131DF08091470308950F931F93CF93DF938C0132
S1131E00C0E0D0E005C086DF811101C0DF5FCF5F95
S1131E10F801EC0FF11D80818111F5CF8D2FDF9139
S1131E20CF911F910F9108951F920F920FB60F92A9
S1131E3011240BB60F928F93EF93FF938091480375
S1131E40811106C0E1EDF0E080818F7D808311C0B7
S1131E50E0914B0381E08E0F80934B03F0E0E75F4A
S1131E60F64F80818093D6008091480381508093FF
S1131E704803FF91EF918F910F900BBE0F900FBE0F
S1131E800F901F9018951F920F920FB60F92112466
S1131E900BB60F928F93EF93FF938091D6008093AC
S1131EA07508E0914C0381E08E0F80934C03F0E0C1
S1131EB080917508E75FF54F8083809149038F5FB8
S1131EC08093490380914C03FF91EF918F910F9080
S1131ED00BBE0F900FBE0F901F9018959091460364
S1131EE0913071F018F09230F1F06BC08C3309F03E
S1131EF06AC01092440381E08093460380E0089511
S1131F008E3329F482E08093460380E00895E091C3
S1131F10440391E09E0F90934403F0E0EA54F74F9A
S1131F20808380E00895109235031092340385E095
S1131F30EEE3F3E0DF01982F1D929A95E9F7E9E3C8
S1131F40F3E0DF011D928A95E9F790E032C0292F72
S1131F5030E0F901EA54F74F8081F901EA58F74F6C
S1131F60808340913503411104C0F901E25CFC4FC8
S1131F708083413051F4E091340321E02E0F20930B
S1131F803403F0E0E75CFC4F80838B3319F44F5F3C
S1131F904093350320913503223011F480933803A4
S1131FA0233011F480933703243011F480933603E3
S1131FB09F5F80914403981750F21092460381E08A
S1131FC0089580E0089580E00895CF92DF92EF9223
S1131FD0FF92CF93DF9390914503913071F018F005
S1131FE0923051F180C08C3309F07FC010924303CA
S1131FF081E08093450380E079C08E3329F482E048
S11320008093450380E072C0E091430391E09E0F0A
S113201090934303F0E0EA54F74F808380E066C076
S1132020822F90E0FC01EA54F74F3081FC01EA581A
S1132030F74F30832F5F01C020E0809143032817BE
S113204078F3C6E7D8E08A81E6EFF8E080838B81F5
S113205081838C8182838D8183838E8184838F812C
S1132060858388858683898587831086CF010E942E
S11320703C196B017C0160933003709331038093AE
S11320803203909333038B85EFEFF8E080838C85E4
S113209081838D8582838E8583838F8584838889DC
S11320A08583898986838A8987838B89808711863A
S11320B0CF010E943C1960932C0370932D038093ED
S11320C02E0390932F03672B682B692B31F0CD28B7
S11320D0CE28CF2821F480E003C080E001C081E055
S11320E01092450303C080E001C080E0DF91CF91EE
S11320F0FF90EF90DF90CF9008958EE393E00C94DF
S11321001F19089589E393E00C941F190895809191
S11321103803089560912C0370912D0380912E0350
S113212090912F0308956091300370913103809151
S11321303203909133030895282F8091580390E03F
S11321408830910508F057C1FC018827ED53FF4FF3
S11321508F4F0C94E118253B09F04DC110925103A7
S1132160109250031092520310924F0381E0809317
S113217053032093490B809358033DC1223671F4D5
S1132180E091530381E08E0F80935303F0E0E75B0B
S1132190F44F208382E0809358032DC1109258039A
S11321A02AC1213071F4E091530381E08E0F8093B2
S11321B05303F0E0E75BF44F208383E080935803FC
S11321C01AC1253089F4E091530381E08E0F809386
S11321D05303F0E0E75BF44F208382E08093160220
S11321E083E08093580307C11092580304C1273039
S11321F081F4E091530381E08E0F80935303F0E068
S1132200E75BF44F20831092160284E08093580316
S1132210F2C0223089F4E091530381E08E0F809361
S11322205303F0E0E75BF44F208381E080931602D0
S113223084E080935803DFC0213071F4E0915303AC
S113224081E08E0F80935303F0E0E75BF44F20832B
S113225084E080935803CFC083E0809316021092E9
S11322605803C9C0E091530381E08E0F8093530358
S1132270F0E0E75BF44F20832A5F20934E0385E070
S113228080935803B8C021110EC0E091530381E03C
S11322908E0F80935303F0E0E75BF44F208386E0D6
S11322A080935803A8C010925803A5C0809152038C
S11322B0843658F4E091530381E08E0F80935303E6
S11322C0F0E0E75BF44F208303C087E0809358037A
S11322D0809152038F5F809352038DC0E92FF0E009
S11322E0E75BF44F208180915103820F8093510367
S11322F020915003820F809350039F5F01C092E0AE
S113230080914E03981750F390E0FC01E75BF44F83
S1132310308120915103321363C0FC01E65BF44F1A
S113232090818091500398135BC081E080934F03A8
S1132330809116028130B9F018F0823039F152C020
S113234087E08093110C20E00BC0822F90E0FC0109
S1132350E75BF44F3081FC01E355F44F30832F5F8A
S1132360243698F33FC082E08093110C20E00BC028
S1132370822F90E0FC01E75BF44F3081FC01EB5DC0
S1132380F44F30832F5F243298F32CC080914F0B8D
S1132390863041F49091500B911104C081E08093F8
S11323A0570320C0863041F49091500B983021F4AB
S11323B081E08093560316C0863041F49091500B0F
S11323C0913021F481E0809355030CC0863051F4A0
S11323D08091500B8E3131F481E08093540302C01C
S11323E010924F0384E6E9E4FBE0DF011D928A9535
S11323F0E9F71092580380914F030895EDEAFBE04A
S113240062A173A184A195A10895EDEAFBE0668D14
S1132410778D80A191A108958091C70B0895DC0167
S11324206A5F92E030E020E007C0FD01E90FF11D92
S11324304081240F320F9F5F9617B8F3832F90E0EB
S1132440982F8827822B0895CF93DF93CDB7DEB7DB
S11324506C970FB6F894DEBF0FBECDBF95EB998392
S113246092E69A8396E09B831C8294E19D831E826C
S113247091E09F83188619861A8620ED2B8728E021
S11324802C871D861E866F87788B898B1A8A9B8B77
S11324901C8A9D8B1E8A1F8A188E198E1A8E1B8E7B
S11324A01C8E64E1CE010196BADF8B8F9C8F6CE1A8
S11324B0CE010196ABDB109257036C960FB6F894DD
S11324C0DEBF0FBECDBFDF91CF910895CF93DF93D1
S11324D0CDB7DEB72E970FB6F894DEBF0FBECDBFD3
S11324E0682F70E088EE93E03DD685EB898382E621
S11324F08A8386E08B8398E09C838D831E826F831E
S1132500788781E089871A868B871C861D861E86BC
S113251066E0CE01019683DF8D879E876EE0CE0153
S1132520019674DB109256032E960FB6F894DEBF14
S11325300FBECDBFDF91CF910895CF93DF93CDB779
S1132540DEB760970FB6F894DEBF0FBECDBF95EB34
S1132550998392E69A8396E09B8391E09C8328E09A
S11325602D831E829F83888719866A871B864C87E2
S11325701D861E861F86188A68E0CE0101964FDFED
S11325808F87988B60E1CE01019640DB1092550352
S113259060960FB6F894DEBF0FBECDBFDF91CF912A
S11325A008950F931F93CF93DF93182F092FEDEA0C
S11325B0FBE0C685D78530DF8111C450DA30B0F432
S11325C0CA30A0F41F92DF931F92CF9387EA92E060
S11325D09F938F930F931F93BCD78DB79EB7089685
S11325E00FB6F8949EBF0FBE8DBF3FC0DA30A0F483
S11325F01F92DF931F92CF9388EA92E09F938F9369
S11326000F931F93A6D78DB79EB708960FB6F8946D
S11326109EBF0FBE8DBF29C0CA30A0F41F92DF93A6
S11326201F92CF938FEA92E09F938F930F931F9300
S113263090D78DB79EB708960FB6F8949EBF0FBE7D
S11326408DBF13C01F92DF931F92CF9380EB92E054
S11326509F938F930F931F937CD78DB79EB7089644
S11326600FB6F8949EBF0FBE8DBFDF91CF911F911F
S11326700F9108955058BB27AA270ED04DC13ED1C3
S113268030F043D120F031F49F3F11F41EF433C1F4
S11326900EF4E095E7FB29C1E92F4FD180F3BA1777
S11326A0620773078407950718F071F49EF567C1F4
S11326B00EF4E0950B2EBA2FA02D0B01B901900159
S11326C00C01CA01A0011124FF27591B99F0593F9D
S11326D050F4503E68F11A16F040A22F232F342FE5
S11326E04427585FF3CF469537952795A795F04033
S11326F05395C9F77EF41F16BA0B620B730B840B48
S1132700BAF09150A1F0FF0FBB1F661F771F881FFF
S1132710C2F70EC0BA0F621F731F841F48F4879557
S113272077956795B795F7959E3F08F0B3CF939546
S1132730880F08F09927EE0F9795879508950CD088
S1132740EBC0E3D040F0DAD030F021F45F3F19F071
S1132750CCC0511115C1CFC0F0D098F39923C9F35F
S11327605523B1F3951B550BBB27AA276217730793
S1132770840738F09F5F5F4F220F331F441FAA1F47
S1132780A9F333D00E2E3AF0E0E830D09150504007
S1132790E695001CCAF729D0FE2F27D0660F771FB5
S11327A0881FBB1F261737074807AB07B0E809F097
S11327B0BB0B802DBF01FF2793585F4F2AF09E3F2C
S11327C0510568F092C0DCC05F3FECF3983EDCF347
S11327D0869577956795B795F7959F5FC9F7880FA5
S11327E0911D9695879597F90895E1E0660F771FF7
S11327F0881FBB1F621773078407BA0720F0621B88
S1132800730B840BBA0BEE1F88F7E095089504D080
S11328106894B111B5C0089598D088F09F5790F08E
S1132820B92F9927B751A0F0D1F0660F771F881FF1
S1132830991F1AF0BA95C9F712C0B13081F09FD030
S1132840B1E008959CC0672F782F8827B85F39F0CE
S1132850B93FCCF3869577956795B395D9F73EF450
S113286090958095709561957F4F8F4F9F4F0895F8
S1132870E89409C097FB3EF4909580957095619516
S11328807F4F8F4F9F4F9923A9F0F92F96E9BB27CC
S11328909395F695879577956795B795F111F8CF48
S11328A0FAF4BB0F11F460FF1BC06F5F7F4F8F4FB3
S11328B09F4F16C0882311F096E911C0772321F0A9
S11328C09EE8872F762F05C0662371F096E8862F41
S11328D070E060E02AF09A95660F771F881FDAF798
S11328E0880F9695879597F9089597F99F6780E8DB
S11328F070E060E008959FEF80EC089500240A944E
S11329001616170618060906089500240A941216C6
S11329101306140605060895092E0394000C11F4F9
S1132920882352F0BB0F40F4BF2B11F460FF04C0A6
S11329306F5F7F4F8F4F9F4F089557FD9058440FFF
S1132940551F59F05F3F71F04795880F97FB991F0A
S113295061F09F3F79F087950895121613061406C7
S1132960551FF2CF4695F1DF08C016161706180654
S1132970991FF1CF86957105610508940895E8942F
S1132980BB2766277727CB0197F908950BD0C4CFCF
S1132990B5DF28F0BADF18F0952309F0A6CFABCF46
S11329A01124EECFCADFA0F3959FD1F3950F50E029
S11329B0551F629FF001729FBB27F00DB11D639FED
S11329C0AA27F00DB11DAA1F649F6627B00DA11D93
S11329D0661F829F2227B00DA11D621F739FB00D39
S11329E0A11D621F839FA00D611D221F749F3327A9
S11329F0A00D611D231F849F600D211D822F762F42
S1132A006A2F11249F5750408AF0E1F088234AF03E
S1132A10EE0FFF1FBB1F661F771F881F915050408A
S1132A20A9F79E3F510570F060CFAACF5F3FECF34A
S1132A30983EDCF3869577956795B795F795E79576
S1132A409F5FC1F7FE2B880F911D9695879597F987
S1132A5008952F923F924F925F926F927F928F923E
S1132A609F92AF92BF92CF92DF92EF92FF920F9319
S1132A701F93CF93DF93CDB7DEB760970FB6F8946B
S1132A80DEBF0FBECDBF7C011B016A01FC011782B2
S1132A901682838181FF2AC39E012F5F3F4F390134
S1132AA0F7019381F10193FD859193FF81911F01BA
S1132AB0882309F417C3853239F493FD859193FF74
S1132AC081911F01853231F4B70190E006D556019A
S1132AD06501E6CF10E0512C912CFFE1F915D8F0F7
S1132AE08B3279F038F4803279F08332A1F4F92D05
S1132AF0F0612EC08D3261F0803369F4292D21609C
S1132B002DC0392D3260932E892D8460982E2AC0D1
S1132B10E92DE86015C097FC2DC020ED280F2A3060
S1132B2088F496FE06C03AE0139F200D1124122F5C
S1132B3019C08AE0589E200D1124522EE92DE0621E
S1132B409E2E10C08E3231F496FCCCC2F92DF06466
S1132B509F2E08C08C3621F4292D2068922E02C0A5
S1132B60883641F4F10193FD859193FF81911F0112
S1132B708111B3CF9BEB980F933020F4992D906182
S1132B80805E07C09BE9980F933008F059C1992DD6
S1132B909F7E96FF16E09F73992E853619F49064F4
S1132BA0992E08C0863621F4392F3068932E02C03E
S1132BB01111115097FE07C01C3350F44424439460
S1132BC0410E27E00BC0183038F027E017E005C0AD
S1132BD027E09CE3492E02C0212F412C560184E0BA
S1132BE0A80EB11CF6016081718182819381042D4C
S1132BF0A30168D36C01F981FC87F0FF02C0F3FFE5
S1132C0006C091FC06C092FE06C000E205C00DE2BB
S1132C1003C00BE201C000E08C858C7019F0011137
S1132C2043C280C297FE10C04C0CFC85F4FF04C064
S1132C308A81813309F44A94141474F528E0241524
S1132C4078F588E0482E2CC096FC2AC0812F90E0AD
S1132C508C159D059CF03CEFC3163FEFD30674F032
S1132C60892D8068982E0AC0E2E0F0E0EC0FFD1F89
S1132C70E10FF11D8081803319F411501111F4CF4B
S1132C8097FE0EC044244394410E812F90E0C81651
S1132C90D9062CF41C1904C04424439401C010E048
S1132CA097FE06C01C141D0434F4C601019605C029
S1132CB085E090E002C081E090E0011101961123CB
S1132CC031F0212F30E02F5F3F4F820F931F252DCE
S1132CD030E08217930714F4581A01C0512C892D3F
S1132CE0897041F4552031F0B70180E290E0F5D3CA
S1132CF05A94F8CF002321F0B701802F90E0EDD350
S1132D0093FC08C0552031F0B70180E390E0E5D38F
S1132D105A94F8CF97FE4AC04601D7FE02C0812CD0
S1132D20912CC60188199909F301E80FF91FFE8750
S1132D30ED87960124193109388B2F87012F10E074
S1132D401195019511093FEF8316930621F4B701FC
S1132D508EE290E0C2D3C814D9044CF08F859889D0
S1132D608815990524F4ED85FE85818101C080E3F1
S1132D70F1E08F1A91082D853E852F5F3F4F3E87E6
S1132D802D878016910624F0B70190E0A6D3DBCFFF
S1132D90C814D90441F49A81963320F4953319F474
S1132DA03C8534FF81E3B70190E048C08A818133D8
S1132DB019F09C859F7E9C87B70190E08ED31111FA
S1132DC005C094FC16C085E690E015C0B7018EE2FC
S1132DD090E083D31E5F82E001E0080FF301E80F67
S1132DE0F11D8081B70190E078D3802F0113F4CFD7
S1132DF0E8CF85E490E0B70170D3D7FC06C0C114D6
S1132E00D10441F4EC85E4FF05C0D194C194D10808
S1132E108DE201C08BE2B70190E05FD380E32AE04A
S1132E20C216D1042CF08F5FFAE0CF1AD108F7CF85
S1132E30B70190E052D3B701C601C0964ED349C141
S1132E40833631F0833779F0833509F052C01FC0DF
S1132E50560132E0A30EB11CF6018081898301E0A2
S1132E6010E0630111C05601F2E0AF0EB11CF6018F
S1132E70C080D18096FE03C0612F70E002C06FEF66
S1132E807FEFC60102D38C01F92DFF7713C05601E1
S1132E9022E0A20EB11CF601C080D18096FE03C0D0
S1132EA0612F70E002C06FEF7FEFC601E3D28C01A7
S1132EB0F92DF0689F2EF3FD18C0852D90E00817BA
S1132EC0190798F4B70180E290E007D35A94F5CF3C
S1132ED0F60197FC859197FE81916F01B70190E00F
S1132EE0FCD251105A94015011090115110581F7B2
S1132EF0F0C0843611F0893659F5560197FE09C0A1
S1132F0024E0A20EB11CF60160817181828193815B
S1132F100AC0F2E0AF0EB11CF60160817181072E88
S1132F20000C880B990BF92DFF769F2E97FF09C093
S1132F3090958095709561957F4F8F4F9F4FF06866
S1132F409F2E2AE030E0A30132D3C82EC6183EC01B
S1132F50092D853721F40F7E2AE030E01DC0097F5A
S1132F608F3691F018F4883559F0BCC0803719F0C9
S1132F70883711F0B7C0006104FF09C0046007C0BE
S1132F8094FE08C0066006C028E030E005C020E1D9
S1132F9030E002C020E132E0560107FF09C084E0BE
S1132FA0A80EB11CF601608171818281938108C0F1
S1132FB0F2E0AF0EB11CF6016081718180E090E017
S1132FC0A301F5D2C82EC6180F77902E96FE0BC01B
S1132FD0092D0E7FC11650F494FE0AC092FC08C05D
S1132FE0092D0E7E05C0DC2C092D03C0DC2C01C08C
S1132FF0D12E04FF0DC0FE01EC0DF11D8081803344
S113300011F4097E09C002FF06C0D394D39404C00E
S1133010802F867809F0D39403FD10C000FF06C00A
S11330201C2DD51478F4150D1D190CC0D51450F4AD
S1133030B70180E290E051D2D394F8CFD51410F4C4
S11330405D1801C0512C04FF0FC0B70180E390E06C
S113305044D202FF16C001FD03C088E790E002C01D
S113306088E590E0B7010CC0802F867851F001FF0D
S113307002C08BE201C080E207FD8DE2B70190E05F
S11330802CD2C11630F4B70180E390E026D211505F
S1133090F8CFCA94F301EC0DF11D8081B70190E0E3
S11330A01CD2C110F6CF15C0F4E0F51550F584E03C
S11330B0581A93FE1EC0011125C02C8523FF27C07A
S11330C006E911E0392D3071932EF80184918111B4
S11330D021C0552009F4FCCCB70180E290E0FDD179
S11330E05A94F7CFF7018681978123C08FEF9FEF22
S11330F020C0B70180E290E0F0D15A945110F9CF8A
S1133100DACF512CB701802F90E0E7D1D6CF0AE96E
S113311011E0D8CF91108052B70190E0DED10F5F5B
S11331201F4FD3CF23E0251510F483E0C1CF512CDA
S1133130C4CF60960FB6F894DEBF0FBECDBFDF914B
S1133140CF911F910F91FF90EF90DF90CF90BF90A0
S1133150AF909F908F907F906F905F904F903F9033
S11331602F90089597FB072E16F4009406D077FD50
S113317008D02FD007FC05D03EF4909581959F4F41
S11331800895709561957F4F0895052E97FB16F469
S113319000940FD057FD05D030D007FC02D046F480
S11331A008C050954095309521953F4F4F4F5F4F44
S11331B0089590958095709561957F4F8F4F9F4F9F
S11331C00895EE0FFF1F881F8BBF0790F691E02D27
S11331D01994AA1BBB1B51E107C0AA1FBB1FA6174A
S11331E0B70710F0A61BB70B881F991F5A95A9F7AC
S11331F080959095BC01CD010895A1E21A2EAA1BD9
S1133200BB1BFD010DC0AA1FBB1FEE1FFF1FA21792
S1133210B307E407F50720F0A21BB30BE40BF50B8F
S1133220661F771F881F991F1A9469F76095709518
S1133230809590959B01AC01BD01CF010895FC01DF
S113324088279927E89421912032E9F3293010F056
S11332502E30C8F32B3239F02D3231F4689403C088
S113326034D1820F911D219120532A30C8F31EF4CA
S1133270909581959F4F08951F93FC019927882766
S1133280BC01E89411911032E9F3193010F01E30AA
S1133290C8F31B3249F01D3241F4689405C000D1D3
S11332A0610F711D811D911D119110531A30B8F3D6
S11332B03EF490958095709561957F4F8F4F9F4F09
S11332C01F910895283008F027E03327DA01990F79
S11332D0311D87FD916000966105710539F43260F6
S11332E02E5F3D9330E32A95E1F708959F3F30F038
S11332F080387105610509F03C5F3C5F3D93913076
S113330008F08068911DDF93CF931F930F93FF9272
S1133310EF92192F987F9695E92F96959695E90F38
S1133320FF27E850FE4F99273327EE24FF24A701F7
S1133330E70105900894079428F4360FE71EF81E59
S1133340491F511D660F771F881F991F0694A1F707
S11333500590079428F4E70EF81E491F561FC11D57
S1133360770F881F991F661F0694A1F7059007948D
S113337028F4F80E491F561FC71FD11D880F991F27
S1133380661F771F0694A1F70590079420F4490F50
S1133390561FC71FD81F990F661F771F881F0694D3
S11333A0A9F784911095177041F0D695C795579554
S11333B04795F794E7941A95C1F7EEE9F1E068941C
S11333C01590159135916591959105907FE27395CE
S11333D0E118F10A430B560BC90BD009C0F7E10CF5
S11333E0F11E431F561FC91FD01D7EF4703311F404
S11333F08A95E6CFE894015030F0080F0AF40027CC
S1133400021708F4202F2395022F7A3328F079E34A
S11334107D932A95E9F710C07D932A9589F6069441
S113342097956795379517951794E118F10A430B0B
S1133430560BC90BD00998F023957E9173957A3376
S113344008F070E37C932013B8F77E9170617D934C
S113345030F0839571E37D9370E32A95E1F71124AD
S1133460EF90FF900F911F91CF91DF91992787FDE6
S113347090950895FC010590615070400110D8F7B3
S1133480809590958E0F9F1F0895FC0161507040A8
S113349001900110D8F7809590958E0F9F1F089585
S11334A0592F482F372F262F660F771F881F991FF4
S11334B0660F771F881F991F620F731F841F951F44
S11334C0660F771F881F991F08957AE0979F902DA4
S11334D0879F802D910D112408950F931F93CF93EF
S11334E0DF93FB01238121FD03C08FEF9FEF2CC0ED
S11334F022FF16C046815781248135814217530724
S113350044F4A081B1819D012F5F3F4F318320831B
S11335108C93268137812F5F3F4F3783268314C0D6
S11335208B01EC01FB010084F185E02D1995892BB9
S1133530E1F6D80116968D919C91179701961796EE
S11335409C938E931697CE01DF91CF911F910F918B
S113355008950F931F93CF93DF93CDB7DEB72E97C4
S11335600FB6F894DEBF0FBECDBF0E891F8986E06B
S11335708C831A8309838FEF9FE79E838D83AE012B
S1133580465E5F4F688D798DCE01019662DAEF81D8
S1133590F885E00FF11F10822E960FB6F894DEBF67
S11335A00FBECDBFDF91CF911F910F910895FA0106
S11335B0AA27283051F1203181F1E8946F936E7F6E
S11335C06E5F7F4F8F4F9F4FAF4FB1E03ED0B4E05F
S11335D03CD0670F781F891F9A1FA11D680F791FA0
S11335E08A1F911DA11D6A0F711D811D911DA11DB1
S11335F020D009F468943F912AE0269F11243019C1
S1133600305D3193DEF6CF010895462F4770405D5B
S11336104193B3E00FD0C9F7F6CF462F4F70405D0A
S11336204A3318F0495D31FD4052419302D0A9F765
S1133630EACFB4E0A6959795879577956795BA955F
S1133640C9F700976105710508959B01AC010A2E25
S113365006945795479537952795BA95C9F7620FFC
S1113660731F841F951FA01D0895F894FFCFBB
S113366E0105013132333401B56206080600E80360
S113367E01000000003703706C75696500456E74B7
S113368E65722050617373776F72643A00496E7677
S113369E616C69642070617373776F7264004D6F2F
S11336AE6465204D616E75656C20203C2D004D6F58
S11336BE6465204D616E75656C20004D6F646520E8
S11336CE50726F67202020004D6F64652041757421
S11336DE6F202020005365742074696D65202020AE
S11336EE20005365742070617373776F7264005396
S11336FE3B61636B3B00256C6400536574207469F5
S113370E6D6520204F4B003025643A30256400301F
S113371E25643A2564005365742070617373776F62
S109372E7264204F4B0001
S9030000FC
