:1000000071C1000090C100008EC100008CC10000D1
:100010008AC1000088C1000086C1000084C10000C0
:1000200082C1000080C100000C94E0097CC1000086
:100030007AC1000078C1000076C1000074C10000E0
:1000400072C1000070C100006EC100006CC10000F0
:100050006AC100000C949B0966C1000064C10000E5
:1000600062C100000C94C1150C948C155CC1000099
:100070005AC100000C94280A56C1000054C1000067
:1000800052C1000050C100004EC100004CC1000030
:100090000C94C4160C948F1646C10000E9C60000EB
:1000A00042C1000040C100003EC100003CC1000050
:1000B0003AC1000038C1000036C1000034C1000060
:1000C00032C1000030C100002EC100000C94B017F6
:1000D0000C94811728C1000026C1000024C1000033
:1000E00022C100005D070B080B080B080B080B086A
:1000F0000B080B0865070B080B080B080B080B080F
:100100000B080B0872070B080B080B080B080B08F1
:100110000B080B08F9070B080B080B080B080B085A
:100120000B080B087A070B080B080B080B080B08C9
:100130000B080B0802080B080B080B080B080B0830
:100140000B080B08F9070B080B080B080B080B082A
:100150000B080B08A4070B080B080B080B080B086F
:100160000B080B080B080B080B080B080B080B08F7
:100170000B080B08DF070B080B080B080B080B0814
:100180000B080B08B007461959196C199219CD19AB
:10019000DE19F1191A1A084AD73B3BCE016E84BC0E
:1001A000BFFDC12F3D6C74319ABD56833DDA3D00D1
:1001B000C77F11BED9E4BB4C3E916BAAAABE00001A
:1001C00000803F05A84CCDB2D44EB93836A9020CF8
:1001D00050B9918688083CA6AAAA2ABE00000080D1
:1001E0003F006E616E00696E660000407A10F35A3F
:1001F00000A0724E18090010A5D4E80000E8764867
:10020000170000E40B54020000CA9A3B000000E112
:10021000F505000080969800000040420F000000A5
:10022000A08601000000102700000000E803000085
:1002300000006400000000000A000000000001004F
:10024000000000002C76D888DC674F0823DFC1DF70
:10025000AE59E1B1B796E5E3E453C63AE651997673
:1002600096E8E6C28426EB898C9B62ED407C6FFCAD
:10027000EFBC9C9F40F2BAA56FA5F490055A2AF7EF
:100280005C936B6CF9676DC11BFCE0E40D47FEF5F8
:1002900020E6B500D0ED902E030094357705008060
:1002A000841E080000204E0A000000C80C333333BF
:1002B000330F986E12831141EF8D2114893BE6555F
:1002C00016CFFEE6DB18D1844B381BF77C1D901D42
:1002D000A4BBE424203284725E228100C9F124ECA4
:1002E000A1E53D2711241FBECFEFD1E2DEBFCDBF78
:1002F00000E00CBF12E0A0E0B2E0E0E7FAE400E0CA
:100300000BBF02C007900D92AA3EB107D9F72DE0AE
:10031000AAEEB2E001C01D92A13CB207E1F70E9433
:10032000A80E0C9436256CCE80911403882329F0F6
:100330008091FF029091000308958091FE0288232E
:1003400029F08091FA039091FB0308958091F202C5
:100350009091F302089580911403882329F08091ED
:1003600001039091020308958091FE02882329F0F1
:100370008091FC039091FD0308958091F402909187
:10038000F502089580911403882329F080910303D6
:100390009091040308958091FE02882329F08091B2
:1003A000FE039091FF0308958091F6029091F70269
:1003B00008959091F0029111FCCF9091BC0094FDB2
:1003C000F8CF1092F1028093EB021092000240935A
:1003D000BA0381E08093EA021092EF028093F00268
:1003E0006093EC02ECEBF0E08081856A80830895F5
:1003F000862B482B422B69E08AE1DBCF0895909150
:10040000F0029111FCCF9091BC0094FDF8CF809345
:10041000EB021092F102109200021092EE0281E0C3
:100420008093EA028093F0028093ED026093EC02E5
:10043000ECEBF0E08081856A80830895CF93DF93B1
:10044000C82FD42FDCDF8091F0028111FCCF809186
:10045000BC0084FDF8CF1092F102C160C093EB02A2
:1004600081E0809300021092EE02D093EA02809322
:10047000F002ECEBF0E08081856A8083DF91CF9120
:10048000089588E48093B800ECEBF0E0808184600C
:10049000808378940895CF92DF92EF92FF920F932A
:1004A0001F93CF93DF931092F8021092F9021092EB
:1004B000FA021092FB0238DF8C014DDFEC01B8012B
:1004C000110F880B990B0E94EF1C6B017C01BE0180
:1004D000DD0F880B990B0E94EF1CA70196010E946B
:1004E000FA1B20E030E044E353E40E94641E2BED4D
:1004F0003FE049E450E40E94541C062F172FD82FE8
:10050000C92F462F572F682F792F4093F802509309
:10051000F9026093FA027093FB0220E030E0A90137
:10052000602F712F0E944D1C882374F420E030E06E
:1005300044EB53E4602F712F8D2F9C2F0E94871B5B
:10054000062F172FD82FC92F602F712F8D2F9C2F7B
:10055000DF91CF911F910F91FF90EF90DF90CF909F
:100560000895EF92FF920F931F93E1E0E093FE0254
:10057000E3E0F4E091838083738362835583448353
:100580003783268311870087F386E2861F910F91B8
:10059000FF90EF9008952BED3FE049E450E40E9476
:1005A000641E20E030E044E353E40C94541C0895AE
:1005B0004F925F926F927F928F929F92AF92BF9273
:1005C000CF92DF92EF92FF920F931F93CF93DF931F
:1005D000CDB7DEB72C970FB6F894DEBF0FBECDBFF8
:1005E0002B013C0129873A874B875C87E982FA8295
:1005F0000B831C839B01AC01C801B7010E94861BC1
:10060000CADF6D837E838F83988729853A854B85E2
:100610005C85C601B5010E94861BBDDF4B015C01F4
:1006200020E030E040E05FE36D817E818F8198853E
:100630000E94641E0E94C71E9B01AC010E94641EA2
:100640006B017C01C301B201A6DF0E94511C2B018A
:100650003C0169817A818B819C819DDF0E94511CC4
:100660009B01AC01C301B2010E94641E2B013C013D
:1006700020E030E040E05FE3C501B4010E94641E69
:100680000E94C71E4B015C019B01AC01C301B2017A
:100690000E94641E9B01AC01C501B4010E94641E4E
:1006A0009B01AC01C701B6010E94871B6B017C0155
:1006B0009B01AC0160E070E080E89FE30E94861B34
:1006C0000E94D11E4B015C01C701B6010E94D11EE0
:1006D000A50194010E94FA1B9B01AC010E94871B9B
:1006E00029E330E148E15EE40E94641E2C960FB6D7
:1006F000F894DEBF0FBECDBFDF91CF911F910F9158
:10070000FF90EF90DF90CF90BF90AF909F908F9031
:100710007F906F905F904F90089520E030E044E329
:1007200053E40E94641E2BED3FE049E450E40C9436
:10073000541C08954F925F926F927F928F929F9276
:10074000AF92BF92CF92DF92EF92FF920F931F93DF
:10075000CF93DF93CDB7DEB760970FB6F894DEBFC7
:100760000FBECDBF29833A834B835C8314DF698737
:100770007A878B879C87C801B7010DDF2B013C016D
:1007800029813A814B815C81C601B5010E94861B9B
:1007900025E33AEF4EE85CE30E94641E6B017C01A6
:1007A0000E94C71E6D837E838F839887C301B20129
:1007B0000E94511C69837A838B839C839B01AC01CB
:1007C0006D817E818F8198850E94641E6D877E87F2
:1007D0008F87988B69857A858B859C850E94511CB3
:1007E0006D837E838F839887C301B2010E94C71EE9
:1007F0009B01AC016D817E818F8198850E94641E72
:100800002B013C0169857A858B859C850E94C71EDA
:100810009B01AC0169817A818B819C810E94641E5D
:100820004B015C01C701B6010E94511C9B01AC0148
:10083000C501B4010E94641E9B01AC01C301B20159
:100840000E94861B9B01AC016D857E858F859889F2
:100850000E94FA1B2BED3FE049EC50E40E94871BFD
:100860002BED3FE049EC50E40E94311D56DF6096CD
:100870000FB6F894DEBF0FBECDBFDF91CF911F91B1
:100880000F91FF90EF90DF90CF90BF90AF909F902F
:100890008F907F906F905F904F9008952F923F922E
:1008A0004F925F926F927F928F929F92AF92BF9280
:1008B000CF92DF92EF92FF920F931F93CF93DF932C
:1008C000CDB7DEB728970FB6F894DEBF0FBECDBF09
:1008D000E3E0F4E000811181428153811801240E8C
:1008E000351E33201CF42FEF221A320A3594279438
:1008F000E3E0F4E0A481B58126813781CD01820F48
:10090000931F99230CF401963C017594679483E03E
:1009100094E0FC01E084F18482859385B701680F3F
:10092000791F772314F46F5F7F4F4B019594879461
:10093000401B510B5A011AF4FFEFAF1ABF0AB594CE
:10094000A7942A1B3B0B29011AF44FEF441A540AAF
:10095000559447948E199F098C0112F40F5F1F4F15
:1009600015950795C2018A0D9B1D800F911F63E0AD
:1009700070E00E94B322072E000C880B990B0E9496
:10098000EF1C6B017C01B501BB0C880B990B0E941D
:10099000EF1C9B01AC01C701B6010E94541C698386
:1009A0007A838B839C83B201550C880B990B0E9430
:1009B000EF1C9B01AC01C701B6010E94541C6D8362
:1009C0007E838F839887B801110F880B990B0E9443
:1009D000EF1C9B01AC01C701B6010E94541C6B01C6
:1009E0007C0102EF12E0F8016081718162197309E4
:1009F000072E000C880B990B0E94EF1C29813A816D
:100A00004B815C810E94641E0E94BC1CEAEFF3E0F3
:100A100071836083F8016281738166197709072EFB
:100A2000000C880B990B0E94EF1C2D813E814F8199
:100A300058850E94641E0E94BC1C7093FD03609345
:100A4000FC03F8016481758168197909072E000C8F
:100A5000880B990B0E94EF1CA70196010E94641E4F
:100A60000E94BC1C7093FF036093FE0328960FB690
:100A7000F894DEBF0FBECDBFDF91CF911F910F91D4
:100A8000FF90EF90DF90CF90BF90AF909F908F90AE
:100A90007F906F905F904F903F902F900895EF92CE
:100AA000FF920F931F938091FE02882309F45AC08E
:100AB0001092FE0257C046E060E08AE1BFDC34DC01
:100AC00020910102309102028217930724F490933F
:100AD00002028093010228DC20910302309104027B
:100AE0002817390724F4909304028093030233DC1F
:100AF00020910502309106028217930724F4909307
:100B000006028093050227DC20910702309108023B
:100B10002817390724F4909308028093070232DCE7
:100B20002091090230910A028217930724F49093CE
:100B30000A028093090226DC20910B0230910C02FC
:100B40002817390724F490930C0280930B028091AC
:100B5000FC029091FD0201969093FD028093FC02AD
:100B600080E01CC08091FC029091FD0280329E4486
:100B700008F4A1CF1092FD021092FC02E1E0F2E035
:100B8000E284F38400851185268137814481558173
:100B90006281738180819181E4DC81E01F910F91FA
:100BA000FF90EF90089591E0909314038B3008F03C
:100BB0008AE080930D0281E0613009F080E080934B
:100BC000130308954F925F926F927F928F929F923C
:100BD000AF92BF92DF92EF92FF920F931F93CF934A
:100BE000DF93D0900D02ED2CF12C870101501109FB
:100BF00080911103909112030817190724F41092A1
:100C0000120310921103C0E0D0E015C1FE01EE0FF7
:100C1000FF1FEE0FFF1FEB5FFC4F40815181628190
:100C20007381411551056105710521F18091110311
:100C300090911203FC01EE0FFF1FE80FF91FEC0F5C
:100C4000FD1FEE0FFF1FE15FFB4F80819181092E99
:100C5000000CAA0BBB0B481B590B6A0B7B0BFE014C
:100C6000EE0FFF1FEE0FFF1FEB5FFC4F4083518322
:100C70006283738380911103909112032091FE028D
:100C8000222341F0FE01EE0FFF1FE650FC4F2081B2
:100C9000318107C0FE01EE0FFF1FEE50FD4F208196
:100CA0003181FC01EE0FFF1FE80FF91FEC0FFD1F54
:100CB000EE0FFF1FE15FFB4F31832083FE01EE0F3C
:100CC000FF1FEE0FFF1FEB5FFC4F80819181A28120
:100CD000B3814901330FAA08BB08880E991EAA1ECA
:100CE000BB1E80829182A282B38280911303811104
:100CF00024C08FC0F901EE0FFF1FE20FF31FEC0FAE
:100D0000FD1FEE0FFF1FE15FFB4F40815181862FDA
:100D100090E0FC01EE0FFF1FE80FF91FEC0FFD1F25
:100D2000EE0FFF1FE15FFB4F8081918184179507D4
:100D30000CF4622F2F5F3F4F03C020E030E060E0F3
:100D400020173107BCF220E030E070E022C0F9014A
:100D5000EE0FFF1FE20FF31FEC0FFD1FEE0FFF1F43
:100D6000E15FFB4F40815181872F90E0FC01EE0F46
:100D7000FF1FE80FF91FEC0FFD1FEE0FFF1FE15FD4
:100D8000FB4F80819181481759070CF4722F2F5F18
:100D90003F4F20173107DCF2862F90E0FC01EE0F69
:100DA000FF1FE80FF91FEC0FFD1FEE0FFF1FE15FA4
:100DB000FB4F20813181872F90E0FC01EE0FFF1F58
:100DC000E80FF91FEC0FFD1FEE0FFF1FE15FFB4F58
:100DD00080819181820F931F092E000CAA0BBB0BFF
:100DE000A5019401281B390B4A0B5B0BCA01B90101
:100DF000970122503109032E000C440B550B0E9421
:100E0000C622FE01EE0FFF1FE150FD4F318320830C
:100E100011C04D2C512C612C712CC501B401A301C2
:100E200092010E94C622FE01EE0FFF1FE150FD4F0E
:100E3000318320832196C330D1050CF4E7CE809115
:100E40001103909112030196909312038093110362
:100E5000DF91CF911F910F91FF90EF90DF90BF90A6
:100E6000AF909F908F907F906F905F904F9008957C
:100E70001F920F920FB60F9211240BB60F922F9361
:100E80003F934F935F936F937F938F939F93AF9312
:100E9000BF93EF93FF938091B900E82FE87F8E2FE7
:100EA00090E0FC013897E135F10508F0B4C08827DF
:100EB000EE58FF4F8F4F0C94E2228091EB0280930B
:100EC000BB0085E88093BC00AEC0809100028823FF
:100ED00029F08091EB0281608093BB0085E88093CC
:100EE000BC00A1C08091EC028093BB0085E8809398
:100EF000BC0099C08091ED02882351F01092ED0260
:100F00001092F002ECEBF0E08081856980838BC069
:100F10009091EF028091EA02981730F084E9809373
:100F2000BC001092F0027FC0E091EF0281E08E0FD2
:100F30008093EF02F0E0E654FC4F80818093BB0089
:100F400085E88093BC006FC08091EA02823020F077
:100F500085EC8093BC0067C085E88093BC0063C0CB
:100F6000EAEBF3E02081818190E0982F8827822BA3
:100F7000A2EFB2E011969C938E932281838190E040
:100F8000982F8827822B13969C938E9312972481F7
:100F9000858190E0982F8827822B15969C938E93BD
:100FA00014978091FE02811179DC809114038111E4
:100FB00009DE84E98093BC001092F00234C0E09115
:100FC000EE0281E08E0F8093EE02F0E08091BB0094
:100FD000E654FC4F80839091EE028091EA029817CC
:100FE00020F085E88093BC001EC085EC8093BC0097
:100FF0001AC081E08093F10284E98093BC001092D2
:10100000F00211C082E08093F10284E98093BC0079
:101010001092F00208C083E08093F10280E980938F
:10102000BC001092F002FF91EF91BF91AF919F91A0
:101030008F917F916F915F914F913F912F910F9081
:101040000BBE0F900FBE0F901F901895662321F0D6
:1010500098B1946098B903C098B19B7F98B998B142
:10106000906898B980FF04C098B1986098B903C09F
:1010700098B1977F98B981FF04C098B1906198B9F1
:1010800003C098B19F7E98B982FF04C098B1906266
:1010900098B903C098B19F7D98B983FF04C088B107
:1010A000806488B903C088B18F7B88B985E08A9550
:1010B000F1F7000088B18F7788B985E08A95F1F75C
:1010C00000000895CF93DF93C82FD62F82958F709D
:1010D000BDDF6D2F8C2FBADF85ED8A95F1F700000B
:1010E000DF91CF91089587B1846087B987B1806817
:1010F00087B987B1886087B987B1806187B987B1BF
:10110000806287B987B1806487B92FEF89EF90E05B
:10111000215080409040E1F700C0000060E083E093
:1011200095DF8FE19EE40197F1F700C0000060E0D9
:1011300083E08CDF8FE99FE00197F1F700C00000AA
:1011400060E083E083DF8FE99FE00197F1F700C063
:10115000000060E082E07ADF8FE99FE00197F1F71D
:1011600000C0000060E088E2ADDF60E088E0AADF58
:1011700060E081E0A7DF8FE39FE10197F1F700C016
:10118000000060E086E09EDF60E08FE09BCF089586
:1011900061E098CF08950F931F93CF938C01C0E027
:1011A00002C0F6DFCF5FF801EC0FF11D80818823CC
:1011B00011F0CF3FB1F7CF911F910F9108956111B9
:1011C00002C090E801C090EC8F7060E0892B7ACF6C
:1011D000089560E081E076DF8FE39FE10197F1F70A
:1011E00000C00000089590911F039130B1F030F0DD
:1011F000923021F1933009F445C095C0893509F04A
:1012000092C010921C0310921D0391E090931E0354
:101210008093540490931F0386C0893509F083C0DE
:10122000E0911E0391E09E0F90931E03F0E0EC5AB4
:10123000FB4F808382E080931F0375C090911D0354
:10124000993058F4E0911E0391E09E0F90931E0395
:10125000F0E0EC5AFB4F808303C083E080931F03D0
:1012600080911D038F5F80931D035DC0E82FF0E028
:10127000EC5AFB4F908120911C03920F90931C031A
:101280008F5F01C080E0883088F390915C0480918A
:101290001C0398133DC081E080931B0320E00BC02A
:1012A000822F90E0FC01EC5AFB4F3081FC01E55BA2
:1012B000FB4F30832F5F293098F3EBE4F4E0228179
:1012C000838190E0982F8827820F911D90931A03B5
:1012D000809319032481858190E0982F8827820FBD
:1012E000911D90931803809317032681878190E0C6
:1012F000982F8827820F911D9695879596958795AB
:10130000969587959A95909316038093150302C03E
:1013100010921B0389E0E4E5F4E0DF011D928A9559
:10132000E9F710921F0380911B0308958091190320
:1013300090911A0308951F920F920FB60F921124E5
:101340002F938F939F9380913D038F5F80933D03F5
:1013500080913B0390913C03019690933C038093D2
:101360003B0381E08093370380913D03843650F046
:1013700080913D03845680933D0381E08093110268
:1013800080933A0380913B0390913C038C329140CF
:1013900078F080913B0390913C038C529140909364
:1013A0003C0380933B0381E08093390380933803AF
:1013B0009F918F912F910F900FBE0F901F901895B6
:1013C0001F920F920FB60F9211240BB60F928F93AC
:1013D0009F93EF93FF938091030183FD10C0809151
:1013E000630383FF0CC080915E0390915F030196BD
:1013F00090935F0380935E0381E080931602E3E0A5
:10140000F1E08081887080936303808184FD10C047
:101410008091620384FF0CC080916003909161030E
:101420000196909361038093600381E0809316029C
:1014300080910301807180936203FF91EF919F91EE
:101440008F910F900BBE0F900FBE0F901F901895AD
:101450001F920F920FB60F9211240BB60F922F937B
:101460003F934F935F936F937F938F939F93AF932C
:10147000BF93EF93FF936091780070917900709320
:1014800059036093580380917B00882319F081E011
:1014900090E002C080E090E0880F991F82959295BD
:1014A000907F9827807F982790917C009F71892B4F
:1014B000809357038130C9F028F08230D1F0803218
:1014C00009F15CC06130724050F461E088E077DE81
:1014D0008AE192E060DE81E08093260302C01092F0
:1014E000260381E480937C0049C082E480937C00E1
:1014F00045C080E480937C00EBE7F0E08081886069
:1015000080833CC080E090E00E94ED1C20E030EC45
:101510004FE754E40E94541C20E030E048EC52E4D1
:101520000E94641E609344037093450380934603B6
:101530009093470360914403709145038091460363
:101540009091470320E030E046E952E40E94861B78
:1015500020E030E040E850E40E94641E60934403C1
:1015600070934503809346039093470380E48093F0
:101570007C00EBE7F0E08081877F8083EAE7F0E0A2
:10158000808180648083FF91EF91BF91AF919F91A3
:101590008F917F916F915F914F913F912F910F901C
:1015A0000BBE0F900FBE0F901F901895ECE7F0E068
:1015B000808180648083EAE7F0E080818C688083AA
:1015C000EEE7F0E0808186608083EDE7F0E08081E7
:1015D0008160808378940895E1E0F1E08081806308
:1015E00080833BEA3093A00029E12093A10080E0B2
:1015F00094E09093A9008093A80046E450E05093B3
:10160000AB004093AA001092AD001092AC00EAE04B
:10161000F1E0408140634083309320012093210119
:1016200090932901809328016AE570E070932B0163
:1016300060932A0110922D0110922C0144B1406454
:1016400044B9309380002093810090938900809367
:10165000880070938B0060938A0010928D00109226
:101660008C000895019B08C0009B08C0039B08C024
:10167000029B08C080E0089581E3089582E3089505
:1016800083E3089584E3089580911102882309F487
:10169000A7C01092110280915A0390915B03992385
:1016A0000CF053C091958195910990935B038093C1
:1016B0005A0320915C0330915D031216130664F403
:1016C000AC01421B530B5093560340935503909328
:1016D0005403809353030AC0280F391F30935403D7
:1016E00020935303909356038093550380915303A3
:1016F00090915403992324F41092540310925303AD
:101700008091550390915603992324F41092560327
:10171000109255031092AB001092AA0080915503CD
:10172000909156039E5F90932B0180932A018091A4
:101730005303909154039E5F9093AD008093AC004F
:1017400010922D0110922C01089520915C0330918C
:101750005D031216130664F4AC01421B530B509345
:1017600056034093550390935403809353030AC048
:10177000280F391F3093540320935303909356033B
:10178000809355038091530390915403992324F43B
:101790001092540310925303809155039091560375
:1017A000992324F410925603109255038091530309
:1017B000909154039E5F9093AB008093AA00109287
:1017C0002B0110922A011092AD001092AC00809172
:1017D0005503909156039E5F90932D0180932C01A9
:1017E00008958F929F92AF92BF92CF92DF92EF9225
:1017F000FF920F931F93CF93861B970BAC0122F49C
:1018000087E691E04FEF5FEF843B910510F4C0E075
:1018100001C0C1E087E090E012C09C012150310975
:10182000F901EE0FFF1FE052F84F60817181880FC0
:10183000991FFC01E052F84F71836083C9011816AB
:1018400019065CF35093E1074093E00710924303BD
:1018500010924203CA010F964F97A0F018C0FC01E6
:10186000EE0FFF1FE052F84F20813181609142035B
:1018700070914303260F371F309343032093420395
:10188000019602C080E090E08830910544F3809199
:10189000EE079091EF078A01081B190B1093410383
:1018A000009340038DE7849F7001859FF00C112405
:1018B0006091420370914303072E000C880B990B33
:1018C0000E94EF1C2DEC3CEC4CEC5DE30E94641E8E
:1018D0004B015C01B701FF0C880B990B0E94EF1CB8
:1018E000A50194010E94871B6B017C01B801660F62
:1018F000771F600F711F072E000C880B990B0E9439
:10190000EF1CA70196010E94871B0E94BC1C7093CC
:101910003F0360933E036D39714034F08CE991E0F0
:1019200090933F0380933E0380913E0390913F0349
:10193000992324F410923F0310923E03C1111BC05F
:101940001092AB001092AA0020913E0330913F0309
:1019500082EC93E0821B930B90932B0180932A01DE
:1019600080E094E09093AD008093AC0010922D0144
:1019700010922C011AC01092AB001092AA0082ECB7
:1019800093E090932B0180932A0120913E033091A4
:101990003F0380E094E0821B930B9093AD00809313
:1019A000AC0010922D0110922C01CF911F910F913C
:1019B000FF90EF90DF90CF90BF90AF909F908F906F
:1019C00008959C01261B370B22F4C90188599E4FAC
:1019D00001C0C901843B910518F41092200303C093
:1019E00081E080932003809120038823D9F02F5F2A
:1019F0003F4F2330310580F180E094E09093AB00BD
:101A00008093AA0082EC93E090932B0180932A01AB
:101A10001092AD001092AC0010922D0110922C018A
:101A200080E008952F5F3F4F23303105B8F01092CA
:101A3000AB001092AA0010922B0110922A0120E014
:101A400034E03093AD002093AC0022EC33E03093CF
:101A50002D0120932C01089581E0089581E00895DF
:101A600014C01092AB001092AA0010922B01109299
:101A70002A0180E094E09093AD008093AC0082EC6A
:101A800093E090932D0180932C0109D8882349F38A
:101A90001092AB001092AA0010922B0110922A0112
:101AA0001092AD001092AC0010922D0110922C01FA
:101AB00008950E94410241E06BE08AE10E94D90151
:101AC00020E040E16CE081E00C94F80108954F9231
:101AD0005F926F927F92AF92BF92CF92DF92EF921E
:101AE000FF920F931F932B013C0169017A018091B2
:101AF0006A03813009F4A2C020F0823009F4C7C023
:101B00001AC10E94531680931C080E94371988231B
:101B100009F411C10E94C11A833008F40CC10E945B
:101B2000991A609378037093790380937A03909362
:101B30007B030E94A61A60937403709375038093CD
:101B40007603909377030E94BA1A60936C037093A4
:101B50006D0380936E0390936F030E94B31A60939A
:101B600070037093710380937203909373030091D9
:101B70006C0310916D0320916E0330916F03093255
:101B800011052105310508F0D6C0693271058105BE
:101B9000910508F0D0C080916503813039F120F0C3
:101BA000823009F445C0C7C0209174033091750399
:101BB0004091760350917703609178037091790397
:101BC00080917A0390917B03560167018301720132
:101BD0000E94D802609333037093340380933503DB
:101BE0009093360381E080936503A5C02091740330
:101BF000309175034091760350917703609178039B
:101C00007091790380917A0390917B03560167016B
:101C1000830172010E949A0360932F037093300333
:101C2000809331039093320382E08093650383C0F5
:101C300081E080936A03109265037DC060912B035D
:101C400070912C0380912D0390912E030E94C11C52
:101C50006B017C0160912F037091300380913103FF
:101C6000909132030E94C11CDC01CB01B601A9DEB8
:101C7000882309F460C010925F0310925E031092F3
:101C800061031092600382E080936A0354C0609104
:101C90002B0370912C0380912D0390912E030E94B1
:101CA000C11C6B017C0160912F0370913003809106
:101CB0003103909132030E94C11CDC01CB01B601BB
:101CC00090DD60915E0370915F038091600390915D
:101CD0006103680F791F7695679580E090E00E9418
:101CE000ED1C2DEC3CEC4CE550E40E94641E60932E
:101CF0002703709328038093290390932A0320914C
:101D000033033091340340913503509136030E94E0
:101D1000591E882384F01092AB001092AA001092F2
:101D20002B0110922A011092AD001092AC0010927B
:101D30002D0110922C011F910F91FF90EF90DF90D9
:101D4000CF90BF90AF907F906F905F904F9008952D
:101D50001092690310926803C6D9ABDE2FEF31EE03
:101D600084E0215030408040E1F700C0000061E095
:101D70008AE00E94D30582B18F6082B99FEFA1EE05
:101D8000B4E09150A040B040E1F700C0000080E214
:101D900092E001DA61E080E012DA08DC1DDCEAE7BB
:101DA000F0E080818064808385B5836085BD84B5E3
:101DB000826084BDEEE6F0E080818260808389EFFE
:101DC00087BD7894E5E0F1E0808188618083E8E672
:101DD000F0E0808182608083ECE6F0E080818063C7
:101DE000808320E034E244EF50E060E072EC81E078
:101DF00090E034D620E034E244EF50E060E875E251
:101E000080E090E015D720E034E244EF50E060E05D
:101E100072EC81E090E00E94111780913A038823D0
:101E200009F446C010923A031DDC809352038823C4
:101E300009F43AC080915103811136C061E080916C
:101E40005003BDD9E091500381E08E0F8093500381
:101E5000F0E080915203E051F84F808399D980914E
:101E60005003843009F51DC08C2F90E0FC01E05137
:101E7000F84F2081FC01EE5EFD4F8081281304C0E5
:101E800081E080934F030BC0A4D980E392E083D913
:101E900061E080E094D91092500310924F03CF5F1D
:101EA00001C0C0E0C43000F380915203809351031D
:101EB00080914F03882309F4B0CF60E875E280E099
:101EC00090E00E94D91A81E00E941B1B41E061E072
:101ED00087E00E94521B10924F031092500379D951
:101EE00060E080E06CD981E492E055D980910E02E7
:101EF000882319F0B5DD10920E0280913A038823F1
:101F000009F495C010923A03ADDB80935203882305
:101F100009F489C080915103811185C05AD960E0CC
:101F200080E04DD980915203823369F118F48133F6
:101F300031F047C0833399F18433E1F142C080919D
:101F40004D0380934E03811103C01092480313C0C8
:101F5000813019F4809348030EC0823019F48093C5
:101F6000480309C0833019F48093480304C08430C7
:101F700011F480934803109267031092660381E086
:101F800080934C031EC080914D03882321F0815023
:101F900080934D0316C084E080934D0312C080915E
:101FA0004D03843020F48F5F80934D030AC010925C
:101FB0004D0307C080914E0380934D0381E08093D1
:101FC0004C0380914D03811104C081E592E0E3D878
:101FD00017C0813021F48EE592E0DDD811C0823047
:101FE00021F48BE692E0D7D80BC0833021F488E748
:101FF00092E0D1D805C0843019F485E892E0CBD8BE
:1020000080914C03882379F010924C0310924B037B
:1020100010924F0360E08DE0D2D88EE492E0BBD8FE
:1020200081E080932103809152038093510380913A
:102030004803823009F4E4C030F4882359F0813039
:1020400009F443C0B7C4833009F4C8C2843009F42A
:1020500047C4B0C419DB1FD7882321F01FD7809352
:102060006B03A9D70E94151990935D0380935C03BD
:102070000E941A1990935B0380935A030E941F19C0
:10208000813351F480E094E090938B0080938A0038
:1020900084B1806484B909C08AE590E090938B0094
:1020A00080938A0084B18F7B84B90E942219809327
:1020B0002203813329F480912303813309F0D0DC9A
:1020C000809122038093230375C4E5D6882309F405
:1020D0004BC0E4D680936B030E947D18882309F4DB
:1020E00069C4C091670381E08C0F80936703D0E0DF
:1020F0000E942E190E94EF1C2DEB37E346E855E3B2
:102100000E94641ECC0FDD1FCC0FDD1FC25ADB4FB7
:10211000688379838A839B83C091660381E08C0FF7
:1021200080936603D0E00E9425190E94EF1C2DEBDE
:1021300037E346E855E30E94641ECC0FDD1FCC0F49
:10214000DD1FC85CD94F688379838A839B8382E9CA
:1021500092E0BED68091170290911802019690935A
:1021600018028093170226C480913803882309F44B
:1021700021C40E94991AC62FD72FF82EE92E0E944B
:10218000A61A262F372F40914403509145036091A2
:10219000460370914703E0914E031F92EF939F9384
:1021A0008F933F932F93EF92FF92DF93CF93809182
:1021B00025031F928F93809124031F928F93809108
:1021C00026031F928F937F936F935F934F9389E9B9
:1021D00092E09F938F9386EF95E09F938F930E9459
:1021E000AA2486EF95E074D6109238032DB73EB737
:1021F000285E3F4F0FB6F8943EBF0FBE2DBFDAC327
:1022000068D4882361F068D4809364030E94F30843
:10221000882329F08BD89093100280930F0280912D
:102220000F02909110020F9720F481E08093250314
:1022300002C01092250380916A03811134D561E0B8
:1022400080E00E94DF0880912E038F9380912D0300
:102250008F9380912C038F9380912B038F93809188
:1022600069038F93809168038F9380912A038F93E2
:10227000809129038F93809128038F938091270366
:102280008F9383EB92E09F938F9388E098E09F93E6
:102290008F930E94AA2488E098E00E94CB08809146
:1022A000170290911802ADB7BEB71E960FB6F894FC
:1022B000BEBF0FBEADBF029708F46EC180916A0326
:1022C000813009F4AAC020F0823009F4E4C072C35E
:1022D000EAD480931C0887E194E9A6E3B2E48093F2
:1022E000780390937903A0937A03B0937B038DE5F1
:1022F0009FEAA3E9B2EC8093740390937503A093D3
:102300007603B09377030E94BA1A60936C037093BC
:102310006D0380936E0390936F038091650381300A
:10232000C9F120F0823009F469C044C38091680388
:1023300090916903880F991F880F991FFC01E85C31
:10234000F94FA080B180C280D380FC01E25AFB4FDC
:10235000E080F18002811381209174033091750334
:1023600040917603509177036091780370917903DF
:1023700080917A0390917B030E94D802609333038B
:1023800070933403809335039093360381E08093F8
:10239000650310C38091680390916903880F991FAA
:1023A000880F991FFC01E85CF94FA080B180C280C2
:1023B000D380FC01E25AFB4FE080F180028113815F
:1023C0002091740330917503409176035091770307
:1023D000609178037091790380917A0390917B03E7
:1023E0000E949A0360932F0370933003809331030C
:1023F0009093320382E080936503DCC281E0809396
:102400006A0310926503BFEF21EE34E0B150204023
:102410003040E1F700C00000CDC246E060E08AE154
:102420000E941E020E944B0260932B0370932C03A8
:1024300080932D0390932E038FE39CE90197F1F78E
:1024400000C0000060912B0370912C0380912D033C
:1024500090912E030E94C11C6B017C0160912F039F
:102460007091300380913103909132030E94C11C1E
:10247000DC01CB01B601A5DA882309F49BC21092D6
:102480005F0310925E03109261031092600382E07A
:1024900080936A038FC246E060E08AE10E941E02D8
:1024A0000E944B0260932B0370932C0380932D03A7
:1024B00090932E03AFE3BCE91197F1F700C0000041
:1024C00060912B0370912C0380912D0390912E032A
:1024D0000E94C11C6B017C0160912F03709130033D
:1024E00080913103909132030E94C11CDC01CB0129
:1024F000B60177D98FE39CE90197F1F700C000009E
:1025000060912703709128038091290390912A03F9
:1025100020913303309134034091350350913603B9
:102520000E94591E8823ACF010926A0380916803C0
:102530009091690301969093690380936803809159
:102540001702909118020197909318028093170236
:1025500031C260915E0370915F038091600390913E
:102560006103680F791F80E090E00E94ED1C20E07D
:1025700030E040E05FE30E94641E23E333E343E680
:1025800050E40E94641E6093270370932803809395
:10259000290390932A030EC2209138063091390600
:1025A00040913A0650913B0660915E0470915F0441
:1025B00080916004909161048ADA1092AB001092CD
:1025C000AA0010922B0110922A011092AD001092D5
:1025D000AC0010922D0110922C01ECC19FEFA3ECE6
:1025E000B9E09150A040B040E1F700C0000061E0C8
:1025F00080E00E94DF08809149031F928F938091B1
:102600004A031F928F9384ED92E09F938F938DE105
:1026100098E09F938F930E94AA242DB73EB7285F1E
:102620003F4F0FB6F8943EBF0FBE2DBF80913A03C7
:10263000882309F44FC110923A0314D880935203AF
:10264000823339F118F4813341F044C1833309F402
:102650009FC0843309F41BC13DC183E080934D03C7
:1026600085E08093480381E080934B030E94E90852
:1026700060E080E00E94DF088EEB92E00E94CB08D1
:1026800061E080E00E94DF0888E098E00E94CB08CB
:1026900021C180914A03873120F48F5F80934A03E0
:1026A00002C010924A03809149038A30D8F4909175
:1026B0004A039A30B8F41F928F931F929F938BEC2A
:1026C00092E09F938F938DE198E09F938F930E9468
:1026D000AA248DB79EB708960FB6F8949EBF0FBE7A
:1026E0008DBF4DC08A30C8F41F928F9380914A03EA
:1026F0001F928F938CEC92E09F938F938DE198E0E3
:102700009F938F930E94AA24ADB7BEB718960FB6B9
:10271000F894BEBF0FBEADBF32C090914A039A304D
:10272000C0F41F928F931F929F9383ED92E09F932B
:102730008F938DE198E09F938F930E94AA242DB7E9
:102740003EB7285F3F4F0FB6F8943EBF0FBE2DBF78
:1027500016C01F928F931F929F9384ED92E09F93D8
:102760008F938DE198E09F938F930E94AA248DB759
:102770009EB708960FB6F8949EBF0FBE8DBF61E05E
:1027800080E00E94DF088DE198E00E94CB08A2C0A3
:10279000809149038B3320F48F5F8093490302C0FB
:1027A00010924903809149038A30D8F490914A03EA
:1027B0009A30B8F41F928F931F929F938BEC92E004
:1027C0009F938F938DE198E09F938F930E94AA240B
:1027D000ADB7BEB718960FB6F894BEBF0FBEADBF6B
:1027E0004DC08A30D0F41F928F9380914A031F927C
:1027F0008F938CEC92E09F938F938DE198E09F9361
:102800008F930E94AA242DB73EB7285F3F4F0FB683
:10281000F8943EBF0FBE2DBF31C090914A039A304D
:10282000B8F41F928F931F929F9383ED92E09F9332
:102830008F938DE198E09F938F930E94AA248DB788
:102840009EB708960FB6F8949EBF0FBE8DBF16C0F8
:102850001F928F931F929F9384ED92E09F938F938B
:102860008DE198E09F938F930E94AA24ADB7BEB7E5
:1028700018960FB6F894BEBF0FBEADBF61E080E002
:102880000E94DF088DE198E00E94CB0823C083E01E
:1028900080934D03C5E0C0934803C0934E0381E08D
:1028A00080934B030E94E908EDE1F8E0DF011D92FF
:1028B000CA95E9F760E080E00E94DF0888E792E0CF
:1028C0000E94CB0861E080E00E94DF0888E098E089
:1028D0000E94CB0880914B03882309F4A7CE6AC0DD
:1028E000BFEF23EC39E0B15020403040E1F700C0A9
:1028F000000080913A03882309F457C010923A03EC
:102900000E94320B80935203882309F44AC08091BD
:102910005103811146C061E0809150030E94DF089D
:10292000E091500381E08E0F80935003F0E080919E
:102930005203E051F84F80830E94C80880915003F1
:10294000843079F50CC0822F90E0FC01E051F84F03
:102950003081FC01EE5EFD4F30832F5F01C020E02F
:10296000243088F384E080934D0385E0809348030E
:1029700080934E0381E080934F03109250030E9496
:10298000E90860E080E00E94DF088AED92E00E94A2
:10299000CB0861E080E00E94DF0888E098E00E94B8
:1029A000CB08809152038093510380914F03882379
:1029B00009F49FCF80914E03813009F49ECA909113
:1029C0003803992309F499CA9091780320917903E7
:1029D00030917A03E0917B03F0917403A091750329
:1029E000B0917603C0917703409144035091450321
:1029F00060914603709147031F928F93CF93BF93CB
:102A0000AF93FF93EF933F932F939F938091250371
:102A10001F928F93809124031F928F93809126039E
:102A20001F928F937F936F935F934F9389E992E007
:102A30009F938F9386EF95E09F938F930E94AA2494
:102A400086EF95E045D2109238038DB79EB7489631
:102A50000FB6F8949EBF0FBE8DBF4FCA8F929F9244
:102A6000AF92BF92CF92DF92EF92FF92CF93DF931C
:102A700049015A01C1ECD0E028E1288326E02093E7
:102A8000C200ABD720E030E040E851E40E94641E71
:102A90006B017C01C501B401A0D7A701960104D741
:102AA00020E030E040E05FE331D66BD77093C500A3
:102AB0006093C4008881806888837894DF91CF9187
:102AC000FF90EF90DF90CF90BF90AF909F908F904E
:102AD000089580917E03089580917E038823C9F034
:102AE000E0917F0381E08E0F80937F03F0E0EE5949
:102AF000F74F808180937C03F89480917E0381500E
:102B000080937E03789480917F03803410F010923C
:102B10007F0380917C0308951F920F920FB60F924E
:102B200011240BB60F928F93EF93FF9380917D0347
:102B3000811106C0E1ECF0E080818F7D808317C0B9
:102B4000E091800381E08E0F80938003F0E0EE5DE2
:102B5000F74F80818093C60080917D0381508093E0
:102B60007D0380918003803410F010928003FF91E8
:102B7000EF918F910F900BBE0F900FBE0F901F9093
:102B800018951F920F920FB60F9211240BB60F9249
:102B90008F939F93EF93FF938091C6008093A20839
:102BA00080917E038034A8F4E091810391E09E0F30
:102BB00090938103F0E09091A208EE59F74F908333
:102BC0008F5F80937E0380918103803410F0109298
:102BD0008103FF91EF919F918F910F900BBE0F900A
:102BE0000FBE0F901F901895909183039923F4F0D6
:102BF000E091880391E09E0F90938803F0E0ED55FB
:102C0000F74F8083F894809183038F5F80938303D1
:102C1000789480918803882314F410928803E9EC57
:102C2000F0E080818062808380E0089581E00895F3
:102C30008F929F92AF92BF92CF92DF92EF92FF92CC
:102C4000CF93DF9349015A01C9ECD0E028E12883F2
:102C500026E02093CA00C1D620E030E040E851E4ED
:102C60000E94641E6B017C01C501B401B6D6A701A8
:102C700096011AD620E030E040E05FE347D581D6E8
:102C80007093CD006093CC008881806888837894AD
:102C9000DF91CF91FF90EF90DF90CF90BF90AF90FA
:102CA0009F908F900895809184038823C9F0E091CC
:102CB000850381E08E0F80938503F0E0EC5DF64F95
:102CC000808180938203F894809184038150809363
:102CD0008403789480918503882314F410928503EB
:102CE000809182030895EF92FF921F93CF93DF9319
:102CF0007C01162FC0E0D0E009C0F701EC0FF11DF8
:102D0000808172DF811101C0DF5FCF5FC117A8F33F
:102D10008D2FDF91CF911F91FF90EF9008951F921B
:102D20000F920FB60F9211240BB60F928F93EF9361
:102D3000FF9380918303811106C0E9ECF0E080816C
:102D40008F7D808317C0E091860381E08E0F809392
:102D50008603F0E0ED55F74F80818093CE0080919F
:102D6000830381508093830380918603882314F426
:102D700010928603FF91EF918F910F900BBE0F90F1
:102D80000FBE0F901F9018951F920F920FB60F92C3
:102D900011240BB60F928F939F93EF93FF93809123
:102DA000CE0080932309809184038823ACF0E091C6
:102DB000870391E09E0F90938703F0E090912309A1
:102DC000EC5DF64F90838F5F80938403809187033F
:102DD000882314F410928703FF91EF919F918F91B4
:102DE0000F900BBE0F900FBE0F901F901895E091A3
:102DF000AE0391E09E0F9093AE03F0E0E854F54FE0
:102E00008083F8948091A9038F5F8093A9037894BD
:102E10008091AE03E1EDF0E080818062808380E00C
:102E200008958F929F92AF92BF92CF92DF92EF92CE
:102E3000FF92CF93DF9349015A01C1EDD0E028E121
:102E4000288326E02093D200C8D520E030E040E877
:102E500051E43AD76B017C01C501B401BED5A7018D
:102E6000960122D520E030E040E05FE34FD489D5E1
:102E70007093D5006093D4008881806888837894AB
:102E8000DF91CF91FF90EF90DF90CF90BF90AF9008
:102E90009F908F9008958091AA0308958091AA032E
:102EA000882399F0E091AB0381E08E0F8093AB0310
:102EB000F0E0E854F44F80818093A803F894809167
:102EC000AA0381508093AA0378948091A80308955F
:102ED0000F931F93CF93DF938C01C0E0D0E005C028
:102EE00086DF811101C0DF5FCF5FF801EC0FF11DBC
:102EF00080818111F5CF8D2FDF91CF911F910F919F
:102F000008951F920F920FB60F9211240BB60F92D5
:102F10008F93EF93FF938091A903811106C0E1ED98
:102F2000F0E080818F7D808311C0E091AC0381E06F
:102F30008E0F8093AC03F0E0E854F54F80818093CE
:102F4000D6008091A90381508093A903FF91EF914E
:102F50008F910F900BBE0F900FBE0F901F90189582
:102F60001F920F920FB60F9211240BB60F928F93F0
:102F7000EF93FF938091D6008093E409E091AD0335
:102F800081E08E0F8093AD03F0E08091E409E85476
:102F9000F44F80838091AA038F5F8093AA0380916E
:102FA000AD03FF91EF918F910F900BBE0F900FBE6D
:102FB0000F901F901895CF93DF939091A7039130B6
:102FC000E1F018F0923061F192C08C3309F091C0B9
:102FD0001092A50380E4E4EAF9E0DF01982F1D9246
:102FE0009A95E9F7E5E2FAE0DF011D928A95E9F7A3
:102FF00081E08093A70380E07DC08E3329F482E0D6
:103000008093A70380E076C0E091A50391E09E0F36
:103010009093A503F0E0EB5DF54F808380E06AC0FC
:10302000109292031092910385E0EFE9F3E0DF0143
:10303000982F1D929A95E9F7EAE9F3E0DF011D92D6
:103040008A95E9F790E032C0292F30E0F901EB5D75
:10305000F54F8081F901EC55F64F80834091920342
:10306000411104C0F901E156FC4F8083413051F415
:10307000E091910321E02E0F20939103F0E0E656BA
:10308000FC4F80838B3319F44F5F40939203209160
:103090009203223011F480939503233011F480932E
:1030A0009403243011F4809393039F5F8091A503D0
:1030B000981750F28FE993E00E942023EC0190933F
:1030C0009903809398038AE993E00E9420239093C8
:1030D000970380939603CD2B21F0892B21F480E078
:1030E00003C080E001C081E01092A70303C080E02C
:1030F00001C080E0DF91CF910895CF92DF92EF92EF
:10310000FF92CF93DF939091A603913071F018F066
:10311000923051F180C08C3309F07FC01092A4032B
:1031200081E08093A60380E079C08E3329F482E0A9
:103130008093A60380E072C0E091A40391E09E0F0B
:103140009093A403F0E0EB59F54F808380E066C0D4
:10315000822F90E0FC01EB59F54F3081FC01EB51DF
:10316000F64F30832F5F01C020E08091A403281721
:1031700078F3C5EED9E08A81E5EAFAE080838B81B5
:1031800081838C8182838D8183838E8184838F81EF
:10319000858388858683898587831086CF010E94F1
:1031A0003D236B017C0160938D0370938E038093AC
:1031B0008F03909390038B85EEEAFAE080838C85F1
:1031C00081838D8582838E8583838F85848388899F
:1031D0008583898986838A8987838B8980871186FD
:1031E000CF010E943D236093890370938A038093EB
:1031F0008B0390938C03672B682B692B31F0CD28C0
:10320000CE28CF2821F480E003C080E001C081E017
:103210001092A60303C080E001C080E0DF91CF914F
:10322000FF90EF90DF90CF90089580919803909158
:103230009903089580919603909197030895809142
:103240009503089580919403089560918903709186
:103250008A0380918B0390918C03089560918D0374
:1032600070918E0380918F03909190030895282F81
:103270008091B90390E08830910508F057C1FC01B6
:103280008827ED53FF4F8F4F0C94E222253B09F026
:103290004DC11092B2031092B1031092B303109279
:1032A000B00381E08093B4032093F80C8093B903BA
:1032B0003DC1223671F4E091B40381E08E0F80931A
:1032C000B403F0E0E850F34F208382E08093B90329
:1032D0002DC11092B9032AC1213071F4E091B403D9
:1032E00081E08E0F8093B403F0E0E850F34F208329
:1032F00083E08093B9031AC1253089F4E091B403C7
:1033000081E08E0F8093B403F0E0E850F34F208308
:1033100082E08093190283E08093B90307C1109281
:10332000B90304C1273081F4E091B40381E08E0F2A
:103330008093B403F0E0E850F34F20831092190219
:1033400084E08093B903F2C0223089F4E091B403A1
:1033500081E08E0F8093B403F0E0E850F34F2083B8
:1033600081E08093190284E08093B903DFC02130AB
:1033700071F4E091B40381E08E0F8093B403F0E028
:10338000E850F34F208384E08093B903CFC083E0FB
:10339000809319021092B903C9C0E091B40381E08F
:1033A0008E0F8093B403F0E0E850F34F20832A5F40
:1033B0002093AF0385E08093B903B8C021110EC0FC
:1033C000E091B40381E08E0F8093B403F0E0E85005
:1033D000F34F208386E08093B903A8C01092B9030D
:1033E000A5C08091B303843658F4E091B40381E022
:1033F0008E0F8093B403F0E0E850F34F208303C0B6
:1034000087E08093B9038091B3038F5F8093B30308
:103410008DC0E92FF0E0E850F34F20818091B20396
:10342000820F8093B2032091B103820F8093B10386
:103430009F5F01C092E08091AF03981750F390E036
:10344000FC01E850F34F30812091B203321363C086
:10345000FC01E750F34F90818091B10398135BC05A
:1034600081E08093B003809119028130B9F018F0A7
:10347000823039F152C087E08093C00D20E00BC04C
:10348000822F90E0FC01E850F34F3081FC01E45AB8
:10349000F24F30832F5F243698F33FC082E0809351
:1034A000C00D20E00BC0822F90E0FC01E850F34FEC
:1034B0003081FC01EC52F34F30832F5F243298F3BC
:1034C0002CC08091FE0C863041F49091FF0C91113C
:1034D00004C081E08093B80320C0863041F490910D
:1034E000FF0C983021F481E08093B70316C086303A
:1034F00041F49091FF0C913021F481E08093B60368
:103500000CC0863051F48091FF0C8E3131F481E093
:103510008093B50302C01092B00384E6E8EFFCE0AC
:10352000DF011D928A95E9F71092B9038091B003EB
:103530000895ECE5FDE062A173A184A195A14FD2AD
:1035400025E93FEB46ED53E3BFC30895ECE5FDE00D
:10355000668D778D80A191A142D225E93FEB46EDA2
:1035600053E3B2C30895ECE5FDE066A577A580A915
:1035700091A90895ECE5FDE062A973A984A995A934
:1035800008958091760D0895DC016A5F92E030E045
:1035900020E007C0FD01E90FF11D4081240F320F2B
:1035A0009F5F9617B8F3832F90E0982F8827822B80
:1035B0000895CF93DF93CDB7DEB76C970FB6F8942D
:1035C000DEBF0FBECDBF95EB998392E69A8396E05E
:1035D0009B831C8294E19D831E8291E09F831886C9
:1035E00019861A8620ED2B8728E02C871D861E86DB
:1035F0006F87788B898B1A8A9B8B1C8A9D8B1E8A7E
:103600001F8A188E198E1A8E1B8E1C8E64E1CE01B5
:103610000196BADF8B8F9C8F6CE1CE01019663DB44
:103620001092B8036C960FB6F894DEBF0FBECDBFF4
:10363000DF91CF910895CF93DF93CDB7DEB72E976B
:103640000FB6F894DEBF0FBECDBF682F70E088EED6
:1036500093E089D785EB898382E68A8386E08B8332
:1036600098E09C838D831E826F83788781E08987B1
:103670001A868B871C861D861E8666E0CE01019603
:1036800083DF8D879E876EE0CE0101962CDB109242
:10369000B7032E960FB6F894DEBF0FBECDBFDF91F5
:1036A000CF910895CF93DF93CDB7DEB760970FB674
:1036B000F894DEBF0FBECDBF95EB998392E69A8357
:1036C00096E09B8391E09C8328E02D831E829F835C
:1036D000888719866A871B864C871D861E861F86EB
:1036E000188A68E0CE0101964FDF8F87988B60E1E2
:1036F000CE010196F8DA1092B60360960FB6F894F0
:10370000DEBF0FBECDBFDF91CF9108955058BB27CC
:10371000AA270ED083C24CD230F051D220F031F41F
:103720009F3F11F41EF41CC20EF4E095E7FB04C2A7
:10373000E92F96D280F3BA176207730784079507BB
:1037400018F071F49EF5AEC20EF4E0950B2EBA2F70
:10375000A02D0B01B90190010C01CA01A001112497
:10376000FF27591B99F0593F50F4503E68F11A1643
:10377000F040A22F232F342F4427585FF3CF4695D4
:1037800037952795A795F0405395C9F77EF41F16F6
:10379000BA0B620B730B840BBAF09150A1F0FF0FC0
:1037A000BB1F661F771F881FC2F70EC0BA0F621FAC
:1037B000731F841F48F4879577956795B795F7959C
:1037C0009E3F08F0B3CF9395880F08F09927EE0F2E
:1037D000979587950895ECD158F080E891E009F429
:1037E0009EEFEDD128F040E851E059F45EEF09C0BA
:1037F000B7C158C2E92FE07833D268F3092E052A01
:10380000C1F3261737074807590738F00E2E07F877
:10381000E02569F0E025E0640AC0EF6307F8009452
:1038200007FADB01B9019D01DC01CA01AD01EF938B
:103830004AD0F4D10AD05F91552331F02BED3FE00F
:1038400049E450FD49EC63CF0895DF93DD27B92F9C
:10385000BF7740E85FE31616170648075B0710F4CA
:10386000D92F2BD29F938F937F936F93D8D2E6E972
:10387000F1E079D1D3D12F913F914F915F9130D227
:10388000DD2349F09058A2EA2AED3FE049EC5FE3DE
:10389000D0785D274DDFDF91C1C12AD108F481E0E6
:1038A000089595D1E395CBC10CD0B8C188D140F033
:1038B0007FD130F021F45F3F19F03EC15111F3C1C7
:1038C0004FC1CED198F39923C9F35523B1F3951B7A
:1038D000550BBB27AA2762177307840738F09F5F31
:1038E0005F4F220F331F441FAA1FA9F333D00E2EA0
:1038F0003AF0E0E830D091505040E695001CCAF70D
:1039000029D0FE2F27D0660F771F881FBB1F2617D1
:1039100037074807AB07B0E809F0BB0B802DBF01A4
:10392000FF2793585F4F2AF09E3F510568F004C16E
:10393000BAC15F3FECF3983EDCF3869577956795C7
:10394000B795F7959F5FC9F7880F911D9695879555
:1039500097F90895E1E0660F771F881FBB1F621774
:1039600073078407BA0720F0621B730B840BBA0B32
:10397000EE1F88F7E095089504D06894B11193C1C3
:10398000089576D188F09F5790F0B92F9927B751B5
:10399000A0F0D1F0660F771F881F991F1AF0BA9513
:1039A000C9F712C0B13081F07DD1B1E008957AC17C
:1039B000672F782F8827B85F39F0B93FCCF3869509
:1039C00077956795B395D9F73EF490958095709566
:1039D00061957F4F8F4F9F4F0895E89409C097FBE3
:1039E0003EF490958095709561957F4F8F4F9F4FD6
:1039F0009923A9F0F92F96E9BB279395F69587951A
:103A000077956795B795F111F8CFFAF4BB0F11F4DC
:103A100060FF1BC06F5F7F4F8F4F9F4F16C0882383
:103A200011F096E911C0772321F09EE8872F762FB9
:103A300005C0662371F096E8862F70E060E02AF0FA
:103A40009A95660F771F881FDAF7880F96958795E6
:103A500097F90895ADD018F011F0B1D038F480C0C6
:103A600022C1E92FFDD0B0F35523C9F3E7FB62175C
:103A7000730784079507A8F199F3E92FFF27882397
:103A80002AF03197660F771F881FDAF7952F552791
:103A9000442332F091505040220F331F441FD2F77D
:103AA000BB27E91BF50B621B730B840BB109C1F239
:103AB00022F4620F731F841FB11D31972AF0660F25
:103AC000771F881FBB1FEFCF915050405AF041F035
:103AD000882332F0660F771F881F91505040C1F73E
:103AE000939530C08695779567959F5FD9F7F8CF06
:103AF000990F0008550FAA0BE0E8FEEF16161706FF
:103B0000E807F907C0F012161306E407F50798F066
:103B1000621B730B840B950B39F40A2661F0232B7F
:103B2000242B252B21F408950A2609F4A140A695FB
:103B30008FEF811D811D089597F99F6780E870E0E0
:103B400060E008959F3F31F0915020F4879577957C
:103B50006795B795880F911D9695879597F9089564
:103B60009FEF80EC0895DF93CF931F930F93FF9205
:103B7000EF92DF927B018C01689405C0DA2EEF0191
:103B8000AFD0FE01E894A5912591359145915591CD
:103B9000AEF3EF01CDDDFE019701A801DA9479F7CC
:103BA000DF90EF90FF900F911F91CF91DF910895DB
:103BB00000240A941616170618060906089500240C
:103BC0000A9412161306140605060895C9CF50D09C
:103BD000E8F3E894E0E0BB279F57F0F02AED3FE0E0
:103BE00049EC06C0EE0FBB0F661F771F881F28F039
:103BF000B23A62077307840728F0B25A620B730B5C
:103C0000840BE3959A9572F7803830F49A95BB0F40
:103C1000661F771F881FD2F7904896CF092E03940E
:103C2000000C11F4882352F0BB0F40F4BF2B11F4A9
:103C300060FF04C06F5F7F4F8F4F9F4F0895EF93DA
:103C4000E0FF06C0A2EA2AED3FE049EC5FEB70DD41
:103C5000E5DF0F90039401FC9058E3ECF1E0E9C03C
:103C600057FD9058440F551F59F05F3F71F047952D
:103C7000880F97FB991F61F09F3F79F08795089512
:103C8000121613061406551FF2CF4695F1DF08C031
:103C9000161617061806991FF1CF8695710561054E
:103CA00008940895E894BB2766277727CB0197F9F6
:103CB00008951EDF08F48FEF08959B01AC0160E0CA
:103CC00070E080E89FE3F0CD0BD0A8CF71DF28F043
:103CD00076DF18F0952309F02FCF42CF1124E3CFE0
:103CE000BFDFA0F3959FD1F3950F50E0551F629F62
:103CF000F001729FBB27F00DB11D639FAA27F00D45
:103D0000B11DAA1F649F6627B00DA11D661F829F6B
:103D10002227B00DA11D621F739FB00DA11D621F50
:103D2000839FA00D611D221F749F3327A00D611D6D
:103D3000231F849F600D211D822F762F6A2F11244F
:103D40009F5750408AF0E1F088234AF0EE0FFF1FA2
:103D5000BB1F661F771F881F91505040A9F79E3FD9
:103D6000510570F0E9CE9FCF5F3FECF3983EDCF356
:103D7000869577956795B795F795E7959F5FC1F716
:103D8000FE2B880F911D9695879597F908959F931F
:103D90001EDF0F9007FCEE5F52CF11F40EF4E0CE61
:103DA000D1CE66DFD0F39923D9F3CEF39F57550BCD
:103DB00087FF38D00024A0E640EA9001805856954D
:103DC000979528F4805C660F771F881F20F02617D0
:103DD0003707480730F4621B730B840B2029312905
:103DE0004A2BA69517940794202531254A2758F782
:103DF000660F771F881F20F026173707480730F413
:103E0000620B730B840B200D311D411DA09581F7B2
:103E1000B901842F9158880F9695879508959B0135
:103E2000AC0152CF91505040660F771F881FD2F7D8
:103E300008959F938F937F936F93FF93EF939B01CD
:103E4000AC0142DFEF91FF918EDE2F913F914F91B8
:103E50005F913ACF2F923F924F925F926F927F92F3
:103E60008F929F92AF92BF92CF92DF92EF92FF928A
:103E70000F931F93CF93DF93CDB7DEB760970FB645
:103E8000F894DEBF0FBECDBF7C011B016A01FC01AF
:103E900017821682838181FF2AC39E012F5F3F4FC5
:103EA0003901F7019381F10193FD859193FF819190
:103EB0001F01882309F417C3853239F493FD8591D6
:103EC00093FF81911F01853231F4B70190E006D54F
:103ED00056016501E6CF10E0512C912CFFE1F91558
:103EE000D8F08B3279F038F4803279F08332A1F453
:103EF000F92DF0612EC08D3261F0803369F4292DE7
:103F000021602DC0392D3260932E892D8460982E2A
:103F10002AC0E92DE86015C097FC2DC020ED280FC0
:103F20002A3088F496FE06C03AE0139F200D112433
:103F3000122F19C08AE0589E200D1124522EE92D0F
:103F4000E0629E2E10C08E3231F496FCCCC2F92D68
:103F5000F0649F2E08C08C3621F4292D2068922E03
:103F600002C0883641F4F10193FD859193FF819160
:103F70001F018111B3CF9BEB980F933020F4992D43
:103F80009061805E07C09BE9980F933008F059C19B
:103F9000992D9F7E96FF16E09F73992E853619F412
:103FA0009064992E08C0863621F4392F3068932EFC
:103FB00002C01111115097FE07C01C3350F4442465
:103FC0004394410E27E00BC0183038F027E017E08B
:103FD00005C027E09CE3492E02C0212F412C560149
:103FE00084E0A80EB11CF601608171818281938109
:103FF000042DA30168D36C01F981FC87F0FF02C096
:10400000F3FF06C091FC06C092FE06C000E205C0A8
:104010000DE203C00BE201C000E08C858C7019F04A
:10402000011143C280C297FE10C04C0CFC85F4FF06
:1040300004C08A81813309F44A94141474F528E089
:10404000241578F588E0482E2CC096FC2AC0812FD4
:1040500090E08C159D059CF03CEFC3163FEFD30616
:1040600074F0892D8068982E0AC0E2E0F0E0EC0F31
:10407000FD1FE10FF11D8081803319F411501111E2
:10408000F4CF97FE0EC044244394410E812F90E05C
:10409000C816D9062CF41C1904C04424439401C04A
:1040A00010E097FE06C01C141D0434F4C6010196EE
:1040B00005C085E090E002C081E090E0011101962A
:1040C000112331F0212F30E02F5F3F4F820F931FDC
:1040D000252D30E08217930714F4581A01C0512C93
:1040E000892D897041F4552031F0B70180E290E0CC
:1040F000F5D35A94F8CF002321F0B701802F90E038
:10410000EDD393FC08C0552031F0B70180E390E077
:10411000E5D35A94F8CF97FE4AC04601D7FE02C0B5
:10412000812C912CC60188199909F301E80FF91F18
:10413000FE87ED87960124193109388B2F87012FCF
:1041400010E01195019511093FEF8316930621F4B4
:10415000B7018EE290E0C2D3C814D9044CF08F8529
:1041600098898815990524F4ED85FE85818101C023
:1041700080E3F1E08F1A91082D853E852F5F3F4F38
:104180003E872D878016910624F0B70190E0A6D3D4
:10419000DBCFC814D90441F49A81963320F49533C7
:1041A00019F43C8534FF81E3B70190E048C08A816F
:1041B000813319F09C859F7E9C87B70190E08ED358
:1041C000111105C094FC16C085E690E015C0B7013A
:1041D0008EE290E083D31E5F82E001E0080FF301DE
:1041E000E80FF11D8081B70190E078D3802F011393
:1041F000F4CFE8CF85E490E0B70170D3D7FC06C0D8
:10420000C114D10441F4EC85E4FF05C0D194C194FC
:10421000D1088DE201C08BE2B70190E05FD380E36B
:104220002AE0C216D1042CF08F5FFAE0CF1AD10831
:10423000F7CFB70190E052D3B701C601C0964ED375
:1042400049C1833631F0833779F0833509F052C0A4
:104250001FC0560132E0A30EB11CF6018081898394
:1042600001E010E0630111C05601F2E0AF0EB11C95
:10427000F601C080D18096FE03C0612F70E002C0BD
:104280006FEF7FEFC60102D38C01F92DFF7713C0CA
:10429000560122E0A20EB11CF601C080D18096FE2C
:1042A00003C0612F70E002C06FEF7FEFC601E3D261
:1042B0008C01F92DF0689F2EF3FD18C0852D90E03C
:1042C0000817190798F4B70180E290E007D35A94D1
:1042D000F5CFF60197FC859197FE81916F01B701AB
:1042E00090E0FCD251105A940150110901151105AA
:1042F00081F7F0C0843611F0893659F5560197FEE2
:1043000009C024E0A20EB11CF60160817181828196
:1043100093810AC0F2E0AF0EB11CF6016081718199
:10432000072E000C880B990BF92DFF769F2E97FF17
:1043300009C090958095709561957F4F8F4F9F4FE5
:10434000F0689F2E2AE030E0A30132D3C82EC618B1
:104350003EC0092D853721F40F7E2AE030E01DC0D4
:10436000097F8F3691F018F4883559F0BCC080373A
:1043700019F0883711F0B7C0006104FF09C004606C
:1043800007C094FE08C0066006C028E030E005C003
:1043900020E130E002C020E132E0560107FF09C011
:1043A00084E0A80EB11CF601608171818281938145
:1043B00008C0F2E0AF0EB11CF6016081718180E0AF
:1043C00090E0A301F5D2C82EC6180F77902E96FE66
:1043D0000BC0092D0E7FC11650F494FE0AC092FC4A
:1043E00008C0092D0E7E05C0DC2C092D03C0DC2C75
:1043F00001C0D12E04FF0DC0FE01EC0DF11D808126
:10440000803311F4097E09C002FF06C0D394D3940F
:1044100004C0802F867809F0D39403FD10C000FFFC
:1044200006C01C2DD51478F4150D1D190CC0D5141B
:1044300050F4B70180E290E051D2D394F8CFD51474
:1044400010F45D1801C0512C04FF0FC0B70180E3C8
:1044500090E044D202FF16C001FD03C088E790E05F
:1044600002C088E590E0B7010CC0802F867851F03B
:1044700001FF02C08BE201C080E207FD8DE2B701BF
:1044800090E02CD2C11630F4B70180E390E026D240
:104490001150F8CFCA94F301EC0DF11D8081B701E2
:1044A00090E01CD2C110F6CF15C0F4E0F51550F520
:1044B00084E0581A93FE1EC0011125C02C8523FFED
:1044C00027C002EE11E0392D3071932EF80184914E
:1044D000811121C0552009F4FCCCB70180E290E0A5
:1044E000FDD15A94F7CFF7018681978123C08FEFD2
:1044F0009FEF20C0B70180E290E0F0D15A945110B4
:10450000F9CFDACF512CB701802F90E0E7D1D6CF89
:1045100006EE11E0D8CF91108052B70190E0DED1C5
:104520000F5F1F4FD3CF23E0251510F483E0C1CFD9
:10453000512CC4CF60960FB6F894DEBF0FBECDBF2E
:10454000DF91CF911F910F91FF90EF90DF90CF906F
:10455000BF90AF909F908F907F906F905F904F90A3
:104560003F902F90089597FB072E16F4009406D0E5
:1045700077FD08D02FD007FC05D03EF490958195AB
:104580009F4F0895709561957F4F0895052E97FB75
:1045900016F400940FD057FD05D030D007FC02D0A0
:1045A00046F408C050954095309521953F4F4F4FA8
:1045B0005F4F089590958095709561957F4F8F4FCF
:1045C0009F4F0895EE0FFF1F881F8BBF0790F69136
:1045D000E02D1994AA1BBB1B51E107C0AA1FBB1FEA
:1045E000A617B70710F0A61BB70B881F991F5A957F
:1045F000A9F780959095BC01CD010895A1E21A2EEE
:10460000AA1BBB1BFD010DC0AA1FBB1FEE1FFF1F76
:10461000A217B307E407F50720F0A21BB30BE40BC6
:10462000F50B661F771F881F991F1A9469F760950D
:104630007095809590959B01AC01BD01CF010895C7
:10464000FC0188279927E89421912032E9F3293049
:1046500010F02E30C8F32B3239F02D3231F468943B
:1046600003C034D1820F911D219120532A30C8F309
:104670001EF4909581959F4F08951F93FC019927F3
:104680008827BC01E89411911032E9F3193010F039
:104690001E30C8F31B3249F01D3241F4689405C046
:1046A00000D1610F711D811D911D119110531A30A0
:1046B000B8F33EF490958095709561957F4F8F4F3C
:1046C0009F4F1F910895283008F027E03327DA0123
:1046D000990F311D87FD916000966105710539F4D0
:1046E00032602E5F3D9330E32A95E1F708959F3FB6
:1046F00030F080387105610509F03C5F3C5F3D9307
:10470000913008F08068911DDF93CF931F930F9332
:10471000FF92EF92192F987F9695E92F969596958F
:10472000E90FFF27EC5BFD4F99273327EE24FF2489
:10473000A701E70105900894079428F4360FE71EB7
:10474000F81E491F511D660F771F881F991F069479
:10475000A1F70590079428F4E70EF81E491F561F8D
:10476000C11D770F881F991F661F0694A1F705903A
:10477000079428F4F80E491F561FC71FD11D880F34
:10478000991F661F771F0694A1F70590079420F4E0
:10479000490F561FC71FD81F990F661F771F881F05
:1047A0000694A9F784911095177041F0D695C79596
:1047B00057954795F794E7941A95C1F7EAEEF1E01B
:1047C00068941590159135916591959105907FE2CA
:1047D0007395E118F10A430B560BC90BD009C0F7CA
:1047E000E10CF11E431F561FC91FD01D7EF470330C
:1047F00011F48A95E6CFE894015030F0080F0AF4DE
:104800000027021708F4202F2395022F7A3328F06F
:1048100079E37D932A95E9F710C07D932A9589F66F
:10482000069497956795379517951794E118F10AAF
:10483000430B560BC90BD00998F023957E917395C5
:104840007A3308F070E37C932013B8F77E9170619F
:104850007D9330F0839571E37D9370E32A95E1F7C2
:104860001124EF90FF900F911F91CF91DF91992725
:1048700087FD90950895FC010590615070400110EE
:10488000D8F7809590958E0F9F1F0895FC01615079
:10489000704001900110D8F7809590958E0F9F1F62
:1048A0000895592F482F372F262F660F771F881FFF
:1048B000991F660F771F881F991F620F731F841F30
:1048C000951F660F771F881F991F08957AE0979F9D
:1048D000902D879F802D910D112408950F931F9384
:1048E000CF93DF93FB01238121FD03C08FEF9FEF67
:1048F0002CC022FF16C04681578124813581421782
:10490000530744F4A081B1819D012F5F3F4F318354
:1049100020838C93268137812F5F3F4F37832683F7
:1049200014C08B01EC01FB010084F185E02D199589
:10493000892BE1F6D80116968D919C9117970196D7
:1049400017969C938E931697CE01DF91CF911F916E
:104950000F9108950F931F93CF93DF93CDB7DEB7D9
:104960002E970FB6F894DEBF0FBECDBF0E891F89FC
:1049700086E08C831A8309838FEF9FE79E838D8364
:10498000AE01465E5F4F688D798DCE01019662DA89
:10499000EF81F885E00FF11F10822E960FB6F89484
:1049A000DEBF0FBECDBFDF91CF911F910F91089554
:1049B000FA01AA27283051F1203181F1E8946F9350
:1049C0006E7F6E5F7F4F8F4F9F4FAF4FB1E03ED0F6
:1049D000B4E03CD0670F781F891F9A1FA11D680F94
:1049E000791F8A1F911DA11D6A0F711D811D911DC7
:1049F000A11D20D009F468943F912AE0269F11243C
:104A00003019305D3193DEF6CF010895462F47709F
:104A1000405D4193B3E00FD0C9F7F6CF462F4F70FA
:104A2000405D4A3318F0495D31FD4052419302D058
:104A3000A9F7EACFB4E0A6959795879577956795FE
:104A4000BA95C9F700976105710508959B01AC01FE
:104A50000A2E06945795479537952795BA95C9F725
:104A6000620F731F841F951FA01D0895F894FFCF38
:104A700001FF7F0080FF7F0080FF7F008005011421
:104A800000013132333401030003706C7569650035
:104A9000456E7465722050617373776F72643A006B
:104AA000496E76616C69642070617373776F7264AC
:104AB000004D6F6465204D616E75656C20203C2D46
:104AC000004D6F6465204D616E75656C20004D6F03
:104AD00064652050726F67202020004D6F64652050
:104AE0004175746F202020005365742074696D65D2
:104AF00020202020005365742070617373776F72DB
:104B00006400433B61636B3B00533B252E32663BA5
:104B100025643B25643B25643B25663B25663B2598
:104B2000643B00252E3266202564202566005365EF
:104B3000742074696D6520204F4B003025643A3035
:104B40002564003025643A25640053657420706143
:0A4B50007373776F7264204F4B00FF
:00000001FF
