:10000000FAC0000018C1000016C1000014C10000B1
:1000100012C1000010C100000EC100000CC10000A0
:100020000AC1000008C1000067C5000004C100004B
:1000300002C1000000C10000FEC00000FCC00000C2
:10004000FAC00000F8C00000F6C00000F4C00000D4
:10005000F2C0000026C50000EEC00000ECC00000A9
:10006000EAC000008CC6000055C60000E4C00000D5
:10007000E2C0000089C50000DEC00000DCC0000056
:10008000DAC00000D8C00000D6C00000D4C0000014
:100090007BC7000044C70000CEC00000CCC00000F9
:1000A000CAC00000C8C00000C6C00000C4C0000034
:1000B000C2C00000C0C00000BEC00000BCC0000044
:1000C000BAC00000B8C00000B6C000000C94A6087A
:1000D0000C947108B0C00000AEC00000ACC00000BD
:1000E000AAC00000E708FA080D0933096E097F0964
:1000F0009209BB096E616E00696E660000407A105D
:10010000F35A00A0724E18090010A5D4E80000E8C8
:100110007648170000E40B54020000CA9A3B000026
:1001200000E1F505000080969800000040420F00B5
:100130000000A08601000000102700000000E80376
:10014000000000006400000000000A000000000041
:100150000100000000002C76D888DC674F0823DF00
:10016000C1DFAE59E1B1B796E5E3E453C63AE651D3
:10017000997696E8E6C28426EB898C9B62ED407CFA
:100180006FFCEFBC9C9F40F2BAA56FA5F490055A96
:100190002AF75C936B6CF9676DC11BFCE0E40D47BB
:1001A000FEF520E6B500D0ED902E030094357705DE
:1001B0000080841E080000204E0A000000C80C3396
:1001C0003333330F986E12831141EF8D2114893B25
:1001D000E65516CFFEE6DB18D1844B381BF77C1DA5
:1001E000901DA4BBE424203284725E228100C9F1F8
:1001F00024ECA1E53D2711241FBECFEFD1E2DEBFE5
:10020000CDBF00E00CBF12E0A0E0B2E0E6E1F5E215
:1002100000E00BBF02C007900D92AA35B107D9F7D5
:1002200026E0AAE5B2E001C01D92A935B207E1F7C8
:10023000D3D10C948912E4CE662321F098B1946056
:1002400098B903C098B19B7F98B998B1906898B954
:1002500080FF04C098B1986098B903C098B1977FA7
:1002600098B981FF04C098B1906198B903C098B162
:100270009F7E98B982FF04C098B1906298B903C07C
:1002800098B19F7D98B983FF04C088B1806488B914
:1002900003C088B18F7B88B985E08A95F1F70000AB
:1002A00088B18F7788B985E08A95F1F700000895C5
:1002B000CF93DF93C82FD62F82958F70BDDF6D2F20
:1002C0008C2FBADF85ED8A95F1F70000DF91CF9191
:1002D000089587B1846087B987B1806887B987B18D
:1002E000886087B987B1806187B987B1806287B933
:1002F00087B1806487B92FEF89EF90E0215080406B
:100300009040E1F700C0000060E083E095DF8FE1FE
:100310009EE40197F1F700C0000060E083E08CDF0D
:100320008FE99FE00197F1F700C0000060E083E0F3
:1003300083DF8FE99FE00197F1F700C0000060E0E4
:1003400082E07ADF8FE99FE00197F1F700C00000BB
:1003500060E088E2ADDF60E088E0AADF60E081E095
:10036000A7DF8FE39FE10197F1F700C0000060E095
:1003700086E09EDF60E08FE09BCF089561E098CF3C
:1003800008950F931F93CF938C01C0E002C0F6DF56
:10039000CF5FF801EC0FF11D8081882311F0CF3F72
:1003A000B1F7CF911F910F910895611102C090E8AC
:1003B00001C090EC8F7060E0892B7ACF089560E0E7
:1003C00081E076DF8FE39FE10197F1F700C0000045
:1003D0000895909164029130B1F030F0923021F1A3
:1003E000933009F445C095C0893509F092C0109248
:1003F00061021092620291E0909363028093AC02DA
:100400009093640286C0893509F083C0E09163024D
:1004100091E09E0F90936302F0E0E455FD4F8083DE
:1004200082E08093640275C090916202993058F422
:10043000E091630291E09E0F90936302F0E0E45537
:10044000FD4F808303C083E0809364028091620249
:100450008F5F809362025DC0E82FF0E0E455FD4FAE
:10046000908120916102920F909361028F5F01C091
:1004700080E0883088F39091B402809161029813F3
:100480003DC081E08093600220E00BC0822F90E0AD
:10049000FC01E455FD4F3081FC01ED55FD4F3083EB
:1004A0002F5F293098F3E3EAF2E02281838190E024
:1004B000982F8827820F911D90935F0280935E0290
:1004C0002481858190E0982F8827820F911D909339
:1004D0005D0280935C022681878190E0982F8827B7
:1004E000820F911D969587959695879596958795F8
:1004F0009A9590935B0280935A0202C01092600218
:1005000089E0ECEAF2E0DF011D928A95E9F71092AA
:10051000640280916002089580915E0290915F0272
:100520000895ECE7F0E0808180648083EAE7F0E002
:1005300080818C688083EEE7F0E080818660808334
:10054000EDE7F0E080818160808378940895E1E0B8
:10055000F1E08081886380834BEA4093A00099E1B9
:100560009093A10020E034E03093A9002093A800EC
:1005700066E470E07093AB006093AA001092AD0047
:100580001092AC00EAE0F1E08081886380834093C0
:1005900020019093210130932901209328018AE5BD
:1005A00090E090932B0180932A0110922D011092DC
:1005B0002C010895019B08C0009B08C0039B08C044
:1005C000029B08C080E0089581E3089582E30895C6
:1005D00083E3089584E308957CDE82B18F6082B95D
:1005E0002FEF41EE54E0215040405040E1F700C071
:1005F000000087E192E0C5DE61E080E0D6DEDADF70
:10060000809369028823A9F080916802811111C04A
:1006100061E080916702C9DEE091670281E08E0FA0
:1006200080936702F0E080916902E05EFC4F808376
:10063000A5DE809169028093680280916702843010
:1006400009F51DC08C2F90E0FC01E05EFC4F20817D
:10065000FC01EE5FFD4F8081281304C081E0809390
:1006600066020BC0ACDE87E292E08BDE61E080E0E8
:100670009CDE1092670210926602CF5F01C0C0E05C
:10068000C43000F380916602882309F4B8CF49DFB3
:100690005EDFEAE7F0E080818064808385B5836077
:1006A00085BD84B5826084BDEEE6F0E08081826025
:1006B000808389EF87BDE5E0F1E0808188618083F8
:1006C000E8E6F0E0808182608083ECE6F0E0808103
:1006D0008063808320E034E244EF50E060E875E21C
:1006E00080E090E0A3D320E034E244EF50E060E00B
:1006F00072EC81E090E0B1D220E034E244EF50E0CF
:1007000060E875E280E090E096D462E080E092E0FC
:10071000CCD48FEF91EE24E0815090402040E1F75F
:1007200000C0000060E875E280E090E0D2D681E091
:1007300012D741E061E087E045D76EE087E092E0C4
:10074000D2D3C5D2882309F44DC0C4D280937B0292
:1007500040DE882309F446C0DFDE9F938F9386E551
:1007600092E09F938F9384E293E09F938F930E94F4
:10077000FD111F9286E48F938AE18F938CE28F9311
:100780008CE08F9380E88F931F928DE28F938091FE
:100790007F028F9380917E028F9380917D028F9351
:1007A00080917C028F93809183028F93809182024B
:1007B0008F93809181028F93809180028F9388E341
:1007C00092E09F938F9386EC92E09F938F930E9489
:1007D000FD114DB75EB7465E5F4F0FB6F8945EBF32
:1007E0000FBE4DBF5DD3882309F44DC05CD3809309
:1007F0004C03DFD4882309F446C049D660937C02B9
:1008000070937D0280937E0290937F0233D6262FD1
:10081000372F462F572F682F792F40938002509300
:10082000810260938202709383029F938F933F9320
:100830002F93CDE4D2E0DF93CF9388EF92E09F93A4
:100840008F930E94FD1180917F028F9380917E0291
:100850008F9380917D028F9380917C028F93DF93A1
:10086000CF9380E193E09F938F930E94FD1188E3E3
:1008700093E0DCD64DB75EB7405F5F4F0FB6F8949C
:100880005EBF0FBE4DBF80911502882309F4CDC015
:100890001092150294DD60E080E087DD88EF92E041
:1008A00070DD60E089E081DD88E393E06ADD61E08E
:1008B00080E07BDD80E193E064DD61E089E075DD6F
:1008C00084E293E05EDD809171029091720299233F
:1008D0000CF053C091958195910990937202809389
:1008E000710220917302309174021216130664F49F
:1008F000AC01421B530B50936D0240936C029093DA
:100900006B0280936A020AC0280F391F30936B0272
:1009100020936A0290936D0280936C0280916A0228
:1009200090916B02992324F410926B0210926A0248
:1009300080916C0290916D02992324F410926D02C3
:1009400010926C021092AB001092AA0080916C027F
:1009500090916D029E5F90932B0180932A0180916C
:100960006A0290916B029E5F9093AD008093AC0001
:1009700010922D0110922C014BC0209173023091E6
:1009800074021216130664F4AC01421B530B50930D
:100990006D0240936C0290936B0280936A020AC0CE
:1009A000280F391F30936B0220936A0290936D02D7
:1009B00080936C0280916A0290916B02992324F4D7
:1009C00010926B0210926A0280916C0290916D02FB
:1009D000992324F410926D0210926C0280916A02A5
:1009E00090916B029E5F9093AB008093AA0010924F
:1009F0002B0110922A011092AD001092AC00809150
:100A00006C0290916D029E5F90932D0180932C015A
:100A1000D1DD80936902882331F0909168029111B1
:100A200002C0809365028093680280910602882349
:100A300009F487CE10920602C2DC60E080E0B5DCEB
:100A400080917502909176029F938F93C6E5D2E0D4
:100A5000DF93CF9386EB92E09F938F930E94FD11DB
:100A600086EB92E08EDC61E080E09FDC8091770293
:100A7000909178029F938F93DF93CF9388E093E0D8
:100A80009F938F930E94FD1188E093E07ADC4DB72D
:100A90005EB7445F5F4F0FB6F8945EBF0FBE4DBFA9
:100AA00050CE1F920F920FB60F9211248F939F93E7
:100AB00080918402909185020196909385028093A3
:100AC00084028091840290918502893C910568F4AA
:100AD0008091840290918502885C910990938502AF
:100AE0008093840281E0809315029F918F910F90F3
:100AF0000FBE0F901F9018951F920F920FB60F9276
:100B000011240BB60F928F939F93EF93FF938091D5
:100B1000030183FD10C080917A0283FF0CC0809195
:100B200075029091760201969093760280937502F9
:100B300081E080930602E3E0F1E080818870809399
:100B40007A02808184FD10C08091790284FF0CC0FC
:100B50008091770290917802019690937802809329
:100B6000770281E080930602809103018071809377
:100B70007902FF91EF919F918F910F900BBE0F9093
:100B80000FBE0F901F9018951F920F920FB60F92E5
:100B900011240BB60F922F933F938F939F93EF9354
:100BA000FF93209178003091790030937002209368
:100BB0006F0280917B00882319F081E090E002C0F1
:100BC00080E090E0880F991F82959295907F9827FA
:100BD000807F982790917C009F71892B80936E0273
:100BE000813051F028F0823081F08032E1F023C072
:100BF00081E480937C001FC03250309374022093B4
:100C0000730282E480937C0016C0325030937202EB
:100C10002093710280E480937C00EBE7F0E0808118
:100C20008860808308C080E480937C00EBE7F0E07C
:100C30008081877F8083EAE7F0E080818064808321
:100C4000FF91EF919F918F913F912F910F900BBE4C
:100C50000F900FBE0F901F9018958F929F92AF929A
:100C6000BF92CF92DF92EF92FF92CF93DF93490131
:100C70005A01C1ECD0E028E1288326E02093C2008D
:100C8000E9D520E030E040E851E472D66B017C0108
:100C9000C501B401DFD5A701960148D520E030E0B9
:100CA00040E05FE3DED4AAD57093C5006093C40032
:100CB0008881806888837894DF91CF91FF90EF904E
:100CC000DF90CF90BF90AF909F908F9008958091CC
:100CD00088020895809188028823C9F0E0918902F2
:100CE00081E08E0F80938902F0E0E357FC4F808112
:100CF00080938602F89480918802815080938802C4
:100D0000789480918902803410F010928902809149
:100D1000860208951F920F920FB60F9211240BB600
:100D20000F928F93EF93FF9380918702811106C0FA
:100D3000E1ECF0E080818F7D808317C0E0918A0232
:100D400081E08E0F80938A02F0E0E35BFC4F8081AC
:100D50008093C600809187028150809387028091A2
:100D60008A02803410F010928A02FF91EF918F91E5
:100D70000F900BBE0F900FBE0F901F9018951F92F3
:100D80000F920FB60F9211240BB60F928F939F9371
:100D9000EF93FF938091C6008093CD0380918802EA
:100DA0008034A8F4E0918B0291E09E0F90938B0227
:100DB000F0E09091CD03E357FC4F90838F5F8093D9
:100DC000880280918B02803410F010928B02FF9188
:100DD000EF919F918F910F900BBE0F900FBE0F90D0
:100DE0001F90189590918D029923F4F0E091920252
:100DF00091E09E0F90939202F0E0E253FC4F8083CB
:100E0000F89480918D028F5F80938D027894809109
:100E10009202882314F410929202E9ECF0E08081AF
:100E20008062808380E0089581E008958F929F9290
:100E3000AF92BF92CF92DF92EF92FF92CF93DF9368
:100E400049015A01C9ECD0E028E1288326E020932B
:100E5000CA0000D520E030E040E851E489D56B01BC
:100E60007C01C501B401F6D4A70196015FD420E04E
:100E700030E040E05FE3F5D3C1D47093CD006093E0
:100E8000CC008881806888837894DF91CF91FF902F
:100E9000EF90DF90CF90BF90AF909F908F9008958C
:100EA00080918E02089580918E028823C9F0E0918E
:100EB0008F0281E08E0F80938F02F0E0E15BFB4FA9
:100EC000808180938C02F89480918E02815080936F
:100ED0008E02789480918F02882314F410928F02EE
:100EE00080918C020895EF92FF921F93CF93DF932E
:100EF0007C01162FC0E0D0E009C0F701EC0FF11D16
:100F0000808170DF811101C0DF5FCF5FC117A8F35F
:100F10008D2FDF91CF911F91FF90EF9008951F9239
:100F20000F920FB60F9211240BB60F928F93EF937F
:100F3000FF9380918D02811106C0E9ECF0E0808181
:100F40008F7D808317C0E091900281E08E0F8093A7
:100F50009002F0E0E253FC4F80818093CE008091BC
:100F60008D02815080938D0280919002882314F429
:100F700010929002FF91EF918F910F900BBE0F9006
:100F80000FBE0F901F9018951F920F920FB60F92E1
:100F900011240BB60F928F939F93EF93FF93809141
:100FA000CE0080934E0480918E028823ACF0E091B5
:100FB000910291E09E0F90939102F0E090914E0487
:100FC000E15BFB4F90838F5F80938E028091910253
:100FD000882314F410929102FF91EF919F918F91C9
:100FE0000F900BBE0F900FBE0F901F901895909111
:100FF00093029034F0F4E091970291E09E0F909369
:101000009702F0E0E053FB4F8083F89480919302C5
:101010008F5F80939302789480919702803410F0D0
:1010200010929702E1EDF0E080818062808380E0A1
:10103000089581E008958F929F92AF92BF92CF92D0
:10104000DF92EF92FF92CF93DF9349015A01C1EDF6
:10105000D0E028E1288326E02093D200FBD320E0D3
:1010600030E040E851E484D46B017C01C501B40157
:10107000F1D3A70196015AD320E030E040E05FE3CE
:10108000F0D2BCD37093D5006093D400888180687F
:1010900088837894DF91CF91FF90EF90DF90CF908D
:1010A000BF90AF909F908F900895EF92FF921F9303
:1010B000CF93DF937C01162FC0E0D0E009C0F70189
:1010C000EC0FF11D808193DF811101C0DF5FCF5FE5
:1010D000C117A8F38D2FDF91CF911F91FF90EF9053
:1010E00008951F920F920FB60F9211240BB60F9214
:1010F0008F93EF93FF9380919302811106C0E1EDEE
:10110000F0E080818F7D808317C0E091950281E0BF
:101110008E0F80939502F0E0E053FB4F8081809327
:10112000D600809193028150809393028091950222
:10113000803410F010929502FF91EF918F910F90F3
:101140000BBE0F900FBE0F901F9018951F920F921D
:101150000FB60F9211240BB60F928F939F93EF93BC
:10116000FF938091D6008093CF04809194028034C5
:10117000A8F4E091960291E09E0F90939602F0E021
:101180009091CF04E05FFA4F90838F5F8093940239
:1011900080919602803410F010929602FF91EF91A8
:1011A0009F918F910F900BBE0F900FBE0F901F90CD
:1011B0001895282F8091A20290E08830910508F0C0
:1011C00056C1FC018827EE58FF4F8F4FD0C7253BF3
:1011D00009F04DC110929B0210929A0210929C024B
:1011E0001092990281E080939D0220939005809354
:1011F000A2023DC1223671F4E0919D0281E08E0F82
:1012000080939D02F0E0E057FA4F208382E08093C4
:10121000A2022DC11092A2022AC1213071F4E091E4
:101220009D0281E08E0F80939D02F0E0E057FA4F1F
:10123000208383E08093A2021AC1253089F4E091D3
:101240009D0281E08E0F80939D02F0E0E057FA4FFF
:10125000208382E08093160283E08093A20207C17C
:101260001092A20204C1273081F4E0919D0281E036
:101270008E0F80939D02F0E0E057FA4F208310928A
:10128000160284E08093A202F2C0223089F4E09139
:101290009D0281E08E0F80939D02F0E0E057FA4FAF
:1012A000208381E08093160284E08093A202DFC055
:1012B000213071F4E0919D0281E08E0F80939D02B8
:1012C000F0E0E057FA4F208384E08093A202CFC081
:1012D00083E0809316021092A202C9C0E0919D02A1
:1012E00081E08E0F80939D02F0E0E057FA4F20835B
:1012F0002A5F2093980285E08093A202B8C0211152
:101300000EC0E0919D0281E08E0F80939D02F0E07F
:10131000E057FA4F208386E08093A202A8C0109283
:10132000A202A5C080919C02843658F4E0919D02EF
:1013300081E08E0F80939D02F0E0E057FA4F20830A
:1013400003C087E08093A20280919C028F5F80930C
:101350009C028DC0E92FF0E0E057FA4F2081809188
:101360009B02820F80939B0220919A02820F8093AE
:101370009A029F5F01C092E080919802981750F303
:1013800090E0FC01E057FA4F308120919B0232132C
:1013900063C0FC01EF56FA4F908180919A02981336
:1013A0005BC081E080939902809116028130B9F090
:1013B00018F0823039F152C087E08093580620E05F
:1013C0000BC0822F90E0FC01E057FA4F3081FC0106
:1013D000EC50FA4F30832F5F243698F33FC082E001
:1013E0008093580620E00BC0822F90E0FC01E0576C
:1013F000FA4F3081FC01E459FA4F30832F5F2432D9
:1014000098F32CC080919605863041F49091970511
:10141000911104C081E08093A10220C0863041F484
:1014200090919705983021F481E08093A00216C036
:10143000863041F490919705913021F481E08093BA
:101440009F020CC0863051F4809197058E3131F4A3
:1014500081E080939E0202C01092990284E6E0E946
:10146000F5E0DF011D928A95E9F71092A2028091C2
:1014700099020895E4EFF5E062A173A184A195A11A
:10148000EBD125E93FEB46ED53E372C20895E4EF5B
:10149000F5E0668D778D80A191A1DED125E93FEB46
:1014A00046ED53E365C20895DC016A5F92E030E0E7
:1014B00020E007C0FD01E90FF11D4081240F320F2C
:1014C0009F5F9617B8F3832F90E0982F8827822B81
:1014D0000895CF93DF93CDB7DEB76C970FB6F8942E
:1014E000DEBF0FBECDBF95EB998392E69A8396E05F
:1014F0009B831C8294E19D831E8291E09F831886CA
:1015000019861A8620ED2B8728E02C871D861E86DB
:101510006F87788B898B1A8A9B8B1C8A9D8B1E8A7E
:101520001F8A188E198E1A8E1B8E1C8E64E1CE01B6
:101530000196BADF8B8F9C8F6CE1CE010196D3DCD4
:101540001092A1026C960FB6F894DEBF0FBECDBF0D
:10155000DF91CF910895CF93DF93CDB7DEB72E976C
:101560000FB6F894DEBF0FBECDBF682F70E088EED7
:1015700093E0EAD585EB898382E68A8386E08B83D4
:1015800098E09C838D831E826F83788781E08987B2
:101590001A868B871C861D861E8666E0CE01019604
:1015A00083DF8D879E876EE0CE0101969CDC1092D2
:1015B000A0022E960FB6F894DEBF0FBECDBFDF910E
:1015C000CF910895CF93DF93CDB7DEB760970FB675
:1015D000F894DEBF0FBECDBF95EB998392E69A8358
:1015E00096E09B8391E09C8328E02D831E829F835D
:1015F000888719866A871B864C871D861E861F86EC
:10160000188A68E0CE0101964FDF8F87988B60E1E2
:10161000CE01019668DC10929F0260960FB6F89496
:10162000DEBF0FBECDBFDF91CF910895E4EFF5E0AF
:101630004089378526851F924F931F923F931F92B3
:101640002F9320E532E03F932F939F938F93D5D62E
:101650008DB79EB70A960FB6F8949EBF0FBE8DBF8A
:1016600008955058BB27AA270ED048C139D130F071
:101670003ED120F031F49F3F11F41EF42EC10EF440
:10168000E095E7FB24C1E92F4AD180F3BA1762073E
:1016900073078407950718F071F49EF562C10EF484
:1016A000E0950B2EBA2FA02D0B01B90190010C0172
:1016B000CA01A0011124FF27591B99F0593F50F48A
:1016C000503E68F11A16F040A22F232F342F4427E2
:1016D000585FF3CF469537952795A795F0405395DA
:1016E000C9F77EF41F16BA0B620B730B840BBAF0AA
:1016F0009150A1F0FF0FBB1F661F771F881FC2F715
:101700000EC0BA0F621F731F841F48F48795779528
:101710006795B795F7959E3F08F0B3CF9395880FDF
:1017200008F09927EE0F9795879508950CD0E6C09D
:10173000DED040F0D5D030F021F45F3F19F0C7C0C3
:10174000511110C1CAC0EBD098F39923C9F35523A6
:10175000B1F3951B550BBB27AA27621773078407A4
:1017600038F09F5F5F4F220F331F441FAA1FA9F35A
:1017700033D00E2E3AF0E0E830D091505040E6954C
:10178000001CCAF729D0FE2F27D0660F771F881FAD
:10179000BB1F261737074807AB07B0E809F0BB0B9C
:1017A000802DBF01FF2793585F4F2AF09E3F5105C0
:1017B00068F08DC0D7C05F3FECF3983EDCF38695B0
:1017C00077956795B795F7959F5FC9F7880F911D36
:1017D0009695879597F90895E1E0660F771F881F22
:1017E000BB1F621773078407BA0720F0621B730BD5
:1017F000840BBA0BEE1F88F7E095089598D088F017
:101800009F5790F0B92F9927B751A0F0D1F0660FEC
:10181000771F881F991F1AF0BA95C9F712C0B13007
:1018200081F09FD0B1E008959CC0672F782F882762
:10183000B85F39F0B93FCCF3869577956795B39546
:10184000D9F73EF490958095709561957F4F8F4FB5
:101850009F4F0895E89409C097FB3EF490958095BA
:10186000709561957F4F8F4F9F4F9923A9F0F92F66
:1018700096E9BB279395F695879577956795B795E4
:10188000F111F8CFFAF4BB0F11F460FF1BC06F5FCA
:101890007F4F8F4F9F4F16C0882311F096E911C0DC
:1018A000772321F09EE8872F762F05C0662371F0FD
:1018B00096E8862F70E060E02AF09A95660F771F11
:1018C000881FDAF7880F9695879597F9089597F905
:1018D0009F6780E870E060E008959FEF80EC0895D6
:1018E00000240A94161617061806090608950024FF
:1018F0000A9412161306140605060895092E039479
:10190000000C11F4882352F0BB0F40F4BF2B11F4EC
:1019100060FF04C06F5F7F4F8F4F9F4F089557FD4B
:101920009058440F551F59F05F3F71F04795880F4D
:1019300097FB991F61F09F3F79F0879508951216E4
:1019400013061406551FF2CF4695F1DF08C0161690
:1019500017061806991FF1CF869571056105089441
:101960000895E894BB2766277727CB0197F9089558
:101970000BD0C4CFB5DF28F0BADF18F0952309F0FB
:10198000A6CFABCF1124EECFCADFA0F3959FD1F342
:10199000950F50E0551F629FF001729FBB27F00D1D
:1019A000B11D639FAA27F00DB11DAA1F649F662772
:1019B000B00DA11D661F829F2227B00DA11D621FC1
:1019C000739FB00DA11D621F839FA00D611D221F7B
:1019D000749F3327A00D611D231F849F600D211D5F
:1019E000822F762F6A2F11249F5750408AF0E1F002
:1019F00088234AF0EE0FFF1FBB1F661F771F881F4B
:101A000091505040A9F79E3F510570F060CFAACF8A
:101A10005F3FECF3983EDCF3869577956795B79535
:101A2000F795E7959F5FC1F7FE2B880F911D96955F
:101A3000879597F908952F923F924F925F926F92F8
:101A40007F928F929F92AF92BF92CF92DF92EF924E
:101A5000FF920F931F93CF93DF93CDB7DEB76097BD
:101A60000FB6F894DEBF0FBECDBF7C011B016A012B
:101A7000FC0117821682838181FF2AC39E012F5F9A
:101A80003F4F3901F7019381F10193FD859193FF58
:101A900081911F01882309F417C3853239F493FD1E
:101AA000859193FF81911F01853231F4B70190E058
:101AB00068D456016501E6CF10E0512C912CFFE16E
:101AC000F915D8F08B3279F038F4803279F083321E
:101AD000A1F4F92DF0612EC08D3261F0803369F4EC
:101AE000292D21602DC0392D3260932E892D8460DF
:101AF000982E2AC0E92DE86015C097FC2DC020ED76
:101B0000280F2A3088F496FE06C03AE0139F200D75
:101B10001124122F19C08AE0589E200D1124522E34
:101B2000E92DE0629E2E10C08E3231F496FCCCC2BC
:101B3000F92DF0649F2E08C08C3621F4292D2068E1
:101B4000922E02C0883641F4F10193FD859193FFF6
:101B500081911F018111B3CF9BEB980F933020F43B
:101B6000992D9061805E07C09BE9980F933008F033
:101B700059C1992D9F7E96FF16E09F73992E853649
:101B800019F49064992E08C0863621F4392F3068F4
:101B9000932E02C01111115097FE07C01C3350F450
:101BA00044244394410E27E00BC0183038F027E05E
:101BB00017E005C027E09CE3492E02C0212F412CED
:101BC000560184E0A80EB11CF6016081718182810A
:101BD0009381042DA301E7D26C01F981FC87F0FF0A
:101BE00002C0F3FF06C091FC06C092FE06C000E2F0
:101BF00005C00DE203C00BE201C000E08C858C70D3
:101C000019F0011143C280C297FE10C04C0CFC8534
:101C1000F4FF04C08A81813309F44A94141474F5E2
:101C200028E0241578F588E0482E2CC096FC2AC0C0
:101C3000812F90E08C159D059CF03CEFC3163FEF83
:101C4000D30674F0892D8068982E0AC0E2E0F0E097
:101C5000EC0FFD1FE10FF11D8081803319F411504D
:101C60001111F4CF97FE0EC044244394410E812FEE
:101C700090E0C816D9062CF41C1904C044244394DF
:101C800001C010E097FE06C01C141D0434F4C60108
:101C9000019605C085E090E002C081E090E001116E
:101CA0000196112331F0212F30E02F5F3F4F820F3B
:101CB000931F252D30E08217930714F4581A01C0A2
:101CC000512C892D897041F4552031F0B70180E203
:101CD00090E057D35A94F8CF002321F0B701802F1A
:101CE00090E04FD393FC08C0552031F0B70180E35A
:101CF00090E047D35A94F8CF97FE4AC04601D7FEEA
:101D000002C0812C912CC60188199909F301E80FB2
:101D1000F91FFE87ED87960124193109388B2F872B
:101D2000012F10E01195019511093FEF83169306DD
:101D300021F4B7018EE290E024D3C814D9044CF00A
:101D40008F8598898815990524F4ED85FE85818114
:101D500001C080E3F1E08F1A91082D853E852F5F49
:101D60003F4F3E872D878016910624F0B70190E003
:101D700008D3DBCFC814D90441F49A81963320F4F8
:101D8000953319F43C8534FF81E3B70190E048C0F6
:101D90008A81813319F09C859F7E9C87B70190E0F2
:101DA000F0D2111105C094FC16C085E690E015C074
:101DB000B7018EE290E0E5D21E5F82E001E0080FFD
:101DC000F301E80FF11D8081B70190E0DAD2802F96
:101DD0000113F4CFE8CF85E490E0B701D2D2D7FC6D
:101DE00006C0C114D10441F4EC85E4FF05C0D194D0
:101DF000C194D1088DE201C08BE2B70190E0C1D25D
:101E000080E32AE0C216D1042CF08F5FFAE0CF1AEB
:101E1000D108F7CFB70190E0B4D2B701C601C096A0
:101E2000B0D249C1833631F0833779F0833509F078
:101E300052C01FC0560132E0A30EB11CF6018081D2
:101E4000898301E010E0630111C05601F2E0AF0E9A
:101E5000B11CF601C080D18096FE03C0612F70E0F6
:101E600002C06FEF7FEFC60181D28C01F92DFF77A1
:101E700013C0560122E0A20EB11CF601C080D18031
:101E800096FE03C0612F70E002C06FEF7FEFC601C6
:101E900062D28C01F92DF0689F2EF3FD18C0852DBC
:101EA00090E00817190798F4B70180E290E069D232
:101EB0005A94F5CFF60197FC859197FE81916F01B9
:101EC000B70190E05ED251105A94015011090115EA
:101ED000110581F7F0C0843611F0893659F55601A5
:101EE00097FE09C024E0A20EB11CF6016081718149
:101EF000828193810AC0F2E0AF0EB11CF6016081CD
:101F00007181072E000C880B990BF92DFF769F2EFF
:101F100097FF09C090958095709561957F4F8F4F81
:101F20009F4FF0689F2E2AE030E0A30194D2C82E84
:101F3000C6183EC0092D853721F40F7E2AE030E017
:101F40001DC0097F8F3691F018F4883559F0BCC058
:101F5000803719F0883711F0B7C0006104FF09C05D
:101F6000046007C094FE08C0066006C028E030E0A8
:101F700005C020E130E002C020E132E0560107FF59
:101F800009C084E0A80EB11CF601608171818281D4
:101F9000938108C0F2E0AF0EB11CF601608171813F
:101FA00080E090E0A30157D2C82EC6180F77902E7C
:101FB00096FE0BC0092D0E7FC11650F494FE0AC088
:101FC00092FC08C0092D0E7E05C0DC2C092D03C033
:101FD000DC2C01C0D12E04FF0DC0FE01EC0DF11D63
:101FE0008081803311F4097E09C002FF06C0D394BA
:101FF000D39404C0802F867809F0D39403FD10C0D9
:1020000000FF06C01C2DD51478F4150D1D190CC049
:10201000D51450F4B70180E290E0B3D1D394F8CF57
:10202000D51410F45D1801C0512C04FF0FC0B70186
:1020300080E390E0A6D102FF16C001FD03C088E74F
:1020400090E002C088E590E0B7010CC0802F867850
:1020500051F001FF02C08BE201C080E207FD8DE27A
:10206000B70190E08ED1C11630F4B70180E390E063
:1020700088D11150F8CFCA94F301EC0DF11D808185
:10208000B70190E07ED1C110F6CF15C0F4E0F51590
:1020900050F584E0581A93FE1EC0011125C02C850E
:1020A00023FF27C004EF10E0392D3071932EF80183
:1020B0008491811121C0552009F4FCCCB70180E244
:1020C00090E05FD15A94F7CFF7018681978123C0C2
:1020D0008FEF9FEF20C0B70180E290E052D15A9479
:1020E0005110F9CFDACF512CB701802F90E049D1B0
:1020F000D6CF08EF10E0D8CF91108052B70190E012
:1021000040D10F5F1F4FD3CF23E0251510F483E09C
:10211000C1CF512CC4CF60960FB6F894DEBF0FBE6E
:10212000CDBFDF91CF911F910F91FF90EF90DF9086
:10213000CF90BF90AF909F908F907F906F905F9067
:102140004F903F902F90089597FB072E16F4009420
:1021500006D077FD08D013D007FC05D03EF490954B
:1021600081959F4F0895709561957F4F0895EE0F6B
:10217000FF1F881F8BBF0790F691E02D1994AA1BB3
:10218000BB1B51E107C0AA1FBB1FA617B70710F062
:10219000A61BB70B881F991F5A95A9F78095909594
:1021A000BC01CD010895283008F027E03327DA017B
:1021B000990F311D87FD916000966105710539F415
:1021C00032602E5F3D9330E32A95E1F708959F3FFB
:1021D00030F080387105610509F03C5F3C5F3D934C
:1021E000913008F08068911DDF93CF931F930F9378
:1021F000FF92EF92192F987F9695E92F96959695D5
:10220000E90FFF27EA5AFE4F99273327EE24FF24D0
:10221000A701E70105900894079428F4360FE71EFC
:10222000F81E491F511D660F771F881F991F0694BE
:10223000A1F70590079428F4E70EF81E491F561FD2
:10224000C11D770F881F991F661F0694A1F705907F
:10225000079428F4F80E491F561FC71FD11D880F79
:10226000991F661F771F0694A1F70590079420F425
:10227000490F561FC71FD81F990F661F771F881F4A
:102280000694A9F784911095177041F0D695C795DB
:1022900057954795F794E7941A95C1F7ECEFF0E05E
:1022A00068941590159135916591959105907FE20F
:1022B0007395E118F10A430B560BC90BD009C0F70F
:1022C000E10CF11E431F561FC91FD01D7EF4703351
:1022D00011F48A95E6CFE894015030F0080F0AF423
:1022E0000027021708F4202F2395022F7A3328F0B5
:1022F00079E37D932A95E9F710C07D932A9589F6B5
:10230000069497956795379517951794E118F10AF4
:10231000430B560BC90BD00998F023957E9173950A
:102320007A3308F070E37C932013B8F77E917061E4
:102330007D9330F0839571E37D9370E32A95E1F707
:102340001124EF90FF900F911F91CF91DF9199276A
:1023500087FD90950895FC01059061507040011033
:10236000D8F7809590958E0F9F1F0895FC016150BE
:10237000704001900110D8F7809590958E0F9F1FA7
:1023800008950F931F93CF93DF93FB01238121FDCA
:1023900003C08FEF9FEF2CC022FF16C046815781EC
:1023A000248135814217530744F4A081B1819D01F6
:1023B0002F5F3F4F318320838C93268137812F5F9E
:1023C0003F4F3783268314C08B01EC01FB0100844F
:1023D000F185E02D1995892BE1F6D80116968D919E
:1023E0009C911797019617969C938E931697CE0102
:1023F000DF91CF911F910F9108950F931F93CF936A
:10240000DF93CDB7DEB72E970FB6F894DEBF0FBEC1
:10241000CDBF0E891F8986E08C831A8309838FEFD5
:102420009FE79E838D83AE01465E5F4F688D798DF9
:10243000CE01019600DBEF81F885E00FF11F1082DD
:102440002E960FB6F894DEBF0FBECDBFDF91CF91B1
:102450001F910F910895FA01AA27283051F12031D8
:1024600081F1E8946F936E7F6E5F7F4F8F4F9F4F28
:10247000AF4FB1E03ED0B4E03CD0670F781F891F6A
:102480009A1FA11D680F791F8A1F911DA11D6A0F38
:10249000711D811D911DA11D20D009F468943F91EB
:1024A0002AE0269F11243019305D3193DEF6CF01EA
:1024B0000895462F4770405D4193B3E00FD0C9F7B0
:1024C000F6CF462F4F70405D4A3318F0495D31FD1D
:1024D0004052419302D0A9F7EACFB4E0A695979570
:1024E000879577956795BA95C9F700976105710546
:1024F00008959B01AC010A2E069457954795379590
:102500002795BA95C9F7620F731F841F951FA01DE9
:062510000895F894FFCFCE
:1025160041543132333401B56206080600E803013E
:1025260000000000370103456E7465722050617328
:1025360073776F72643A00496E76616C69642070D5
:10254600617373776F726400533B25663B25663B68
:1025560025643B25643B25643B25643B00256600DA
:0A25660025643A25643A256400005C
:00000001FF
