:1000000071C1000090C100008EC100008CC10000D1
:100010008AC1000088C1000086C1000084C10000C0
:1000200082C1000080C100000C94DB097CC100008B
:100030007AC1000078C1000076C1000074C10000E0
:1000400072C1000070C100006EC100006CC10000F0
:100050006AC100000C94960966C1000064C10000EA
:1000600062C100000C94A3130C946E135CC10000D9
:100070005AC100000C94230A56C1000054C100006C
:1000800052C1000050C100004EC100004CC1000030
:100090000C94A6140C94711446C10000E4C6000030
:1000A00042C1000040C100003EC100003CC1000050
:1000B0003AC1000038C1000036C1000034C1000060
:1000C00032C1000030C100002EC100000C94921516
:1000D0000C94631528C1000026C1000024C1000053
:1000E00022C1000058070608060806080608060888
:1000F0000608060860070608060806080608060837
:10010000060806086D070608060806080608060819
:1001100006080608F4070608060806080608060882
:1001200006080608750706080608060806080608F1
:1001300006080608FD070608060806080608060859
:1001400006080608F4070608060806080608060852
:10015000060806089F070608060806080608060897
:10016000060806080608060806080608060806081F
:1001700006080608DA07060806080608060806083C
:1001800006080608AB0728173B174E177417AF175A
:10019000C017D317FC17084AD73B3BCE016E84BC6F
:1001A000BFFDC12F3D6C74319ABD56833DDA3D00D1
:1001B000C77F11BED9E4BB4C3E916BAAAABE00001A
:1001C00000803F05A84CCDB2D44EB93836A9020CF8
:1001D00050B9918688083CA6AAAA2ABE00000080D1
:1001E0003F006E616E00696E660000407A10F35A3F
:1001F00000A0724E18090010A5D4E80000E8764867
:10020000170000E40B54020000CA9A3B000000E112
:10021000F505000080969800000040420F000000A5
:10022000A08601000000102700000000E803000085
:1002300000006400000000000A000000000001004F
:10024000000000002C76D888DC674F0823DFC1DF70
:10025000AE59E1B1B796E5E3E453C63AE651997673
:1002600096E8E6C28426EB898C9B62ED407C6FFCAD
:10027000EFBC9C9F40F2BAA56FA5F490055A2AF7EF
:100280005C936B6CF9676DC11BFCE0E40D47FEF5F8
:1002900020E6B500D0ED902E030094357705008060
:1002A000841E080000204E0A000000C80C333333BF
:1002B000330F986E12831141EF8D2114893BE6555F
:1002C00016CFFEE6DB18D1844B381BF77C1D901D42
:1002D000A4BBE424203284725E228100C9F124ECA4
:1002E000A1E53D2711241FBECFEFD1E2DEBFCDBF78
:1002F00000E00CBF12E0A0E0B2E0E4E3F6E400E0CE
:100300000BBF02C007900D92AA3FB107D9F72DE0AD
:10031000AAEFB2E001C01D92A43DB207E1F70E942E
:10032000040D0C9418236CCE80912403882329F0AB
:1003300080910F0390911003089580910E038823FC
:1003400029F08091090490910A0408958091020394
:1003500090910303089580912403882329F08091CC
:10036000110390911203089580910E03882329F0C0
:1003700080910B0490910C04089580910403909156
:100380000503089580912403882329F080911303A5
:1003900090911403089580910E03882329F0809191
:1003A0000D0490910E040895809106039091070327
:1003B0000895909100039111FCCF9091BC0094FDA1
:1003C000F8CF109201038093FB0210920002409339
:1003D000C90381E08093FA021092FF028093000328
:1003E0006093FC02ECEBF0E08081856A80830895E5
:1003F000862B482B422B69E08AE1DBCF0895909150
:1004000000039111FCCF9091BC0094FDF8CF809334
:10041000FB0210920103109200021092FE0281E092
:100420008093FA02809300038093FD026093FC02A4
:10043000ECEBF0E08081856A80830895CF93DF93B1
:10044000C82FD42FDCDF809100038111FCCF809175
:10045000BC0084FDF8CF10920103C160C093FB0281
:1004600081E0809300021092FE02D093FA02809302
:100470000003ECEBF0E08081856A8083DF91CF910F
:10048000089588E48093B800ECEBF0E0808184600C
:10049000808378940895CF92DF92EF92FF920F932A
:1004A0001F93CF93DF9310920803109209031092C9
:1004B0000A0310920B0338DF8C014DDFEC01B80109
:1004C000110F880B990B0E94D11A6B017C01BE01A0
:1004D000DD0F880B990B0E94D11AA70196010E948B
:1004E000DC1920E030E044E353E40E94461C2BED8D
:1004F0003FE049E450E40E94361A062F172FD82F08
:10050000C92F462F572F682F792F409308035093F8
:10051000090360930A0370930B0320E030E0A90104
:10052000602F712F0E942F1A882374F420E030E08E
:1005300044EB53E4602F712F8D2F9C2F0E9469197B
:10054000062F172FD82FC92F602F712F8D2F9C2F7B
:10055000DF91CF911F910F91FF90EF90DF90CF909F
:100560000895EF92FF920F931F93E1E0E0930E0343
:10057000E2E1F4E091838083738362835583448353
:100580003783268311870087F386E2861F910F91B8
:10059000FF90EF9008952BED3FE049E450E40E9476
:1005A000461C20E030E044E353E40C94361A0895EE
:1005B0004F925F926F927F928F929F92AF92BF9273
:1005C000CF92DF92EF92FF920F931F93CF93DF931F
:1005D000CDB7DEB72C970FB6F894DEBF0FBECDBFF8
:1005E0002B013C0129873A874B875C87E982FA8295
:1005F0000B831C839B01AC01C801B7010E946819E1
:10060000CADF6D837E838F83988729853A854B85E2
:100610005C85C601B5010E946819BDDF4B015C0114
:1006200020E030E040E05FE36D817E818F8198853E
:100630000E94461C0E94A91C9B01AC010E94461C02
:100640006B017C01C301B201A6DF0E94331A2B01AA
:100650003C0169817A818B819C819DDF0E94331AE4
:100660009B01AC01C301B2010E94461C2B013C015D
:1006700020E030E040E05FE3C501B4010E94461C89
:100680000E94A91C4B015C019B01AC01C301B2019A
:100690000E94461C9B01AC01C501B4010E94461C8E
:1006A0009B01AC01C701B6010E9469196B017C0175
:1006B0009B01AC0160E070E080E89FE30E94681954
:1006C0000E94B31C4B015C01C701B6010E94B31C20
:1006D000A50194010E94DC199B01AC010E946919DB
:1006E00029E330E148E15EE40E94461C2C960FB6F7
:1006F000F894DEBF0FBECDBFDF91CF911F910F9158
:10070000FF90EF90DF90CF90BF90AF909F908F9031
:100710007F906F905F904F90089520E030E044E329
:1007200053E40E94461C2BED3FE049E450E40C9456
:10073000361A08954F925F926F927F928F929F9296
:10074000AF92BF92CF92DF92EF92FF920F931F93DF
:10075000CF93DF93CDB7DEB760970FB6F894DEBFC7
:100760000FBECDBF29833A834B835C8314DF698737
:100770007A878B879C87C801B7010DDF2B013C016D
:1007800029813A814B815C81C601B5010E946819BB
:1007900002DF6B017C010E94A91C6D837E838F8325
:1007A0009887C301B2010E94331A69837A838B83CD
:1007B0009C839B01AC016D817E818F8198850E9415
:1007C000461C6D877E878F87988B69857A858B8598
:1007D0009C850E94331A6D837E838F839887C30123
:1007E000B2010E94A91C9B01AC016D817E818F81A9
:1007F00098850E94461C2B013C0169857A858B8572
:100800009C850E94A91C9B01AC0169817A818B8126
:100810009C810E94461C4B015C01C701B6010E94ED
:10082000331A9B01AC01C501B4010E94461C9B0117
:10083000AC01C301B2010E9468199B01AC016D8536
:100840007E858F8598890E94DC192BED3FE049EC6D
:1008500050E40E9469192BED3FE049EC50E40E94FE
:10086000131B5BDF60960FB6F894DEBF0FBECDBFE3
:10087000DF91CF911F910F91FF90EF90DF90CF907C
:10088000BF90AF909F908F907F906F905F904F90B0
:1008900008952F923F924F925F926F927F928F9224
:1008A0009F92AF92BF92CF92DF92EF92FF920F93FF
:1008B0001F93CF93DF93CDB7DEB728970FB6F89489
:1008C000DEBF0FBECDBFE2E1F4E0008111814281C5
:1008D00053811801240E351E33201CF42FEF221AE9
:1008E000320A35942794E2E1F4E0A481B5812681AF
:1008F0003781CD01820F931F99230CF401963C019F
:100900007594679482E194E0FC01E084F18482852F
:100910009385B701680F791F772314F46F5F7F4FBA
:100920004B0195948794401B510B5A011AF4FFEF29
:10093000AF1ABF0AB594A7942A1B3B0B29011AF4DE
:100940004FEF441A540A559447948E199F098C010D
:1009500012F40F5F1F4F15950795C2018A0D9B1D5D
:10096000800F911F63E070E00E949520072E000C1D
:10097000880B990B0E94D11A6B017C01B501BB0C4D
:10098000880B990B0E94D11A9B01AC01C701B601DB
:100990000E94361A69837A838B839C83B201550C3B
:1009A000880B990B0E94D11A9B01AC01C701B601BB
:1009B0000E94361A6D837E838F839887B801110F4A
:1009C000880B990B0E94D11A9B01AC01C701B6019B
:1009D0000E94361A6B017C0102E013E0F80160818D
:1009E000718162197309072E000C880B990B0E9404
:1009F000D11A29813A814B815C810E94461C0E9458
:100A00009E1AE9E0F4E071836083F80162817381EA
:100A100066197709072E000C880B990B0E94D11AD2
:100A20002D813E814F8158850E94461C0E949E1A4E
:100A300070930C0460930B04F8016481758168194C
:100A40007909072E000C880B990B0E94D11AA70177
:100A500096010E94461C0E949E1A70930E04609399
:100A60000D0428960FB6F894DEBF0FBECDBFDF9100
:100A7000CF911F910F91FF90EF90DF90CF90BF909B
:100A8000AF909F908F907F906F905F904F903F902E
:100A90002F900895EF92FF920F931F9380910E0372
:100AA000882309F45AC010920E0357C046E060E054
:100AB0008AE1C4DC39DC2091010230910202821704
:100AC000930724F490930202809301022DDC20917D
:100AD0000302309104022817390724F4909304028A
:100AE0008093030238DC20910502309106028217C0
:100AF000930724F490930602809305022CDC209146
:100B00000702309108022817390724F4909308024D
:100B10008093070237DC2091090230910A02821784
:100B2000930724F490930A02809309022BDC20910E
:100B30000B0230910C022817390724F490930C0211
:100B400080930B0280910C0390910D03019690937A
:100B50000D0380930C0380E01CC080910C039091E6
:100B60000D038031974208F4A1CF10920D0310922B
:100B70000C03E1E0F2E0E284F38400851185268134
:100B80003781448155816281738180819181E9DC63
:100B900081E01F910F91FF90EF90089591E0909365
:100BA00024038B3008F08AE080930D0281E06130ED
:100BB00009F080E08093230308954F925F926F9233
:100BC0007F928F929F92AF92BF92DF92EF92FF92AD
:100BD0000F931F93CF93DF93D0900D02ED2CF12C48
:100BE0008701015011098091210390912203081778
:100BF000190724F41092220310922103C0E0D0E0E0
:100C000015C1FE01EE0FFF1FEE0FFF1FEB5EFC4F45
:100C100040815181628173814115510561057105E2
:100C200021F18091210390912203FC01EE0FFF1F1F
:100C3000E80FF91FEC0FFD1FEE0FFF1FE25EFB4FE9
:100C400080819181092E000CAA0BBB0B481B590B0C
:100C50006A0B7B0BFE01EE0FFF1FEE0FFF1FEB5E1B
:100C6000FC4F408351836283738380912103909171
:100C7000220320910E03222341F0FE01EE0FFF1FFD
:100C8000E75FFB4F2081318107C0FE01EE0FFF1FA0
:100C9000EE5FFC4F20813181FC01EE0FFF1FE80F5A
:100CA000F91FEC0FFD1FEE0FFF1FE25EFB4F3183BC
:100CB0002083FE01EE0FFF1FEE0FFF1FEB5EFC4FC8
:100CC00080819181A281B3814901330FAA08BB08B9
:100CD000880E991EAA1EBB1E80829182A282B382B8
:100CE00080912303811124C08FC0F901EE0FFF1FF3
:100CF000E20FF31FEC0FFD1FEE0FFF1FE25EFB4F35
:100D000040815181862F90E0FC01EE0FFF1FE80F1C
:100D1000F91FEC0FFD1FEE0FFF1FE25EFB4F8081FE
:100D20009181841795070CF4622F2F5F3F4F03C00A
:100D300020E030E060E020173107BCF220E030E036
:100D400070E022C0F901EE0FFF1FE20FF31FEC0F5E
:100D5000FD1FEE0FFF1FE25EFB4F40815181872F89
:100D600090E0FC01EE0FFF1FE80FF91FEC0FFD1FD5
:100D7000EE0FFF1FE25EFB4F8081918148175907FC
:100D80000CF4722F2F5F3F4F20173107DCF2862FB4
:100D900090E0FC01EE0FFF1FE80FF91FEC0FFD1FA5
:100DA000EE0FFF1FE25EFB4F20813181872F90E025
:100DB000FC01EE0FFF1FE80FF91FEC0FFD1FEE0FF8
:100DC000FF1FE25EFB4F80819181820F931F092EEE
:100DD000000CAA0BBB0BA5019401281B390B4A0B75
:100DE0005B0BCA01B901970122503109032E000C97
:100DF000440B550B0E94A820FE01EE0FFF1FE15F80
:100E0000FC4F3183208311C04D2C512C612C712C4F
:100E1000C501B401A30192010E94A820FE01EE0FBA
:100E2000FF1FE15FFC4F318320832196C330D10542
:100E30000CF4E7CE809121039091220301969093C8
:100E4000220380932103DF91CF911F910F91FF9097
:100E5000EF90DF90BF90AF909F908F907F906F90BA
:100E60005F904F9008951F920F920FB60F9211242A
:100E70000BB60F922F933F934F935F936F937F9394
:100E80008F939F93AF93BF93EF93FF938091B9009C
:100E9000E82FE87F8E2F90E0FC013897E135F105CF
:100EA00008F0B4C08827EE58FF4F8F4F0C94C42031
:100EB0008091FB028093BB0085E88093BC00AEC0AC
:100EC00080910002882329F08091FB028160809349
:100ED000BB0085E88093BC00A1C08091FC02809398
:100EE000BB0085E88093BC0099C08091FD028823F7
:100EF00051F01092FD0210920003ECEBF0E08081C3
:100F0000856980838BC09091FF028091FA029817C7
:100F100030F084E98093BC00109200037FC0E09120
:100F2000FF0281E08E0F8093FF02F0E0E753FC4F59
:100F300080818093BB0085E88093BC006FC0809166
:100F4000FA02823020F085EC8093BC0067C085E80F
:100F50008093BC0063C0E9ECF3E02081818190E0E4
:100F6000982F8827822BA2E0B3E011969C938E9352
:100F70002281838190E0982F8827822B13969C935F
:100F80008E9312972481858190E0982F8827822B59
:100F900015969C938E93149780910E03811179DCA2
:100FA00080912403811109DE84E98093BC001092B2
:100FB000000334C0E091FE0281E08E0F8093FE02B8
:100FC000F0E08091BB00E753FC4F80839091FE02DC
:100FD0008091FA02981720F085E88093BC001EC02B
:100FE00085EC8093BC001AC081E08093010384E902
:100FF0008093BC001092000311C082E08093010333
:1010000084E98093BC001092000308C083E08093C1
:10101000010380E98093BC0010920003FF91EF91DF
:10102000BF91AF919F918F917F916F915F914F9100
:101030003F912F910F900BBE0F900FBE0F901F90FE
:101040001895662321F098B1946098B903C098B1BF
:101050009B7F98B998B1906898B980FF04C098B107
:10106000986098B903C098B1977F98B981FF04C080
:1010700098B1906198B903C098B19F7E98B982FFEA
:1010800004C098B1906298B903C098B19F7D98B997
:1010900083FF04C088B1806488B903C088B18F7BA6
:1010A00088B985E08A95F1F7000088B18F7788B913
:1010B00085E08A95F1F700000895CF93DF93C82F5C
:1010C000D62F82958F70BDDF6D2F8C2FBADF85ED07
:1010D0008A95F1F70000DF91CF91089587B1846080
:1010E00087B987B1806887B987B1886087B987B1C8
:1010F000806187B987B1806287B987B1806487B919
:101100002FEF89EF90E0215080409040E1F700C040
:10111000000060E083E095DF8FE19EE40197F1F746
:1011200000C0000060E083E08CDF8FE99FE0019762
:10113000F1F700C0000060E083E083DF8FE99FE00B
:101140000197F1F700C0000060E082E07ADF8FE9EC
:101150009FE00197F1F700C0000060E088E2ADDF9A
:1011600060E088E0AADF60E081E0A7DF8FE39FE135
:101170000197F1F700C0000060E086E09EDF60E0CC
:101180008FE09BCF089561E098CF08950F931F9350
:10119000CF938C01C0E002C0F6DFCF5FF801EC0F07
:1011A000F11D8081882311F0CF3FB1F7CF911F91BE
:1011B0000F910895611102C090E801C090EC8F700A
:1011C00060E0892B7ACF089560E081E076DF8FE3DD
:1011D0009FE10197F1F700C00000089590912F035F
:1011E0009130B1F030F0923021F1933009F445C0E4
:1011F00095C0893509F092C010922C0310922D03EE
:1012000091E090932E038093630490932F0386C004
:10121000893509F083C0E0912E0391E09E0F9093F1
:101220002E03F0E0ED59FB4F808382E080932F0383
:1012300075C090912D03993058F4E0912E0391E000
:101240009E0F90932E03F0E0ED59FB4F808303C077
:1012500083E080932F0380912D038F5F80932D0374
:101260005DC0E82FF0E0ED59FB4F908120912C03F9
:10127000920F90932C038F5F01C080E0883088F339
:1012800090916B0480912C0398133DC081E0809372
:101290002B0320E00BC0822F90E0FC01ED59FB4FA7
:1012A0003081FC01E65AFB4F30832F5F293098F3E1
:1012B000EAE5F4E02281838190E0982F8827820F6D
:1012C000911D90932A03809329032481858190E0C6
:1012D000982F8827820F911D9093280380932703CE
:1012E0002681878190E0982F8827820F911D9695FF
:1012F000879596958795969587959A9590932603C9
:101300008093250302C010922B0389E0E3E6F4E00A
:10131000DF011D928A95E9F710922F0380912B032C
:1013200008958091290390912A0308951F920F92A6
:101330000FB60F9211242F938F939F9380914E039A
:101340008F5F80934E0380914C0390914D030196E3
:1013500090934D0380934C0381E0809348038091E8
:101360004E03843650F080914E03845680934E0392
:1013700081E080930E0280934B0380914C03909107
:101380004D038C32914078F080914C0390914D0345
:101390008C52914090934D0380934C0381E0809355
:1013A0004A03809349039F918F912F910F900FBE15
:1013B0000F901F9018951F920F920FB60F92112445
:1013C0000BB60F928F939F93EF93FF93809103013E
:1013D00083FD10C08091720383FF0CC080916D0368
:1013E00090916E03019690936E0380936D0381E05C
:1013F00080931302E3E0F1E08081887080937203B0
:10140000808184FD10C08091710384FF0CC08091A5
:101410006F039091700301969093700380936F0314
:1014200081E08093130280910301807180937103A6
:10143000FF91EF919F918F910F900BBE0F900FBE78
:101440000F901F9018951F920F920FB60F921124B4
:101450000BB60F922F933F934F935F936F937F93AE
:101460008F939F93AF93BF93EF93FF936091780017
:1014700070917900709368036093670380917B009B
:10148000882319F081E090E002C080E090E0880FAE
:10149000991F82959295907F9827807F98279091A9
:1014A0007C009F71892B809366038130C9F028F0FE
:1014B0008230D1F0803209F15CC06130724050F46A
:1014C00061E088E077DE8FE292E060DE81E0809389
:1014D000370302C01092370381E480937C0049C037
:1014E00082E480937C0045C080E480937C00EBE73D
:1014F000F0E08081886080833CC080E090E00E94C2
:10150000CF1A20E030EC4FE754E40E94361A20E076
:1015100030E048EC52E40E94461C60935303709301
:101520005403809355039093560360915303709135
:101530005403809155039091560320E030E046E932
:1015400052E40E94681920E030E040E850E40E9434
:10155000461C6093530370935403809355039093F8
:10156000560380E480937C00EBE7F0E08081877F86
:101570008083EAE7F0E0808180648083FF91EF91CF
:10158000BF91AF919F918F917F916F915F914F919B
:101590003F912F910F900BBE0F900FBE0F901F9099
:1015A0001895ECE7F0E0808180648083EAE7F0E062
:1015B00080818C688083EEE7F0E0808186608083A4
:1015C000EDE7F0E080818160808378940895E1E028
:1015D000F1E08081806380833BEA3093A00029E1C1
:1015E0002093A10080E094E09093A9008093A8004C
:1015F00046E450E05093AB004093AA001092AD0037
:101600001092AC00EAE0F1E0408140634083309307
:1016100020012093210190932901809328016AE5FC
:1016200070E070932B0160932A0110922D011092AB
:101630002C0144B1406444B9309380002093810070
:10164000909389008093880070938B0060938A0048
:1016500010928D0010928C000895019B08C0009B91
:1016600008C0039B08C0029B08C080E0089581E386
:10167000089582E3089583E3089584E308958091B3
:101680000E02882309F4A7C010920E02809169030C
:1016900090916A0399230CF053C09195819591091B
:1016A00090936A038093690320916B0330916C03DC
:1016B0001216130664F4AC01421B530B50936503DE
:1016C0004093640390936303809362030AC0280FDE
:1016D000391F3093630320936203909365038093D3
:1016E00064038091620390916303992324F4109220
:1016F00063031092620380916403909165039923C0
:1017000024F410926503109264031092AB001092BF
:10171000AA0080916403909165039E5F90932B01D2
:1017200080932A0180916203909163039E5F90935E
:10173000AD008093AC0010922D0110922C01089501
:1017400020916B0330916C031216130664F4AC0104
:10175000421B530B509365034093640390936303C0
:10176000809362030AC0280F391F309363032093CC
:101770006203909365038093640380916203909168
:101780006303992324F410926303109262038091FF
:10179000640390916503992324F4109265031092D9
:1017A000640380916203909163039E5F9093AB000A
:1017B0008093AA0010922B0110922A011092AD0082
:1017C0001092AC0080916403909165039E5F9093AA
:1017D0002D0180932C010895861B970BAC0122F4F8
:1017E00087E691E04FEF5FEF843B910510F4A0E0B6
:1017F00001C0A1E089E090E012C09C0121503109B4
:10180000F901EE0FFF1FE151F84F60817181880FE0
:10181000991FFC01E151F84F71836083C9011816CB
:1018200019065CF35093F0074093EF0780E090E0D7
:101830000CC0FC01EE0FFF1FE151F84F20813181F8
:10184000309352032093510301968A3091058CF313
:10185000CA01880F991F880F991F480F591F50936D
:10186000500340934F034D39514034F08CE991E0DF
:101870009093500380934F0380914F0390915003B6
:10188000992324F41092500310924F03A1111BC00E
:101890001092AB001092AA0020914F033091500398
:1018A00082EC93E0821B930B90932B0180932A018F
:1018B00080E094E09093AD008093AC0010922D01F5
:1018C00010922C0108951092AB001092AA0082ECA5
:1018D00093E090932B0180932A0120914F03309144
:1018E000500380E094E0821B930B9093AD008093B3
:1018F000AC0010922D0110922C0108959C01261B22
:10190000370B22F4C90188599E4F01C0C901843B9D
:10191000910518F41092300303C081E080933003E6
:10192000809130038823D9F02F5F3F4F233031055A
:1019300080F181E793E09093AB008093AA008CE262
:1019400093E090932B0180932A011092AD001092A6
:10195000AC0010922D0110922C0180E008952C5FB4
:101960003F4F29303105B8F01092AB001092AA0019
:1019700010922B0110922A0121E733E03093AD0041
:101980002093AC002CE233E030932D0120932C0106
:10199000089581E0089581E0089514C01092AB008D
:1019A0001092AA0010922B0110922A0180E094E07C
:1019B0009093AD008093AC0082EC93E090932D0166
:1019C00080932C0167D8882349F31092AB001092C2
:1019D000AA0010922B0110922A011092AD001092D1
:1019E000AC0010922D0110922C0108950E9441022A
:1019F00041E06BE08AE10E94D90120E040E16CE027
:101A000081E00C94F801089569DBF0DF61E08AE081
:101A1000C5D882B18F6082B92FEF31EE84E02150BA
:101A200030408040E1F700C0000085E392E0AEDB8B
:101A300061E080E0BFDBB5DDCADDEAE7F0E0808190
:101A40008064808385B5836085BD84B5826084BDF4
:101A5000EEE6F0E080818260808389EF87BDE5E07B
:101A6000F1E0808188618083E8E6F0E08081826037
:101A70008083ECE6F0E080818063808320E034E2C4
:101A800044EF50E060E072EC81E090E0C9D520E0E6
:101A900034E244EF50E060E875E280E090E0AAD6DE
:101AA00020E034E244EF50E060E072EC81E090E04E
:101AB0009AD780914B03882309F446C010924B03B8
:101AC000CCDD80936103882309F43AC080916003E0
:101AD000811136C061E080915F036CDBE0915F03B0
:101AE00081E08E0F80935F03F0E080916103ED5FF2
:101AF000F74F808348DB80915F03843009F51DC078
:101B00008C2F90E0FC01ED5FF74F2081FC01E15F3D
:101B1000FD4F8081281304C081E080935E030BC0D9
:101B200053DB85E492E032DB61E080E043DB10923E
:101B30005F0310925E03CF5F01C0C0E0C43000F3CA
:101B4000809161038093600380915E03882309F490
:101B5000B0CF60E875E280E090E00E94BB1881E0C1
:101B60000E94FD1841E061E087E00E943419109264
:101B70005E032ADB60E080E01DDB86E592E006DBA9
:101B80000CDF9FEFA1EEB4E09150A040B040E1F730
:101B900000C0000080914B03882309F492C010928A
:101BA0004B035BDD80936103882309F486C0809139
:101BB0006003811182C008DB60E080E0FBDA809185
:101BC0006103823369F118F4813331F047C0833304
:101BD00099F18433E1F142C080915C0380935D030D
:101BE000811103C01092570313C0813019F4809300
:101BF00057030EC0823019F48093570309C0833015
:101C000019F48093570304C0843011F48093570370
:101C1000109276031092750381E080935B031EC0DF
:101C200080915C03882321F0815080935C0316C06F
:101C300084E080935C0312C080915C03843020F4C4
:101C40008F5F80935C030AC010925C0307C0809191
:101C50005D0380935C0381E080935B0380915C0370
:101C6000811104C086E692E091DA17C0813021F438
:101C700083E792E08BDA11C0823021F480E892E0B1
:101C800085DA0BC0833021F48DE892E07FDA05C05D
:101C9000843019F48AE992E079DA80915B03882331
:101CA00061F010925B0310925A0310925E0360E0A1
:101CB0008DE080DA83E692E069DA809161038093B7
:101CC000600380915703823009F497C030F4882371
:101CD00059F0813009F443C054C4833009F479C207
:101CE000843009F4EFC34DC4CADCB7D6882321F091
:101CF000B7D680937A0341D70E94F71690936C036E
:101D000080936B030E94FC1690936A03809369038F
:101D10000E940117813351F480E094E090938B008E
:101D200080938A0084B1806484B909C08AE590E018
:101D300090938B0080938A0084B18F7B84B90E943A
:101D4000041780933103813329F480913203813366
:101D500009F023DE809131038093320312C47DD6D3
:101D6000882309F40EC47CD680937A03A8D78823ED
:101D700009F407C4C091760381E08C0F8093760349
:101D8000D0E00E9410170E94D11A2DEB37E346E8ED
:101D900055E30E94461CCC0FDD1FCC0FDD1FC3593D
:101DA000DB4F688379838A839B83C091750381E0CD
:101DB0008C0F80937503D0E00E9407170E94D11A00
:101DC0002DEB37E346E855E30E94461CCC0FDD1FA0
:101DD000CC0FDD1FC95BD94F688379838A839B83CE
:101DE00087EA92E057D680912C0290912D020196BD
:101DF00090932D0280932C02C4C34DD4882359F0B4
:101E00004DD480937303EAD9882329F08ADA90931A
:101E100035038093340380913403909135030F97F9
:101E200020F481E08093360302C010923603809143
:101E30007903882319F019D580932F0880914803DE
:101E4000882389F01092480346E060E08AE10E940E
:101E50001E020E944B0260933C0370933D038093EB
:101E60003E0390933F0360E080E0A4D9E0917703C4
:101E7000F0917803EE0FFF1FEE0FFF1FE05EFD4FA6
:101E8000C081D181128103810E947B180F931F931F
:101E9000DF93CF939F938F937F936F930EEA12E01C
:101EA0001F930F93CBE1D8E0DF93CF930E948C2256
:101EB000CE016CD961E080E07DD9E0917703F091AB
:101EC0007803EE0FFF1FEE0FFF1FEC5EFD4FF0805B
:101ED000E180D280C3800E948818CF92DF92EF9277
:101EE000FF929F938F937F936F931F930F93DF9333
:101EF000CF930E948C22CE0149D980912C029091DF
:101F00002D02ADB7BEB758960FB6F894BEBF0FBE40
:101F1000ADBF892B09F44CC180917903813009F45C
:101F2000C4C020F0823009F4E9C02BC39ED4809352
:101F30002F087FD7882309F424C30E94A318833075
:101F400008F41FC30E947B18609387037093880373
:101F50008093890390938A030E9488186093830377
:101F60007093840380938503909386030E949C184A
:101F700060937B0370937C0380937D0390937E0337
:101F80000E94951860937F03709380038093810370
:101F90009093820300917B0310917C0320917D0339
:101FA00030917E03093211052105310508F0E9C29F
:101FB000693271058105910508F0E3C280917403CF
:101FC0008130C9F120F0823009F469C0DAC2809111
:101FD000770390917803880F991F880F991FFC0150
:101FE000EC5EFD4FA080B180C280D380FC01E05E3A
:101FF000FD4FE080F18002811381209183033091B5
:10200000840340918503509186036091870370910A
:1020100088038091890390918A030E94D80260937B
:10202000440370934503809346039093470381E0F4
:1020300080937403A6C28091770390917803880FF0
:10204000991F880F991FFC01EC5EFD4FA080B180A5
:10205000C280D380FC01E05EFD4FE080F180028110
:102060001381209183033091840340918503509123
:102070008603609187037091880380918903909112
:102080008A030E949A0360934003709341038093F4
:1020900042039093430382E08093740372C281E011
:1020A00080937903109274036CC260913C03709129
:1020B0003D0380913E0390913F030E94A31A6B0160
:1020C0007C016091400370914103809142039091A3
:1020D00043030E94A31ADC01CB01B6010FDC882365
:1020E00009F44FC210926E0310926D0310927003A8
:1020F00010926F0382E08093790343C260913C03A6
:1021000070913D0380913E0390913F030E94A31A7A
:102110006B017C0160914003709141038091420307
:10212000909143030E94A31ADC01CB01B60154DB5A
:1021300060916D0370916E0380916F0390917003B5
:10214000680F791F7695679580E090E00E94CF1A1E
:102150002DEC3CEC4CE550E40E94461C60933803A7
:102160007093390380933A0390933B032091440387
:102170003091450340914603509147030E943B1C18
:1021800088230CF4FEC1109279038091770390911B
:1021900078030196909378038093770380912C02C3
:1021A00090912D02019790932D0280932C02E9C10A
:1021B0001092AB001092AA0010922B0110922A01EB
:1021C0001092AD001092AC0010922D0110922C01D3
:1021D000D8C161E080E00E94DA08809158031F9224
:1021E0008F93809159031F928F938AEC92E09F9373
:1021F0008F9380E398E09F938F930E948C222DB75A
:102200003EB7285F3F4F0FB6F8943EBF0FBE2DBFBD
:1022100080914B03882309F44FC110924B031DDAC0
:1022200080936103823339F118F4813341F044C162
:10223000833309F49FC0843309F41BC13DC183E09B
:1022400080935C0385E08093570381E080935A0379
:102250000E94E40860E080E00E94DA0884EB92E0EB
:102260000E94C60861E080E00E94DA088BE198E0F5
:102270000E94C60821C180915903873120F48F5FE5
:102280008093590302C010925903809158038A30F9
:10229000D8F4909159039A30B8F41F928F931F92FB
:1022A0009F9381EC92E09F938F9380E398E09F93BC
:1022B0008F930E948C228DB79EB708960FB6F89424
:1022C0009EBF0FBE8DBF4DC08A30C8F41F928F9342
:1022D000809159031F928F9382EC92E09F938F938A
:1022E00080E398E09F938F930E948C22ADB7BEB796
:1022F00018960FB6F894BEBF0FBEADBF32C0909116
:1023000059039A30C0F41F928F931F929F9389ECC8
:1023100092E09F938F9380E398E09F938F930E9426
:102320008C222DB73EB7285F3F4F0FB6F8943EBFC3
:102330000FBE2DBF16C01F928F931F929F938AECE2
:1023400092E09F938F9380E398E09F938F930E94F6
:102350008C228DB79EB708960FB6F8949EBF0FBE1D
:102360008DBF61E080E00E94DA0880E398E00E947F
:10237000C608A2C0809158038B3320F48F5F8093EE
:10238000580302C010925803809158038A30D8F441
:10239000909159039A30B8F41F928F931F929F9394
:1023A00081EC92E09F938F9380E398E09F938F93CB
:1023B0000E948C22ADB7BEB718960FB6F894BEBF78
:1023C0000FBEADBF4DC08A30D0F41F928F93809165
:1023D00059031F928F9382EC92E09F938F9380E337
:1023E00098E09F938F930E948C222DB73EB7285F71
:1023F0003F4F0FB6F8943EBF0FBE2DBF31C0909136
:1024000059039A30B8F41F928F931F929F9389ECCF
:1024100092E09F938F9380E398E09F938F930E9425
:102420008C228DB79EB708960FB6F8949EBF0FBE4C
:102430008DBF16C01F928F931F929F938AEC92E0DC
:102440009F938F9380E398E09F938F930E948C22B9
:10245000ADB7BEB718960FB6F894BEBF0FBEADBFEE
:1024600061E080E00E94DA0880E398E00E94C608FC
:1024700023C083E080935C03C5E0C0935703C093FF
:102480005D0381E080935A030E94E408E0E3F8E0F2
:10249000DF011D92CA95E9F760E080E00E94DA084A
:1024A0008DE892E00E94C60861E080E00E94DA08B0
:1024B0008BE198E00E94C60880915A03882309F4B2
:1024C000A7CE5FC080914B03882309F455C01092BA
:1024D0004B03C3D8809361038823B9F080916003D4
:1024E000811113C061E080915F030E94DA08E091DE
:1024F0005F0381E08E0F80935F03F0E080916103C2
:10250000ED5FF74F80830E94C30880915F038430A2
:1025100079F50CC0822F90E0FC01ED5FF74F308120
:10252000FC01E15FFD4F30832F5F01C020E02430CC
:1025300088F384E080935C0385E080935703809365
:102540005D0381E080935E0310925F030E94E408C4
:1025500060E080E00E94DA0880ED92E00E94C60808
:1025600061E080E00E94DA088BE198E00E94C608F2
:10257000809161038093600380915E03882309F456
:10258000A1CF80914903882309F404CB80915D0396
:10259000813009F4FFCA10924903ADD5C62FD72F59
:1025A000182F092FB5D5262F372F4091530350915F
:1025B00054036091550370915603E0915D031F929F
:1025C000EF939F938F933F932F930F931F93DF93DB
:1025D000CF93809136031F928F93809133031F9284
:1025E0008F93809137031F928F937F936F935F93A5
:1025F0004F9380EE92E09F938F9385E096E09F93B8
:102600008F930E948C2285E096E044D22DB73EB78E
:10261000285E3F4F0FB6F8943EBF0FBE2DBFBACA1B
:102620008F929F92AF92BF92CF92DF92EF92FF92E2
:10263000CF93DF9349015A01C1ECD0E028E1288310
:1026400026E02093C200ABD720E030E040E851E420
:102650000E94461C6B017C01C501B401A0D7A701F3
:10266000960104D720E030E040E05FE331D66BD73D
:102670007093C5006093C4008881806888837894D3
:10268000DF91CF91FF90EF90DF90CF90BF90AF9010
:102690009F908F90089580918D03089580918D0370
:1026A0008823C9F0E0918E0381E08E0F80938E0322
:1026B000F0E0EB58F74F808180938B03F894809182
:1026C0008D03815080938D03789480918E038034A4
:1026D00010F010928E0380918B0308951F920F9239
:1026E0000FB60F9211240BB60F928F93EF93FF93B7
:1026F00080918C03811106C0E1ECF0E080818F7D38
:10270000808317C0E0918F0381E08E0F80938F0349
:10271000F0E0EB5CF74F80818093C60080918C03E2
:10272000815080938C0380918F03803410F010923D
:102730008F03FF91EF918F910F900BBE0F900FBE03
:102740000F901F9018951F920F920FB60F921124A1
:102750000BB60F928F939F93EF93FF938091C600D8
:102760008093B50880918D038034A8F4E0919003A4
:1027700091E09E0F90939003F0E09091B508EB5894
:10278000F74F90838F5F80938D0380919003803407
:1027900010F010929003FF91EF919F918F910F9005
:1027A0000BBE0F900FBE0F901F9018959091920343
:1027B0009923F4F0E091970391E09E0F9093970393
:1027C000F0E0EA54F74F8083F894809192038F5F92
:1027D00080939203789480919703882314F4109245
:1027E0009703E9ECF0E080818062808380E00895C7
:1027F00081E008958F929F92AF92BF92CF92DF9225
:10280000EF92FF92CF93DF9349015A01C9ECD0E0D8
:1028100028E1288326E02093CA00C1D620E030E0DA
:1028200040E851E40E94461C6B017C01C501B401E3
:10283000B6D6A70196011AD620E030E040E05FE36B
:1028400047D581D67093CD006093CC008881806895
:1028500088837894DF91CF91FF90EF90DF90CF90B5
:10286000BF90AF909F908F9008958091930388239D
:10287000C9F0E091940381E08E0F80939403F0E01F
:10288000E95CF64F808180939103F89480919303E3
:10289000815080939303789480919403882314F457
:1028A00010929403809191030895EF92FF921F93E9
:1028B000CF93DF937C01162FC0E0D0E009C0F70171
:1028C000EC0FF11D808172DF811101C0DF5FCF5FEE
:1028D000C117A8F38D2FDF91CF911F91FF90EF903B
:1028E00008951F920F920FB60F9211240BB60F92FC
:1028F0008F93EF93FF9380919203811106C0E9ECCF
:10290000F0E080818F7D808317C0E091950381E0A6
:102910008E0F80939503F0E0EA54F74F8081809307
:10292000CE00809192038150809392038091950311
:10293000882314F410929503FF91EF918F910F90DB
:102940000BBE0F900FBE0F901F9018951F920F9205
:102950000FB60F9211240BB60F928F939F93EF93A4
:10296000FF938091CE008093360980919303882352
:10297000ACF0E091960391E09E0F90939603F0E007
:1029800090913609E95CF64F90838F5F80939303B3
:1029900080919603882314F410929603FF91EF918F
:1029A0009F918F910F900BBE0F900FBE0F901F90B5
:1029B0001895E091BD0391E09E0F9093BD03F0E068
:1029C000E553F54F8083F8948091B8038F5F80932F
:1029D000B80378948091BD03E1EDF0E080818062DE
:1029E000808380E008958F929F92AF92BF92CF92A2
:1029F000DF92EF92FF92CF93DF9349015A01C1ED2D
:102A0000D0E028E1288326E02093D200C8D520E03A
:102A100030E040E851E43AD76B017C01C501B401D4
:102A2000BED5A701960122D520E030E040E05FE36B
:102A30004FD489D57093D5006093D4008881806885
:102A400088837894DF91CF91FF90EF90DF90CF90C3
:102A5000BF90AF909F908F9008958091B903089593
:102A60008091B903882399F0E091BA0381E08E0F39
:102A70008093BA03F0E0E553F44F80818093B7036D
:102A8000F8948091B90381508093B9037894809130
:102A9000B70308950F931F93CF93DF938C01C0E08A
:102AA000D0E005C086DF811101C0DF5FCF5FF80194
:102AB000EC0FF11D80818111F5CF8D2FDF91CF912A
:102AC0001F910F9108951F920F920FB60F9211242C
:102AD0000BB60F928F93EF93FF938091B803811100
:102AE00006C0E1EDF0E080818F7D808311C0E09130
:102AF000BB0381E08E0F8093BB03F0E0E553F54FFD
:102B000080818093D6008091B80381508093B80370
:102B1000FF91EF918F910F900BBE0F900FBE0F9012
:102B20001F9018951F920F920FB60F9211240BB69B
:102B30000F928F93EF93FF938091D6008093F709C4
:102B4000E091BC0381E08E0F8093BC03F0E08091A4
:102B5000F709E553F44F80838091B9038F5F809329
:102B6000B9038091BC03FF91EF918F910F900BBE41
:102B70000F900FBE0F901F901895CF93DF939091F9
:102B8000B6039130E1F018F0923061F192C08C33CD
:102B900009F091C01092B40380E4E7EBF9E0DF01A3
:102BA000982F1D929A95E9F7E8E3FAE0DF011D926C
:102BB0008A95E9F781E08093B60380E07DC08E338B
:102BC00029F482E08093B60380E076C0E091B403FC
:102BD00091E09E0F9093B403F0E0E85CF54F8083A2
:102BE00080E06AC01092A1031092A00385E0EEEA93
:102BF000F3E0DF01982F1D929A95E9F7E9EAF3E0F7
:102C0000DF011D928A95E9F790E032C0292F30E06C
:102C1000F901E85CF54F8081F901E954F64F8083B2
:102C20004091A103411104C0F901E255FC4F80839A
:102C3000413051F4E091A00321E02E0F2093A00336
:102C4000F0E0E755FC4F80838B3319F44F5F4093DE
:102C5000A1032091A103223011F48093A403233017
:102C600011F48093A303243011F48093A2039F5F97
:102C70008091B403981750F28EEA93E00E940221EB
:102C8000EC019093A8038093A70389EA93E00E9444
:102C900002219093A6038093A503CD2B21F0892BCD
:102CA00021F480E003C080E001C081E01092B6030F
:102CB00003C080E001C080E0DF91CF910895CF9202
:102CC000DF92EF92FF92CF93DF939091B503913013
:102CD00071F018F0923051F180C08C3309F07FC050
:102CE0001092B30381E08093B50380E079C08E3306
:102CF00029F482E08093B50380E072C0E091B303D1
:102D000091E09E0F9093B303F0E0E858F54F808375
:102D100080E066C0822F90E0FC01E858F54F3081DA
:102D2000FC01E850F64F30832F5F01C020E0809116
:102D3000B303281778F3C8EFD9E08A81E8EBFAE00B
:102D400080838B8181838C8182838D8183838E813B
:102D500084838F8185838885868389858783108690
:102D6000CF010E941F216B017C0160939C03709333
:102D70009D0380939E0390939F038B85E1ECFAE083
:102D800080838C8581838D8582838E8583838F85E7
:102D9000848388898583898986838A8987838B89C7
:102DA00080871186CF010E941F2160939803709342
:102DB000990380939A0390939B03672B682B692B4D
:102DC00031F0CD28CE28CF2821F480E003C080E068
:102DD00001C081E01092B50303C080E001C080E033
:102DE000DF91CF91FF90EF90DF90CF900895809189
:102DF000A7039091A80308958091A5039091A6033D
:102E000008958091A40308958091A303089560918B
:102E100098037091990380919A0390919B03089570
:102E200060919C0370919D0380919E0390919F03FC
:102E30000895282F8091C80390E08830910508F00C
:102E400057C1FC018827ED53FF4F8F4F0C94C420CE
:102E5000253B09F04DC11092C1031092C00310929E
:102E6000C2031092BF0381E08093C30320930B0D34
:102E70008093C8033DC1223671F4E091C30381E021
:102E80008E0F8093C303F0E0E55FF24F208382E072
:102E90008093C8032DC11092C8032AC1213071F458
:102EA000E091C30381E08E0F8093C303F0E0E55F00
:102EB000F24F208383E08093C8031AC1253089F440
:102EC000E091C30381E08E0F8093C303F0E0E55FE0
:102ED000F24F208382E080932E0283E08093C80328
:102EE00007C11092C80304C1273081F4E091C303E5
:102EF00081E08E0F8093C303F0E0E55FF24F208303
:102F000010922E0284E08093C803F2C0223089F42C
:102F1000E091C30381E08E0F8093C303F0E0E55F8F
:102F2000F24F208381E080932E0284E08093C803D7
:102F3000DFC0213071F4E091C30381E08E0F8093F4
:102F4000C303F0E0E55FF24F208384E08093C80381
:102F5000CFC083E080932E021092C803C9C0E091D5
:102F6000C30381E08E0F8093C303F0E0E55FF24F6F
:102F700020832A5F2093BE0385E08093C803B8C0F6
:102F800021110EC0E091C30381E08E0F8093C30333
:102F9000F0E0E55FF24F208386E08093C803A8C08D
:102FA0001092C803A5C08091C203843658F4E09102
:102FB000C30381E08E0F8093C303F0E0E55FF24F1F
:102FC000208303C087E08093C8038091C2038F5F92
:102FD0008093C2038DC0E92FF0E0E55FF24F2081BE
:102FE0008091C103820F8093C1032091C003820F9F
:102FF0008093C0039F5F01C092E08091BE03981749
:1030000050F390E0FC01E55FF24F30812091C10365
:10301000321363C0FC01E45FF24F90818091C003E2
:1030200098135BC081E08093BF0380912E028130B2
:10303000B9F018F0823039F152C087E08093D30D97
:1030400020E00BC0822F90E0FC01E55FF24F308161
:10305000FC01E159F24F30832F5F243698F33FC0D3
:1030600082E08093D30D20E00BC0822F90E0FC0122
:10307000E55FF24F3081FC01E951F34F30832F5F60
:10308000243298F32CC08091110D863041F4909138
:10309000120D911104C081E08093C70320C08630D7
:1030A00041F49091120D983021F481E08093C60391
:1030B00016C0863041F49091120D913021F481E0D8
:1030C0008093C5030CC0863051F48091120D8E316F
:1030D00031F481E08093C40302C01092BF0384E600
:1030E000EBE0FDE0DF011D928A95E9F71092C8033D
:1030F0008091BF030895EFE6FDE062A173A184A172
:1031000095A14FD225E93FEB46ED53E3BFC30895A8
:10311000EFE6FDE0668D778D80A191A142D225E991
:103120003FEB46ED53E3B2C30895EFE6FDE066A53D
:1031300077A580A991A90895EFE6FDE062A973A99A
:1031400084A995A908958091890D0895DC016A5F8D
:1031500092E030E020E007C0FD01E90FF11D408161
:10316000240F320F9F5F9617B8F3832F90E0982FAC
:103170008827822B0895CF93DF93CDB7DEB76C9766
:103180000FB6F894DEBF0FBECDBF95EB998392E6E4
:103190009A8396E09B831C8294E19D831E8291E03A
:1031A0009F83188619861A8620ED2B8728E02C87A6
:1031B0001D861E866F87788B898B1A8A9B8B1C8A4B
:1031C0009D8B1E8A1F8A188E198E1A8E1B8E1C8E3E
:1031D00064E1CE010196BADF8B8F9C8F6CE1CE014A
:1031E000019663DB1092C7036C960FB6F894DEBFAE
:1031F0000FBECDBFDF91CF910895CF93DF93CDB7B1
:10320000DEB72E970FB6F894DEBF0FBECDBF682F86
:1032100070E088EE93E089D785EB898382E68A8324
:1032200086E08B8398E09C838D831E826F837887F2
:1032300081E089871A868B871C861D861E8666E03C
:10324000CE01019683DF8D879E876EE0CE010196C9
:103250002CDB1092C6032E960FB6F894DEBF0FBE7D
:10326000CDBFDF91CF910895CF93DF93CDB7DEB778
:1032700060970FB6F894DEBF0FBECDBF95EB998374
:1032800092E69A8396E09B8391E09C8328E02D83CD
:103290001E829F83888719866A871B864C871D86B6
:1032A0001E861F86188A68E0CE0101964FDF8F8741
:1032B000988B60E1CE010196F8DA1092C503609612
:1032C0000FB6F894DEBF0FBECDBFDF91CF9108954A
:1032D0005058BB27AA270ED083C24CD230F051D20F
:1032E00020F031F49F3F11F41EF41CC20EF4E0955F
:1032F000E7FB04C2E92F96D280F3BA17620773077F
:103300008407950718F071F49EF5AEC20EF4E095AF
:103310000B2EBA2FA02D0B01B90190010C01CA018F
:10332000A0011124FF27591B99F0593F50F4503E3A
:1033300068F11A16F040A22F232F342F4427585F2C
:10334000F3CF469537952795A795F0405395C9F744
:103350007EF41F16BA0B620B730B840BBAF09150FC
:10336000A1F0FF0FBB1F661F771F881FC2F70EC09B
:10337000BA0F621F731F841F48F48795779567956E
:10338000B795F7959E3F08F0B3CF9395880F08F057
:103390009927EE0F979587950895ECD158F080E81E
:1033A00091E009F49EEFEDD128F040E851E059F4A6
:1033B0005EEF09C0B7C158C2E92FE07833D268F395
:1033C000092E052AC1F3261737074807590738F091
:1033D0000E2E07F8E02569F0E025E0640AC0EF63EF
:1033E00007F8009407FADB01B9019D01DC01CA016D
:1033F000AD01EF934AD0F4D10AD05F91552331F05B
:103400002BED3FE049E450FD49EC63CF0895DF9395
:10341000DD27B92FBF7740E85FE316161706480788
:103420005B0710F4D92F2BD29F938F937F936F93C9
:10343000D8D2E6E9F1E079D1D3D12F913F914F91E4
:103440005F9130D2DD2349F09058A2EA2AED3FE0A7
:1034500049EC5FE3D0785D274DDFDF91C1C12AD110
:1034600008F481E0089595D1E395CBC10CD0B8C1A3
:1034700088D140F07FD130F021F45F3F19F03EC198
:103480005111F3C14FC1CED198F39923C9F35523FC
:10349000B1F3951B550BBB27AA2762177307840747
:1034A00038F09F5F5F4F220F331F441FAA1FA9F3FD
:1034B00033D00E2E3AF0E0E830D091505040E695EF
:1034C000001CCAF729D0FE2F27D0660F771F881F50
:1034D000BB1F261737074807AB07B0E809F0BB0B3F
:1034E000802DBF01FF2793585F4F2AF09E3F510563
:1034F00068F004C1BAC15F3FECF3983EDCF38695F7
:1035000077956795B795F7959F5FC9F7880F911DD8
:103510009695879597F90895E1E0660F771F881FC4
:10352000BB1F621773078407BA0720F0621B730B77
:10353000840BBA0BEE1F88F7E095089504D06894C9
:10354000B11193C1089576D188F09F5790F0B92FAB
:103550009927B751A0F0D1F0660F771F881F991FE8
:103560001AF0BA95C9F712C0B13081F07DD1B1E03F
:1035700008957AC1672F782F8827B85F39F0B93F4F
:10358000CCF3869577956795B395D9F73EF49095EA
:103590008095709561957F4F8F4F9F4F0895E89468
:1035A00009C097FB3EF490958095709561957F4F8B
:1035B0008F4F9F4F9923A9F0F92F96E9BB27939539
:1035C000F695879577956795B795F111F8CFFAF449
:1035D000BB0F11F460FF1BC06F5F7F4F8F4F9F4F7A
:1035E00016C0882311F096E911C0772321F09EE8D8
:1035F000872F762F05C0662371F096E8862F70E03E
:1036000060E02AF09A95660F771F881FDAF7880F17
:103610009695879597F90895ADD018F011F0B1D02F
:1036200038F480C022C1E92FFDD0B0F35523C9F38F
:10363000E7FB6217730784079507A8F199F3E92F51
:10364000FF2788232AF03197660F771F881FDAF744
:10365000952F5527442332F091505040220F331FAD
:10366000441FD2F7BB27E91BF50B621B730B840BBE
:10367000B109C1F222F4620F731F841FB11D31978B
:103680002AF0660F771F881FBB1FEFCF9150504065
:103690005AF041F0882332F0660F771F881F91504F
:1036A0005040C1F7939530C08695779567959F5F99
:1036B000D9F7F8CF990F0008550FAA0BE0E8FEEFF5
:1036C00016161706E807F907C0F012161306E407E6
:1036D000F50798F0621B730B840B950B39F40A26DF
:1036E00061F0232B242B252B21F408950A2609F4BD
:1036F000A140A6958FEF811D811D089597F99F67C1
:1037000080E870E060E008959F3F31F0915020F430
:10371000879577956795B795880F911D96958795AD
:1037200097F908959FEF80EC0895DF93CF931F934F
:103730000F93FF92EF92DF927B018C01689405C09A
:10374000DA2EEF01AFD0FE01E894A59125913591D5
:1037500045915591AEF3EF01CDDDFE019701A80132
:10376000DA9479F7DF90EF90FF900F911F91CF914E
:10377000DF91089500240A94161617061806090604
:10378000089500240A9412161306140605060895D7
:10379000C9CF50D0E8F3E894E0E0BB279F57F0F0A2
:1037A0002AED3FE049EC06C0EE0FBB0F661F771F06
:1037B000881F28F0B23A62077307840728F0B25ACC
:1037C000620B730B840BE3959A9572F7803830F493
:1037D0009A95BB0F661F771F881FD2F7904896CF28
:1037E000092E0394000C11F4882352F0BB0F40F40F
:1037F000BF2B11F460FF04C06F5F7F4F8F4F9F4F4F
:103800000895EF93E0FF06C0A2EA2AED3FE049ECFD
:103810005FEB70DDE5DF0F90039401FC9058E3EC63
:10382000F1E0E9C057FD9058440F551F59F05F3F34
:1038300071F04795880F97FB991F61F09F3F79F0D2
:1038400087950895121613061406551FF2CF469554
:10385000F1DF08C0161617061806991FF1CF8695D6
:103860007105610508940895E894BB2766277727BA
:10387000CB0197F908951EDF08F48FEF08959B019F
:10388000AC0160E070E080E89FE3F0CD0BD0A8CF02
:1038900071DF28F076DF18F0952309F02FCF42CFA3
:1038A0001124E3CFBFDFA0F3959FD1F3950F50E034
:1038B000551F629FF001729FBB27F00DB11D639FE2
:1038C000AA27F00DB11DAA1F649F6627B00DA11D88
:1038D000661F829F2227B00DA11D621F739FB00D2E
:1038E000A11D621F839FA00D611D221F749F33279E
:1038F000A00D611D231F849F600D211D822F762F37
:103900006A2F11249F5750408AF0E1F088234AF033
:10391000EE0FFF1FBB1F661F771F881F915050407F
:10392000A9F79E3F510570F0E9CE9FCF5F3FECF3C2
:10393000983EDCF3869577956795B795F795E7956B
:103940009F5FC1F7FE2B880F911D9695879597F97C
:1039500008959F931EDF0F9007FCEE5F52CF11F486
:103960000EF4E0CED1CE66DFD0F39923D9F3CEF3B7
:103970009F57550B87FF38D00024A0E640EA9001FE
:1039800080585695979528F4805C660F771F881F9E
:1039900020F026173707480730F4621B730B840B9F
:1039A000202931294A2BA6951794079420253125E3
:1039B0004A2758F7660F771F881F20F0261737070A
:1039C000480730F4620B730B840B200D311D411D31
:1039D000A09581F7B901842F9158880F9695879506
:1039E00008959B01AC0152CF91505040660F771F54
:1039F000881FD2F708959F938F937F936F93FF93C0
:103A0000EF939B01AC0142DFEF91FF918EDE2F918E
:103A10003F914F915F913ACF2F923F924F925F9299
:103A20006F927F928F929F92AF92BF92CF92DF92CE
:103A3000EF92FF920F931F93CF93DF93CDB7DEB733
:103A400060970FB6F894DEBF0FBECDBF7C011B019F
:103A50006A01FC0117821682838181FF2AC39E01BD
:103A60002F5F3F4F3901F7019381F10193FD85915C
:103A700093FF81911F01882309F417C3853239F41C
:103A800093FD859193FF81911F01853231F4B70138
:103A900090E006D556016501E6CF10E0512C912C3F
:103AA000FFE1F915D8F08B3279F038F4803279F0F3
:103AB0008332A1F4F92DF0612EC08D3261F0803394
:103AC00069F4292D21602DC0392D3260932E892D66
:103AD0008460982E2AC0E92DE86015C097FC2DC09F
:103AE00020ED280F2A3088F496FE06C03AE0139F96
:103AF000200D1124122F19C08AE0589E200D112488
:103B0000522EE92DE0629E2E10C08E3231F496FCCA
:103B1000CCC2F92DF0649F2E08C08C3621F4292DDB
:103B20002068922E02C0883641F4F10193FD859100
:103B300093FF81911F018111B3CF9BEB980F9330BD
:103B400020F4992D9061805E07C09BE9980F933017
:103B500008F059C1992D9F7E96FF16E09F73992E0C
:103B6000853619F49064992E08C0863621F4392FD1
:103B70003068932E02C01111115097FE07C01C33FC
:103B800050F444244394410E27E00BC0183038F021
:103B900027E017E005C027E09CE3492E02C0212F53
:103BA000412C560184E0A80EB11CF60160817181A0
:103BB00082819381042DA30168D36C01F981FC8774
:103BC000F0FF02C0F3FF06C091FC06C092FE06C0E3
:103BD00000E205C00DE203C00BE201C000E08C85ED
:103BE0008C7019F0011143C280C297FE10C04C0CBA
:103BF000FC85F4FF04C08A81813309F44A941414CB
:103C000074F528E0241578F588E0482E2CC096FC41
:103C10002AC0812F90E08C159D059CF03CEFC316C7
:103C20003FEFD30674F0892D8068982E0AC0E2E039
:103C3000F0E0EC0FFD1FE10FF11D8081803319F4DE
:103C400011501111F4CF97FE0EC044244394410E3D
:103C5000812F90E0C816D9062CF41C1904C0442406
:103C6000439401C010E097FE06C01C141D0434F4F8
:103C7000C601019605C085E090E002C081E090E0B9
:103C800001110196112331F0212F30E02F5F3F4FBA
:103C9000820F931F252D30E08217930714F4581AD2
:103CA00001C0512C892D897041F4552031F0B701A4
:103CB00080E290E0F5D35A94F8CF002321F0B701C9
:103CC000802F90E0EDD393FC08C0552031F0B70170
:103CD00080E390E0E5D35A94F8CF97FE4AC04601BE
:103CE000D7FE02C0812C912CC60188199909F301D5
:103CF000E80FF91FFE87ED87960124193109388BEB
:103D00002F87012F10E01195019511093FEF8316C0
:103D1000930621F4B7018EE290E0C2D3C814D9040F
:103D20004CF08F8598898815990524F4ED85FE85DA
:103D3000818101C080E3F1E08F1A91082D853E85D5
:103D40002F5F3F4F3E872D878016910624F0B701E5
:103D500090E0A6D3DBCFC814D90441F49A819633FE
:103D600020F4953319F43C8534FF81E3B70190E0EA
:103D700048C08A81813319F09C859F7E9C87B7015A
:103D800090E08ED3111105C094FC16C085E690E03A
:103D900015C0B7018EE290E083D31E5F82E001E0A0
:103DA000080FF301E80FF11D8081B70190E078D38F
:103DB000802F0113F4CFE8CF85E490E0B70170D3F2
:103DC000D7FC06C0C114D10441F4EC85E4FF05C062
:103DD000D194C194D1088DE201C08BE2B70190E08B
:103DE0005FD380E32AE0C216D1042CF08F5FFAE0A3
:103DF000CF1AD108F7CFB70190E052D3B701C6016F
:103E0000C0964ED349C1833631F0833779F083357C
:103E100009F052C01FC0560132E0A30EB11CF601DA
:103E20008081898301E010E0630111C05601F2E056
:103E3000AF0EB11CF601C080D18096FE03C0612F89
:103E400070E002C06FEF7FEFC60102D38C01F92D45
:103E5000FF7713C0560122E0A20EB11CF601C0800C
:103E6000D18096FE03C0612F70E002C06FEF7FEF3C
:103E7000C601E3D28C01F92DF0689F2EF3FD18C026
:103E8000852D90E00817190798F4B70180E290E0BB
:103E900007D35A94F5CFF60197FC859197FE81914F
:103EA0006F01B70190E0FCD251105A9401501109F2
:103EB0000115110581F7F0C0843611F0893659F5E6
:103EC000560197FE09C024E0A20EB11CF6016081E4
:103ED0007181828193810AC0F2E0AF0EB11CF601BC
:103EE00060817181072E000C880B990BF92DFF76EC
:103EF0009F2E97FF09C090958095709561957F4F93
:103F00008F4F9F4FF0689F2E2AE030E0A30132D3FD
:103F1000C82EC6183EC0092D853721F40F7E2AE031
:103F200030E01DC0097F8F3691F018F4883559F0C4
:103F3000BCC0803719F0883711F0B7C0006104FFAA
:103F400009C0046007C094FE08C0066006C028E0EF
:103F500030E005C020E130E002C020E132E056014F
:103F600007FF09C084E0A80EB11CF60160817181D1
:103F70008281938108C0F2E0AF0EB11CF60160812E
:103F8000718180E090E0A301F5D2C82EC6180F77AA
:103F9000902E96FE0BC0092D0E7FC11650F494FE94
:103FA0000AC092FC08C0092D0E7E05C0DC2C092D2C
:103FB00003C0DC2C01C0D12E04FF0DC0FE01EC0DAE
:103FC000F11D8081803311F4097E09C002FF06C013
:103FD000D394D39404C0802F867809F0D39403FD42
:103FE00010C000FF06C01C2DD51478F4150D1D1946
:103FF0000CC0D51450F4B70180E290E051D2D394B4
:10400000F8CFD51410F45D1801C0512C04FF0FC077
:10401000B70180E390E044D202FF16C001FD03C067
:1040200088E790E002C088E590E0B7010CC0802FDF
:10403000867851F001FF02C08BE201C080E207FDEB
:104040008DE2B70190E02CD2C11630F4B70180E3C5
:1040500090E026D21150F8CFCA94F301EC0DF11D77
:104060008081B70190E01CD2C110F6CF15C0F4E0FA
:10407000F51550F584E0581A93FE1EC0011125C0B5
:104080002C8523FF27C002EE11E0392D3071932ECD
:10409000F8018491811121C0552009F4FCCCB701AD
:1040A00080E290E0FDD15A94F7CFF70186819781A5
:1040B00023C08FEF9FEF20C0B70180E290E0F0D1E6
:1040C0005A945110F9CFDACF512CB701802F90E0DC
:1040D000E7D1D6CF06EE11E0D8CF91108052B701CC
:1040E00090E0DED10F5F1F4FD3CF23E0251510F4F2
:1040F00083E0C1CF512CC4CF60960FB6F894DEBFD9
:104100000FBECDBFDF91CF911F910F91FF90EF9028
:10411000DF90CF90BF90AF909F908F907F906F90E7
:104120005F904F903F902F90089597FB072E16F4C5
:10413000009406D077FD08D02FD007FC05D03EF4C0
:10414000909581959F4F0895709561957F4F089543
:10415000052E97FB16F400940FD057FD05D030D0F4
:1041600007FC02D046F408C0509540953095219543
:104170003F4F4F4F5F4F0895909580957095619593
:104180007F4F8F4F9F4F0895EE0FFF1F881F8BBFEC
:104190000790F691E02D1994AA1BBB1B51E107C0B3
:1041A000AA1FBB1FA617B70710F0A61BB70B881FC7
:1041B000991F5A95A9F780959095BC01CD01089556
:1041C000A1E21A2EAA1BBB1BFD010DC0AA1FBB1F1B
:1041D000EE1FFF1FA217B307E407F50720F0A21B8D
:1041E000B30BE40BF50B661F771F881F991F1A94FA
:1041F00069F760957095809590959B01AC01BD0124
:10420000CF010895FC0188279927E8942191203255
:10421000E9F3293010F02E30C8F32B3239F02D326B
:1042200031F4689403C034D1820F911D2191205341
:104230002A30C8F31EF4909581959F4F08951F93DF
:10424000FC0199278827BC01E89411911032E9F309
:10425000193010F01E30C8F31B3249F01D3241F402
:10426000689405C000D1610F711D811D911D1191D0
:1042700010531A30B8F33EF490958095709561957F
:104280007F4F8F4F9F4F1F910895283008F027E0F0
:104290003327DA01990F311D87FD91600096610582
:1042A000710539F432602E5F3D9330E32A95E1F7D2
:1042B00008959F3F30F080387105610509F03C5F3B
:1042C0003C5F3D93913008F08068911DDF93CF9360
:1042D0001F930F93FF92EF92192F987F9695E92FD6
:1042E00096959695E90FFF27EC5BFD4F99273327AD
:1042F000EE24FF24A701E70105900894079428F411
:10430000360FE71EF81E491F511D660F771F881FC5
:10431000991F0694A1F70590079428F4E70EF81E5C
:10432000491F561FC11D770F881F991F661F0694CE
:10433000A1F70590079428F4F80E491F561FC71FD0
:10434000D11D880F991F661F771F0694A1F705904E
:10435000079420F4490F561FC71FD81F990F661FD7
:10436000771F881F0694A9F784911095177041F064
:10437000D695C79557954795F794E7941A95C1F741
:10438000EAEEF1E06894159015913591659195915B
:1043900005907FE27395E118F10A430B560BC90BA8
:1043A000D009C0F7E10CF11E431F561FC91FD01DD5
:1043B0007EF4703311F48A95E6CFE894015030F022
:1043C000080F0AF40027021708F4202F2395022F64
:1043D0007A3328F079E37D932A95E9F710C07D932D
:1043E0002A9589F6069497956795379517951794AA
:1043F000E118F10A430B560BC90BD00998F023952D
:104400007E9173957A3308F070E37C932013B8F7AC
:104410007E9170617D9330F0839571E37D9370E3BD
:104420002A95E1F71124EF90FF900F911F91CF9102
:10443000DF91992787FD90950895FC0105906150C3
:1044400070400110D8F7809590958E0F9F1F0895AA
:10445000FC016150704001900110D8F78095909553
:104460008E0F9F1F0895592F482F372F262F660F25
:10447000771F881F991F660F771F881F991F620F6C
:10448000731F841F951F660F771F881F991F08953C
:104490007AE0979F902D879F802D910D112408958C
:1044A0000F931F93CF93DF93FB01238121FD03C063
:1044B0008FEF9FEF2CC022FF16C0468157812481C9
:1044C00035814217530744F4A081B1819D012F5FCC
:1044D0003F4F318320838C93268137812F5F3F4F5D
:1044E0003783268314C08B01EC01FB010084F18526
:1044F000E02D1995892BE1F6D80116968D919C91A6
:104500001797019617969C938E931697CE01DF917D
:10451000CF911F910F9108950F931F93CF93DF9326
:10452000CDB7DEB72E970FB6F894DEBF0FBECDBF66
:104530000E891F8986E08C831A8309838FEF9FE79A
:104540009E838D83AE01465E5F4F688D798DCE016F
:10455000019662DAEF81F885E00FF11F10822E9646
:104560000FB6F894DEBF0FBECDBFDF91CF911F9184
:104570000F910895FA01AA27283051F1203181F1D5
:10458000E8946F936E7F6E5F7F4F8F4F9F4FAF4F5B
:10459000B1E03ED0B4E03CD0670F781F891F9A1F6E
:1045A000A11D680F791F8A1F911DA11D6A0F711D22
:1045B000811D911DA11D20D009F468943F912AE02E
:1045C000269F11243019305D3193DEF6CF01089516
:1045D000462F4770405D4193B3E00FD0C9F7F6CF47
:1045E000462F4F70405D4A3318F0495D31FD40520F
:1045F000419302D0A9F7EACFB4E0A69597958795A5
:1046000077956795BA95C9F7009761057105089583
:104610009B01AC010A2E069457954795379527952F
:10462000BA95C9F7620F731F841F951FA01D0895C7
:04463000F894FFCF2C
:1046340001FF7F0080FF7F0080FF7F008005013144
:10464400323334013CAF93C24DAF93C246AF93C2F1
:10465400FA93364206943642EF93364203000370CF
:104664006C75696500456E7465722050617373776B
:104674006F72643A00496E76616C6964207061738C
:1046840073776F7264004D6F6465204D616E75655C
:104694006C20203C2D004D6F6465204D616E756566
:1046A4006C20004D6F64652050726F6720202000DD
:1046B4004D6F6465204175746F202020005365742C
:1046C4002074696D6520202020005365742070617A
:1046D4007373776F726400433B61636B3B002566C1
:1046E400202566005365742074696D6520204F4B46
:1046F400003025643A302564003025643A2564008E
:104704005365742070617373776F7264204F4B002C
:10471400533B252E32663B25643B25643B25643B95
:0A47240025663B25663B25643B003B
:00000001FF
