:10000000FAC0000018C1000016C1000014C10000B1
:1000100012C1000010C100000EC100000CC10000A0
:100020000AC1000008C10000E0C4000004C10000D3
:1000300002C1000000C10000FEC00000FCC00000C2
:10004000FAC00000F8C00000F6C00000F4C00000D4
:10005000F2C000009FC40000EEC00000ECC0000031
:10006000EAC0000083C600004CC60000E4C00000E7
:10007000E2C0000002C50000DEC00000DCC00000DD
:10008000DAC00000D8C00000D6C00000D4C0000014
:1000900072C700003BC70000CEC00000CCC000000B
:1000A000CAC00000C8C00000C6C00000C4C0000034
:1000B000C2C00000C0C00000BEC00000BCC0000044
:1000C000BAC00000B8C00000B6C000000C949A0886
:1000D000FCC70000B0C00000AEC00000ACC0000013
:1000E000AAC00000DB08EE080109270962097309AC
:1000F0008609AF096E616E00696E660000407A1075
:10010000F35A00A0724E18090010A5D4E80000E8C8
:100110007648170000E40B54020000CA9A3B000026
:1001200000E1F505000080969800000040420F00B5
:100130000000A08601000000102700000000E80376
:10014000000000006400000000000A000000000041
:100150000100000000002C76D888DC674F0823DF00
:10016000C1DFAE59E1B1B796E5E3E453C63AE651D3
:10017000997696E8E6C28426EB898C9B62ED407CFA
:100180006FFCEFBC9C9F40F2BAA56FA5F490055A96
:100190002AF75C936B6CF9676DC11BFCE0E40D47BB
:1001A000FEF520E6B500D0ED902E030094357705DE
:1001B0000080841E080000204E0A000000C80C3396
:1001C0003333330F986E12831141EF8D2114893B25
:1001D000E65516CFFEE6DB18D1844B381BF77C1DA5
:1001E000901DA4BBE424203284725E228100C9F1F8
:1001F00024ECA1E53D2711241FBECFEFD1E2DEBFE5
:10020000CDBF00E00CBF12E0A0E0B2E0EEEFF4E200
:1002100000E00BBF02C007900D92AE34B107D9F7D2
:1002200026E0AEE4B2E001C01D92A430B207E1F7CF
:10023000C2D10C947D12E4CE662321F098B1946073
:1002400098B903C098B19B7F98B998B1906898B954
:1002500080FF04C098B1986098B903C098B1977FA7
:1002600098B981FF04C098B1906198B903C098B162
:100270009F7E98B982FF04C098B1906298B903C07C
:1002800098B19F7D98B983FF04C088B1806488B914
:1002900003C088B18F7B88B985E08A95F1F70000AB
:1002A00088B18F7788B985E08A95F1F700000895C5
:1002B000CF93DF93C82FD62F82958F70BDDF6D2F20
:1002C0008C2FBADF85ED8A95F1F70000DF91CF9191
:1002D000089587B1846087B987B1806887B987B18D
:1002E000886087B987B1806187B987B1806287B933
:1002F00087B1806487B92FEF89EF90E0215080406B
:100300009040E1F700C0000060E083E095DF8FE1FE
:100310009EE40197F1F700C0000060E083E08CDF0D
:100320008FE99FE00197F1F700C0000060E083E0F3
:1003300083DF8FE99FE00197F1F700C0000060E0E4
:1003400082E07ADF8FE99FE00197F1F700C00000BB
:1003500060E088E2ADDF60E088E0AADF60E081E095
:10036000A7DF8FE39FE10197F1F700C0000060E095
:1003700086E09EDF60E08FE09BCF089561E098CF3C
:1003800008950F931F93CF938C01C0E002C0F6DF56
:10039000CF5FF801EC0FF11D8081882311F0CF3F72
:1003A000B1F7CF911F910F910895611102C090E8AC
:1003B00001C090EC8F7060E0892B7ACF089560E0E7
:1003C00081E076DF8FE39FE10197F1F700C0000045
:1003D0000895909158029130B1F030F0923021F1AF
:1003E000933009F445C095C0893509F092C0109248
:1003F00055021092560291E09093570280939B020F
:100400009093580286C0893509F083C0E091570265
:1004100091E09E0F90935702F0E0E556FD4F8083E8
:1004200082E08093580275C090915602993058F43A
:10043000E091570291E09E0F90935702F0E0E5564D
:10044000FD4F808303C083E0809358028091560261
:100450008F5F809356025DC0E82FF0E0E556FD4FB8
:10046000908120915502920F909355028F5F01C0A9
:1004700080E0883088F39091A30280915502981310
:100480003DC081E08093540220E00BC0822F90E0B9
:10049000FC01E556FD4F3081FC01EE56FD4F3083E7
:1004A0002F5F293098F3E2E9F2E02281838190E026
:1004B000982F8827820F911D9093530280935202A8
:1004C0002481858190E0982F8827820F911D909339
:1004D0005102809350022681878190E0982F8827CF
:1004E000820F911D969587959695879596958795F8
:1004F0009A9590934F0280934E0202C0109254023C
:1005000089E0EBE9F2E0DF011D928A95E9F71092AC
:1005100058028091540208958091520290915302A2
:100520000895ECE7F0E0808180648083EAE7F0E002
:1005300080818C688083EEE7F0E080818660808334
:10054000EDE7F0E080818160808378940895E1E0B8
:10055000F1E08081886380834BEA4093A00099E1B9
:100560009093A10020E034E03093A9002093A800EC
:1005700066E470E07093AB006093AA001092AD0047
:100580001092AC00EAE0F1E08081886380834093C0
:1005900020019093210130932901209328018AE5BD
:1005A00090E090932B0180932A0110922D011092DC
:1005B0002C01789408958DDEB4DFC9DF85B58360A2
:1005C00085BD84B5826084BDEEE6F0E08081826006
:1005D000808389EF87BD7894E5E0F1E080818861D0
:1005E0008083E8E6F0E0808182608083ECE6F0E0E2
:1005F000808180638083789420E034E244EF50E08F
:1006000060E072EC81E090E01FD320E034E244EF40
:1006100050E060E875E280E090E0FFD320E034E253
:1006200044EF50E060E875E280E090E0FBD460E8E1
:1006300075E280E090E041D781E081D741E061E060
:1006400087E0B4D76EE081E092E044D437D38823CA
:1006500009F44DC036D380936A02BBDE882309F4C7
:1006600046C05ADF9F938F9381E492E09F938F93CC
:100670008FE093E09F938F930E94F1111F9286E485
:100680008F938AE18F938CE28F938CE08F9380E835
:100690008F931F928DE28F9380916E028F93809142
:1006A0006D028F9380916C028F9380916B028F9378
:1006B000809172028F93809171028F93809170026A
:1006C0008F9380916F028F9381E192E09F938F933C
:1006D00085EB92E09F938F930E94F1114DB75EB727
:1006E000465E5F4F0FB6F8945EBF0FBE4DBFCFD3CF
:1006F000882309F44CC0CED3809337034ED588238A
:1007000009F445C0B8D660936B0270936C02809375
:100710006D0290936E02A2D6262F372F462F572FA9
:10072000682F792F40936F0250937002609371028B
:10073000709372029F938F933F932F93C6E2D2E000
:10074000DF93CF9387EE92E09F938F930E94F111F6
:1007500080916E028F9380916D028F9380916C02D5
:100760008F9380916B028F93DF93CF938FEF92E003
:100770009F938F930E94F11183E293E04BD78DB743
:100780009EB740960FB6F8949EBF0FBE8DBF809166
:100790000F02882309F4C3C010920F0210DE60E03C
:1007A00080E003DE87EE92E0ECDD60E089E0FDDDD5
:1007B00083E293E0E6DD61E080E0F7DD8FEF92E039
:1007C000E0DD61E089E0F1DD8FE093E0DADD85EBEB
:1007D00092E062D4809160029091610299230CF0C2
:1007E00053C0919581959109909361028093600225
:1007F00020916202309163021216130664F4AC0178
:10080000421B530B50935C0240935B0290935A023D
:10081000809359020AC0280F391F30935A0220933F
:10082000590290935C0280935B02809159029091EF
:100830005A02992324F410925A021092590280917C
:100840005B0290915C02992324F410925C02109256
:100850005B021092AB001092AA0080915B02909113
:100860005C029E5F90932B0180932A018091590234
:1008700090915A029E5F9093AD008093AC001092CD
:100880002D0110922C014BC0209162023091630225
:100890001216130664F4AC01421B530B50935C0216
:1008A00040935B0290935A02809359020AC0280F2A
:1008B000391F30935A022093590290935C0280931F
:1008C0005B028091590290915A02992324F410926C
:1008D0005A021092590280915B0290915C02992316
:1008E00024F410925C0210925B0280915902909164
:1008F0005A029E5F9093AB008093AA0010922B0146
:1009000010922A011092AD001092AC0080915B020F
:1009100090915C029E5F90932D0180932C018091B9
:100920000002882309F492CE1092000248DD60E0B4
:1009300080E03BDD80916402909165029F938F93EC
:10094000C1E4D2E0DF93CF9385EA92E09F938F9347
:100950000E94F11185EA92E014DD61E080E025DD7E
:1009600080916602909167029F938F93DF93CF935C
:1009700087EF92E09F938F930E94F11187EF92E0AF
:1009800000DD8DB79EB70C960FB6F8949EBF0FBED4
:100990008DBF5CCE1F920F920FB60F9211248F93D2
:1009A0009F938091730290917402019690937402C8
:1009B0008093730280917302909174028536910541
:1009C00068F4809173029091740284569109909317
:1009D00074028093730281E080930F029F918F9144
:1009E0000F900FBE0F901F9018951F920F920FB689
:1009F0000F9211240BB60F928F939F93EF93FF9357
:100A00008091030183FD10C08091690283FF0CC0B7
:100A100080916402909165020196909365028093A3
:100A2000640281E080930002E3E0F1E0808188705D
:100A300080936902808184FD10C08091680284FFE8
:100A40000CC08091660290916702019690936702B4
:100A50008093660281E0809300028091030180719F
:100A600080936802FF91EF919F918F910F900BBE41
:100A70000F900FBE0F901F9018951F920F920FB6F8
:100A80000F9211240BB60F922F933F934F935F93C6
:100A90006F937F938F939F93AF93BF93EF93FF9346
:100AA000209178003091790030935F0220935E02AC
:100AB00080917B00882319F081E090E002C080E003
:100AC00090E0880F991F82959295907F9827807F5C
:100AD000982790917C009F71892B80935D028130D3
:100AE00021F138F0823009F44BC0803209F474C02F
:100AF00093C03F932F9389E292E09F938F938DEA67
:100B000092E09F938F930E94F11160E088E04DDCAA
:100B10008DEA92E036DC81E480937C000F900F90A8
:100B20000F900F900F900F9077C032503093630268
:100B30002093620260E080E038DC8EE292E021DC0B
:100B4000809163028F93809162028F9385E392E09C
:100B50009F938F938DEA92E09F938F930E94F11160
:100B600060E080E022DC8DEA92E00BDC82E480939E
:100B70007C000F900F900F900F900F900F904CC033
:100B8000325020936002309361023F932F938AE3A7
:100B900092E09F938F938DEA92E09F938F930E94B0
:100BA000F11161E080E001DC8EE292E0EADB61E0DD
:100BB00080E0FBDB8DEA92E0E4DB80E480937C0064
:100BC000EBE7F0E08081886080830F900F900F90BA
:100BD0000F900F900F9020C03F932F938FE392E0E0
:100BE0009F938F938DEA92E09F938F930E94F111D0
:100BF00061E088E0DADB8DEA92E0C3DB80E4809399
:100C00007C00EBE7F0E08081877F80830F900F907E
:100C10000F900F900F900F90EAE7F0E080818064D2
:100C20008083FF91EF91BF91AF919F918F917F91C1
:100C30006F915F914F913F912F910F900BBE0F904D
:100C40000FBE0F901F9018958F929F92AF92BF92F8
:100C5000CF92DF92EF92FF92CF93DF9349015A0137
:100C6000C1ECD0E028E1288326E02093C200E6D53D
:100C700020E030E040E851E46FD66B017C01C50113
:100C8000B401DCD5A701960145D520E030E040E075
:100C90005FE3DBD4A7D57093C5006093C40088815F
:100CA000806888837894DF91CF91FF90EF90DF90F8
:100CB000CF90BF90AF909F908F90089580917702D2
:100CC0000895809177028823C9F0E091780281E04D
:100CD0008E0F80937802F0E0E858FC4F808180937B
:100CE0007502F8948091770281508093770278940E
:100CF00080917802803410F0109278028091750211
:100D000008951F920F920FB60F9211240BB60F92F7
:100D10008F93EF93FF9380917602811106C0E1ECEF
:100D2000F0E080818F7D808317C0E091790281E0BF
:100D30008E0F80937902F0E0E85CFC4F8081809315
:100D4000C60080917602815080937602809179026C
:100D5000803410F010927902FF91EF918F910F90F3
:100D60000BBE0F900FBE0F901F9018951F920F9201
:100D70000FB60F9211240BB60F928F939F93EF93A0
:100D8000FF938091C6008093B803809177028034EE
:100D9000A8F4E0917A0291E09E0F90937A02F0E03D
:100DA0009091B803E858FC4F90838F5F809377024F
:100DB00080917A02803410F010927A02FF91EF91C4
:100DC0009F918F910F900BBE0F900FBE0F901F90B1
:100DD000189590917C029923F4F0E091810291E0C2
:100DE0009E0F90938102F0E0E754FC4F8083F894CB
:100DF00080917C028F5F80937C0278948091810245
:100E0000882314F410928102E9ECF0E08081806282
:100E1000808380E0089581E008958F929F92AF9241
:100E2000BF92CF92DF92EF92FF92CF93DF9349016F
:100E30005A01C9ECD0E028E1288326E02093CA00BB
:100E4000FDD420E030E040E851E486D56B017C0120
:100E5000C501B401F3D4A70196015CD420E030E0D1
:100E600040E05FE3F2D3BED47093CD006093CC003A
:100E70008881806888837894DF91CF91FF90EF908C
:100E8000DF90CF90BF90AF909F908F90089580910A
:100E90007D02089580917D028823C9F0E0917E0251
:100EA00081E08E0F80937E02F0E0E65CFB4F808154
:100EB00080937B02F89480917D02815080937D0223
:100EC000789480917E02882314F410927E0280919F
:100ED0007B020895EF92FF921F93CF93DF937C01E3
:100EE000162FC0E0D0E009C0F701EC0FF11D8081A2
:100EF00070DF811101C0DF5FCF5FC117A8F38D2FB5
:100F0000DF91CF911F91FF90EF9008951F920F9264
:100F10000FB60F9211240BB60F928F93EF93FF939E
:100F200080917C02811106C0E9ECF0E080818F7D28
:100F3000808317C0E0917F0281E08E0F80937F0253
:100F4000F0E0E754FC4F80818093CE0080917C02DA
:100F5000815080937C0280917F02882314F4109248
:100F60007F02FF91EF918F910F900BBE0F900FBEFC
:100F70000F901F9018951F920F920FB60F92112489
:100F80000BB60F928F939F93EF93FF938091CE00B8
:100F90008093390480917D028823ACF0E091800237
:100FA00091E09E0F90938002F0E090913904E65C0E
:100FB000FB4F90838F5F80937D0280918002882316
:100FC00014F410928002FF91EF919F918F910F90F6
:100FD0000BBE0F900FBE0F901F901895909182023C
:100FE0009032F0F4E091860291E09E0F9093860299
:100FF000F0E0E554FB4F8083F894809182028F5F8C
:1010000080938202789480918602803210F0109250
:101010008602E1EDF0E080818062808380E00895C7
:1010200081E008958F929F92AF92BF92CF92DF920C
:10103000EF92FF92CF93DF9349015A01C1EDD0E0C7
:1010400028E1288326E02093D200F8D320E030E086
:1010500040E851E481D46B017C01C501B401EED3B9
:10106000A701960157D320E030E040E05FE3EDD2E6
:10107000B9D37093D5006093D40088818068888349
:101080007894DF91CF91FF90EF90DF90CF90BF9059
:10109000AF909F908F9008950F931F93CF93DF93FE
:1010A0008C01C0E0D0E005C099DF811101C0DF5F95
:1010B000CF5FF801EC0FF11D80818111F5CF8D2FED
:1010C000DF91CF911F910F9108951F920F920FB64C
:1010D0000F9211240BB60F928F93EF93FF93809191
:1010E0008202811106C0E1EDF0E080818F7D808376
:1010F00017C0E091840281E08E0F80938402F0E0BB
:10110000E554FB4F80818093D6008091820281500C
:101110008093820280918402803210F010928402C7
:10112000FF91EF918F910F900BBE0F900FBE0F901C
:101130001F9018951F920F920FB60F9211240BB6A5
:101140000F928F939F93EF93FF938091D60080939C
:10115000BA04809183028032A8F4E091850291E084
:101160009E0F90938502F0E09091BA04E552FB4FF8
:1011700090838F5F8093830280918502803210F08C
:1011800010928502FF91EF919F918F910F900BBE6E
:101190000F900FBE0F901F901895282F80919102ED
:1011A00090E08830910508F056C1FC018827EE5880
:1011B000FF4F8F4FD0C7253B09F04DC110928A02D7
:1011C0001092890210928B021092880281E0809323
:1011D0008C0220933B05809391023DC1223671F42D
:1011E000E0918C0281E08E0F80938C02F0E0E55C50
:1011F000FA4F208382E0809391022DC110929102D8
:101200002AC1213071F4E0918C0281E08E0F80932D
:101210008C02F0E0E55CFA4F208383E0809391023A
:101220001AC1253089F4E0918C0281E08E0F809301
:101230008C02F0E0E55CFA4F208382E0809310029C
:1012400083E08093910207C11092910204C127307C
:1012500081F4E0918C0281E08E0F80938C02F0E0AB
:10126000E55CFA4F20831092100284E08093910293
:10127000F2C0223089F4E0918C0281E08E0F8093DD
:101280008C02F0E0E55CFA4F208381E0809310024D
:1012900084E080939102DFC0213071F4E0918C02F0
:1012A00081E08E0F80938C02F0E0E55CFA4F2083A2
:1012B00084E080939102CFC083E08093100210926B
:1012C0009102C9C0E0918C0281E08E0F80938C0264
:1012D000F0E0E55CFA4F20832A5F2093870285E0E7
:1012E00080939102B8C021110EC0E0918C0281E080
:1012F0008E0F80938C02F0E0E55CFA4F208386E04D
:1013000080939102A8C010929102A5C080918B0297
:10131000843658F4E0918C0281E08E0F80938C0229
:10132000F0E0E55CFA4F208303C087E080939102F0
:1013300080918B028F5F80938B028DC0E92FF0E04C
:10134000E55CFA4F208180918A02820F80938A02A5
:1013500020918902820F809389029F5F01C092E0F1
:1013600080918702981750F390E0FC01E55CFA4FFA
:10137000308120918A02321363C0FC01E45CFA4F91
:1013800090818091890298135BC081E080938802EC
:10139000809110028130B9F018F0823039F152C0DA
:1013A00087E08093030620E00BC0822F90E0FC01D1
:1013B000E55CFA4F3081FC01E156FA4F30832F5F34
:1013C000243698F33FC082E08093030620E00BC0F0
:1013D000822F90E0FC01E55CFA4F3081FC01E95E70
:1013E000FA4F30832F5F243298F32CC0809141054F
:1013F000863041F490914205911104C081E08093C0
:10140000900220C0863041F490914205983021F43A
:1014100081E080938F0216C0863041F4909142059E
:10142000913021F481E080938E020CC0863051F41B
:10143000809142058E3131F481E080938D0202C0AB
:101440001092880284E6EBE3F5E0DF011D928A95B5
:10145000E9F710929102809188020895EFE9F5E092
:1014600062A173A184A195A1EBD125E93FEB46EDE3
:1014700053E372C20895EFE9F5E0668D778D80A1A0
:1014800091A1DED125E93FEB46ED53E365C2089516
:10149000DC016A5F92E030E020E007C0FD01E90F67
:1014A000F11D4081240F320F9F5F9617B8F3832FF1
:1014B00090E0982F8827822B0895CF93DF93CDB7A4
:1014C000DEB76C970FB6F894DEBF0FBECDBF95EBBD
:1014D000998392E69A8396E09B831C8294E19D8394
:1014E0001E8291E09F83188619861A8620ED2B872D
:1014F00028E02C871D861E866F87788B898B1A8A39
:101500009B8B1C8A9D8B1E8A1F8A188E198E1A8EA1
:101510001B8E1C8E64E1CE010196BADF8B8F9C8FEF
:101520006CE1CE010196D6DC109290026C960FB65B
:10153000F894DEBF0FBECDBFDF91CF910895CF935A
:10154000DF93CDB7DEB72E970FB6F894DEBF0FBE90
:10155000CDBF682F70E088EE93E0EAD585EB8983F4
:1015600082E68A8386E08B8398E09C838D831E824B
:101570006F83788781E089871A868B871C861D8612
:101580001E8666E0CE01019683DF8D879E876EE022
:10159000CE0101969FDC10928F022E960FB6F89422
:1015A000DEBF0FBECDBFDF91CF910895CF93DF9304
:1015B000CDB7DEB760970FB6F894DEBF0FBECDBFD4
:1015C00095EB998392E69A8396E09B8391E09C83C6
:1015D00028E02D831E829F83888719866A871B8651
:1015E0004C871D861E861F86188A68E0CE010196EC
:1015F0004FDF8F87988B60E1CE0101966BDC1092F4
:101600008E0260960FB6F894DEBF0FBECDBFDF919D
:10161000CF910895EFE9F5E04089378526851F923F
:101620004F931F923F931F922F9324E432E03F93F6
:101630002F939F938F93D5D68DB79EB70A960FB6EB
:10164000F8949EBF0FBE8DBF08955058BB27AA27A0
:101650000ED048C139D130F03ED120F031F49F3F57
:1016600011F41EF42EC10EF4E095E7FB24C1E92F1E
:101670004AD180F3BA17620773078407950718F0F9
:1016800071F49EF562C10EF4E0950B2EBA2FA02DD9
:101690000B01B90190010C01CA01A0011124FF271F
:1016A000591B99F0593F50F4503E68F11A16F0401A
:1016B000A22F232F342F4427585FF3CF4695379519
:1016C0002795A795F0405395C9F77EF41F16BA0BDE
:1016D000620B730B840BBAF09150A1F0FF0FBB1F8C
:1016E000661F771F881FC2F70EC0BA0F621F731FD5
:1016F000841F48F4879577956795B795F7959E3F32
:1017000008F0B3CF9395880F08F09927EE0F9795BF
:10171000879508950CD0E6C0DED040F0D5D030F0EB
:1017200021F45F3F19F0C7C0511110C1CAC0EBD0FE
:1017300098F39923C9F35523B1F3951B550BBB2798
:10174000AA2762177307840738F09F5F5F4F220F45
:10175000331F441FAA1FA9F333D00E2E3AF0E0E83E
:1017600030D091505040E695001CCAF729D0FE2F8A
:1017700027D0660F771F881FBB1F2617370748071C
:10178000AB07B0E809F0BB0B802DBF01FF279358D2
:101790005F4F2AF09E3F510568F08DC0D7C05F3F74
:1017A000ECF3983EDCF3869577956795B795F795BA
:1017B0009F5FC9F7880F911D9695879597F90895B2
:1017C000E1E0660F771F881FBB1F6217730784074E
:1017D000BA0720F0621B730B840BBA0BEE1F88F75D
:1017E000E095089598D088F09F5790F0B92F9927E9
:1017F000B751A0F0D1F0660F771F881F991F1AF01C
:10180000BA95C9F712C0B13081F09FD0B1E0089508
:101810009CC0672F782F8827B85F39F0B93FCCF389
:10182000869577956795B395D9F73EF49095809511
:10183000709561957F4F8F4F9F4F0895E89409C031
:1018400097FB3EF490958095709561957F4F8F4FF3
:101850009F4F9923A9F0F92F96E9BB279395F69509
:10186000879577956795B795F111F8CFFAF4BB0F87
:1018700011F460FF1BC06F5F7F4F8F4F9F4F16C0EB
:10188000882311F096E911C0772321F09EE8872F75
:10189000762F05C0662371F096E8862F70E060E031
:1018A0002AF09A95660F771F881FDAF7880F9695AA
:1018B000879597F9089597F99F6780E870E060E051
:1018C00008959FEF80EC089500240A9416161706D9
:1018D00018060906089500240A9412161306140621
:1018E00005060895092E0394000C11F4882352F084
:1018F000BB0F40F4BF2B11F460FF04C06F5F7F4F3C
:101900008F4F9F4F089557FD9058440F551F59F022
:101910005F3F71F04795880F97FB991F61F09F3FDC
:1019200079F087950895121613061406551FF2CF05
:101930004695F1DF08C0161617061806991FF1CF55
:1019400086957105610508940895E894BB2766277C
:101950007727CB0197F908950BD0C4CFB5DF28F0D6
:10196000BADF18F0952309F0A6CFABCF1124EECF44
:10197000CADFA0F3959FD1F3950F50E0551F629FEA
:10198000F001729FBB27F00DB11D639FAA27F00DD8
:10199000B11DAA1F649F6627B00DA11D661F829FFF
:1019A0002227B00DA11D621F739FB00DA11D621FE4
:1019B000839FA00D611D221F749F3327A00D611D01
:1019C000231F849F600D211D822F762F6A2F1124E3
:1019D0009F5750408AF0E1F088234AF0EE0FFF1F36
:1019E000BB1F661F771F881F91505040A9F79E3F6D
:1019F000510570F060CFAACF5F3FECF3983EDCF367
:101A0000869577956795B795F795E7959F5FC1F7A9
:101A1000FE2B880F911D9695879597F908952F9223
:101A20003F924F925F926F927F928F929F92AF926E
:101A3000BF92CF92DF92EF92FF920F931F93CF93BB
:101A4000DF93CDB7DEB760970FB6F894DEBF0FBE59
:101A5000CDBF7C011B016A01FC01178216828381C4
:101A600081FF2AC39E012F5F3F4F3901F701938108
:101A7000F10193FD859193FF81911F01882309F462
:101A800017C3853239F493FD859193FF81911F012E
:101A9000853231F4B70190E068D456016501E6CF94
:101AA00010E0512C912CFFE1F915D8F08B3279F030
:101AB00038F4803279F08332A1F4F92DF0612EC030
:101AC0008D3261F0803369F4292D21602DC0392DCC
:101AD0003260932E892D8460982E2AC0E92DE8600B
:101AE00015C097FC2DC020ED280F2A3088F496FEF3
:101AF00006C03AE0139F200D1124122F19C08AE06E
:101B0000589E200D1124522EE92DE0629E2E10C009
:101B10008E3231F496FCCCC2F92DF0649F2E08C0B1
:101B20008C3621F4292D2068922E02C0883641F48B
:101B3000F10193FD859193FF81911F018111B3CF35
:101B40009BEB980F933020F4992D9061805E07C035
:101B50009BE9980F933008F059C1992D9F7E96FF0D
:101B600016E09F73992E853619F49064992E08C05B
:101B7000863621F4392F3068932E02C0111111508E
:101B800097FE07C01C3350F444244394410E27E0D1
:101B90000BC0183038F027E017E005C027E09CE3C1
:101BA000492E02C0212F412C560184E0A80EB11C01
:101BB000F6016081718182819381042DA301E7D2B6
:101BC0006C01F981FC87F0FF02C0F3FF06C091FCB5
:101BD00006C092FE06C000E205C00DE203C00BE2A3
:101BE00001C000E08C858C7019F0011143C280C2E5
:101BF00097FE10C04C0CFC85F4FF04C08A81813331
:101C000009F44A94141474F528E0241578F588E052
:101C1000482E2CC096FC2AC0812F90E08C159D0583
:101C20009CF03CEFC3163FEFD30674F0892D80681B
:101C3000982E0AC0E2E0F0E0EC0FFD1FE10FF11D6D
:101C40008081803319F411501111F4CF97FE0EC02A
:101C500044244394410E812F90E0C816D9062CF4F9
:101C60001C1904C04424439401C010E097FE06C030
:101C70001C141D0434F4C601019605C085E090E0F3
:101C800002C081E090E001110196112331F0212F73
:101C900030E02F5F3F4F820F931F252D30E08217DA
:101CA000930714F4581A01C0512C892D897041F4FE
:101CB000552031F0B70180E290E057D35A94F8CF25
:101CC000002321F0B701802F90E04FD393FC08C090
:101CD000552031F0B70180E390E047D35A94F8CF14
:101CE00097FE4AC04601D7FE02C0812C912CC60146
:101CF00088199909F301E80FF91FFE87ED8796010E
:101D000024193109388B2F87012F10E01195019587
:101D100011093FEF8316930621F4B7018EE290E09C
:101D200024D3C814D9044CF08F8598898815990557
:101D300024F4ED85FE85818101C080E3F1E08F1AF6
:101D400091082D853E852F5F3F4F3E872D8780165A
:101D5000910624F0B70190E008D3DBCFC814D90472
:101D600041F49A81963320F4953319F43C8534FF7D
:101D700081E3B70190E048C08A81813319F09C85E6
:101D80009F7E9C87B70190E0F0D2111105C094FCB2
:101D900016C085E690E015C0B7018EE290E0E5D26E
:101DA0001E5F82E001E0080FF301E80FF11D808162
:101DB000B70190E0DAD2802F0113F4CFE8CF85E4A9
:101DC00090E0B701D2D2D7FC06C0C114D10441F4CF
:101DD000EC85E4FF05C0D194C194D1088DE201C027
:101DE0008BE2B70190E0C1D280E32AE0C216D104B1
:101DF0002CF08F5FFAE0CF1AD108F7CFB70190E04F
:101E0000B4D2B701C601C096B0D249C1833631F011
:101E1000833779F0833509F052C01FC0560132E094
:101E2000A30EB11CF6018081898301E010E06301FB
:101E300011C05601F2E0AF0EB11CF601C080D18096
:101E400096FE03C0612F70E002C06FEF7FEFC60106
:101E500081D28C01F92DFF7713C0560122E0A20E2A
:101E6000B11CF601C080D18096FE03C0612F70E0E6
:101E700002C06FEF7FEFC60162D28C01F92DF068CE
:101E80009F2EF3FD18C0852D90E00817190798F4D0
:101E9000B70180E290E069D25A94F5CFF60197FC41
:101EA000859197FE81916F01B70190E05ED251104C
:101EB0005A94015011090115110581F7F0C08436BB
:101EC00011F0893659F5560197FE09C024E0A20E9B
:101ED000B11CF60160817181828193810AC0F2E0B8
:101EE000AF0EB11CF60160817181072E000C880BCA
:101EF000990BF92DFF769F2E97FF09C0909580953D
:101F0000709561957F4F8F4F9F4FF0689F2E2AE00D
:101F100030E0A30194D2C82EC6183EC0092D8537E3
:101F200021F40F7E2AE030E01DC0097F8F3691F04A
:101F300018F4883559F0BCC0803719F0883711F093
:101F4000B7C0006104FF09C0046007C094FE08C068
:101F5000066006C028E030E005C020E130E002C0A5
:101F600020E132E0560107FF09C084E0A80EB11C51
:101F7000F601608171818281938108C0F2E0AF0E29
:101F8000B11CF6016081718180E090E0A30157D21D
:101F9000C82EC6180F77902E96FE0BC0092D0E7F07
:101FA000C11650F494FE0AC092FC08C0092D0E7EA2
:101FB00005C0DC2C092D03C0DC2C01C0D12E04FF90
:101FC0000DC0FE01EC0DF11D8081803311F4097EFE
:101FD00009C002FF06C0D394D39404C0802F867832
:101FE00009F0D39403FD10C000FF06C01C2DD514CA
:101FF00078F4150D1D190CC0D51450F4B70180E20A
:1020000090E0B3D1D394F8CFD51410F45D1801C08B
:10201000512C04FF0FC0B70180E390E0A6D102FF6E
:1020200016C001FD03C088E790E002C088E590E09B
:10203000B7010CC0802F867851F001FF02C08BE2FF
:1020400001C080E207FD8DE2B70190E08ED1C1169C
:1020500030F4B70180E390E088D11150F8CFCA94F2
:10206000F301EC0DF11D8081B70190E07ED1C1102C
:10207000F6CF15C0F4E0F51550F584E0581A93FE3C
:102080001EC0011125C02C8523FF27C004EF10E0DE
:10209000392D3071932EF8018491811121C0552082
:1020A00009F4FCCCB70180E290E05FD15A94F7CFFD
:1020B000F7018681978123C08FEF9FEF20C0B70182
:1020C00080E290E052D15A945110F9CFDACF512CDE
:1020D000B701802F90E049D1D6CF08EF10E0D8CFDC
:1020E00091108052B70190E040D10F5F1F4FD3CFC6
:1020F00023E0251510F483E0C1CF512CC4CF6096A6
:102100000FB6F894DEBF0FBECDBFDF91CF911F9108
:102110000F91FF90EF90DF90CF90BF90AF909F9086
:102120008F907F906F905F904F903F902F90089589
:1021300097FB072E16F4009406D077FD08D013D035
:1021400007FC05D03EF4909581959F4F08957095BA
:1021500061957F4F0895EE0FFF1F881F8BBF07907B
:10216000F691E02D1994AA1BBB1B51E107C0AA1FD1
:10217000BB1FA617B70710F0A61BB70B881F991F28
:102180005A95A9F780959095BC01CD010895283006
:1021900008F027E03327DA01990F311D87FD9160A0
:1021A00000966105710539F432602E5F3D9330E38E
:1021B0002A95E1F708959F3F30F080387105610559
:1021C00009F03C5F3C5F3D93913008F08068911DC1
:1021D000DF93CF931F930F93FF92EF92192F987F66
:1021E0009695E92F96959695E90FFF27EA5AFE4FA7
:1021F00099273327EE24FF24A701E70105900894CF
:10220000079428F4360FE71EF81E491F511D660F6C
:10221000771F881F991F0694A1F70590079428F44B
:10222000E70EF81E491F561FC11D770F881F991F03
:10223000661F0694A1F70590079428F4F80E491F2D
:10224000561FC71FD11D880F991F661F771F069441
:10225000A1F70590079420F4490F561FC71FD81FF8
:10226000990F661F771F881F0694A9F78491109510
:10227000177041F0D695C79557954795F794E79411
:102280001A95C1F7ECEFF0E068941590159135912F
:102290006591959105907FE27395E118F10A430BE2
:1022A000560BC90BD009C0F7E10CF11E431F561F96
:1022B000C91FD01D7EF4703311F48A95E6CFE894DF
:1022C000015030F0080F0AF40027021708F4202FFD
:1022D0002395022F7A3328F079E37D932A95E9F745
:1022E00010C07D932A9589F6069497956795379542
:1022F00017951794E118F10A430B560BC90BD00937
:1023000098F023957E9173957A3308F070E37C936F
:102310002013B8F77E9170617D9330F0839571E35F
:102320007D9370E32A95E1F71124EF90FF900F91D0
:102330001F91CF91DF91992787FD90950895FC011A
:102340000590615070400110D8F7809590958E0FE0
:102350009F1F0895FC016150704001900110D8F753
:10236000809590958E0F9F1F08950F931F93CF9385
:10237000DF93FB01238121FD03C08FEF9FEF2CC072
:1023800022FF16C0468157812481358142175307A9
:1023900044F4A081B1819D012F5F3F4F31832083A1
:1023A0008C93268137812F5F3F4F3783268314C05C
:1023B0008B01EC01FB010084F185E02D1995892B3F
:1023C000E1F6D80116968D919C9117970196179674
:1023D0009C938E931697CE01DF91CF911F910F9111
:1023E00008950F931F93CF93DF93CDB7DEB72E974A
:1023F0000FB6F894DEBF0FBECDBF0E891F8986E0F1
:102400008C831A8309838FEF9FE79E838D83AE01B0
:10241000465E5F4F688D798DCE01019600DBEF81BE
:10242000F885E00FF11F10822E960FB6F894DEBFEC
:102430000FBECDBFDF91CF911F910F910895FA018B
:10244000AA27283051F1203181F1E8946F936E7FF3
:102450006E5F7F4F8F4F9F4FAF4FB1E03ED0B4E0E4
:102460003CD0670F781F891F9A1FA11D680F791F25
:102470008A1F911DA11D6A0F711D811D911DA11D36
:1024800020D009F468943F912AE0269F1124301946
:10249000305D3193DEF6CF010895462F4770405DE1
:1024A0004193B3E00FD0C9F7F6CF462F4F70405D90
:1024B0004A3318F0495D31FD4052419302D0A9F7EB
:1024C000EACFB4E0A6959795879577956795BA95E5
:1024D000C9F700976105710508959B01AC010A2EAB
:1024E00006945795479537952795BA95C9F7620F82
:0E24F000731F841F951FA01D0895F894FFCF41
:1024FE0001B56206080600E803010000000037017E
:10250E0003533B25663B25663B25643B25643B25F3
:10251E00643B25643B00256600703A25640020204C
:10252E002020202000783A256400793A2564006244
:0E253E003A25640025643A25643A25640000BD
:00000001FF
