:1000000071C1000090C100008EC100008CC10000D1
:100010008AC1000088C1000086C1000084C10000C0
:1000200082C1000080C100000C94E0097CC1000086
:100030007AC1000078C1000076C1000074C10000E0
:1000400072C1000070C100006EC100006CC10000F0
:100050006AC100000C949B0966C1000064C10000E5
:1000600062C100000C942A160C94F5155CC10000C6
:100070005AC100000C942F0A56C1000054C1000060
:1000800052C1000050C100004EC100004CC1000030
:100090000C942D170C94F81646C10000E9C6000018
:1000A00042C1000040C100003EC100003CC1000050
:1000B0003AC1000038C1000036C1000034C1000060
:1000C00032C1000030C100002EC100000C9419188C
:1000D0000C94EA1728C1000026C1000024C10000CA
:1000E00022C100005D070B080B080B080B080B086A
:1000F0000B080B0865070B080B080B080B080B080F
:100100000B080B0872070B080B080B080B080B08F1
:100110000B080B08F9070B080B080B080B080B085A
:100120000B080B087A070B080B080B080B080B08C9
:100130000B080B0802080B080B080B080B080B0830
:100140000B080B08F9070B080B080B080B080B082A
:100150000B080B08A4070B080B080B080B080B086F
:100160000B080B080B080B080B080B080B080B08F7
:100170000B080B08DF070B080B080B080B080B0814
:100180000B080B08B007AF19C219D519FB19361A9D
:10019000471A5A1A831A084AD73B3BCE016E84BCD1
:1001A000BFFDC12F3D6C74319ABD56833DDA3D00D1
:1001B000C77F11BED9E4BB4C3E916BAAAABE00001A
:1001C00000803F05A84CCDB2D44EB93836A9020CF8
:1001D00050B9918688083CA6AAAA2ABE00000080D1
:1001E0003F006E616E00696E660000407A10F35A3F
:1001F00000A0724E18090010A5D4E80000E8764867
:10020000170000E40B54020000CA9A3B000000E112
:10021000F505000080969800000040420F000000A5
:10022000A08601000000102700000000E803000085
:1002300000006400000000000A000000000001004F
:10024000000000002C76D888DC674F0823DFC1DF70
:10025000AE59E1B1B796E5E3E453C63AE651997673
:1002600096E8E6C28426EB898C9B62ED407C6FFCAD
:10027000EFBC9C9F40F2BAA56FA5F490055A2AF7EF
:100280005C936B6CF9676DC11BFCE0E40D47FEF5F8
:1002900020E6B500D0ED902E030094357705008060
:1002A000841E080000204E0A000000C80C333333BF
:1002B000330F986E12831141EF8D2114893BE6555F
:1002C00016CFFEE6DB18D1844B381BF77C1D901D42
:1002D000A4BBE424203284725E228100C9F124ECA4
:1002E000A1E53D2711241FBECFEFD1E2DEBFCDBF78
:1002F00000E00CBF12E0A0E0B2E0E4E3FBE400E0C9
:100300000BBF02C007900D92A83EB107D9F72DE0B0
:10031000A8EEB2E001C01D92A33CB207E1F70E9433
:10032000A80E0C9498256CCE80911203882329F096
:100330008091FD029091FE0208958091FC02882335
:1003400029F08091F8039091F90308958091F002CB
:100350009091F102089580911203882329F08091F1
:10036000FF029091000308958091FC02882329F0F8
:100370008091FA039091FB0308958091F20290918D
:10038000F302089580911203882329F080910103DC
:100390009091020308958091FC02882329F08091B6
:1003A000FC039091FD0308958091F4029091F50271
:1003B00008959091EE029111FCCF9091BC0094FDB4
:1003C000F8CF1092EF028093E9021092000240935E
:1003D000B80381E08093E8021092ED028093EE0270
:1003E0006093EA02ECEBF0E08081856A80830895F7
:1003F000862B482B422B69E08AE1DBCF0895909150
:10040000EE029111FCCF9091BC0094FDF8CF809347
:10041000E9021092EF02109200021092EC0281E0C9
:100420008093E8028093EE028093EB026093EA02ED
:10043000ECEBF0E08081856A80830895CF93DF93B1
:10044000C82FD42FDCDF8091EE028111FCCF809188
:10045000BC0084FDF8CF1092EF02C160C093E902A6
:1004600081E0809300021092EC02D093E802809326
:10047000EE02ECEBF0E08081856A8083DF91CF9122
:10048000089588E48093B800ECEBF0E0808184600C
:10049000808378940895CF92DF92EF92FF920F932A
:1004A0001F93CF93DF931092F6021092F7021092EF
:1004B000F8021092F90238DF8C014DDFEC01B8012F
:1004C000110F880B990B0E94511D6B017C01BE011D
:1004D000DD0F880B990B0E94511DA70196010E9408
:1004E0005C1C20E030E044E353E40E94C61E2BED88
:1004F0003FE049E450E40E94B61C062F172FD82F86
:10050000C92F462F572F682F792F4093F60250930B
:10051000F7026093F8027093F90220E030E0A9013D
:10052000602F712F0E94AF1C882374F420E030E00C
:1005300044EB53E4602F712F8D2F9C2F0E94E91BF9
:10054000062F172FD82FC92F602F712F8D2F9C2F7B
:10055000DF91CF911F910F91FF90EF90DF90CF909F
:100560000895EF92FF920F931F93E1E0E093FC0256
:10057000E1E0F4E091838083738362835583448355
:100580003783268311870087F386E2861F910F91B8
:10059000FF90EF9008952BED3FE049E450E40E9476
:1005A000C61E20E030E044E353E40C94B61C0895EA
:1005B0004F925F926F927F928F929F92AF92BF9273
:1005C000CF92DF92EF92FF920F931F93CF93DF931F
:1005D000CDB7DEB72C970FB6F894DEBF0FBECDBFF8
:1005E0002B013C0129873A874B875C87E982FA8295
:1005F0000B831C839B01AC01C801B7010E94E81B5F
:10060000CADF6D837E838F83988729853A854B85E2
:100610005C85C601B5010E94E81BBDDF4B015C0192
:1006200020E030E040E05FE36D817E818F8198853E
:100630000E94C61E0E94291F9B01AC010E94C61E7B
:100640006B017C01C301B201A6DF0E94B31C2B0128
:100650003C0169817A818B819C819DDF0E94B31C62
:100660009B01AC01C301B2010E94C61E2B013C01DB
:1006700020E030E040E05FE3C501B4010E94C61E07
:100680000E94291F4B015C019B01AC01C301B20117
:100690000E94C61E9B01AC01C501B4010E94C61E8A
:1006A0009B01AC01C701B6010E94E91B6B017C01F3
:1006B0009B01AC0160E070E080E89FE30E94E81BD2
:1006C0000E94331F4B015C01C701B6010E94331F1A
:1006D000A50194010E945C1C9B01AC010E94E91BD6
:1006E00020E835EE47E15EE40E94C61E2C960FB668
:1006F000F894DEBF0FBECDBFDF91CF911F910F9158
:10070000FF90EF90DF90CF90BF90AF909F908F9031
:100710007F906F905F904F90089520E030E044E329
:1007200053E40E94C61E2BED3FE049E450E40C94D4
:10073000B61C08954F925F926F927F928F929F9214
:10074000AF92BF92CF92DF92EF92FF920F931F93DF
:10075000CF93DF93CDB7DEB760970FB6F894DEBFC7
:100760000FBECDBF29833A834B835C8314DF698737
:100770007A878B879C87C801B7010DDF2B013C016D
:1007800029813A814B815C81C601B5010E94E81B39
:1007900025E33AEF4EE85CE30E94C61E6B017C0144
:1007A0000E94291F6D837E838F839887C301B201C6
:1007B0000E94B31C69837A838B839C839B01AC0169
:1007C0006D817E818F8198850E94C61E6D877E8790
:1007D0008F87988B69857A858B859C850E94B31C51
:1007E0006D837E838F839887C301B2010E94291F86
:1007F0009B01AC016D817E818F8198850E94C61E10
:100800002B013C0169857A858B859C850E94291F77
:100810009B01AC0169817A818B819C810E94C61EFB
:100820004B015C01C701B6010E94B31C9B01AC01E6
:10083000C501B4010E94C61E9B01AC01C301B201F7
:100840000E94E81B9B01AC016D857E858F85988990
:100850000E945C1C2BED3FE049EC50E40E94E91B38
:100860002BED3FE049EC50E40E94931D56DF60966B
:100870000FB6F894DEBF0FBECDBFDF91CF911F91B1
:100880000F91FF90EF90DF90CF90BF90AF909F902F
:100890008F907F906F905F904F9008952F923F922E
:1008A0004F925F926F927F928F929F92AF92BF9280
:1008B000CF92DF92EF92FF920F931F93CF93DF932C
:1008C000CDB7DEB728970FB6F894DEBF0FBECDBF09
:1008D000E1E0F4E000811181428153811801240E8E
:1008E000351E33201CF42FEF221A320A3594279438
:1008F000E1E0F4E0A481B58126813781CD01820F4A
:10090000931F99230CF401963C017594679481E040
:1009100094E0FC01E084F18482859385B701680F3F
:10092000791F772314F46F5F7F4F4B019594879461
:10093000401B510B5A011AF4FFEFAF1ABF0AB594CE
:10094000A7942A1B3B0B29011AF44FEF441A540AAF
:10095000559447948E199F098C0112F40F5F1F4F15
:1009600015950795C2018A0D9B1D800F911F63E0AD
:1009700070E00E941523072E000C880B990B0E9433
:10098000511D6B017C01B501BB0C880B990B0E94BA
:10099000511D9B01AC01C701B6010E94B61C6983C1
:1009A0007A838B839C83B201550C880B990B0E9430
:1009B000511D9B01AC01C701B6010E94B61C6D839D
:1009C0007E838F839887B801110F880B990B0E9443
:1009D000511D9B01AC01C701B6010E94B61C6B0101
:1009E0007C0100EF12E0F8016081718162197309E6
:1009F000072E000C880B990B0E94511D29813A810A
:100A00004B815C810E94C61E0E941E1DE8EFF3E030
:100A100071836083F8016281738166197709072EFB
:100A2000000C880B990B0E94511D2D813E814F8136
:100A300058850E94C61E0E941E1D7093FB03609382
:100A4000FA03F8016481758168197909072E000C91
:100A5000880B990B0E94511DA70196010E94C61E8A
:100A60000E941E1D7093FD036093FC0328960FB631
:100A7000F894DEBF0FBECDBFDF91CF911F910F91D4
:100A8000FF90EF90DF90CF90BF90AF909F908F90AE
:100A90007F906F905F904F903F902F900895EF92CE
:100AA000FF920F931F938091FC02882309F45AC090
:100AB0001092FC0257C046E060E08AE1BFDC34DC03
:100AC00020910102309102028217930724F490933F
:100AD00002028093010228DC20910302309104027B
:100AE0002817390724F4909304028093030233DC1F
:100AF00020910502309106028217930724F4909307
:100B000006028093050227DC20910702309108023B
:100B10002817390724F4909308028093070232DCE7
:100B20002091090230910A028217930724F49093CE
:100B30000A028093090226DC20910B0230910C02FC
:100B40002817390724F490930C0280930B028091AC
:100B5000FA029091FB0201969093FB028093FA02B5
:100B600080E01CC08091FA029091FB0280329E448A
:100B700008F4A1CF1092FB021092FA02E1E0F2E039
:100B8000E284F38400851185268137814481558173
:100B90006281738180819181E4DC81E01F910F91FA
:100BA000FF90EF90089591E0909312038B3008F03E
:100BB0008AE080930D0281E0613009F080E080934B
:100BC000110308954F925F926F927F928F929F923E
:100BD000AF92BF92DF92EF92FF920F931F93CF934A
:100BE000DF93D0900D02ED2CF12C870101501109FB
:100BF00080910F03909110030817190724F41092A5
:100C0000100310920F03C0E0D0E015C1FE01EE0FFB
:100C1000FF1FEE0FFF1FED5FFC4F4081518162818E
:100C20007381411551056105710521F180910F0313
:100C300090911003FC01EE0FFF1FE80FF91FEC0F5E
:100C4000FD1FEE0FFF1FE35FFB4F80819181092E97
:100C5000000CAA0BBB0B481B590B6A0B7B0BFE014C
:100C6000EE0FFF1FEE0FFF1FED5FFC4F4083518320
:100C70006283738380910F03909110032091FC0293
:100C8000222341F0FE01EE0FFF1FE850FC4F2081B0
:100C9000318107C0FE01EE0FFF1FE051FD4F2081A3
:100CA0003181FC01EE0FFF1FE80FF91FEC0FFD1F54
:100CB000EE0FFF1FE35FFB4F31832083FE01EE0F3A
:100CC000FF1FEE0FFF1FED5FFC4F80819181A2811E
:100CD000B3814901330FAA08BB08880E991EAA1ECA
:100CE000BB1E80829182A282B38280911103811106
:100CF00024C08FC0F901EE0FFF1FE20FF31FEC0FAE
:100D0000FD1FEE0FFF1FE35FFB4F40815181862FD8
:100D100090E0FC01EE0FFF1FE80FF91FEC0FFD1F25
:100D2000EE0FFF1FE35FFB4F8081918184179507D2
:100D30000CF4622F2F5F3F4F03C020E030E060E0F3
:100D400020173107BCF220E030E070E022C0F9014A
:100D5000EE0FFF1FE20FF31FEC0FFD1FEE0FFF1F43
:100D6000E35FFB4F40815181872F90E0FC01EE0F44
:100D7000FF1FE80FF91FEC0FFD1FEE0FFF1FE35FD2
:100D8000FB4F80819181481759070CF4722F2F5F18
:100D90003F4F20173107DCF2862F90E0FC01EE0F69
:100DA000FF1FE80FF91FEC0FFD1FEE0FFF1FE35FA2
:100DB000FB4F20813181872F90E0FC01EE0FFF1F58
:100DC000E80FF91FEC0FFD1FEE0FFF1FE35FFB4F56
:100DD00080819181820F931F092E000CAA0BBB0BFF
:100DE000A5019401281B390B4A0B5B0BCA01B90101
:100DF000970122503109032E000C440B550B0E9421
:100E00002823FE01EE0FFF1FE350FD4F31832083A7
:100E100011C04D2C512C612C712CC501B401A301C2
:100E200092010E942823FE01EE0FFF1FE350FD4FA9
:100E3000318320832196C330D1050CF4E7CE809115
:100E40000F039091100301969093100380930F036A
:100E5000DF91CF911F910F91FF90EF90DF90BF90A6
:100E6000AF909F908F907F906F905F904F9008957C
:100E70001F920F920FB60F9211240BB60F922F9361
:100E80003F934F935F936F937F938F939F93AF9312
:100E9000BF93EF93FF938091B900E82FE87F8E2FE7
:100EA00090E0FC013897E135F10508F0B4C08827DF
:100EB000EE58FF4F8F4F0C9444238091E9028093AA
:100EC000BB0085E88093BC00AEC0809100028823FF
:100ED00029F08091E90281608093BB0085E88093CE
:100EE000BC00A1C08091EA028093BB0085E880939A
:100EF000BC0099C08091EB02882351F01092EB0264
:100F00001092EE02ECEBF0E08081856980838BC06B
:100F10009091ED028091E802981730F084E9809377
:100F2000BC001092EE027FC0E091ED0281E08E0FD6
:100F30008093ED02F0E0E854FC4F80818093BB0089
:100F400085E88093BC006FC08091E802823020F079
:100F500085EC8093BC0067C085E88093BC0063C0CB
:100F6000E8EBF3E02081818190E0982F8827822BA5
:100F7000A0EFB2E011969C938E932281838190E042
:100F8000982F8827822B13969C938E9312972481F7
:100F9000858190E0982F8827822B15969C938E93BD
:100FA00014978091FC02811179DC809112038111E8
:100FB00009DE84E98093BC001092EE0234C0E09117
:100FC000EC0281E08E0F8093EC02F0E08091BB0098
:100FD000E854FC4F80839091EC028091E8029817CE
:100FE00020F085E88093BC001EC085EC8093BC0097
:100FF0001AC081E08093EF0284E98093BC001092D4
:10100000EE0211C082E08093EF0284E98093BC007D
:101010001092EE0208C083E08093EF0280E9809393
:10102000BC001092EE02FF91EF91BF91AF919F91A2
:101030008F917F916F915F914F913F912F910F9081
:101040000BBE0F900FBE0F901F901895662321F0D6
:1010500098B1946098B903C098B19B7F98B998B142
:10106000906898B980FF04C098B1986098B903C09F
:1010700098B1977F98B981FF04C098B1906198B9F1
:1010800003C098B19F7E98B982FF04C098B1906266
:1010900098B903C098B19F7D98B983FF04C088B107
:1010A000806488B903C088B18F7B88B985E08A9550
:1010B000F1F7000088B18F7788B985E08A95F1F75C
:1010C00000000895CF93DF93C82FD62F82958F709D
:1010D000BDDF6D2F8C2FBADF85ED8A95F1F700000B
:1010E000DF91CF91089587B1846087B987B1806817
:1010F00087B987B1886087B987B1806187B987B1BF
:10110000806287B987B1806487B92FEF89EF90E05B
:10111000215080409040E1F700C0000060E083E093
:1011200095DF8FE19EE40197F1F700C0000060E0D9
:1011300083E08CDF8FE99FE00197F1F700C00000AA
:1011400060E083E083DF8FE99FE00197F1F700C063
:10115000000060E082E07ADF8FE99FE00197F1F71D
:1011600000C0000060E088E2ADDF60E088E0AADF58
:1011700060E081E0A7DF8FE39FE10197F1F700C016
:10118000000060E086E09EDF60E08FE09BCF089586
:1011900061E098CF08950F931F93CF938C01C0E027
:1011A00002C0F6DFCF5FF801EC0FF11D80818823CC
:1011B00011F0CF3FB1F7CF911F910F9108956111B9
:1011C00002C090E801C090EC8F7060E0892B7ACF6C
:1011D000089560E081E076DF8FE39FE10197F1F70A
:1011E00000C00000089590911D039130B1F030F0DF
:1011F000923021F1933009F445C095C0893509F04A
:1012000092C010921A0310921B0391E090931C035A
:101210008093520490931D0386C0893509F083C0E2
:10122000E0911C0391E09E0F90931C03F0E0EE5AB6
:10123000FB4F808382E080931D0375C090911B0358
:10124000993058F4E0911C0391E09E0F90931C0399
:10125000F0E0EE5AFB4F808303C083E080931D03D0
:1012600080911B038F5F80931B035DC0E82FF0E02C
:10127000EE5AFB4F908120911A03920F90931A031C
:101280008F5F01C080E0883088F390915A0480918C
:101290001A0398133DC081E08093190320E00BC02E
:1012A000822F90E0FC01EE5AFB4F3081FC01E75B9E
:1012B000FB4F30832F5F293098F3E9E4F4E022817B
:1012C000838190E0982F8827820F911D90931803B7
:1012D000809317032481858190E0982F8827820FBF
:1012E000911D90931603809315032681878190E0CA
:1012F000982F8827820F911D9695879596958795AB
:10130000969587959A95909314038093130302C042
:101310001092190389E0E2E5F4E0DF011D928A955D
:10132000E9F710921D038091190308958091170326
:101330009091180308951F920F920FB60F921124E7
:101340002F938F939F9380913D038F5F80933D03F5
:1013500080913B0390913C03019690933C038093D2
:101360003B0381E08093370380913D03843650F046
:1013700080913D03845680933D0381E08093100269
:1013800080933A0380913B0390913C038C329140CF
:1013900078F080913B0390913C038C529140909364
:1013A0003C0380933B0381E08093390380933803AF
:1013B0009F918F912F910F900FBE0F901F901895B6
:1013C0001F920F920FB60F9211240BB60F928F93AC
:1013D0009F93EF93FF9380913E0390913F03059677
:1013E0000B9790F58091030183FD10C080916503F8
:1013F00083FF0CC0809160039091610301969093EC
:1014000061038093600381E080931502E3E0F1E0E3
:101410008081887080936503808184FD10C08091F5
:10142000640384FF0CC08091620390916303019672
:10143000909363038093620381E08093150280910F
:101440000301807180936403FF91EF919F918F91CD
:101450000F900BBE0F900FBE0F901F9018951F920C
:101460000F920FB60F9211240BB60F922F933F934A
:101470004F935F936F937F938F939F93AF93BF939C
:10148000EF93FF93609178007091790070935B0304
:1014900060935A0380917B00882319F081E090E0EB
:1014A00002C080E090E0880F991F82959295907F0E
:1014B0009827807F982790917C009F71892B80933B
:1014C00059038130C9F028F08230D1F0803209F11F
:1014D0005CC06130724050F461E088E070DE89E108
:1014E00092E059DE81E08093260302C01092260329
:1014F00081E480937C0049C082E480937C0045C0F5
:1015000080E480937C00EBE7F0E08081886080835A
:101510003CC080E090E00E944F1D20E030EC4FE79F
:1015200054E40E94B61C20E030E048EC52E40E94F3
:10153000C61E6093460370934703809348039093BD
:10154000490360914603709147038091480390914D
:10155000490320E030E046E952E40E94E81B20E025
:1015600030E040E850E40E94C61E6093460370934A
:101570004703809348039093490380E480937C0061
:10158000EBE7F0E08081877F8083EAE7F0E080810D
:1015900080648083FF91EF91BF91AF919F918F9174
:1015A0007F916F915F914F913F912F910F900BBE63
:1015B0000F900FBE0F901F901895ECE7F0E0808120
:1015C00080648083EAE7F0E080818C688083EEE7C6
:1015D000F0E0808186608083EDE7F0E080818160CB
:1015E000808378940895E1E0F1E0808180638083D6
:1015F0003BEA3093A00029E12093A10080E094E031
:101600009093A9008093A80046E450E05093AB006B
:101610004093AA001092AD001092AC00EAE0F1E015
:1016200040814063408330932001209321019093B7
:101630002901809328016AE570E070932B01609383
:101640002A0110922D0110922C0144B1406444B93A
:1016500030938000209381009093890080938800CC
:1016600070938B0060938A0010928D0010928C0012
:101670000895019B08C0009B08C0039B08C0029B03
:1016800008C080E0089581E3089582E3089583E32C
:10169000089584E3089580911002882309F4A7C077
:1016A0001092100280915C0390915D0399230CF0DD
:1016B00053C091958195910990935D0380935C034C
:1016C00020915E0330915F031216130664F4AC019F
:1016D000421B530B50935803409357039093560368
:1016E000809355030AC0280F391F30935603209367
:1016F000550390935803809357038091550390911D
:101700005603992324F410925603109255038091A6
:10171000570390915803992324F410925803109280
:1017200057031092AB001092AA008091570390913A
:1017300058039E5F90932B0180932A01809155035B
:10174000909156039E5F9093AD008093AC001092F1
:101750002D0110922C01089520915E0330915F03BA
:101760001216130664F4AC01421B530B509358033A
:101770004093570390935603809355030AC0280F54
:10178000391F309356032093550390935803809349
:1017900057038091550390915603992324F4109296
:1017A0005603109255038091570390915803992343
:1017B00024F410925803109257038091550390918E
:1017C00056039E5F9093AB008093AA0010922B016A
:1017D00010922A011092AD001092AC008091570334
:1017E000909158039E5F90932D0180932C01089552
:1017F000CF92DF92EF92FF92CF93DF939C01261B53
:10180000370BA9016C547F4F332324F427E631E0D2
:101810004FEF5FEF6817790728F44856514051950C
:1018200041955109243B310518F410921F0303C060
:1018300081E080931F0350933F0340933E0389E070
:1018400090E012C09C0121503109F901EE0FFF1FF9
:10185000E252F84F60817181880F991FFC01E252BA
:10186000F84F71836083C901181619065CF3509311
:10187000DF074093DE071092450310924403CA012C
:101880000F964F97A0F018C0FC01EE0FFF1FE25219
:10189000F84F208131816091440370914503260FF8
:1018A000371F3093450320934403019602C080E024
:1018B00090E08A30910544F38091F0079091F10710
:1018C000BA01681B790B70934303609342038CE168
:1018D000849FE001859FD00D112480914403909155
:1018E0004503C80FD91F072E000C880B990B0E94C7
:1018F000511D2DEC3CEC4CEC5DE30E94C61E6B01CF
:101900007C01BE01DD0F880B990B0E94511DA701C0
:1019100096010E94E91B0E941E1D70934103609373
:1019200040036D39714034F08CE991E090934103AC
:10193000809340038091400390914103992324F4C4
:10194000109241031092400380911F0381111BC02C
:101950001092AB001092AA002091400330914103F5
:1019600082EC93E0821B930B90932B0180932A01CE
:1019700080E094E09093AD008093AC0010922D0134
:1019800010922C011AC01092AB001092AA0082ECA7
:1019900093E090932B0180932A0120914003309192
:1019A000410380E094E0821B930B9093AD00809301
:1019B000AC0010922D0110922C01DF91CF91FF907D
:1019C000EF90DF90CF9008959C01261B370B22F4F7
:1019D000C90188599E4F01C0C901843B910518F483
:1019E00010921E0303C081E080931E0380911E03AA
:1019F0008823D9F02F5F3F4F2330310580F180E0FD
:101A000094E09093AB008093AA0082EC93E09093D3
:101A10002B0180932A011092AD001092AC0010921D
:101A20002D0110922C0180E008952F5F3F4F23304D
:101A30003105B8F01092AB001092AA0010922B0161
:101A400010922A0120E034E03093AD002093AC00E6
:101A500022EC33E030932D0120932C01089581E096
:101A6000089581E0089514C01092AB001092AA006E
:101A700010922B0110922A0180E094E09093AD0027
:101A80008093AC0082EC93E090932D0180932C0125
:101A900006D8882349F31092AB001092AA00109246
:101AA0002B0110922A011092AD001092AC001092FE
:101AB0002D0110922C0108950E94410241E06BE03B
:101AC0008AE10E94D90120E040E16CE081E00C94C1
:101AD000F80108954F925F926F927F92AF92BF92FA
:101AE000CF92DF92EF92FF920F931F932B013C0155
:101AF00069017A0184E08093240380916C03813032
:101B000009F48EC020F0823009F4B3C014C10E94E1
:101B1000BC1680931E080E94A019882309F40BC1EB
:101B20000E94231B833008F406C10E94021B6093AD
:101B300076037093770380937803909379030E94E0
:101B40000F1B6093720370937303809374039093DD
:101B500075030E941C1B60936E0370936F03809348
:101B6000700390937103693271058105910508F046
:101B7000E2C080916703813049F120F0823009F49E
:101B800049C0D9C0F89420917203309173034091F9
:101B9000740350917503609176037091770380917F
:101BA00078039091790356016701830172010E94C5
:101BB000D80260933303709334038093350390937A
:101BC0003603789481E080936703B5C0F894209140
:101BD00072033091730340917403509175036091C7
:101BE0007603709177038091780390917903560181
:101BF0006701830172010E949A0360932F0370931F
:101C000030038093310390933203789482E0809381
:101C1000670391C081E080936C03109267038BC0CF
:101C200060912B0370912C0380912D0390912E03D2
:101C30000E94231D6B017C0160912F037091300382
:101C400080913103909132030E94231DDC01CB016E
:101C5000B601BADE882309F46EC0109261031092B7
:101C60006003109263031092620382E080936C031E
:101C700062C060912B0370912C0380912D03909191
:101C80002E030E94231D6B017C0160912F03709134
:101C9000300380913103909132030E94231DDC01B7
:101CA000CB01B601A5DD6091600370916103809165
:101CB000620390916303680F791F7695679580E0C2
:101CC00090E00E944F1D2DEC3CEC4CE550E40E944E
:101CD000C61E609327037093280380932903909373
:101CE0002A032091330330913403409135035091FE
:101CF00036030E94BB1E8823F4F0109220038091CB
:101D0000160290911702029730F081E090E09093D4
:101D10001702809316021092AB001092AA00109244
:101D20002B0110922A011092AD001092AC0010927B
:101D30002D0110922C011F910F91FF90EF90DF90D9
:101D4000CF90BF90AF907F906F905F904F9008952D
:101D5000CAD9B2DE2FEF31EE84E02150304080400E
:101D6000E1F700C0000061E08AE00E94D30582B183
:101D70008F6082B99FEFA1EEB4E09150A040B040D7
:101D8000E1F700C000008FE192E005DA61E080E059
:101D900016DA13DC28DCEAE7F0E0808180648083D7
:101DA00085B5836085BD84B5826084BDEEE6F0E0D4
:101DB00080818260808389EF87BD7894E5E0F1E0DF
:101DC000808188618083E8E6F0E0808182608083A2
:101DD000ECE6F0E080818063808320E034E244EF31
:101DE00050E060E072EC81E090E0A1D620E034E2C7
:101DF00044EF50E060E875E280E090E082D720E0B8
:101E000034E244EF50E060E072EC81E090E00E9448
:101E10007A1780913A03882309F446C010923A0356
:101E200028DC80935403882309F43AC0809153033B
:101E3000811136C061E080915203C1D9E091520313
:101E400081E08E0F80935203F0E080915403EE50B6
:101E5000F84F80839DD980915203843009F51DC0CD
:101E60008C2F90E0FC01EE50F84F2081FC01EF5EDA
:101E7000FD4F8081281304C081E0809351030BC083
:101E8000A8D98FE292E087D961E080E098D91092DA
:101E9000520310925103CF5F01C0C0E0C43000F381
:101EA000809154038093530380915103882309F454
:101EB000B0CF60E875E280E090E00E943B1B81E0DB
:101EC0000E947D1B41E061E087E00E94B41B1092FC
:101ED0005103109252037DD960E080E070D980E414
:101EE00092E059D980913A03882309F495C0109261
:101EF0003A03BFDB80935403882309F489C080919F
:101F00005303811185C065D960E080E058D9809184
:101F10005403823369F118F4813331F047C08333BD
:101F200099F18433E1F142C080914F0380935003D3
:101F3000811103C010924A0313C0813019F48093B9
:101F40004A030EC0823019F480934A0309C08330DB
:101F500019F480934A0304C0843011F480934A0337
:101F6000109269031092680381E080934E031EC0B3
:101F700080914F03882321F0815080934F0316C036
:101F800084E080934F0312C080914F03843020F48B
:101F90008F5F80934F030AC010924F0307C0809158
:101FA000500380934F0381E080934E0380914F0351
:101FB000811104C080E592E0EED817C0813021F491
:101FC0008DE592E0E8D811C0823021F48AE692E0F3
:101FD000E2D80BC0833021F487E792E0DCD805C05B
:101FE000843019F484E892E0D6D880914E03882397
:101FF00079F010924E0310924D031092510360E05D
:102000008DE0DDD88DE492E0C6D881E08093210395
:10201000809154038093530380914A03823009F4E2
:1020200018C130F4882359F0813009F477C02BC5EA
:10203000833009F43BC3843009F4BBC424C5109237
:10204000240329DBAFD5882359F0AFD580936603ED
:10205000CAD8882329F06AD990930F0280930E0280
:1020600080910E0290910F020F97E0F481E080932F
:1020700025031092AB001092AA0010922B0110922F
:102080002A011092AD001092AC0010922D01109216
:102090002C0110925F0310925E0310925D03109268
:1020A0005C0302C0109225035FD7882321F05FD71D
:1020B00080936D03E9D70E947E1990935F0380930C
:1020C0005E030E94831990935D0380935C030E94DA
:1020D0008819813351F480E094E090938B008093D1
:1020E0008A0084B1806484B909C08AE590E0909345
:1020F0008B0080938A0084B18F7B84B90E948B19F6
:1021000080932203813329F480912303813309F0E2
:10211000AADC8091220380932303B5C425D78823AA
:1021200009F44BC024D780936D030E94E6188823DE
:1021300009F4A9C4C091690381E08C0F80936903FD
:10214000D0E00E9497190E94511D2DEB37E346E81D
:1021500055E30E94C61ECC0FDD1FCC0FDD1FC45AF5
:10216000DB4F688379838A839B83C091680381E016
:102170008C0F80936803D0E00E948E190E94511D3D
:102180002DEB37E346E855E30E94C61ECC0FDD1F5A
:10219000CC0FDD1FCA5CD94F688379838A839B8308
:1021A00081E992E0FED68091160290911702019685
:1021B000909317028093160266C480913803882397
:1021C00009F461C40E94021BC62FD72F182F092FB4
:1021D0000E940F1B262F372F409146035091470333
:1021E0006091480370914903E09150031F92EF936F
:1021F0009F938F933F932F930F931F93DF93CF93CF
:10220000809125031F928F93809124031F928F93B7
:10221000809126031F928F937F936F935F934F93C9
:1022200088E992E09F938F9384EF95E09F938F933B
:102230000E940C2584EF95E0B4D6109238032DB798
:102240003EB7285E3F4F0FB6F8943EBF0FBE2DBF7E
:102250001AC4A8D4882361F0A8D4809366030E948E
:10226000F308882329F062D890930F0280930E021E
:1022700080910E0290910F020F9720F481E08093DD
:10228000250302C01092250380916C03811174D53F
:1022900061E080E00E94DF0880912E038F9380919F
:1022A0002D038F9380912C038F9380912B038F9319
:1022B00080916B038F9380916A038F9380912A039F
:1022C0008F93809129038F93809128038F9380911E
:1022D00027038F9382EB92E09F938F938AE098E09D
:1022E0009F938F930E940C258AE098E00E94CB0870
:1022F00080912603ADB7BEB71E960FB6F894BEBF49
:102300000FBEADBF81111FC060914603709147039E
:10231000809148039091490320E030E048E452E482
:102320000E94AF1C882394F4609146037091470388
:10233000809148039091490320E030E0A9010E9478
:10234000AF1C882319F081E0809320038091200343
:10235000882389F02091360630913706409138065F
:102360005091390660915C0470915D0480915E0427
:1023700090915F04AFDB80912503811184C380912C
:102380002003811180C38091160290911702029759
:1023900008F488C180916C03813009F4BCC020F03E
:1023A000823009F4F9C06FC381E080932403E4D440
:1023B00080931E08C5D7882309F465C30E94231B98
:1023C000833008F460C30E94021B6093760370930D
:1023D000770380937803909379030E940F1B609397
:1023E00072037093730380937403909375030E9438
:1023F0001C1B60936E0370936F0380937003909324
:102400007103633371058105910508F03CC3809128
:1024100067038130D9F120F0823009F46DC033C3F5
:10242000F89480916A0390916B03880F991F880F2D
:10243000991FFC01EA5CF94FA080B180C280D38073
:10244000FC01E45AFB4FE080F1800281138120916E
:10245000720330917303409174035091750360913E
:1024600076037091770380917803909179030E94AD
:10247000D8026093330370933403809335039093B1
:102480003603789481E080936703FDC2F8948091CD
:102490006A0390916B03880F991F880F991FFC01A5
:1024A000EA5CF94FA080B180C280D380FC01E45A7D
:1024B000FB4FE080F1800281138120917203309103
:1024C000730340917403509175036091760370918A
:1024D000770380917803909179030E949A03609327
:1024E0002F037093300380933103909332037894D9
:1024F00082E080936703C7C281E080936C031092EF
:102500006703BFEF21EE34E0B15020403040E1F7E7
:1025100000C00000B8C282E08093240346E060E07F
:102520008AE10E941E020E944B0260932B0370936B
:102530002C0380932D0390932E038FE39CE9019746
:10254000F1F700C0000060912B0370912C03809183
:102550002D0390912E030E94231D6B017C0160913D
:102560002F037091300380913103909132030E94C8
:10257000231DDC01CB01B60127DA882309F483C2CD
:102580001092610310926003109263031092620331
:1025900082E080936C0377C283E08093240346E05B
:1025A00060E08AE10E941E020E944B0260932B03AE
:1025B00070932C0380932D0390932E03AFE3BCE91B
:1025C0001197F1F700C0000060912B0370912C036C
:1025D00080912D0390912E030E94231D6B017C019D
:1025E00060912F03709130038091310390913203F9
:1025F0000E94231DDC01CB01B601FAD860912703AC
:10260000709128038091290390912A03209133032C
:102610003091340340913503509136030E94BB1E24
:102620008823ACF010926C0380916A0390916B0345
:10263000019690936B0380936A03809116029091A8
:102640001702019790931702809316021CC2809183
:102650003E0390913F0305960B9708F014C26091DA
:102660006003709161038091620390916303680F2E
:10267000791F80E090E00E944F1D20E030E040E0B4
:102680005FE30E94C61E23E333E343E650E40E9467
:10269000C61E6093270370932803809329039093A9
:1026A0002A03F1C181E080932003EDC1BFEF23EC49
:1026B00039E0B15020403040E1F700C0000061E057
:1026C00080E00E94DF0880914B031F928F938091DE
:1026D0004C031F928F9381ED92E09F938F938FE134
:1026E00098E09F938F930E940C258DB79EB7089614
:1026F0000FB6F8949EBF0FBE8DBF80913A0388231A
:1027000009F451C110923A030E94390B809354038B
:10271000823339F118F4813341F045C1833309F430
:102720009FC0843309F41CC13EC183E080934F03F2
:1027300085E080934A0381E080934D030E94E9087D
:1027400060E080E00E94DF088BEB92E00E94CB0803
:1027500061E080E00E94DF088AE098E00E94CB08F8
:1027600022C180914C03873120F48F5F80934C030A
:1027700002C010924C0380914B038A30D8F49091A0
:102780004C039A30B8F41F928F931F929F9388EC5A
:1027900092E09F938F938FE198E09F938F930E9495
:1027A0000C25ADB7BEB718960FB6F894BEBF0FBED6
:1027B000ADBF4DC08A30D0F41F928F9380914C03EF
:1027C0001F928F9389EC92E09F938F938FE198E013
:1027D0009F938F930E940C252DB73EB7285F3F4FE4
:1027E0000FB6F8943EBF0FBE2DBF31C090914C0381
:1027F0009A30B8F41F928F931F929F9380ED92E0CE
:102800009F938F938FE198E09F938F930E940C2565
:102810008DB79EB708960FB6F8949EBF0FBE8DBFBA
:1028200016C01F928F931F929F9381ED92E09F930A
:102830008F938FE198E09F938F930E940C25ADB703
:10284000BEB718960FB6F894BEBF0FBEADBF61E01D
:1028500080E00E94DF088FE198E00E94CB08A3C0CF
:1028600080914B038B3320F48F5F80934B0302C026
:1028700010924B0380914B038A30E0F490914C030B
:102880009A30C0F41F928F931F929F9388EC92E02E
:102890009F938F938FE198E09F938F930E940C25D5
:1028A0002DB73EB7285F3F4F0FB6F8943EBF0FBE1F
:1028B0002DBF4DC08A30C8F41F928F9380914C0376
:1028C0001F928F9389EC92E09F938F938FE198E012
:1028D0009F938F930E940C258DB79EB708960FB6D5
:1028E000F8949EBF0FBE8DBF32C090914C039A30BA
:1028F000B8F41F928F931F929F9380ED92E09F9365
:102900008F938FE198E09F938F930E940C25ADB732
:10291000BEB718960FB6F894BEBF0FBEADBF17C0B6
:102920001F928F931F929F9381ED92E09F938F93BD
:102930008FE198E09F938F930E940C252DB73EB7AF
:10294000285F3F4F0FB6F8943EBF0FBE2DBF61E02A
:1029500080E00E94DF088FE198E00E94CB0823C04E
:1029600083E080934F03C5E0C0934A03C0935003B4
:1029700081E080934D030E94E908EFE1F8E0DF0178
:102980001D92CA95E9F760E080E00E94DF0887E7C2
:1029900092E00E94CB0861E080E00E94DF088AE0BC
:1029A00098E00E94CB0880914D03882309F4A5CEBE
:1029B0006AC0BFEF23EC39E0B15020403040E1F76E
:1029C00000C0000080913A03882309F457C0109298
:1029D0003A030E94390B80935403882309F44AC0B8
:1029E00080915303811146C061E0809152030E949F
:1029F000DF08E091520381E08E0F80935203F0E0F4
:102A000080915403EE50F84F80830E94C808809153
:102A10005203843079F50CC0822F90E0FC01EE5017
:102A2000F84F3081FC01EF5EFD4F30832F5F01C016
:102A300020E0243088F384E080934F0385E0809386
:102A40004A038093500381E0809351031092520314
:102A50000E94E90860E080E00E94DF0887ED92E0D4
:102A60000E94CB0861E080E00E94DF088AE098E0E5
:102A70000E94CB08809154038093530380915103AB
:102A8000882309F49FCF80915003813009F42ACA2A
:102A900090913803992309F425CA909176032091E7
:102AA000770330917803E0917903F0917203A0915C
:102AB0007303B0917403C091750340914603509124
:102AC000470360914803709149031F928F93CF93FE
:102AD000BF93AF93FF93EF933F932F939F93809177
:102AE00025031F928F93809124031F928F938091CF
:102AF00026031F928F937F936F935F934F9388E981
:102B000092E09F938F9384EF95E09F938F930E9421
:102B10000C2584EF95E045D2109238038DB79EB70F
:102B200048960FB6F8949EBF0FBE8DBFDBC98F923B
:102B30009F92AF92BF92CF92DF92EF92FF92CF938C
:102B4000DF9349015A01C1ECD0E028E1288326E057
:102B50002093C200A4D720E030E040E851E40E9476
:102B6000C61E6B017C01C501B40199D7A70196016E
:102B7000FDD620E030E040E05FE32AD664D77093D2
:102B8000C5006093C4008881806888837894DF9151
:102B9000CF91FF90EF90DF90CF90BF90AF909F903C
:102BA0008F90089580917C03089580917C03882301
:102BB000C9F0E0917D0381E08E0F80937D03F0E00A
:102BC000EC59F74F808180937A03F89480917C03CD
:102BD000815080937C03789480917D03803410F041
:102BE00010927D0380917A0308951F920F920FB681
:102BF0000F9211240BB60F928F93EF93FF93809156
:102C00007B03811106C0E1ECF0E080818F7D808341
:102C100017C0E0917E0381E08E0F80937E03F0E089
:102C2000EC5DF74F80818093C60080917B038150DB
:102C300080937B0380917E03803410F010927E039A
:102C4000FF91EF918F910F900BBE0F900FBE0F90E1
:102C50001F9018951F920F920FB60F9211240BB66A
:102C60000F928F939F93EF93FF938091C600809371
:102C7000A40880917C038034A8F4E0917F0391E064
:102C80009E0F90937F03F0E09091A408EC59F74FCA
:102C900090838F5F80937C0380917F03803410F05A
:102CA00010927F03FF91EF919F918F910F900BBE38
:102CB0000F900FBE0F901F9018959091810399234C
:102CC000F4F0E091860391E09E0F90938603F0E08C
:102CD000EB55F74F8083F894809181038F5F809349
:102CE0008103789480918603882314F410928603DC
:102CF000E9ECF0E080818062808380E0089581E0EB
:102D000008958F929F92AF92BF92CF92DF92EF92EF
:102D1000FF92CF93DF9349015A01C9ECD0E028E13B
:102D2000288326E02093CA00BAD620E030E040E8AD
:102D300051E40E94C61E6B017C01C501B401AFD6EF
:102D4000A701960113D620E030E040E05FE340D5D4
:102D50007AD67093CD006093CC0088818068888398
:102D60007894DF91CF91FF90EF90DF90CF90BF905C
:102D7000AF909F908F900895809182038823C9F02F
:102D8000E091830381E08E0F80938303F0E0EA5D9E
:102D9000F64F808180938003F89480918203815064
:102DA00080938203789480918303882314F4109293
:102DB0008303809180030895EF92FF921F93CF9336
:102DC000DF937C01162FC0E0D0E009C0F701EC0FC3
:102DD000F11D808172DF811101C0DF5FCF5FC117FC
:102DE000A8F38D2FDF91CF911F91FF90EF90089561
:102DF0001F920F920FB60F9211240BB60F928F9362
:102E0000EF93FF9380918103811106C0E9ECF0E01C
:102E100080818F7D808317C0E091840381E08E0FD5
:102E200080938403F0E0EB55F74F80818093CE00D0
:102E30008091810381508093810380918403882352
:102E400014F410928403FF91EF918F910F900BBEB9
:102E50000F900FBE0F901F9018951F920F920FB6F4
:102E60000F9211240BB60F928F939F93EF93FF93C2
:102E70008091CE0080932509809182038823ACF055
:102E8000E091850391E09E0F90938503F0E090918F
:102E90002509EA5DF64F90838F5F809382038091CE
:102EA0008503882314F410928503FF91EF919F917D
:102EB0008F910F900BBE0F900FBE0F901F90189523
:102EC000E091AC0391E09E0F9093AC03F0E0E654E8
:102ED000F54F8083F8948091A7038F5F8093A703B9
:102EE00078948091AC03E1EDF0E080818062808392
:102EF00080E008958F929F92AF92BF92CF92DF921F
:102F0000EF92FF92CF93DF9349015A01C1EDD0E0D8
:102F100028E1288326E02093D200C1D520E030E0CC
:102F200040E851E433D76B017C01C501B401B7D54A
:102F3000A70196011BD520E030E040E05FE348D4D4
:102F400082D57093D5006093D4008881806888838F
:102F50007894DF91CF91FF90EF90DF90CF90BF906A
:102F6000AF909F908F9008958091A80308958091CD
:102F7000A803882399F0E091A90381E08E0F809344
:102F8000A903F0E0E654F44F80818093A603F894FF
:102F90008091A80381508093A80378948091A60320
:102FA00008950F931F93CF93DF938C01C0E0D0E07F
:102FB00005C086DF811101C0DF5FCF5FF801EC0F34
:102FC000F11D80818111F5CF8D2FDF91CF911F9160
:102FD0000F9108951F920F920FB60F9211240BB606
:102FE0000F928F93EF93FF938091A703811106C0F7
:102FF000E1EDF0E080818F7D808311C0E091AA0334
:1030000081E08E0F8093AA03F0E0E654F54F8081B3
:103010008093D6008091A70381508093A703FF91EE
:10302000EF918F910F900BBE0F900FBE0F901F90DE
:1030300018951F920F920FB60F9211240BB60F9294
:103040008F93EF93FF938091D6008093E609E091F0
:10305000AB0381E08E0F8093AB03F0E08091E60933
:10306000E654F44F80838091A8038F5F8093A80378
:103070008091AB03FF91EF918F910F900BBE0F905A
:103080000FBE0F901F901895CF93DF939091A503DB
:103090009130E1F018F0923061F192C08C3309F078
:1030A00091C01092A30380E4E6EAF9E0DF01982FD3
:1030B0001D929A95E9F7E7E2FAE0DF011D928A9501
:1030C000E9F781E08093A50380E07DC08E3329F489
:1030D00082E08093A50380E076C0E091A30391E0B5
:1030E0009E0F9093A303F0E0E95DF54F808380E0AD
:1030F0006AC01092900310928F0385E0EDE9F3E02F
:10310000DF01982F1D929A95E9F7E8E9F3E0DF01D6
:103110001D928A95E9F790E032C0292F30E0F9013D
:10312000E95DF54F8081F901EA55F64F80834091C2
:103130009003411104C0F901E356FC4F80834130F4
:1031400051F4E0918F0321E02E0F20938F03F0E0E4
:10315000E856FC4F80838B3319F44F5F4093900304
:1031600020919003223011F480939303233011F4C3
:1031700080939203243011F4809391039F5F809198
:10318000A303981750F28DE993E00E948223EC018B
:10319000909397038093960388E993E00E9482239B
:1031A0009093950380939403CD2B21F0892B21F4E8
:1031B00080E003C080E001C081E01092A50303C05D
:1031C00080E001C080E0DF91CF910895CF92DF923F
:1031D000EF92FF92CF93DF939091A403913071F01F
:1031E00018F0923051F180C08C3309F07FC01092FA
:1031F000A20381E08093A40380E079C08E3329F498
:1032000082E08093A40380E072C0E091A20391E089
:103210009E0F9093A203F0E0E959F54F808380E080
:1032200066C0822F90E0FC01E959F54F3081FC0126
:10323000E951F64F30832F5F01C020E08091A20357
:10324000281778F3C7EED9E08A81E7EAFAE08083AD
:103250008B8181838C8182838D8183838E81848322
:103260008F81858388858683898587831086CF01B2
:103270000E949F236B017C0160938B0370938C03EE
:1032800080938D0390938E038B85E0EBFAE080832F
:103290008C8581838D8582838E8583838F858483CE
:1032A00088898583898986838A8987838B898087B2
:1032B0001186CF010E949F23609387037093880338
:1032C0008093890390938A03672B682B692B31F0D5
:1032D000CD28CE28CF2821F480E003C080E001C0B3
:1032E00081E01092A40303C080E001C080E0DF9180
:1032F000CF91FF90EF90DF90CF900895809196034B
:103300009091970308958091940390919503089567
:1033100080919303089580919203089560918703AB
:10332000709188038091890390918A030895609138
:103330008B0370918C0380918D0390918E0308957F
:10334000282F8091B70390E08830910508F057C18D
:10335000FC018827ED53FF4F8F4F0C944423253BEE
:1033600009F04DC11092B0031092AF031092B10357
:103370001092AE0381E08093B2032093FA0C809305
:10338000B7033DC1223671F4E091B20381E08E0FA4
:103390008093B203F0E0E650F34F208382E0809305
:1033A000B7032DC11092B7032AC1213071F4E09107
:1033B000B20381E08E0F8093B203F0E0E650F34F4A
:1033C000208383E08093B7031AC1253089F4E0910C
:1033D000B20381E08E0F8093B203F0E0E650F34F2A
:1033E000208382E08093180283E08093B70307C1B3
:1033F0001092B70304C1273081F4E091B20381E059
:103400008E0F8093B203F0E0E650F34F20831092CA
:10341000180284E08093B703F2C0223089F4E0916F
:10342000B20381E08E0F8093B203F0E0E650F34FD9
:10343000208381E08093180284E08093B703DFC08B
:10344000213071F4E091B20381E08E0F8093B203DA
:10345000F0E0E650F34F208384E08093B703CFC0C1
:1034600083E0809318021092B703C9C0E091B203C1
:1034700081E08E0F8093B203F0E0E650F34F20839B
:103480002A5F2093AD0385E08093B703B8C0211174
:103490000EC0E091B20381E08E0F8093B203F0E0A2
:1034A000E650F34F208386E08093B703A8C01092C4
:1034B000B703A5C08091B103843658F4E091B203FC
:1034C00081E08E0F8093B203F0E0E650F34F20834B
:1034D00003C087E08093B7038091B1038F5F80932F
:1034E000B1038DC0E92FF0E0E650F34F20818091C9
:1034F000B003820F8093B0032091AF03820F8093BB
:10350000AF039F5F01C092E08091AD03981750F325
:1035100090E0FC01E650F34F30812091B00332136C
:1035200063C0FC01E550F34F90818091AF03981385
:103530005BC081E08093AE03809118028130B9F0C6
:1035400018F0823039F152C087E08093C20D20E03C
:103550000BC0822F90E0FC01E650F34F3081FC015C
:10356000E25AF24F30832F5F243698F33FC082E057
:103570008093C20D20E00BC0822F90E0FC01E6504A
:10358000F34F3081FC01EA52F34F30832F5F243236
:1035900098F32CC08091000D863041F49091010D7C
:1035A000911104C081E08093B60320C0863041F4BD
:1035B0009091010D983021F481E08093B50316C0FD
:1035C000863041F49091010D913021F481E0809397
:1035D000B4030CC0863051F48091010D8E3131F46A
:1035E00081E08093B30302C01092AE0384E6EAEF59
:1035F000FCE0DF011D928A95E9F71092B7038091F4
:10360000AE030895EEE5FDE062A173A184A195A14A
:1036100048D225E93FEB46ED53E3B8C30895EEE504
:10362000FDE0668D778D80A191A13BD225E93FEB2E
:1036300046ED53E3ABC30895EEE5FDE062A973A93F
:1036400084A995A908958091780D0895DC016A5F99
:1036500092E030E020E007C0FD01E90FF11D40815C
:10366000240F320F9F5F9617B8F3832F90E0982FA7
:103670008827822B0895CF93DF93CDB7DEB76C9761
:103680000FB6F894DEBF0FBECDBF95EB998392E6DF
:103690009A8396E09B831C8294E19D831E8291E035
:1036A0009F83188619861A8620ED2B8728E02C87A1
:1036B0001D861E866F87788B898B1A8A9B8B1C8A46
:1036C0009D8B1E8A1F8A188E198E1A8E1B8E1C8E39
:1036D00064E1CE010196BADF8B8F9C8F6CE1CE0145
:1036E00001966ADB1092B6036C960FB6F894DEBFB3
:1036F0000FBECDBFDF91CF910895CF93DF93CDB7AC
:10370000DEB72E970FB6F894DEBF0FBECDBF682F81
:1037100070E088EE93E089D785EB898382E68A831F
:1037200086E08B8398E09C838D831E826F837887ED
:1037300081E089871A868B871C861D861E8666E037
:10374000CE01019683DF8D879E876EE0CE010196C4
:1037500033DB1092B5032E960FB6F894DEBF0FBE82
:10376000CDBFDF91CF910895CF93DF93CDB7DEB773
:1037700060970FB6F894DEBF0FBECDBF95EB99836F
:1037800092E69A8396E09B8391E09C8328E02D83C8
:103790001E829F83888719866A871B864C871D86B1
:1037A0001E861F86188A68E0CE0101964FDF8F873C
:1037B000988B60E1CE010196FFDA1092B403609617
:1037C0000FB6F894DEBF0FBECDBFDF91CF91089545
:1037D0005058BB27AA270ED083C24CD230F051D20A
:1037E00020F031F49F3F11F41EF41CC20EF4E0955A
:1037F000E7FB04C2E92F96D280F3BA17620773077A
:103800008407950718F071F49EF5AEC20EF4E095AA
:103810000B2EBA2FA02D0B01B90190010C01CA018A
:10382000A0011124FF27591B99F0593F50F4503E35
:1038300068F11A16F040A22F232F342F4427585F27
:10384000F3CF469537952795A795F0405395C9F73F
:103850007EF41F16BA0B620B730B840BBAF09150F7
:10386000A1F0FF0FBB1F661F771F881FC2F70EC096
:10387000BA0F621F731F841F48F487957795679569
:10388000B795F7959E3F08F0B3CF9395880F08F052
:103890009927EE0F979587950895ECD158F080E819
:1038A00091E009F49EEFEDD128F040E851E059F4A1
:1038B0005EEF09C0B7C158C2E92FE07833D268F390
:1038C000092E052AC1F3261737074807590738F08C
:1038D0000E2E07F8E02569F0E025E0640AC0EF63EA
:1038E00007F8009407FADB01B9019D01DC01CA0168
:1038F000AD01EF934AD0F4D10AD05F91552331F056
:103900002BED3FE049E450FD49EC63CF0895DF9390
:10391000DD27B92FBF7740E85FE316161706480783
:103920005B0710F4D92F2BD29F938F937F936F93C4
:10393000D8D2E6E9F1E079D1D3D12F913F914F91DF
:103940005F9130D2DD2349F09058A2EA2AED3FE0A2
:1039500049EC5FE3D0785D274DDFDF91C1C12AD10B
:1039600008F481E0089595D1E395CBC10CD0B8C19E
:1039700088D140F07FD130F021F45F3F19F03EC193
:103980005111F3C14FC1CED198F39923C9F35523F7
:10399000B1F3951B550BBB27AA2762177307840742
:1039A00038F09F5F5F4F220F331F441FAA1FA9F3F8
:1039B00033D00E2E3AF0E0E830D091505040E695EA
:1039C000001CCAF729D0FE2F27D0660F771F881F4B
:1039D000BB1F261737074807AB07B0E809F0BB0B3A
:1039E000802DBF01FF2793585F4F2AF09E3F51055E
:1039F00068F004C1BAC15F3FECF3983EDCF38695F2
:103A000077956795B795F7959F5FC9F7880F911DD3
:103A10009695879597F90895E1E0660F771F881FBF
:103A2000BB1F621773078407BA0720F0621B730B72
:103A3000840BBA0BEE1F88F7E095089504D06894C4
:103A4000B11193C1089576D188F09F5790F0B92FA6
:103A50009927B751A0F0D1F0660F771F881F991FE3
:103A60001AF0BA95C9F712C0B13081F07DD1B1E03A
:103A700008957AC1672F782F8827B85F39F0B93F4A
:103A8000CCF3869577956795B395D9F73EF49095E5
:103A90008095709561957F4F8F4F9F4F0895E89463
:103AA00009C097FB3EF490958095709561957F4F86
:103AB0008F4F9F4F9923A9F0F92F96E9BB27939534
:103AC000F695879577956795B795F111F8CFFAF444
:103AD000BB0F11F460FF1BC06F5F7F4F8F4F9F4F75
:103AE00016C0882311F096E911C0772321F09EE8D3
:103AF000872F762F05C0662371F096E8862F70E039
:103B000060E02AF09A95660F771F881FDAF7880F12
:103B10009695879597F90895ADD018F011F0B1D02A
:103B200038F480C022C1E92FFDD0B0F35523C9F38A
:103B3000E7FB6217730784079507A8F199F3E92F4C
:103B4000FF2788232AF03197660F771F881FDAF73F
:103B5000952F5527442332F091505040220F331FA8
:103B6000441FD2F7BB27E91BF50B621B730B840BB9
:103B7000B109C1F222F4620F731F841FB11D319786
:103B80002AF0660F771F881FBB1FEFCF9150504060
:103B90005AF041F0882332F0660F771F881F91504A
:103BA0005040C1F7939530C08695779567959F5F94
:103BB000D9F7F8CF990F0008550FAA0BE0E8FEEFF0
:103BC00016161706E807F907C0F012161306E407E1
:103BD000F50798F0621B730B840B950B39F40A26DA
:103BE00061F0232B242B252B21F408950A2609F4B8
:103BF000A140A6958FEF811D811D089597F99F67BC
:103C000080E870E060E008959F3F31F0915020F42B
:103C1000879577956795B795880F911D96958795A8
:103C200097F908959FEF80EC0895DF93CF931F934A
:103C30000F93FF92EF92DF927B018C01689405C095
:103C4000DA2EEF01AFD0FE01E894A59125913591D0
:103C500045915591AEF3EF01CDDDFE019701A8012D
:103C6000DA9479F7DF90EF90FF900F911F91CF9149
:103C7000DF91089500240A941616170618060906FF
:103C8000089500240A9412161306140605060895D2
:103C9000C9CF50D0E8F3E894E0E0BB279F57F0F09D
:103CA0002AED3FE049EC06C0EE0FBB0F661F771F01
:103CB000881F28F0B23A62077307840728F0B25AC7
:103CC000620B730B840BE3959A9572F7803830F48E
:103CD0009A95BB0F661F771F881FD2F7904896CF23
:103CE000092E0394000C11F4882352F0BB0F40F40A
:103CF000BF2B11F460FF04C06F5F7F4F8F4F9F4F4A
:103D00000895EF93E0FF06C0A2EA2AED3FE049ECF8
:103D10005FEB70DDE5DF0F90039401FC9058E3EC5E
:103D2000F1E0E9C057FD9058440F551F59F05F3F2F
:103D300071F04795880F97FB991F61F09F3F79F0CD
:103D400087950895121613061406551FF2CF46954F
:103D5000F1DF08C0161617061806991FF1CF8695D1
:103D60007105610508940895E894BB2766277727B5
:103D7000CB0197F908951EDF08F48FEF08959B019A
:103D8000AC0160E070E080E89FE3F0CD0BD0A8CFFD
:103D900071DF28F076DF18F0952309F02FCF42CF9E
:103DA0001124E3CFBFDFA0F3959FD1F3950F50E02F
:103DB000551F629FF001729FBB27F00DB11D639FDD
:103DC000AA27F00DB11DAA1F649F6627B00DA11D83
:103DD000661F829F2227B00DA11D621F739FB00D29
:103DE000A11D621F839FA00D611D221F749F332799
:103DF000A00D611D231F849F600D211D822F762F32
:103E00006A2F11249F5750408AF0E1F088234AF02E
:103E1000EE0FFF1FBB1F661F771F881F915050407A
:103E2000A9F79E3F510570F0E9CE9FCF5F3FECF3BD
:103E3000983EDCF3869577956795B795F795E79566
:103E40009F5FC1F7FE2B880F911D9695879597F977
:103E500008959F931EDF0F9007FCEE5F52CF11F481
:103E60000EF4E0CED1CE66DFD0F39923D9F3CEF3B2
:103E70009F57550B87FF38D00024A0E640EA9001F9
:103E800080585695979528F4805C660F771F881F99
:103E900020F026173707480730F4621B730B840B9A
:103EA000202931294A2BA6951794079420253125DE
:103EB0004A2758F7660F771F881F20F02617370705
:103EC000480730F4620B730B840B200D311D411D2C
:103ED000A09581F7B901842F9158880F9695879501
:103EE00008959B01AC0152CF91505040660F771F4F
:103EF000881FD2F708959F938F937F936F93FF93BB
:103F0000EF939B01AC0142DFEF91FF918EDE2F9189
:103F10003F914F915F913ACF2F923F924F925F9294
:103F20006F927F928F929F92AF92BF92CF92DF92C9
:103F3000EF92FF920F931F93CF93DF93CDB7DEB72E
:103F400060970FB6F894DEBF0FBECDBF7C011B019A
:103F50006A01FC0117821682838181FF2AC39E01B8
:103F60002F5F3F4F3901F7019381F10193FD859157
:103F700093FF81911F01882309F417C3853239F417
:103F800093FD859193FF81911F01853231F4B70133
:103F900090E006D556016501E6CF10E0512C912C3A
:103FA000FFE1F915D8F08B3279F038F4803279F0EE
:103FB0008332A1F4F92DF0612EC08D3261F080338F
:103FC00069F4292D21602DC0392D3260932E892D61
:103FD0008460982E2AC0E92DE86015C097FC2DC09A
:103FE00020ED280F2A3088F496FE06C03AE0139F91
:103FF000200D1124122F19C08AE0589E200D112483
:10400000522EE92DE0629E2E10C08E3231F496FCC5
:10401000CCC2F92DF0649F2E08C08C3621F4292DD6
:104020002068922E02C0883641F4F10193FD8591FB
:1040300093FF81911F018111B3CF9BEB980F9330B8
:1040400020F4992D9061805E07C09BE9980F933012
:1040500008F059C1992D9F7E96FF16E09F73992E07
:10406000853619F49064992E08C0863621F4392FCC
:104070003068932E02C01111115097FE07C01C33F7
:1040800050F444244394410E27E00BC0183038F01C
:1040900027E017E005C027E09CE3492E02C0212F4E
:1040A000412C560184E0A80EB11CF601608171819B
:1040B00082819381042DA30168D36C01F981FC876F
:1040C000F0FF02C0F3FF06C091FC06C092FE06C0DE
:1040D00000E205C00DE203C00BE201C000E08C85E8
:1040E0008C7019F0011143C280C297FE10C04C0CB5
:1040F000FC85F4FF04C08A81813309F44A941414C6
:1041000074F528E0241578F588E0482E2CC096FC3C
:104110002AC0812F90E08C159D059CF03CEFC316C2
:104120003FEFD30674F0892D8068982E0AC0E2E034
:10413000F0E0EC0FFD1FE10FF11D8081803319F4D9
:1041400011501111F4CF97FE0EC044244394410E38
:10415000812F90E0C816D9062CF41C1904C0442401
:10416000439401C010E097FE06C01C141D0434F4F3
:10417000C601019605C085E090E002C081E090E0B4
:1041800001110196112331F0212F30E02F5F3F4FB5
:10419000820F931F252D30E08217930714F4581ACD
:1041A00001C0512C892D897041F4552031F0B7019F
:1041B00080E290E0F5D35A94F8CF002321F0B701C4
:1041C000802F90E0EDD393FC08C0552031F0B7016B
:1041D00080E390E0E5D35A94F8CF97FE4AC04601B9
:1041E000D7FE02C0812C912CC60188199909F301D0
:1041F000E80FF91FFE87ED87960124193109388BE6
:104200002F87012F10E01195019511093FEF8316BB
:10421000930621F4B7018EE290E0C2D3C814D9040A
:104220004CF08F8598898815990524F4ED85FE85D5
:10423000818101C080E3F1E08F1A91082D853E85D0
:104240002F5F3F4F3E872D878016910624F0B701E0
:1042500090E0A6D3DBCFC814D90441F49A819633F9
:1042600020F4953319F43C8534FF81E3B70190E0E5
:1042700048C08A81813319F09C859F7E9C87B70155
:1042800090E08ED3111105C094FC16C085E690E035
:1042900015C0B7018EE290E083D31E5F82E001E09B
:1042A000080FF301E80FF11D8081B70190E078D38A
:1042B000802F0113F4CFE8CF85E490E0B70170D3ED
:1042C000D7FC06C0C114D10441F4EC85E4FF05C05D
:1042D000D194C194D1088DE201C08BE2B70190E086
:1042E0005FD380E32AE0C216D1042CF08F5FFAE09E
:1042F000CF1AD108F7CFB70190E052D3B701C6016A
:10430000C0964ED349C1833631F0833779F0833577
:1043100009F052C01FC0560132E0A30EB11CF601D5
:104320008081898301E010E0630111C05601F2E051
:10433000AF0EB11CF601C080D18096FE03C0612F84
:1043400070E002C06FEF7FEFC60102D38C01F92D40
:10435000FF7713C0560122E0A20EB11CF601C08007
:10436000D18096FE03C0612F70E002C06FEF7FEF37
:10437000C601E3D28C01F92DF0689F2EF3FD18C021
:10438000852D90E00817190798F4B70180E290E0B6
:1043900007D35A94F5CFF60197FC859197FE81914A
:1043A0006F01B70190E0FCD251105A9401501109ED
:1043B0000115110581F7F0C0843611F0893659F5E1
:1043C000560197FE09C024E0A20EB11CF6016081DF
:1043D0007181828193810AC0F2E0AF0EB11CF601B7
:1043E00060817181072E000C880B990BF92DFF76E7
:1043F0009F2E97FF09C090958095709561957F4F8E
:104400008F4F9F4FF0689F2E2AE030E0A30132D3F8
:10441000C82EC6183EC0092D853721F40F7E2AE02C
:1044200030E01DC0097F8F3691F018F4883559F0BF
:10443000BCC0803719F0883711F0B7C0006104FFA5
:1044400009C0046007C094FE08C0066006C028E0EA
:1044500030E005C020E130E002C020E132E056014A
:1044600007FF09C084E0A80EB11CF60160817181CC
:104470008281938108C0F2E0AF0EB11CF601608129
:10448000718180E090E0A301F5D2C82EC6180F77A5
:10449000902E96FE0BC0092D0E7FC11650F494FE8F
:1044A0000AC092FC08C0092D0E7E05C0DC2C092D27
:1044B00003C0DC2C01C0D12E04FF0DC0FE01EC0DA9
:1044C000F11D8081803311F4097E09C002FF06C00E
:1044D000D394D39404C0802F867809F0D39403FD3D
:1044E00010C000FF06C01C2DD51478F4150D1D1941
:1044F0000CC0D51450F4B70180E290E051D2D394AF
:10450000F8CFD51410F45D1801C0512C04FF0FC072
:10451000B70180E390E044D202FF16C001FD03C062
:1045200088E790E002C088E590E0B7010CC0802FDA
:10453000867851F001FF02C08BE201C080E207FDE6
:104540008DE2B70190E02CD2C11630F4B70180E3C0
:1045500090E026D21150F8CFCA94F301EC0DF11D72
:104560008081B70190E01CD2C110F6CF15C0F4E0F5
:10457000F51550F584E0581A93FE1EC0011125C0B0
:104580002C8523FF27C002EE11E0392D3071932EC8
:10459000F8018491811121C0552009F4FCCCB701A8
:1045A00080E290E0FDD15A94F7CFF70186819781A0
:1045B00023C08FEF9FEF20C0B70180E290E0F0D1E1
:1045C0005A945110F9CFDACF512CB701802F90E0D7
:1045D000E7D1D6CF06EE11E0D8CF91108052B701C7
:1045E00090E0DED10F5F1F4FD3CF23E0251510F4ED
:1045F00083E0C1CF512CC4CF60960FB6F894DEBFD4
:104600000FBECDBFDF91CF911F910F91FF90EF9023
:10461000DF90CF90BF90AF909F908F907F906F90E2
:104620005F904F903F902F90089597FB072E16F4C0
:10463000009406D077FD08D02FD007FC05D03EF4BB
:10464000909581959F4F0895709561957F4F08953E
:10465000052E97FB16F400940FD057FD05D030D0EF
:1046600007FC02D046F408C050954095309521953E
:104670003F4F4F4F5F4F089590958095709561958E
:104680007F4F8F4F9F4F0895EE0FFF1F881F8BBFE7
:104690000790F691E02D1994AA1BBB1B51E107C0AE
:1046A000AA1FBB1FA617B70710F0A61BB70B881FC2
:1046B000991F5A95A9F780959095BC01CD01089551
:1046C000A1E21A2EAA1BBB1BFD010DC0AA1FBB1F16
:1046D000EE1FFF1FA217B307E407F50720F0A21B88
:1046E000B30BE40BF50B661F771F881F991F1A94F5
:1046F00069F760957095809590959B01AC01BD011F
:10470000CF010895FC0188279927E8942191203250
:10471000E9F3293010F02E30C8F32B3239F02D3266
:1047200031F4689403C034D1820F911D219120533C
:104730002A30C8F31EF4909581959F4F08951F93DA
:10474000FC0199278827BC01E89411911032E9F304
:10475000193010F01E30C8F31B3249F01D3241F4FD
:10476000689405C000D1610F711D811D911D1191CB
:1047700010531A30B8F33EF490958095709561957A
:104780007F4F8F4F9F4F1F910895283008F027E0EB
:104790003327DA01990F311D87FD9160009661057D
:1047A000710539F432602E5F3D9330E32A95E1F7CD
:1047B00008959F3F30F080387105610509F03C5F36
:1047C0003C5F3D93913008F08068911DDF93CF935B
:1047D0001F930F93FF92EF92192F987F9695E92FD1
:1047E00096959695E90FFF27EC5BFD4F99273327A8
:1047F000EE24FF24A701E70105900894079428F40C
:10480000360FE71EF81E491F511D660F771F881FC0
:10481000991F0694A1F70590079428F4E70EF81E57
:10482000491F561FC11D770F881F991F661F0694C9
:10483000A1F70590079428F4F80E491F561FC71FCB
:10484000D11D880F991F661F771F0694A1F7059049
:10485000079420F4490F561FC71FD81F990F661FD2
:10486000771F881F0694A9F784911095177041F05F
:10487000D695C79557954795F794E7941A95C1F73C
:10488000EAEEF1E068941590159135916591959156
:1048900005907FE27395E118F10A430B560BC90BA3
:1048A000D009C0F7E10CF11E431F561FC91FD01DD0
:1048B0007EF4703311F48A95E6CFE894015030F01D
:1048C000080F0AF40027021708F4202F2395022F5F
:1048D0007A3328F079E37D932A95E9F710C07D9328
:1048E0002A9589F6069497956795379517951794A5
:1048F000E118F10A430B560BC90BD00998F0239528
:104900007E9173957A3308F070E37C932013B8F7A7
:104910007E9170617D9330F0839571E37D9370E3B8
:104920002A95E1F71124EF90FF900F911F91CF91FD
:10493000DF91992787FD90950895FC0105906150BE
:1049400070400110D8F7809590958E0F9F1F0895A5
:10495000FC016150704001900110D8F7809590954E
:104960008E0F9F1F0895592F482F372F262F660F20
:10497000771F881F991F660F771F881F991F620F67
:10498000731F841F951F660F771F881F991F089537
:104990007AE0979F902D879F802D910D1124089587
:1049A0000F931F93CF93DF93FB01238121FD03C05E
:1049B0008FEF9FEF2CC022FF16C0468157812481C4
:1049C00035814217530744F4A081B1819D012F5FC7
:1049D0003F4F318320838C93268137812F5F3F4F58
:1049E0003783268314C08B01EC01FB010084F18521
:1049F000E02D1995892BE1F6D80116968D919C91A1
:104A00001797019617969C938E931697CE01DF9178
:104A1000CF911F910F9108950F931F93CF93DF9321
:104A2000CDB7DEB72E970FB6F894DEBF0FBECDBF61
:104A30000E891F8986E08C831A8309838FEF9FE795
:104A40009E838D83AE01465E5F4F688D798DCE016A
:104A5000019662DAEF81F885E00FF11F10822E9641
:104A60000FB6F894DEBF0FBECDBFDF91CF911F917F
:104A70000F910895FA01AA27283051F1203181F1D0
:104A8000E8946F936E7F6E5F7F4F8F4F9F4FAF4F56
:104A9000B1E03ED0B4E03CD0670F781F891F9A1F69
:104AA000A11D680F791F8A1F911DA11D6A0F711D1D
:104AB000811D911DA11D20D009F468943F912AE029
:104AC000269F11243019305D3193DEF6CF01089511
:104AD000462F4770405D4193B3E00FD0C9F7F6CF42
:104AE000462F4F70405D4A3318F0495D31FD40520A
:104AF000419302D0A9F7EACFB4E0A69597958795A0
:104B000077956795BA95C9F700976105710508957E
:104B10009B01AC010A2E069457954795379527952A
:104B2000BA95C9F7620F731F841F951FA01D0895C2
:044B3000F894FFCF27
:104B340001FF7F0080FF7F0080FF7F00800514005D
:104B4400013132333401030003706C75696500452B
:104B54006E7465722050617373776F72643A0049A2
:104B64006E76616C69642070617373776F72640030
:104B74004D6F6465204D616E75656C20203C2D0081
:104B84004D6F6465204D616E75656C20004D6F64DA
:104B9400652050726F67202020004D6F64652041AE
:104BA40075746F202020005365742074696D65202E
:104BB400202020005365742070617373776F7264D2
:104BC40000433B61636B3B00533B252E32663B2520
:104BD400643B25643B25643B25663B25663B256495
:104BE4003B002566202564202566005365742074E7
:104BF400696D6520204F4B003025643A30256400F0
:104C04003025643A256400536574207061737377AA
:084C14006F7264204F4B000099
:00000001FF
