S02B000041647269616E5F436174756E65616E755F4C61626F7261746F697265315F436F6D6D756E696361740F
S113000071C000008EC000008CC000008AC00000D7
S113001088C0000086C0000084C0000082C00000C8
S113002080C000007EC000007CC000007AC00000D8
S113003078C0000076C0000074C0000072C00000E8
S113004070C000006EC000006CC000006AC00000F8
S113005068C00000ABC1000064C0000062C00000C2
S113006060C000005EC000005CC000005AC0000018
S113007058C0000056C0000054C0000052C0000028
S113008050C000004EC000004CC000004AC0000038
S11300904CC2000015C2000044C0000042C0000071
S11300A040C000003EC000003CC000003AC0000058
S11300B038C0000036C0000034C0000032C0000068
S11300C030C000002EC000002CC000002AC0000078
S11300D028C0000026C0000024C0000022C0000088
S11300E020C0000011241FBECFEFD1E2DEBFCDBF80
S11300F000E00CBF12E0A0E0B2E0EAEBF9E000E0BF
S11301000BBF02C007900D92A230B107D9F723E0CC
S1130110A2E0B2E001C01D92AA34B207E1F7CFD049
S11301204AC46ECF662331F0E2E0F1E09081906141
S1130130908305C0E2E0F1E090819F7E9083E2E04D
S1130140F1E090819860908380FF04C09EB1986034
S11301509EB903C09EB1977F9EB981FF04C094B33A
S1130160906294BB03C094B39F7D94BB82FF04C090
S11301709EB190629EB903C09EB19F7D9EB983FFDC
S113018004C08EB180618EB903C08EB18F7E8EB9EA
S113019085E08A95F1F70000E2E0F1E08081877F55
S11301A0808385E08A95F1F700000895CF93DF936B
S11301B0C82FD62F82958F70B5DF6D2F8C2FB2DFAD
S11301C085ED8A95F1F70000DF91CF910895E1E084
S11301D0F1E08081806180838081886080838DB13B
S11301E088608DB983B3806283BB8DB180628DB921
S11301F08DB180618DB92FEF89EF90E0215080405F
S11302009040E1F700C0000060E083E08BDF8FE105
S11302109EE40197F1F700C0000060E083E082DF14
S11302208FE99FE00197F1F700C0000060E083E0F0
S113023079DF8FE99FE00197F1F700C0000060E0EB
S113024082E070DF8FE99FE00197F1F700C00000C2
S113025060E088E2ABDF60E088E0A8DF60E081E096
S1130260A5DF8FE39FE10197F1F700C0000060E094
S113027086E09CDF60E08FE099CF089561E096CF3F
S113028008950F931F93CF938C01C0E002C0F6DF53
S1130290CF5FF801EC0FF11D8081882311F0CF3F6F
S11302A0B1F7CF911F910F910895611102C090E8A9
S11302B001C090EC8F7060E0892B78CF089584B1F1
S11302C0806884B984DF20E034E244EF50E060E0E9
S11302D072EC81E090E097D085B5836085BD84B5EC
S11302E0826084BDEEE6F0E080818260808389EFE5
S11302F087BD789480910002813061F485B18823B0
S113030021F085B18F7785B903C085B1806885B93F
S113031010920002B2D0882369F3B2D090E0909397
S1130320350280933402853B910599F440E166E3FC
S113033072E018D3A6DF60E080910202B6DF8091FC
S113034002029091030202969093030280930202A8
S1130350D1CF8236910599F440E166E372E002D38D
S113036090DF60E080910202A0DF80910202909110
S1130370030202969093030280930202BBCF813062
S1130380910509F0B7CF40E166E372E0EBD279DF83
S113039060E08091020289DF809102029091030261
S11303A002969093030280930202A4CF1F920F92AD
S11303B00FB60F9211242F938F939F938091040271
S11303C09091050201969093050280930402809116
S11303D0040290910502893E934068F480910402DE
S11303E090910502885E93409093050280930402E5
S11303F081E0809300029F918F912F910F900FBE07
S11304000F901F9018958F929F92AF92BF92CF92A8
S1130410DF92EF92FF92CF93DF9349015A01C9EC27
S1130420D0E028E1288326E22093CA00AAD120E064
S113043030E040E851E433D26B017C01C501B401E2
S1130440A0D1A701960109D120E030E040E05FE3AC
S11304509FD06BD17093CD006093CC00888180686D
S113046088837894DF91CF91FF90EF90DF90CF90C5
S1130470BF90AF909F908F90089580910802089547
S1130480809108028823C9F0E091090281E08E0F6F
S113049080930902F0E0E65BFD4F808180930602C1
S11304A0F894809108028150809308027894809196
S11304B00902882314F41092090280910602089517
S11304C01F920F920FB60F9211240BB60F928F93B7
S11304D0EF93FF9380910702811106C0E9ECF0E0ED
S11304E080818F7D808317C0E0910A0281E08E0FA6
S11304F080930A02F0E0E653FD4F80818093CE00A2
S11305008091070281508093070280910A02882318
S113051014F410920A02FF91EF918F910F900BBE89
S11305200F900FBE0F901F9018951F920F920FB649
S11305300F9211240BB60F928F939F93EF93FF9317
S11305408091CE0080934902809108028823ACF008
S1130550E0910B0291E09E0F90930B02F0E09091DA
S11305604902E65BFD4F90838F5F80930802809180
S11305700B02882314F410920B02FF91EF919F91C8
S11305808F910F900BBE0F900FBE0F901F90189578
S11305905058BB27AA270ED048C139D130F03ED1DC
S11305A020F031F49F3F11F41EF42EC10EF4E095B7
S11305B0E7FB24C1E92F4AD180F3BA176207730716
S11305C08407950718F071F49EF562C10EF4E09566
S11305D00B2EBA2FA02D0B01B90190010C01CA01F9
S11305E0A0011124FF27591B99F0593F50F4503EA4
S11305F068F11A16F040A22F232F342F4427585F96
S1130600F3CF469537952795A795F0405395C9F7AD
S11306107EF41F16BA0B620B730B840BBAF0915065
S1130620A1F0FF0FBB1F661F771F881FC2F70EC004
S1130630BA0F621F731F841F48F4879577956795D7
S1130640B795F7959E3F08F0B3CF9395880F08F0C0
S11306509927EE0F9795879508950CD0E6C0DED0C4
S113066040F0D5D030F021F45F3F19F0C7C05111EC
S113067010C1CAC0EBD098F39923C9F35523B1F341
S1130680951B550BBB27AA2762177307840738F0FD
S11306909F5F5F4F220F331F441FAA1FA9F333D05C
S11306A00E2E3AF0E0E830D091505040E695001C10
S11306B0CAF729D0FE2F27D0660F771F881FBB1FCC
S11306C0261737074807AB07B0E809F0BB0B802DA6
S11306D0BF01FF2793585F4F2AF09E3F510568F0F2
S11306E08DC0D7C05F3FECF3983EDCF386957795D9
S11306F06795B795F7959F5FC9F7880F911D9695F4
S1130700879597F90895E1E0660F771F881FBB1F4F
S1130710621773078407BA0720F0621B730B840BFC
S1130720BA0BEE1F88F7E095089598D088F09F578C
S113073090F0B92F9927B751A0F0D1F0660F771F29
S1130740881F991F1AF0BA95C9F712C0B13081F009
S11307509FD0B1E008959CC0672F782F8827B85F99
S113076039F0B93FCCF3869577956795B395D9F76A
S11307703EF490958095709561957F4F8F4F9F4F74
S11307800895E89409C097FB3EF490958095709580
S113079061957F4F8F4F9F4F9923A9F0F92F96E9C9
S11307A0BB279395F695879577956795B795F1113E
S11307B0F8CFFAF4BB0F11F460FF1BC06F5F7F4FDB
S11307C08F4F9F4F16C0882311F096E911C07723ED
S11307D021F09EE8872F762F05C0662371F096E8F6
S11307E0862F70E060E02AF09A95660F771F881FC5
S11307F0DAF7880F9695879597F9089597F99F6783
S113080080E870E060E008959FEF80EC0895002494
S11308100A941616170618060906089500240A9461
S113082012161306140605060895092E0394000CE7
S113083011F4882352F0BB0F40F4BF2B11F460FF76
S113084004C06F5F7F4F8F4F9F4F089557FD90589F
S1130850440F551F59F05F3F71F04795880F97FB80
S1130860991F61F09F3F79F087950895121613063A
S11308701406551FF2CF4695F1DF08C01616170669
S11308801806991FF1CF869571056105089408959E
S1130890E894BB2766277727CB0197F908950BD0F7
S11308A0C4CFB5DF28F0BADF18F0952309F0A6CF3E
S11308B0ABCF1124EECFCADFA0F3959FD1F3950FF0
S11308C050E0551F629FF001729FBB27F00DB11DD0
S11308D0639FAA27F00DB11DAA1F649F6627B00D60
S11308E0A11D661F829F2227B00DA11D621F739F49
S11308F0B00DA11D621F839FA00D611D221F749F57
S11309003327A00D611D231F849F600D211D822F9D
S1130910762F6A2F11249F5750408AF0E1F08823E4
S11309204AF0EE0FFF1FBB1F661F771F881F9150F1
S11309305040A9F79E3F510570F060CFAACF5F3FAA
S1130940ECF3983EDCF3869577956795B795F79524
S1130950E7959F5FC1F7FE2B880F911D96958795AC
S113096097F90895BB27FB015527AA27880F991FDC
S1130970AA1FA41710F0A41B83955051B9F7A05DCA
S1130980AA3308F0A95DA193009779F7B111B19347
S11309901192CB0100C0DC01FC01672F7191772318
S11309A0E1F7329704C07C916D9370836291AE1726
S10D09B0BF07C8F30895F894FFCFC1
S10509BA010036
S9030000FC
