S02B000041647269616E5F436174756E65616E755F4C61626F7261746F697265315F436F6D6D756E696361740F
S1130000FAC0000018C1000016C1000014C10000AD
S113001012C1000010C100000EC100000CC100009C
S11300200AC1000008C1000006C1000004C10000AC
S113003002C1000000C10000FEC00000FCC00000BE
S1130040FAC00000F8C00000F6C00000F4C00000D0
S1130050F2C0000009C30000EEC00000ECC00000C4
S1130060EAC00000E8C00000E6C00000E4C00000F0
S1130070E2C00000E0C00000DEC00000DCC0000000
S1130080DAC00000D8C00000D6C00000D4C0000010
S1130090EAC30000B3C30000CEC00000CCC000001F
S11300A0CAC00000C8C00000C6C00000C4C0000030
S11300B0C2C00000C0C00000BEC00000BCC0000040
S11300C0BAC00000B8C00000B6C00000B4C0000050
S11300D0B2C00000B0C00000AEC00000ACC0000060
S11300E0AAC00000740487049A04AD04C004D304B5
S11300F0E60411056E616E00696E660000407A10B8
S1130100F35A00A0724E18090010A5D4E80000E8C4
S11301107648170000E40B54020000CA9A3B000022
S113012000E1F505000080969800000040420F00B1
S11301300000A08601000000102700000000E80372
S1130140000000006400000000000A00000000003D
S11301500100000000002C76D888DC674F0823DFFC
S1130160C1DFAE59E1B1B796E5E3E453C63AE651CF
S1130170997696E8E6C28426EB898C9B62ED407CF6
S11301806FFCEFBC9C9F40F2BAA56FA5F490055A92
S11301902AF75C936B6CF9676DC11BFCE0E40D47B7
S11301A0FEF520E6B500D0ED902E030094357705DA
S11301B00080841E080000204E0A000000C80C3392
S11301C03333330F986E12831141EF8D2114893B21
S11301D0E65516CFFEE6DB18D1844B381BF77C1DA1
S11301E0901DA4BBE424203284725E228100C9F1F4
S11301F024ECA1E53D2711241FBECFEFD1E2DEBFE1
S1130200CDBF00E00CBF12E0A0E0B2E0E8EAF9E103
S113021000E00BBF02C007900D92A231B107D9F7DD
S113022024E0A2E1B2E001C01D92AD33B207E1F7D0
S11302308DD10C94D20CE4CE662321F092B191605E
S113024092B903C092B19E7F92B992B1926092B971
S113025080FF04C09EB198609EB903C09EB1977F91
S11302609EB981FF04C094B3906294BB03C094B35D
S11302709F7D94BB82FF04C09EB190629EB903C06F
S11302809EB19F7D9EB983FF04C08EB180618EB9FB
S113029003C08EB18F7E8EB985E08A95F1F7000098
S11302A082B18D7F82B985E08A95F1F700000895C7
S11302B0CF93DF93C82FD62F82958F70BDDF6D2F1C
S11302C08C2FBADF85ED8A95F1F70000DF91CF918D
S11302D0089581B1816081B981B1826081B98DB1A4
S11302E088608DB983B3806283BB8DB180628DB920
S11302F08DB180618DB92FEF89EF90E0215080405E
S11303009040E1F700C0000060E083E095DF8FE1FA
S11303109EE40197F1F700C0000060E083E08CDF09
S11303208FE99FE00197F1F700C0000060E083E0EF
S113033083DF8FE99FE00197F1F700C0000060E0E0
S113034082E07ADF8FE99FE00197F1F700C00000B7
S113035060E088E2ADDF60E088E0AADF60E081E091
S1130360A7DF8FE39FE10197F1F700C0000060E091
S113037086E09EDF60E08FE09BCF089561E098CF38
S113038008950F931F93CF938C01C0E002C0F6DF52
S1130390CF5FF801EC0FF11D8081882311F0CF3F6E
S11303A0B1F7CF911F910F910895611102C090E8A8
S11303B001C090EC8F7060E0892B7ACF089560E0E3
S11303C081E076DF8FE39FE10197F1F700C0000041
S11303D00895DC016A5F92E030E020E007C0FD018F
S11303E0E90FF11D4081240F320F9F5F9617B8F378
S11303F0832F90E0982F8827822B0895CF93DF9343
S1130400CDB7DEB76C970FB6F894DEBF0FBECDBF85
S113041095EB998392E69A8396E09B831C8294E100
S11304209D831E8291E09F83188619861A8620ED8B
S11304302B8728E02C871D861E866F87788B898BF7
S11304401A8A9B8B1C8A9D8B1E8A1F8A188E198E72
S11304501A8E1B8E1C8E64E1CE010196BADF8B8F3F
S11304609C8F6CE1CE010196ADD16C960FB6F894D9
S1130470DEBF0FBECDBFDF91CF910895CF93DF9341
S1130480CDB7DEB72E970FB6F894DEBF0FBECDBF43
S1130490682F70E088EE93E00E94ED0A85EB898373
S11304A082E68A8386E08B8398E09C838D831E8218
S11304B06F83788781E089871A868B871C861D86DF
S11304C01E8666E0CE01019684DF8D879E876EE0EE
S11304D0CE01019677D12E960FB6F894DEBF0FBEEB
S11304E0CDBFDF91CF910895CF93DF93CDB7DEB722
S11304F060970FB6F894DEBF0FBECDBF95EB99831E
S113050092E69A8396E09B8391E09C8328E02D8376
S11305101E829F83888719866A871B864C871D865F
S11305201E861F86188A68E0CE01019652DF8F87E7
S1130530988B60E1CE01019645D160960FB6F89490
S1130540DEBF0FBECDBFDF91CF91089584B1806827
S113055084B9BFDE20E034E244EF50E060E875E2A5
S113056080E090E0D2D082E092E00BDF85B583603A
S113057085BD84B5826084BDEEE6F0E08081826052
S1130580808389EF87BD789460E875E280E090E02D
S113059035DF81E073DF40E061E087E0A5DFEFD085
S11305A0882309F459C0EED0809331028FD1882377
S11305B009F452C085B1805885B901DF7BD26093BC
S11305C0120270931302809314029093150252D274
S11305D06093160270931702809318029093190285
S11305E025E93FEB46ED53E30CD49F938F937F9320
S11305F06F930EE012E01F930F93C3E3D2E0DF93F7
S1130600CF930E94460C60E080E0CFDECE01B9DEDD
S113061025E93FEB46ED53E360911202709113021A
S11306208091140290911502ECD39F938F937F9342
S11306306F931F930F93DF93CF930E94460C61E057
S113064080E0B3DECE019DDE8DB79EB740960FB637
S1130650F8949EBF0FBE8DBF80910002813009F0D7
S11306609ECF109200029BCF1F920F920FB60F9253
S113067011242F938F939F9380911A0290911B02C0
S1130680019690931B0280931A0280911A02909112
S11306901B02893E934068F480911A0290911B02D8
S11306A0885E934090931B0280931A0281E08093AA
S11306B000029F918F912F910F900FBE0F901F906A
S11306C0189590911D029923F4F0E091220291E093
S11306D09E0F90932202F0E0EF50FD4F8083F89438
S11306E080911D028F5F80931D0278948091220275
S11306F0882314F410922202E9ECF0E080818062F5
S1130700808380E0089581E008958F929F92AF9254
S1130710BF92CF92DF92EF92FF92CF93DF93490182
S11307205A01C9ECD0E028E1288326E02093CA00CE
S1130730DAD220E030E040E851E463D36B017C017D
S1130740C501B401D0D2A701960139D220E030E02E
S113075040E05FE3CFD19BD27093CD006093CC0097
S11307608881806888837894DF91CF91FF90EF909F
S1130770DF90CF90BF90AF909F908F90089580911D
S11307801E02089580911E028823C9F0E0911F0281
S113079081E08E0F80931F02F0E0EF58FD4F8081BF
S11307A080931C02F89480911E02815080931E0253
S11307B0789480911F02882314F410921F02809170
S11307C01C020895EF92FF921F93CF93DF937C0155
S11307D0162FC0E0D0E009C0F701EC0FF11D8081B5
S11307E070DF811101C0DF5FCF5FC117A8F38D2FC8
S11307F0DF91CF911F91FF90EF9008951F920F9278
S11308000FB60F9211240BB60F928F93EF93FF93B1
S113081080911D02811106C0E9ECF0E080818F7D9A
S1130820808317C0E091200281E08E0F8093200224
S1130830F0E0EF50FD4F80818093CE0080911D0247
S1130840815080931D0280912002882314F4109219
S11308502002FF91EF918F910F900BBE0F900FBE6E
S11308600F901F9018951F920F920FB60F9211249C
S11308700BB60F928F939F93EF93FF938091CE00CB
S11308808093700280911E028823ACF0E0912102D3
S113089091E09E0F90932102F0E090917002EF5846
S11308A0FD4F90838F5F80931E02809121028823E5
S11308B014F410922102FF91EF919F918F910F9068
S11308C00BBE0F900FBE0F901F901895282F80918C
S11308D0300290E08830910508F0C9C0FC018827F7
S11308E0EE58FF4F8F4F8CC6253B09F0C0C01092C5
S11308F02D0210922C0210922E0210922B0281E0F3
S113090080932F022093D90380933002B0C0223603
S113091071F4E0912F0281E08E0F80932F02F0E0BA
S1130920E752FC4F208382E080933002A0C01092F3
S113093030029DC0213071F4E0912F0281E08E0FCE
S113094080932F02F0E0E752FC4F208383E08093F2
S113095030028DC0109230028AC0273071F4E091C9
S11309602F0281E08E0F80932F02F0E0E752FC4FBC
S1130970208384E0809330027AC01092300277C0E2
S11309802C3571F4E0912F0281E08E0F80932F02B9
S1130990F0E0E752FC4F208385E08093300267C08B
S11309A01092300264C021110EC0E0912F0281E048
S11309B08E0F80932F02F0E0E752FC4F208386E0F5
S11309C08093300254C01092300251C090912E0294
S11309D080910102981758F4E0912F0281E08E0F64
S11309E080932F02F0E0E752FC4F208303C087E09E
S11309F08093300280912E028F5F80932E0237C045
S1130A00E92FF0E0E752FC4F208180912D02820F04
S1130A1080932D0220912C02820F80932C029F5FE1
S1130A2001C092E0923660F31092300290913B0440
S1130A3080912D02981319C090913C0480912C024E
S1130A40981313C081E080932B0220E00BC0822F07
S1130A5090E0FC01E752FC4F3081FC01EB58FC4F65
S1130A6030832F5F243698F302C010922B028091BA
S1130A702B020895A5E7B3E092968C919297E1E753
S1130A80F3E0808393968C919397818394968C91D1
S1130A909497828395968C918383608171818281FE
S1130AA09381609323027093240280932502909390
S1130AB026020895A5E7B3E05E968C915E97EDE576
S1130AC0F2E080835F968C915F97818390968C91FE
S1130AD09097828391968C918383608171818281C6
S1130AE09381609327027093280280932902909344
S1130AF02A0208955058BB27AA270ED048C139D1DD
S1130B0030F03ED120F031F49F3F11F41EF42EC199
S1130B100EF4E095E7FB24C1E92F4AD180F3BA171C
S1130B20620773078407950718F071F49EF562C194
S1130B300EF4E0950B2EBA2FA02D0B01B9019001F4
S1130B400C01CA01A0011124FF27591B99F0593F38
S1130B5050F4503E68F11A16F040A22F232F342F80
S1130B604427585FF3CF469537952795A795F040CE
S1130B705395C9F77EF41F16BA0B620B730B840BE3
S1130B80BAF09150A1F0FF0FBB1F661F771F881F9B
S1130B90C2F70EC0BA0F621F731F841F48F48795F3
S1130BA077956795B795F7959E3F08F0B3CF9395E2
S1130BB0880F08F09927EE0F9795879508950CD024
S1130BC0E6C0DED040F0D5D030F021F45F3F19F01C
S1130BD0C7C0511110C1CAC0EBD098F39923C9F30F
S1130BE05523B1F3951B550BBB27AA27621773072F
S1130BF0840738F09F5F5F4F220F331F441FAA1FE3
S1130C00A9F333D00E2E3AF0E0E830D091505040A2
S1130C10E695001CCAF729D0FE2F27D0660F771F50
S1130C20881FBB1F261737074807AB07B0E809F032
S1130C30BB0B802DBF01FF2793585F4F2AF09E3FC7
S1130C40510568F08DC0D7C05F3FECF3983EDCF3EC
S1130C50869577956795B795F7959F5FC9F7880F40
S1130C60911D9695879597F90895E1E0660F771F92
S1130C70881FBB1F621773078407BA0720F0621B23
S1130C80730B840BBA0BEE1F88F7E095089598D088
S1130C9088F09F5790F0B92F9927B751A0F0D1F061
S1130CA0660F771F881F991F1AF0BA95C9F712C0EB
S1130CB0B13081F09FD0B1E008959CC0672F782FA8
S1130CC08827B85F39F0B93FCCF386957795679557
S1130CD0B395D9F73EF490958095709561957F4FC3
S1130CE08F4F9F4F0895E89409C097FB3EF4909569
S1130CF08095709561957F4F8F4F9F4F9923A9F0F1
S1130D00F92F96E9BB279395F6958795779567957F
S1130D10B795F111F8CFFAF4BB0F11F460FF1BC0C3
S1130D206F5F7F4F8F4F9F4F16C0882311F096E956
S1130D3011C0772321F09EE8872F762F05C0662304
S1130D4071F096E8862F70E060E02AF09A95660FBD
S1130D50771F881FDAF7880F9695879597F9089576
S1130D6097F99F6780E870E060E008959FEF80EC5A
S1130D70089500240A9416161706180609060895FD
S1130D8000240A9412161306140605060895092E63
S1130D900394000C11F4882352F0BB0F40F4BF2BD2
S1130DA011F460FF04C06F5F7F4F8F4F9F4F089512
S1130DB057FD9058440F551F59F05F3F71F0479508
S1130DC0880F97FB991F61F09F3F79F087950895ED
S1130DD0121613061406551FF2CF4695F1DF08C00C
S1130DE0161617061806991FF1CF86957105610529
S1130DF008940895E894BB2766277727CB0197F9D1
S1130E0008950BD0C4CFB5DF28F0BADF18F09523CE
S1130E1009F0A6CFABCF1124EECFCADFA0F3959F84
S1130E20D1F3950F50E0551F629FF001729FBB27CD
S1130E30F00DB11D639FAA27F00DB11DAA1F649F79
S1130E406627B00DA11D661F829F2227B00DA11D2C
S1130E50621F739FB00DA11D621F839FA00D611DB2
S1130E60221F749F3327A00D611D231F849F600DD3
S1130E70211D822F762F6A2F11249F5750408AF00C
S1130E80E1F088234AF0EE0FFF1FBB1F661F771F98
S1130E90881F91505040A9F79E3F510570F060CFD4
S1130EA0AACF5F3FECF3983EDCF386957795679580
S1130EB0B795F795E7959F5FC1F7FE2B880F911DB6
S1130EC09695879597F908952F923F924F925F9246
S1130ED06F927F928F929F92AF92BF92CF92DF9246
S1130EE0EF92FF920F931F93CF93DF93CDB7DEB7AB
S1130EF060970FB6F894DEBF0FBECDBF7C011B0117
S1130F006A01FC0117821682838181FF2AC39E0134
S1130F102F5F3F4F3901F7019381F10193FD8591D3
S1130F2093FF81911F01882309F417C3853239F493
S1130F3093FD859193FF81911F01853231F4B701AF
S1130F4090E068D456016501E6CF10E0512C912C55
S1130F50FFE1F915D8F08B3279F038F4803279F06A
S1130F608332A1F4F92DF0612EC08D3261F080330B
S1130F7069F4292D21602DC0392D3260932E892DDD
S1130F808460982E2AC0E92DE86015C097FC2DC016
S1130F9020ED280F2A3088F496FE06C03AE0139F0D
S1130FA0200D1124122F19C08AE0589E200D1124FF
S1130FB0522EE92DE0629E2E10C08E3231F496FC42
S1130FC0CCC2F92DF0649F2E08C08C3621F4292D53
S1130FD02068922E02C0883641F4F10193FD859178
S1130FE093FF81911F018111B3CF9BEB980F933035
S1130FF020F4992D9061805E07C09BE9980F93308F
S113100008F059C1992D9F7E96FF16E09F73992E83
S1131010853619F49064992E08C0863621F4392F48
S11310203068932E02C01111115097FE07C01C3373
S113103050F444244394410E27E00BC0183038F098
S113104027E017E005C027E09CE3492E02C0212FCA
S1131050412C560184E0A80EB11CF6016081718117
S113106082819381042DA301E7D26C01F981FC876D
S1131070F0FF02C0F3FF06C091FC06C092FE06C05A
S113108000E205C00DE203C00BE201C000E08C8564
S11310908C7019F0011143C280C297FE10C04C0C31
S11310A0FC85F4FF04C08A81813309F44A94141442
S11310B074F528E0241578F588E0482E2CC096FCB9
S11310C02AC0812F90E08C159D059CF03CEFC3163F
S11310D03FEFD30674F0892D8068982E0AC0E2E0B1
S11310E0F0E0EC0FFD1FE10FF11D8081803319F456
S11310F011501111F4CF97FE0EC044244394410EB5
S1131100812F90E0C816D9062CF41C1904C044247D
S1131110439401C010E097FE06C01C141D0434F46F
S1131120C601019605C085E090E002C081E090E030
S113113001110196112331F0212F30E02F5F3F4F31
S1131140820F931F252D30E08217930714F4581A49
S113115001C0512C892D897041F4552031F0B7011B
S113116080E290E057D35A94F8CF002321F0B701DE
S1131170802F90E04FD393FC08C0552031F0B70185
S113118080E390E047D35A94F8CF97FE4AC04601D3
S1131190D7FE02C0812C912CC60188199909F3014C
S11311A0E80FF91FFE87ED87960124193109388B62
S11311B02F87012F10E01195019511093FEF831638
S11311C0930621F4B7018EE290E024D3C814D90425
S11311D04CF08F8598898815990524F4ED85FE8552
S11311E0818101C080E3F1E08F1A91082D853E854D
S11311F02F5F3F4F3E872D878016910624F0B7015D
S113120090E008D3DBCFC814D90441F49A81963313
S113121020F4953319F43C8534FF81E3B70190E061
S113122048C08A81813319F09C859F7E9C87B701D1
S113123090E0F0D2111105C094FC16C085E690E050
S113124015C0B7018EE290E0E5D21E5F82E001E0B6
S1131250080FF301E80FF11D8081B70190E0DAD2A5
S1131260802F0113F4CFE8CF85E490E0B701D2D208
S1131270D7FC06C0C114D10441F4EC85E4FF05C0D9
S1131280D194C194D1088DE201C08BE2B70190E002
S1131290C1D280E32AE0C216D1042CF08F5FFAE0B9
S11312A0CF1AD108F7CFB70190E0B4D2B701C60185
S11312B0C096B0D249C1833631F0833779F0833593
S11312C009F052C01FC0560132E0A30EB11CF60152
S11312D08081898301E010E0630111C05601F2E0CE
S11312E0AF0EB11CF601C080D18096FE03C0612F01
S11312F070E002C06FEF7FEFC60181D28C01F92D3F
S1131300FF7713C0560122E0A20EB11CF601C08083
S1131310D18096FE03C0612F70E002C06FEF7FEFB3
S1131320C60162D28C01F92DF0689F2EF3FD18C01E
S1131330852D90E00817190798F4B70180E290E032
S113134069D25A94F5CFF60197FC859197FE819165
S11313506F01B70190E05ED251105A940150110907
S11313600115110581F7F0C0843611F0893659F55D
S1131370560197FE09C024E0A20EB11CF60160815B
S11313807181828193810AC0F2E0AF0EB11CF60133
S113139060817181072E000C880B990BF92DFF7663
S11313A09F2E97FF09C090958095709561957F4F0A
S11313B08F4F9F4FF0689F2E2AE030E0A30194D214
S11313C0C82EC6183EC0092D853721F40F7E2AE0A9
S11313D030E01DC0097F8F3691F018F4883559F03C
S11313E0BCC0803719F0883711F0B7C0006104FF22
S11313F009C0046007C094FE08C0066006C028E067
S113140030E005C020E130E002C020E132E05601C6
S113141007FF09C084E0A80EB11CF6016081718148
S11314208281938108C0F2E0AF0EB11CF6016081A5
S1131430718180E090E0A30157D2C82EC6180F77BF
S1131440902E96FE0BC0092D0E7FC11650F494FE0B
S11314500AC092FC08C0092D0E7E05C0DC2C092DA3
S113146003C0DC2C01C0D12E04FF0DC0FE01EC0D25
S1131470F11D8081803311F4097E09C002FF06C08A
S1131480D394D39404C0802F867809F0D39403FDB9
S113149010C000FF06C01C2DD51478F4150D1D19BD
S11314A00CC0D51450F4B70180E290E0B3D1D394CA
S11314B0F8CFD51410F45D1801C0512C04FF0FC0EF
S11314C0B70180E390E0A6D102FF16C001FD03C07E
S11314D088E790E002C088E590E0B7010CC0802F57
S11314E0867851F001FF02C08BE201C080E207FD63
S11314F08DE2B70190E08ED1C11630F4B70180E3DC
S113150090E088D11150F8CFCA94F301EC0DF11D8D
S11315108081B70190E07ED1C110F6CF15C0F4E010
S1131520F51550F584E0581A93FE1EC0011125C02C
S11315302C8523FF27C004EF10E0392D3071932E42
S1131540F8018491811121C0552009F4FCCCB70124
S113155080E290E05FD15A94F7CFF70186819781BA
S113156023C08FEF9FEF20C0B70180E290E052D1FB
S11315705A945110F9CFDACF512CB701802F90E053
S113158049D1D6CF08EF10E0D8CF91108052B701DF
S113159090E040D10F5F1F4FD3CF23E0251510F407
S11315A083E0C1CF512CC4CF60960FB6F894DEBF50
S11315B00FBECDBFDF91CF911F910F91FF90EF90A0
S11315C0DF90CF90BF90AF909F908F907F906F905F
S11315D05F904F903F902F90089597FB072E16F43D
S11315E0009406D077FD08D013D007FC05D03EF454
S11315F0909581959F4F0895709561957F4F0895BB
S1131600EE0FFF1F881F8BBF0790F691E02D1994F2
S1131610AA1BBB1B51E107C0AA1FBB1FA617B70714
S113162010F0A61BB70B881F991F5A95A9F7809530
S11316309095BC01CD010895283008F027E03327A8
S1131640DA01990F311D87FD9160009661057105DE
S113165039F432602E5F3D9330E32A95E1F7089523
S11316609F3F30F080387105610509F03C5F3C5FB5
S11316703D93913008F08068911DDF93CF931F93C1
S11316800F93FF92EF92192F987F9695E92F9695D5
S11316909695E90FFF27EA5AFE4F99273327EE2440
S11316A0FF24A701E70105900894079428F4360F56
S11316B0E71EF81E491F511D660F771F881F991FCB
S11316C00694A1F70590079428F4E70EF81E491F25
S11316D0561FC11D770F881F991F661F0694A1F717
S11316E00590079428F4F80E491F561FC71FD11DF3
S11316F0880F991F661F771F0694A1F7059007941A
S113170020F4490F561FC71FD81F990F661F771F54
S1131710881F0694A9F784911095177041F0D69507
S1131720C79557954795F794E7941A95C1F7ECEF49
S1131730F0E0689415901591359165919591059017
S11317407FE27395E118F10A430B560BC90BD009DC
S1131750C0F7E10CF11E431F561FC91FD01D7EF4B4
S1131760703311F48A95E6CFE894015030F0080FF5
S11317700AF40027021708F4202F2395022F7A3346
S113178028F079E37D932A95E9F710C07D932A9593
S113179089F6069497956795379517951794E118E8
S11317A0F10A430B560BC90BD00998F023957E918F
S11317B073957A3308F070E37C932013B8F77E9125
S11317C070617D9330F0839571E37D9370E32A9586
S11317D0E1F71124EF90FF900F911F91CF91DF91CA
S11317E0992787FD90950895FC01059061507040FC
S11317F00110D8F7809590958E0F9F1F0895FC01D6
S11318006150704001900110D8F7809590958E0F2B
S11318109F1F08950F931F93CF93DF93FB012381A1
S113182021FD03C08FEF9FEF2CC022FF16C046811D
S11318305781248135814217530744F4A081B18133
S11318409D012F5F3F4F318320838C932681378105
S11318502F5F3F4F3783268314C08B01EC01FB01BC
S11318600084F185E02D1995892BE1F6D8011696AF
S11318708D919C911797019617969C938E9316972A
S1131880CE01DF91CF911F910F9108950F931F9374
S1131890CF93DF93CDB7DEB72E970FB6F894DEBFA4
S11318A00FBECDBF0E891F8986E08C831A830983FE
S11318B08FEF9FE79E838D83AE01465E5F4F688DF9
S11318C0798DCE01019600DBEF81F885E00FF11FE1
S11318D010822E960FB6F894DEBF0FBECDBFDF91F7
S11318E0CF911F910F910895FA01AA27283051F141
S11318F0203181F1E8946F936E7F6E5F7F4F8F4F3D
S11319009F4FAF4FB1E03ED0B4E03CD0670F781F9B
S1131910891F9A1FA11D680F791F8A1F911DA11D80
S11319206A0F711D811D911DA11D20D009F46894B9
S11319303F912AE0269F11243019305D3193DEF661
S1131940CF010895462F4770405D4193B3E00FD017
S1131950C9F7F6CF462F4F70405D4A3318F0495D02
S113196031FD4052419302D0A9F7EACFB4E0A695E5
S11319709795879577956795BA95C9F70097610507
S1131980710508959B01AC010A2E0694579547955D
S113199037952795BA95C9F7620F731F841F951F52
S10B19A0A01D0895F894FFCF87
S11319A8016448656C6C6F20776F726C64002566FF
S10519B8000029
S9030000FC
